:100000000C9455090C9484090C9484090C9484096B
:100010000C9484090C9484090C9484090C9484092C
:100020000C9484090C9484090C94E63B0C94840988
:100030000C9484090C94F4120C9484090C94840993
:100040000C9484090C9484090C9484090C948409FC
:100050000C9484090C9484090C9484090C948409EC
:100060000C9484090C9484090C9484090C948409DC
:100070000C9484090C9484090C9484090C948409CC
:100080000C9484090C9484090C9484090C948409BC
:100090000C946B440C9484091E03540069006D0099
:1000A00065006C0061007000730065002B0020008B
:1000B00043004400430000001C0345006C0069003D
:1000C0006A006100680020005000610072006B004F
:1000D0006500720000000403090409023E000201E9
:1000E00000C03209040000010202010005240010D2
:1000F0000104240206052406000107058203080006
:10010000FF09040100020A000000070504021000B4
:10011000010705830210000112011001020000080E
:10012000EB03442001000102DC0152657472696531
:1001300076696E672044657669636520496E666FEF
:100140002E2E2E0D0A004465766963652041747475
:1001500061636865642E0D0A000D0A446576696363
:100160006520556E61747461636865642E0D0A00C4
:1001700047657474696E6720436F6E6669672044D3
:100180006174612E0D0A00436F6E74726F6C2045AE
:1001900072726F72202847657420436F6E666967BC
:1001A00075726174696F6E292E0D0A00496E766151
:1001B0006C6964204465766963652E0D0A00202D04
:1001C0002D204572726F7220436F64653A2025645A
:1001D0000D0A00436F6E74726F6C204572726F72FD
:1001E000202853657420436F6E6669677572617469
:1001F000696F6E292E0D0A202D2D204572726F72A7
:1002000020436F64653A2025640D0A005374696CBD
:100210006C20496D6167652044657669636520459A
:100220006E756D6572617465642E0D0A00486F739A
:1002300074204D6F6465204572726F720D0A202D17
:100240002D204572726F7220436F64652025640D06
:100250000A0044657620456E756D204572726F7296
:100260000D0A202D2D204572726F7220436F646538
:100270002025640D0A202D2D2053756220457272B1
:100280006F7220436F64652025640D0A202D2D2098
:10029000496E2053746174652025640D0A00546111
:1002A0006B696E6720706963747572652E2E2E0DF2
:1002B0000A004572726F7220380D0A004368616E41
:1002C00067696E672050726F70657274792E2E2E7A
:1002D0000D0A004572726F7220390D0A0045727264
:1002E0006F722031320D0A004572726F7220310D2B
:1002F0000A002020204D616E756661637475726519
:10030000723A2025730D0A002020204D6F64656C21
:100310003A2025730D0A0020202044657669636524
:100320002056657273696F6E3A2025730D0A0D0AA7
:10033000004572726F7220320D0A004F70656E694F
:100340006E672053657373696F6E2E2E2E0D0A0033
:100350004572726F7220340D0A00436C6F73696EC0
:10036000672053657373696F6E2E2E2E0D0A00453C
:1003700072726F7220360D0A00446F6E652E0D0A80
:1003800000436F6D6D616E64204572726F7220283C
:100390002553292E0D0A202D2D204572726F7220B3
:1003A000436F64652025640D0A00526573706F6E9B
:1003B000736520436F646520213D204F4B005472CC
:1003C000616E73616374696F6E204661696C00537E
:1003D000696D706C652054696D6572004DFB040099
:1003E000001D0154696D656C6170736520202000EB
:1003F0004D4B0500001C01436F6E6E656374202039
:10040000202020004DB3060000000053657474697D
:100410006E677320202020004DEF060000000000D2
:100420002020202020202020202020005600000016
:1004300000000053746F702054696D6572202000B5
:1004400046FD090000240A416464204B6579667208
:10045000616D65004686090000350A44656C204BD5
:1004600065796672616D6500462A0B0000340A5694
:100470006965772044657461696C730046F90C0006
:100480000000004C6F61642053617665642E2E007D
:1004900046110A00001D01536176652041732E2E1E
:1004A0002020200046C20E00000000536176652027
:1004B000202020202020200046440B0000D9095392
:1004C0006176652044656661756C740046670B0053
:1004D00000000052657665727420202020202000E4
:1004E00046D20900001D01004F5054494F4E5300A1
:1004F0002020200046F509CB07D20744656C6179BE
:100500002020202020205400451E0AD30700005040
:10051000686F746F732020202020550045220ADC6C
:100520000700004761702020202020202020460066
:1005300045200AE707380A0020202020202020201C
:100540002020200046500CD207EF074D6F64652035
:100550002020202020202A0053F507ED0900004428
:10056000656C6179202020202020540045E509D3C6
:100570000700004672616D65732020202020550021
:1005800045E709DC071B01496E7472766C20202058
:100590002020460045E909E707390A48445220452A
:1005A000787027732020550045EB09E707370A5379
:1005B00068757474657220202020460045EF09E7B5
:1005C00007370A536875747465722020202046002E
:1005D00045EF09E7071A014844522045562B2F2DB5
:1005E0002020550045F1094508370A42756C622004
:1005F000312020202020460045F309E707360A2A4B
:100600004B657920202020202020540045070A5DDA
:1006100008360A42756C62203220202020204600D5
:1006200045F509E707360A2A4B6579202020202066
:100630002020540045090A5D08320A42756C622088
:10064000332020202020460045F709E707320A2AF8
:100650004B6579202020202020205400450B0A5D86
:1006600008310A42756C6220342020202020460088
:1006700045F909E707310A2A4B6579202020202017
:1006800020205400450D0A5D08300A42756C622036
:10069000352020202020460045FB09E707300A00CE
:1006A00020202020202020202020200046010F692B
:1006B00008EF07426C7565746F6F74682020200026
:1006C00046100C00003307555342202020202020E4
:1006D0002020200046890B00000000002020202060
:1006E0002020202020202000560000000000005381
:1006F000797374656D20496E666F20004613110092
:100700000000004C434420436F6C6F722020200097
:10071000537108850AB6324C434420424C20546938
:100720006D65200053A108860AB632505752204109
:1007300075746F204F666600531109870AB6324CF4
:100740004544204175746F204F66660053710988D7
:100750000AB63242756C62204D6F6465202020001D
:1007600053E109830AB63243616D657261204650D8
:100770005320200053110A760AB63243616D657228
:1007800061204D616B65200053C10A840AB6324472
:100790006576204D6F6465204C45440053410B8DB8
:1007A0000AB632446576656C6F706D656E742000B4
:1007B0004D710B0000000000202020202020202070
:1007C00020202000560000000000005245545552E1
:1007D0004E000068683A6D6D3A7373003020666FA2
:1007E0007220696E662E006D6D3A73732E7300531E
:1007F000544152540054696D652D6C6170736520CD
:10080000200001250C48445220542D6C6170736502
:10081000200003350C4844522050686F746F20202C
:10082000200002430C42756C622D72616D702020B5
:10083000200005540C0020202020202020202020F3
:10084000200000000053746F707320626574776538
:10085000656E206578706F73757265730053696E8D
:100860006365207374617274004F5054494F4E5346
:100870000057686974652020202020202000006235
:100880000C526564202020202020202020000162BE
:100890000C002020202020202020202020000000EC
:1008A000003130205365636F6E6473202000017245
:1008B0000C3330205365636F6E6473202000037225
:1008C0000C31204D696E7574652020202000067261
:1008D0000C32204D696E75746573202020000C72F7
:1008E0000C35204D696E75746573202020001E72D2
:1008F0000C3130204D696E757465732020003C7298
:100900000C0020202020202020202020200000007B
:100910000031204D696E757465202020200006840A
:100920000C32204D696E75746573202020000C8494
:100930000C35204D696E75746573202020001E846F
:100940000C3130204D696E757465732020003C8435
:100950000C3330204D696E75746573202000B484AB
:100960000C0020202020202020202020200000001B
:10097000003130205365636F6E6473202000019650
:100980000C3330205365636F6E6473202000039630
:100990000C31204D696E757465202020200006966C
:1009A0000C32204D696E75746573202020000C9602
:1009B0000C35204D696E75746573202020001E96DD
:1009C0000C3130204D696E757465732020003C96A3
:1009D0000C002020202020202020202020000000AB
:1009E000005374616E64617264202020200000A8AE
:1009F0000C4D6F6D2E20546F67676C65200001BB36
:100A00000C0020202020202020202020200000007A
:100A1000003120465053202020202020200065CE89
:100A20000C3220465053202020202020200033CE9E
:100A30000C3320465053202020202020200022CE9E
:100A40000C342046505320202020202020001ACE95
:100A50000C3520465053202020202020200015CE89
:100A60000C3620465053202020202020200011CE7C
:100A70000C372046505320202020202020000FCE6D
:100A80000C382046505320202020202020000DCE5E
:100A90000C313020465053202020202020000BCE47
:100AA0000C3132204650532020202020200009CE37
:100AB0000C002020202020202020202020000000CA
:100AC000004F746865722020202020202000FEE066
:100AD0000C43616E6F6E202020202020200000F546
:100AE0000C4E696B6F6E202020202020200001F525
:100AF0000C4D696E6F6C746120202020200003F57E
:100B00000C4F6C796D70757320202020200004F547
:100B10000C50656E7461782020202020200005F59F
:100B20000C536F6E7920202020202020200002F519
:100B30000C00202020202020202020202000000049
:100B4000004F666620202020202020202000000169
:100B50000D4F6E20772F42756C622020200001140B
:100B60000D00202020202020202020202000000018
:100B7000005368757474657220546573740046F987
:100B80000D00001D0153687574746572204C616717
:100B9000200046420D00001D014952205465737427
:100BA00020202020200046930E00001D0134204804
:100BB0006F7572204C696768740046AA3500001D85
:100BC0000153797320537461747573202000460DAE
:100BD00012000000004261747465727920202020A8
:100BE000200046590C000000004C69676874204DD5
:100BF000657465722000465A1000000000506F773F
:100C00006572204F66662020200046841500000093
:100C1000000020202020202020202020200056001E
:100C2000000000000042617369632054696D656CC7
:100C300061707365004844522054696D656C617041
:100C400073650053696E676C652048445220496D96
:100C50006167650052616D70206578706F737572A1
:100C600065004261636B6C6967687420636F6C6FC9
:100C700072004261636B6C69676874206F6E2074E8
:100C8000696D65004175746F20707772206F6666BC
:100C90002074696D65004C4544206175746F206F48
:100CA00066662074696D6500486F6C6473207368B4
:100CB000757474657220646F776E0050726573731B
:100CC000206F6E207072657373206F6666004672C7
:100CD000616D657320706572205365636F6E64008B
:100CE00043686F6F7365206966206E6F74206C694E
:100CF000737465640043616D657261206D616B653D
:100D0000004C4544206F666620647572696E6720EA
:100D10007573650053687574746572206C696768D3
:100D20007473204C4544000402040507064D4149F4
:100D30004E204D454E5500041E05051E00041F158E
:100D4000150A00040E11111100041F11110E0004E8
:100D50001F15151100041F05050100040E11151DB6
:100D600000041F04041F0003111F110000040811D8
:100D70000F0100041F040A1100041F1010100005C9
:100D80001F0204021F041F02041F00040E11110E93
:100D900000041F09090600040E11191E00041F0992
:100DA00009160004121515090003011F01000004B3
:100DB0000F10100F00030F100F0000051F0804088C
:100DC0001F041B04041B0003031C0300000419156B
:100DD000151300030E150E000003121F1000000370
:100DE00019151200000311150A00000307041F0063
:100DF00000031715090000031E151D000003190547
:100E0000030000030A150A00000317150F00000075
:100E100000000000000000002F0000000007000795
:100E20000000147F147F1400242A7F2A12006264B9
:100E30000813230036495522500000050300000026
:100E4000001C224100000041221C000014083E0842
:100E5000140008083E0808000000A0600000080810
:100E6000080808000060600000002010080402006C
:100E70003E5149453E0000427F40000042615149D9
:100E800046002141454B31001814127F10002745C0
:100E9000454539003C4A49493000017109050300C4
:100EA000364949493600064949291E0000363600B0
:100EB00000000056360000000814224100001414FF
:100EC0001414140000412214080002015109060004
:100ED000324959513E007C1211127C007F49494928
:100EE00036003E41414122007F4141221C007F49A2
:100EF000494941007F09090901003E4149497A00F9
:100F00007F0808087F0000417F4100002040413FEA
:100F100001007F08142241007F40404040007F02D2
:100F20000C027F007F0408107F003E4141413E00DB
:100F30007F09090906003E4151215E007F091929F8
:100F4000460046494949310001017F0101003F4007
:100F500040403F001F2040201F003F4038403F00DE
:100F600063140814630007087008070061514945BD
:100F70004300007F41410000552A552A5500004199
:100F8000417F000004020102040040404040400054
:100F90000001020400002054545478007F48444467
:100FA0003800384444442000384444487F003854D2
:100FB00054541800087E0901020018A4A4A47C005F
:100FC0007F080404780000447D4000004080847D58
:100FD00000007F102844000000417F4000007C0496
:100FE000180478007C08040478003844444438002D
:100FF000FC242424180018242418FC007C08040471
:101000000800485454542000043F444020003C4011
:1010100040207C001C2040201C003C4030403C0014
:101020004428102844001CA0A0A07C004464544C18
:10103000440000060909060080C0E0E060E0E0C06E
:101040008000000000000070FFFF0100000000FFB2
:10105000FFFE0000000000000F1F3C383038381F32
:101060000F0300000000000000000080E0E000002E
:10107000000000000000000000030303FFFF000069
:101080000000000000000000003838383F3F3838CA
:101090003800000000000000C0C0E06060E0E0C078
:1010A000800000000000000001000080C0E0F93F67
:1010B0001F000000000000003C3E3F3F3B39383835
:1010C0003838000000000000C0E0E06060E0E0C0F0
:1010D000C0000000000000000100003030387DEF4B
:1010E000CF000000000000001C38383030383C1FB2
:1010F0000F010000000000000000000080C0E0E0E0
:1011000000000000000000E0F0F8DECFC7C1FFFFE4
:10111000C0C00000000000000000000000003F3FD1
:101120000000000000000000E0E0E0E0E0E0E0E0BF
:10113000E0E00000000000003F3F3F38383070F032
:10114000E0000000000000001C38383030383C1F40
:101150000F010000000000000080C0C0E06060E0FF
:10116000E0000000000000E0FEFF3739181838F0FA
:10117000F0C00000000000000F1F1C383030381F86
:101180000F07000000000000E0E0E0E0E0E0E0E049
:10119000E0E000000000000000000080E0F87E1F9A
:1011A000070100000000000000383E1F070100009A
:1011B000000000000000000080C0E0E06060E0C0CF
:1011C000C000000000000000CFFF7F38307070FFCB
:1011D000EFC70000000000030F1F3C383030381FFD
:1011E0001F0F00000000000080C0E0E060E0E0C0F1
:1011F000800000000000000C3F7FF1E0C0C0E1FF74
:10120000FFFE0000000000000038303038381E0FAC
:1012100007000000000000000000000000000000C7
:1012200000000000000000000000000000000000BE
:10123000000000000000003C3C3C000000000000FA
:10124000000000000000000000000000000000009E
:101250000000000000000000004040404040FEFE52
:1012600040404040400000000000000000000F0F20
:10127000000000000000000000000000000000006E
:1012800000000000000000004040404040400000DE
:10129000000000000000000000000000000000004E
:1012A00000000000000000009A4B11241FBECFEF89
:1012B000D0E2DEBFCDBF16E0A0E0B1E0E6E5F3EAA4
:1012C00000E00BBF02C007900D92AA3EB107D9F70C
:1012D0001BE0AAEEB6E001C01D92A730B107E1F70E
:1012E00012E1CAEAD2E100E006C022970109FE013C
:1012F0000BBF0E943D4EC83AD10780E00807A9F70E
:101300000E94214A0C94A9510C94000080911B0A60
:1013100090911C0A059708F03FC080911B0A90919C
:101320001C0A892B31F481E090E090931C0A809391
:101330001B0AE0911B0AF0911C0AA0911B0AB091B4
:101340001C0AAA0FBB1FAB5FB54F8D919C91805FAC
:10135000914FEE0FFF1FE95FF54F91838083E0917E
:101360001B0AF0911C0AA0911B0AB0911C0AAA0F3B
:10137000BB1FAD50B64F8D919C91EE0FFF1FEB50F0
:10138000F64F9183808380911B0A90911C0A0196ED
:1013900090931C0A80931B0A8BE997E00E94E21C41
:1013A00081E00895CF93DF931F92CDB7DEB7462F2C
:1013B000662341F06091250A89ED99E049830E94F6
:1013C0000D2C49816FE371E08BE997E00E9458187A
:1013D000882331F08BE997E00E94E21C81E001C094
:1013E00080E00F90DF91CF910895813021F48BE957
:1013F00097E00E94E21C81E00895462F611110924F
:10140000240A68E471E08BE997E00E945818882369
:1014100031F08BE997E00E94E21C81E0089580E0C2
:1014200008952F923F925F926F927F928F929F9238
:10143000AF92BF92CF92DF92EF92FF920F931F93E2
:10144000CF93DF9300D000D0CDB7DEB7182F853013
:1014500031F48091500A8823A1F081500FC086306A
:1014600081F48091500A482F50E02091510A30E0D9
:10147000215031094217530724F48F5F8093500A9B
:1014800003C0662309F4A1C08FED97E00E94F42900
:101490008091500A833020F0682E6A946A9401C0CB
:1014A000612C1092510A1C821B8254E4752EE62C8A
:1014B000F12CC70104969A83898369E0362E5B80FC
:1014C000EB81FC817E9E60017F9ED00C1124C601C1
:1014D000875F9F4F0E94155181508E3FE8F503E0D2
:1014E000A12CB12C252C23948B809C80FFEF8F1A8C
:1014F0009F0A261430F189819A81881599050CF18B
:10150000C5018C0D9D1D875F9F4F0E941551982F1F
:1015100091549A3108F080E24091510A4E19439D4E
:10152000402D1124485F282F602F8FED97E00E94F7
:10153000C3249091510A8091500A981302C050928E
:10154000520A9FEFA91AB90A0A5F0B3491F68091EB
:10155000510A8F5F8093510AEB81FC813196FC83A5
:10156000EB83789709F0ABCF8091500A861949E058
:10157000849F402D1124042F015F495F21E562E023
:101580008FED97E00E94A82660E571E08BE997E077
:101590000E941C174BE551E060E671E08BE997E093
:1015A0000E94521708E220E043E060E08FED97E0F0
:1015B0000E94292623E543E063E58FED97E00E9432
:1015C00029268FED97E00E94282A123059F018F44E
:1015D000113049F505C0133019F0143021F502C05F
:1015E00081E022C06091520A89ED99E00E940D2CA1
:1015F00041E067E671E08BE997E00E94581880EDC2
:1016000097E028EC30E0F9013197F1F70197D9F72D
:101610008BE997E00E94E21C60E08BE997E00E9472
:10162000351882E001C080E00F900F900F900F906E
:10163000DF91CF911F910F91FF90EF90DF90CF90AE
:10164000BF90AF909F908F907F906F905F903F90F2
:101650002F90089580911B0A90911C0A029748F0E0
:1016600080911B0A90911C0A019790931C0A809309
:101670001B0A8BE997E00E94E21C60E08BE997E08F
:101680000E94351881E00895CF93DF931F92CDB764
:10169000DEB7462F662341F06091250A89ED99E077
:1016A00049830E94C42B498165E571E08BE997E08D
:1016B0000E945818882331F08BE997E00E94E21CC1
:1016C00081E001C080E00F90DF91CF910895CF932A
:1016D000DF931F92CDB7DEB7462F662339F060E067
:1016E00089ED99E049830E94C42B498165E571E049
:1016F0008BE997E00E945818882331F08BE997E036
:101700000E94E21C81E001C080E00F90DF91CF9148
:101710000895CF93C82F611107C09091B30A8091AB
:10172000410A981709F46EC09091B30A9093410A48
:10173000992379F18FED97E00E94F4292EE631E0AC
:1017400047E063E08FED97E00E9454252CE731E0FD
:101750004FE063E08FED97E00E9454252CE731E0E5
:1017600047E163E08FED97E00E9454252CE731E0DC
:101770004FE163E08FED97E00E9454256AE871E045
:101780008BE997E00E941C174FED56E066E971E087
:101790002EC08FED97E00E94F4292DE931E047E05B
:1017A00063E08FED97E00E9454252BEA31E04FE093
:1017B00063E08FED97E00E94542529EB31E047E18B
:1017C00063E08FED97E00E9454252CE731E04FE174
:1017D00063E08FED97E00E94542567EC71E08BE9A0
:1017E00097E00E941C174FED56E060E671E08BE930
:1017F00097E00E9452178FED97E00E94282A81E01F
:1018000080932E0ACC2339F08091B30A811105C050
:1018100010922E0A02C080E001C081E0CF910895AD
:10182000CF93C82F6623B1F18FED97E00E94F42982
:1018300023ED31E047E063E08FED97E00E9454250F
:1018400021EE31E04FE063E08FED97E00E945425F8
:101850002FEE31E047E163E08FED97E00E945425E1
:101860002DEF31E04FE163E08FED97E00E945425CA
:101870006BE072E08BE997E00E941C174FED56E099
:1018800066E971E08BE997E00E9452178FED97E0CF
:101890000E94282A81E0C11101C080E0CF91089503
:1018A000662319F0823019F480E00C94100C81E06A
:1018B0000895FF920F931F93CF93DF93F82E0E940A
:1018C000D515EC010E945415082FC45FD14084E265
:1018D0008C9F90018D9F300D1124C90161E970E04A
:1018E0000E94F34D162F643228F0013009F479C0BC
:1018F000643211F4023009F414E28FED97E00E9493
:10190000F429033048F4E02FF0E0EE0FFF1FEF5C06
:10191000FE4FC081D18102C0C3E1D2E0BE018FED94
:1019200097E00E941E24002349F0869569E2681B17
:101930009E014FE18FED97E00E94A7240FE02CE37A
:101940004FE064E18FED97E00E9429260BE124E14E
:1019500040E164E18FED97E00E9429262CE34BE102
:1019600065E18FED97E00E94292603E12CE340E139
:101970006CE38FED97E00E9429260AE12CE347E112
:101980006CE38FED97E00E94292607E12DE343E108
:101990006DE38FED97E00E942926C0E06C2F6A5E10
:1019A00009E1262F41E18FED97E00E942926CF5FC4
:1019B0001C17A0F769E172E08BE997E00E941C1701
:1019C0004FED56E066E971E08BE997E00E9452170F
:1019D0008FED97E00E94282A81E0F81621F080E040
:1019E00002C013E28ACFDF91CF911F910F91FF9038
:1019F0000895EF920F93CF93C82F6623D1F08FED08
:101A000097E00E94F42928E232E042E161E08FEDA4
:101A100097E00E9454256FE272E08BE997E00E9404
:101A20001C1746E951E065E372E08BE997E00E94FC
:101A300052170AE123E542E164E28FED97E00E944C
:101A4000D02687E897E00E940315E2E5EE2E06E433
:101A50009B0142E163E58FED97E00E94F8268FED50
:101A600097E00E94282AC13021F0C23031F481E091
:101A700005C087E897E00E94761480E0CF910F912F
:101A8000EF9008958F929F92AF92BF92EF920F9333
:101A9000CF93DF93C82F6623B1F08FED97E00E94BC
:101AA000F4296AE372E08BE997E00E941C174BE48B
:101AB00052E063E572E08BE997E00E9452178FEDE8
:101AC00097E00E94282A8C2F8150823008F083C032
:101AD00006E220E542E16AE08FED97E00E94D02621
:101AE0002AE532E042E16AE08FED97E00E9454255A
:101AF000479A3F9A3C98449A86988E9A469A3E9A7C
:101B0000389A409A3D98459A28EE33E048EC50E0E8
:101B1000FA013197F1F721503109D1F7C23031F094
:101B2000479887E897E00E9476141EC0469880E1A7
:101B300097E228EC30E0F9013197F1F70197D9F7F6
:101B4000EFCF87E897E00E94E514683E7340810577
:101B5000910550F087E897E00E94E514EB0184EFCF
:101B600091E028EC30E003C03599EBCFF3CFF901D9
:101B70003197F1F70197D9F7479A469A87E897E0A6
:101B80000E94761425C087E897E00E94E514693E1C
:101B9000734081059105E0F087E897E00E94E51425
:101BA0004B015C01FCE4EF2E05E59E0142E168E398
:101BB0008FED97E00E94F82694014CE168E38FEDE9
:101BC00097E00E94F8268FED97E00E94282A05C032
:101BD000359BD9CFE1CFC33011F080E001C081E067
:101BE000DF91CF910F91EF90BF90AF909F908F902A
:101BF00008950F93CF93C82F6623D1F010923E0A19
:101C000010923F0A8FED97E00E94F42962E672E09D
:101C10008BE997E00E941C174FE652E064E772E000
:101C20008BE997E00E9452178FED97E00E94282AD7
:101C3000C130D9F480913E0A8130B1F1C0933E0A9F
:101C40000AE128E342E164E18FED97E00E94D026AB
:101C500029E732E042E164E18FED97E00E945425EC
:101C600089ED99E00E94EB2A2DC0C230D9F4809111
:101C70003E0A8230C9F0C0933E0A0AE128E342E1FD
:101C800064E18FED97E00E94D02620E832E042E147
:101C900064E18FED97E00E94542589ED99E00E9460
:101CA000152B10C0CC2391F010923E0A0AE128E3D4
:101CB00042E164E18FED97E00E94D02689ED99E042
:101CC0000E94582B8FED97E00E94282A89ED99E019
:101CD0000E94B72B90913F0A882371F091111CC08C
:101CE00081E080933F0A27E832E04CE166E08FED27
:101CF00097E00E94A7240CC0913071F410923F0A23
:101D000004E221E54CE166E08FED97E00E94D026E9
:101D10008FED97E00E94282A81E0C33009F080E02F
:101D2000CF910F910895CF93C82F6623B1F08FED17
:101D300097E00E94F42967E972E08BE997E00E943E
:101D40001C174FE952E067EA72E08BE997E00E94C6
:101D500052178FED97E00E94282AC23061F0C330FD
:101D600019F0C13061F402C081E00AC082E397E05B
:101D70000E945C2304C082E397E00E940F2380E06E
:101D8000CF9108950F93CF93C82F062F662331F07C
:101D900089ED99E00E94492C8093430A2FEA32E0B2
:101DA00044E45AE06C2F8BE997E00E943C21C82F55
:101DB000823019F510924F0A64E47AE089ED99E0D7
:101DC0000E94484E6091430A89ED99E00E94C42B1D
:101DD00041E065E571E08BE997E00E94581820ED3D
:101DE00037E048EC50E0FA013197F1F72150310922
:101DF000D1F78BE997E00E94E21C8C2FCF910F91D5
:101E00000895462F61118093420A8091420A8230E0
:101E1000A1F467EB72E08BE997E00E94581880E428
:101E20009FE128EC30E0F9013197F1F70197D9F7FC
:101E300089ED99E00E94652C13C08BE997E00E9420
:101E4000DC1B60E08BE997E00E94351863E374E0E7
:101E50008BE997E00E94011D8FED97E00E94282AF0
:101E600081E00895A89588E10FB6F894809360000A
:101E7000109260000FBE2FE088E190E00FB6F8945A
:101E8000A895809360000FBE209360006C98749AB0
:101E90000E945415811102C0649935C00E94151525
:101EA0000E94C03287E897E00E940C148FED97E003
:101EB0000E94A32A8FED97E090939C0780939B0745
:101EC00085E797E090939E0780939D0783B7817F76
:101ED000846083BF83B7816083BF6FEC73E08BE95D
:101EE00097E00E94011D8FED97E00E94282A0E9432
:101EF000FD490E94614483E397E00E94563283E3E8
:101F000097E00C9400328FED97E00E94A32A0E9484
:101F1000913385EC92E00E945C3388E10FB6F8942F
:101F200080936000109260000FBE0E948415B6CFAF
:101F3000EF920F931F93CF93DF93182F662359F1DE
:101F40000E943815EC018FED97E00E94F4292CEFE8
:101F500032E042E161E08FED97E00E9454250CE40D
:101F6000E02E05E59E0142E167E38FED97E00E94D8
:101F7000F82666E073E08BE997E00E941C174FEDAE
:101F800056E066E971E08BE997E00E9452178FED09
:101F900097E00E94282A81E0113009F080E0DF916B
:101FA000CF911F910F91EF900895EF92FF920F93B1
:101FB0001F93CF93DF9300D000D000D0CDB7DEB712
:101FC0009C01FB01009719F480E380831182C90111
:101FD00060E177E20E94F34D7B0180EF98ED689F0E
:101FE0008001699F100D789F100D1124020F131F9F
:101FF000C80168EE73E00E94F34DAB0188E19CEFED
:10200000689F9001699F300D789F300D1124200F3B
:10201000311FC90164E670E00E94F34D162F84E67B
:10202000689F201931091124C9016AE070E00E94FB
:10203000F34D1E828E2D805D8983405D4A83105D45
:102040001B83862F805D8C83AAE06A9F201931094B
:102050001124205D2D83DE01119620E08D918033C7
:10206000A9F417C081E090E08C0F9D1F830F911D94
:10207000DC018C91DA018D93AD013F5F832F821BD0
:10208000353080F3E80FF11D108207C0AF01322F09
:10209000F5CF2F5F2530D1F3E1CF26960FB6F89418
:1020A000DEBF0FBECDBFDF91CF911F910F91FF908B
:1020B000EF9008950F931F93CF93DF9300D000D03C
:1020C00000D0CDB7DEB7182F662341F060E08FED6A
:1020D00097E00E94952A80E00E9424158091400A92
:1020E000811187C08FED97E00E94F4296DE073E0C5
:1020F0008BE997E00E941C17123031F481E0809345
:10210000400A49E153E002C04DE153E066E971E065
:102110008BE997E00E94521780E00E948D16BE0165
:102120006F5F7F4F0E94D50FBE016F5F7F4F8FEDB6
:1021300097E00E941E2400E5602F681B9E012F5F20
:102140003F4F4EE08FED97E00E94A72423E233E05B
:102150004EE063E08FED97E00E94A72481E00E94AB
:102160008D16BE016F5F7F4F0E94D50FBE016F5F5E
:102170007F4F8FED97E00E941E24602F681B9E0109
:102180002F5F3F4F44E18FED97E00E94A7242CE2A0
:1021900033E044E163E08FED97E00E94A72482E002
:1021A0000E948D16BE016F5F7F4F0E94D50FBE014A
:1021B0006F5F7F4F8FED97E00E941E24602F681B9A
:1021C0009E012F5F3F4F4AE18FED97E00E94A724C9
:1021D00025E333E04AE163E08FED97E00E94A72416
:1021E0008FED97E00E94282AE0E2FEE43197F1F7B4
:1021F00005C0123019F41092400A09C0113039F4A8
:102200006FEF8FED97E00E94952A81E001C080E09A
:1022100026960FB6F894DEBF0FBECDBFDF91CF91EB
:102220001F910F9108952F923F924F925F926F925C
:102230007F928F929F92AF92BF92CF92DF92EF9256
:10224000FF920F931F93CF93DF93CDB7DEB72897FD
:102250000FB6F894DEBF0FBECDBF082F662309F47A
:10226000BDC08FED97E00E94F42983E397E00E94C0
:102270009631282E312C68E473E08FED97E00E94B0
:102280001E2460E5681B28E433E048E08FED97E00A
:102290000E94A7242EE433E048E063E08FED97E04E
:1022A0000E94A72482E02816310418F02EE333E0C0
:1022B00002C023E433E0B9018FED97E02F83388724
:1022C0000E941E2460E5681B2F8138854EE08FED4B
:1022D00097E00E94A72425E533E04EE063E08FED10
:1022E00097E00E94A7242EE533E044E163E08FED00
:1022F00097E00E94A7248DE5C82E85E0D82E83E3C1
:10230000E82EFF24F39410E09AE0892E912CA12C62
:10231000B12CC701B601A50194010E941B4E2B01EF
:102320003C01862F805D89831A82BE016F5F7F4FDB
:102330008FED97E00E941E24180F1F5F60E5611B60
:102340009E012F5F3F4F44E18FED97E00E94A7244D
:10235000C701B6016419750986099709A501940199
:102360000E941B4E69017A01211531054105510575
:1023700081F682E028163104F8F0BE016F5F7F4FCE
:10238000C1010E94D50FBE016F5F7F4F8FED97E0B7
:102390000E941E2460E5681B9E012F5F3F4F40E2B4
:1023A0008FED97E00E94A72428E633E040E263E047
:1023B0008FED97E00E94A72467E773E08BE997E031
:1023C0000E941C174FED56E066E971E08BE997E03B
:1023D0000E9452178FED97E00E94282A81E0013079
:1023E00019F0033009F080E028960FB6F894DEBFAC
:1023F0000FBECDBFDF91CF911F910F91FF90EF9056
:10240000DF90CF90BF90AF909F908F907F906F9014
:102410005F904F903F902F900895EF92FF920F930F
:102420001F93CF93DF9300D000D000D0CDB7DEB79D
:10243000E82E8FED97E00E94F4290E945415833016
:1024400048F4E82FF0E0EE0FFF1FE95CFE4F00813B
:10245000118102C003E112E0B8018FED97E00E9404
:102460001E2420E5F22E6F2D681B980148E08FEDA9
:1024700097E00E94A72423E833E048E063E08FED73
:1024800097E00E94A7240E94E015BE016F5F7F4F76
:1024900090E00E94D50FBE016F5F7F4F8FED97E0F8
:1024A0000E941E246F2D681B9E012F5F3F4F4EE040
:1024B0008FED97E00E94A72428E833E04EE063E028
:1024C0008FED97E00E94A7240E943815BE016F5F30
:1024D0007F4F0E94D50FBE016F5F7F4F8FED97E05A
:1024E0000E941E246F2D681B9E012F5F3F4F44E109
:1024F0008FED97E00E94A7242CEF32E044E163E0E7
:102500008FED97E00E94A724BE016F5F7F4F8091FF
:102510008B0790918C070E94D50FBE016F5F7F4F94
:102520008FED97E00E941E246F2D681B9E012F5F88
:102530003F4F4AE18FED97E00E94A72421E933E065
:102540004AE163E08FED97E00E94A724BE016F5F30
:102550007F4F80918F07909190070E94D50FBE0109
:102560006F5F7F4F8FED97E00E941E246F2D681BD9
:102570009E012F5F3F4F40E28FED97E00E94A7241E
:102580002AE933E040E263E08FED97E00E94A72460
:1025900064EA73E08BE997E00E941C174FED56E068
:1025A00066E971E08BE997E00E9452178FED97E0A2
:1025B0000E94282AE0E2FEE43197F1F781E0E81674
:1025C00029F093E0E91619F080E001C081E0269639
:1025D0000FB6F894DEBF0FBECDBFDF91CF911F9134
:1025E0000F91FF90EF9008951F920F920FB60F92E8
:1025F00011240BB60F921BBE2F933F934F935F9303
:102600006F937F938F939F93AF93BF93EF93FF93BA
:1026100087E897E00E94371485E797E00E945B13F4
:10262000FF91EF91BF91AF919F918F917F916F91AA
:102630005F914F913F912F910F900BBE0F900FBE66
:102640000F901F901895CF93DF93DC0120E030E0CE
:1026500041E050E01D92FC01E20FF31F1682148648
:10266000F901E95DF24FE491223078F47DB1EA019D
:1026700002C0CC0FDD1FEA95E2F76C2F609567234F
:102680006DB96EB16C2B6EB90EC07AB1EA0102C0A1
:10269000CC0FDD1FEA95E2F76C2F609567236AB9CE
:1026A0006BB16C2B6BB92F5F3F4F2630310591F624
:1026B000DF91CF910895DF92EF92FF920F931F93D6
:1026C000CF93DF937C018C01C0E0D0E0DD24D39474
:1026D000FE01E95DF24FE491C23010F48CB101C00B
:1026E00089B190E002C095958795EA95E2F78095CB
:1026F0008170D801A9F08C918F30F0F48F5FF801D0
:1027000080838B30C8F0F701EC0FFD1F86818111AB
:1027100013C0D486D68287E897E00E947C140CC050
:102720008C91882349F0F701EC0FFD1F148681502E
:102730008C93833008F4168221960F5F1F4FC630AA
:10274000D10531F6DF91CF911F910F91FF90EF905E
:10275000DF900895FC0186E0119215821386815066
:10276000D9F70895CF93DF93EC0187E897E00E94B3
:102770000915882319F0CE010E94AA1320E030E049
:10278000822FFE01E20FF31F9485992311F08F5FD2
:1027900006C02F5F3F4F2630310591F780E0DF9173
:1027A000CF910895CF93DF93EC0187E897E00E94E3
:1027B0000915882319F0CE010E94AA1320E030E009
:1027C000822FFE01E20FF31F9485992319F01486DE
:1027D0008F5F06C02F5F3F4F2630310589F780E0BD
:1027E000DF91CF9108950F931F93CF93DF931F92A3
:1027F000CDB7DEB78C0101C0A895C80169830E94DE
:10280000D21369818613F8CF862F0F90DF91CF9175
:102810001F910F9108950895FC0192E09093B000EC
:10282000A1EBB0E01C928C9184608C938AE780933A
:10283000B3001092B60090937000128A81E08287F4
:1028400010821182128213821482158216821782DC
:1028500011861086789408951092B0001092B100FD
:102860001092B3001092B600109270000895FC010F
:102870008085918501969187808740815181628111
:1028800073814F5F5F4F6F4F7F4F408351836283F0
:102890007383883E9340E8F0118610864481558109
:1028A000668177814F5F5F4F6F4F7F4F44835583C2
:1028B0006683778386859785019697878687848543
:1028C0009585019695878487808991890196918B5A
:1028D000808B0895FC01108211821282138214826F
:1028E000158216821782118610860895FC011082C7
:1028F0001182128213820895CF93DF93EC011F8619
:102900001E861D861C866B89662329F08FED97E055
:102910000E94952A1B8ADF91CF910895CF93DF9370
:10292000EC018A85811103C01F861E8606C08B8537
:10293000811103C0CE010E947C148A858B87882375
:1029400099F08091870A2AE0829FC00111242E8588
:102950003F852817390740F00E948415CE010E9458
:102960007C1481E08A8B18C08B89811115C08091FD
:10297000860A2AE0829FC00111242C853D852817F4
:10298000390750F08FED97E00E94E62A8B8B60E0CC
:102990008FED97E00E94952A0E942D15882381F0E3
:1029A0008091880A2AE0829FC001112428893989F0
:1029B0002817390738F080E0DF91CF910C94241567
:1029C000198A188ADF91CF910895FC016081718185
:1029D0008281938108950F931F93FC012481358197
:1029E00046815781A8EEB3E00E94D84D8B019C012F
:1029F00080859185080F191F211D311DB801C9015E
:102A00001F910F910895FC016481758186819781E2
:102A10000895FC018289128A08958FED97E00E9443
:102A2000A32A8FED97E00C94282A3B9A43980B9A9F
:102A30001398269A2E9A279A2F9A6B98739A6F9AC0
:102A4000849A8C9877980895269A882319F02E985E
:102A500081E008952E9A80E00895269B07C085B1F5
:102A600086FB882780F991E08927089580E0089502
:102A7000CF93DF9300D0CDB7DEB78091FD0A909160
:102A8000FE0A9E012F5F3F4F009719F427503B40ED
:102A900002C0281B390B3A83298389819A810F90C0
:102AA0000F90DF91CF9108950F98179AE0E2FEE41E
:102AB000CF010197F1F780B117983197F1F7079996
:102AC00005C08095881F8827881F089582E0089593
:102AD000CF938BE997E00E94DC1BC1E085E797E08C
:102AE0000E94D213813029F48BE997E0CF910C94A6
:102AF000E21C0E9454158823B9F3A8956C2F80E03E
:102B00000E94590CC0E0EACF0E945415811108C000
:102B10008091E00081608093E000F894439AFFCFB9
:102B20000C94681595EA90937A008F3010F08850D5
:102B300013C040B321E030E0082E01C0220F0A94F8
:102B4000EAF7922F9095942390BB90917E00922B60
:102B500090937E00883058F7806480937C00809149
:102B60007A00806480937A0044E660E070E0CB01F4
:102B700020917A0024FFFCCF20917A0020612093DD
:102B80007A002091780030917900620F731F811DC7
:102B9000911D415069F710927A0024E630E040E040
:102BA00050E00E941B4EC9010895819A899880E2E5
:102BB0009EE40197F1F782E00E94921581980895B2
:102BC0001F93CF93DF9300D000D000D0CDB7DEB7F6
:102BD0000E94D5159E838D830E945415182F42E0C4
:102BE00050E0811145C063E070E0CE0101960E9483
:102BF00005512D813E8189819A812817390740F43A
:102C000042E050E063E070E0CE0105960E941D5165
:102C100042E050E061E070E0CE0103960E94055171
:102C20008B819C81019611F41C821B822D813E8137
:102C30008B819C818217930740F442E050E061E071
:102C400070E0CE0105960E941D5149815A812D8167
:102C50003E81241B350B64E6629FC001639F900D8B
:102C600011246B817C81641B750B0E94F34D4AC05B
:102C700067E070E0CE0101960E9405514D815E81B2
:102C800029813A814217530740F442E050E063E063
:102C900070E0CE0105960E941D5142E050E065E0D3
:102CA00070E0CE0103960E9405514D815E812B811B
:102CB0003C812417350740F442E050E061E070E0C9
:102CC000CE0105960E941D5149815A812D813E8178
:102CD000241B350B64E6629FC001639F900D112495
:102CE0006B817C81641B750B0E94F34D113031F4B4
:102CF0006436710538F063E670E004C0123011F4F8
:102D000064E670E0862F26960FB6F894DEBF0FBEFD
:102D1000CDBFDF91CF911F9108950F931F93CF9354
:102D2000DF93D82F80E00E9424158FED97E00E945A
:102D3000E62AC82F60E08FED97E00E94952ACC2309
:102D400051F024EF31E048EC50E0FA013197F1F70F
:102D500021503109D1F791B1987F91B992B1987F03
:102D600092B991B18D2FD33008F082E021E030E0AC
:102D700001C0220F8A95EAF7892F822B81B982B18F
:102D8000D22FD0958D2382B944EF51E0A8ECB0E06A
:102D9000FD013197F1F741505109D1F780E00E94D0
:102DA00092158C0131B13D2331B98FED97E00E942E
:102DB000E62A8C1728F46C2F8FED97E00E94952A55
:102DC000C801DF91CF911F910F910895CF93DF93A9
:102DD000EC0180E00E948D169983888381E00E9437
:102DE0008D169B838A8382E00E948D169D838C833F
:102DF000DF91CF910895E0EEF0E0808181608083E3
:102E00000E94FE3A8FED97E00E94792A87E897E0CA
:102E10000E942C14F89488E10FB6F8948093600017
:102E2000109260000FBEE0E0F0EF0995FC01168AF9
:102E3000178A108E118E0895EF92FF920F931F93B1
:102E4000CF93DF93EC017B01888199810E941E243E
:102E5000182F169505E023E540E060E08881998110
:102E60000E94D02603E023E541E060E0888199815B
:102E70000E94A826212F265D68E2611B05E040E044
:102E8000888199810E94D02669E2611B970140E008
:102E900088819981DF91CF911F910F91FF90EF90E1
:102EA0000C94A724CF92DF92EF92FF920F93CF93CF
:102EB000DF93EC016B017A010FE223E549E260E068
:102EC000888199810E94D02696014AE262E0888139
:102ED00099810E94A724B701888199810E941E24AC
:102EE00063E5681B97014AE2888199810E94A724C3
:102EF00023E549E260E0888199810E94A826DF915C
:102F0000CF910F91FF90EF90DF90CF9008959B01AC
:102F100090E080E0F901729665917491FB01309721
:102F200019F05081552319F0491731F09F5F8F5FD9
:102F30002C5E3F4F843171F708959B0180E090E053
:102F4000F901729665917491FB01941751F03097D5
:102F500011F0508151118F5F9F5F2C5E3F4F943174
:102F600079F70895CF93DF93EB01FC0123892223A6
:102F700069F130E021503109F901EE0FFF1FE20F36
:102F8000F31FE80FF91F848125813681F4E18F9FBB
:102F9000200D311D1124DB0180E090E0F901E80FE4
:102FA000F91FE491ED9301968C309105B9F78BE010
:102FB00090E0FE01E80FF91F2081203211F011820C
:102FC0000AC0019781309105A1F705C06DE27DE04F
:102FD000CE010E94414ECE01DF91CF910895DF9244
:102FE000EF92FF920F931F93CF93DF93EC01162F75
:102FF000F42EE22ED02E6E894F89288D098D842FD4
:10300000862B822B802B21F0888199810E94A82613
:103010001E8BFF8AE88ED98E0D2D2E2D4F2D612F00
:10302000888199810E94A826DF91CF911F910F91ED
:10303000FF90EF90DF9008950F93CF93DF93EC0113
:103040006E894F89288D098D842F862B822B802BAA
:1030500021F0888199810E94A8261E8A1F8A188ED5
:10306000198EDF91CF910F9108950F931F93CF93F6
:10307000DF93EC01162F8A8D681730F0CE010E9485
:103080001C188FEF8C8B0FC049E0649F402D1124DA
:103090008D89481B042F015F495F21E561E0CE0166
:1030A0000E94EF171C8BDF91CF911F910F91089514
:1030B000EF92FF920F931F93CF93DF931F92CDB7A1
:1030C000DEB77C01162F372F442309F452C0A62FF8
:1030D000B72FFD0101900020E9F73197EA1BFB0BA8
:1030E00026E02E9FC0012F9F900D11249695879565
:1030F000AC0160E070E04093610A5093620A609313
:10310000630A7093640A282F255D67E2681B08E153
:103110004CE0F7018081918139830E94D026909103
:10312000610A292F265D68E2691B07E14DE0F7017E
:10313000808191810E94792669E29091610A691BE0
:10314000212F39814FE0F701808191810E94542520
:10315000F701808191810E94282A87E897E00E94E8
:10316000EB146093610A7093620A8093630A9093F0
:10317000640A87E897E00E94EB140091610A1091BD
:10318000620A2091630A3091640A601B710B820B02
:10319000930B643F71408105910530F4F701828102
:1031A00093810E94D213811181E00F90DF91CF9122
:1031B0001F910F91FF90EF9008957F928F929F92B1
:1031C000AF92BF92CF92DF92EF92FF920F931F9335
:1031D000CF93DF93EC01F62E5A014901702E109225
:1031E000550ACC2009F430C1FA01C080D180888111
:1031F00099810E94F42905E023E542E060E088819E
:1032000099810E94A8260EE121E046E060E08881D5
:1032100099810E94A82623E546E062E5888199818C
:103220000E94A826A72DB12FFD0101900020E9F7EB
:103230003197EA1BFB0BE093560A6AEF6E9F602DF5
:103240001124605B272D312F40E2888199810E94F3
:103250005425F40101900020E9F73197E819F909A4
:10326000E093560A26E0E29FF0011124F595E795D8
:103270008AE28E1B8093570A07E223E54FE160E064
:10328000888199810E94A8264AEC53E060E671E0AB
:10329000CE010E9452176091570A9091560A292F29
:1032A000220F290F220F260F05E042E08881998125
:1032B0000E94A826940140E06091570A8881998174
:1032C0000E94542580E0E82FF0E0E75AF54F108285
:1032D0008F5F8530C0F346E4E41621F054E5E51233
:1032E0008AC043C0E8E5F2E0C601BF010E94F34D89
:1032F0008C01C81AD90A2AE030E0B9010E94074EB1
:103300008093590AA801481B590BCA01B9010E94B0
:10331000074E8B01CB01B9010E94074E80935A0AD8
:10332000A801481B590BCA01B9010E94074E6093BE
:103330005B0AC601BF010E94F34DCB01BF010E9491
:10334000F34DFC01B9010E94074E80935C0AAF0166
:10335000481B590BCA01B9010E94074E60935E0ACF
:1033600070935F0A60935D0A6AC0ECE3F0E0C60107
:10337000BF010E94F34D8C01C601801B910BBF0160
:103380000E94F34D6B012AE030E0C801B9010E94B0
:10339000074E8093590AA801481B590BCA01B9016D
:1033A0000E94074E60935A0AC601BF010E94F34D66
:1033B0008C01C81AD90AB9010E94074E80935B0A92
:1033C000A801481B590BCA01B9010E94074E60931E
:1033D0005C0AC601BF010E94F34DCB01BF010E94F0
:1033E000F34D90935F0A80935E0AB9010E94074EE5
:1033F00080935D0A24C090905E0A40915F0AE0E0ED
:103400000AE010E013C0C601B8010E94F34D9C0110
:10341000982E432FC601821B930BB8010E94F34DD7
:103420006B01F0E0E75AF54F2083E82D8E2E839450
:10343000C114D10441F790925E0A40935F0A85E07F
:103440008093560A1092580A8F2D8150823008F4CA
:10345000FDC00EE121E548E063E0888199810E948A
:10346000D0261092570A10EF12C0E62FF0E0E75A6C
:10347000F54F2081205D619F602D11246C5B45E03C
:103480000E9479258091570A8F5F8093570A609137
:10349000570A2091560A88819981621730F356E4C1
:1034A000E51621F0E4E5EE1232C013C00EE022E290
:1034B0004CE061E20E94792606E122E244E161E209
:1034C000888199810E9479260AE122E448E161E439
:1034D0001AC00EE022E34CE061E30E94792606E187
:1034E00022E344E161E3888199810E9479260EE01C
:1034F00022E14CE061E1888199810E94792606E110
:1035000022E144E161E1888199810E9479268091DC
:10351000580A25E030E0281B31092295207F60EF12
:10352000869F602D11246D5B0CE148E088819981B4
:103530000E94A8268091580AF6E4EF1621F024E5AF
:10354000E21207C003C0823031F003C080FF08C020
:1035500002C0843011F485E001C089E08093600AE4
:10356000888199810E94282AFF2009F4FBC044E049
:10357000F41671F04F1520F053E0F512F3C025C09A
:1035800085E0F81609F453C096E0F912EBC042C08A
:103590008091580A25E030E0281B31092295207FD0
:1035A00060EF869F602D11246D5B0CE148E08881FF
:1035B00099810E94A8268091580A811102C08091A9
:1035C000560A81508093580ACDC08091580A25E050
:1035D00030E0281B31092295207F60EF869F602D07
:1035E00011246D5B0CE148E0888199810E94A82636
:1035F0004091580A242F30E08091560A90E00197BC
:103600002817390724F44F5F4093580AABC0109233
:10361000580AA8C0E091580AF0E0E75AF54F8081B7
:10362000882311F081500EC08091600A0BC0E09198
:10363000580AF0E0E75AF54F80819091600A8917A7
:1036400018F48F5F80838EC010828CC060915D0AF9
:1036500050915A0AE6E4EE1631F080915C0AF4E5E6
:10366000EF1246C023C080915B0A2AE0529F80017E
:10367000112444E6849F000D111D11248091590AE4
:10368000080F111D80915C0A90E05AE0659F800D43
:10369000911D112448E552E0849F9001859F300DD3
:1036A000949F300D1124020F131F42C00091590A3C
:1036B00010E09AE0599F000D111D112440E15EE0D9
:1036C000649F9001659F300D1124020F131F2091FC
:1036D0005B0A30E0EAE08E9F200D311D11244CE39F
:1036E000429FC001439F900D1124080F191F20C055
:1036F0004AE090E0FAE06F9F800D911D1124489FF1
:103700009001499F300D112480915B0A280F311DD3
:10371000429FC001439F900D1124850F911D489F2A
:103720008001499F100D11248091590A080F111D25
:1037300022E0F21214C041E065E571E0CE010E9482
:10374000581888E893E128EC30E0F9013197F1F757
:103750000197D9F7F5011183008382E001C081E070
:103760008093550A8091550ADF91CF911F910F9157
:10377000FF90EF90DF90CF90BF90AF909F908F9091
:103780007F900895CF93DF93FC012389253088F43F
:103790002F5F238B30E021503109E901CC0FDD1F71
:1037A000C20FD31FC80FD91F7E836D830E94871756
:1037B0008C83DF91CF910895FC01638D748D4489D2
:1037C0000C94C21BEF92FF920F931F93CF93DF9342
:1037D000EC014C898A8D481708F0AFC00B8D1C8D09
:1037E000B801CE010E94871794E1899F70011124CE
:1037F000B8016E0D7F1DFB013D9624912E8F2D3457
:1038000069F030F4253429F1263409F096C018C047
:103810002035F9F0233509F090C063C0CE010E9435
:10382000DC1BEB8DFC8DEE0DFF1D3E96859194917A
:103830008B8F9C8F60E0CE010E94351881E07CC0A8
:10384000625F7F4FFB01859194918DA39EA384E0DD
:1038500073C080E090E0382FFB01E80FF91FE4917E
:10386000DE01A80FB91F9B96EC93E03229F0019678
:103870008A30910581F73AE0DE01A30FB11D9B96D6
:103880001C92FB01709685919491009791F0FC0138
:1038900030E0CE018E1B9F0B4491DC01AE0FBF1FA9
:1038A000D6964C93442331F03F5F31963D30A1F7DB
:1038B00001C030E0DE01A30FB11DD6961C92203569
:1038C00011F483E001C082E08D8FFB013B96E4910F
:1038D000EE8F625F7F4FFB01859194918F8F98A34C
:1038E0002CC080E090E0282FFB01E80FF91FE49145
:1038F000DE01A80FB91F9B96EC93E03229F00196E8
:103900008B30910581F72BE0FE01E20FF11D13A62C
:10391000FB017296859194918FA398A7FB017096F5
:103920008591949189A39AA3625F7F4FFB01859152
:1039300094918BA39CA385E08D8FDF91CF911F91F4
:103940000F91FF90EF900895FC018389882389F0FF
:103950008150838B90E0DC01AA0FBB1FA80FB91F19
:10396000AE0FBF1FFD01349614966C917181828158
:1039700008956481758186810895FC015589448983
:103980004330A8F0242F30E0828D90E00197281773
:10399000390731F489E0489F402D1124475105C073
:1039A00089E0489F402D11244251458B01C0158A62
:1039B0008589811105C081E0511103C080E008951F
:1039C00081E008950F931F93CF93DF93EC018B89D0
:1039D000882381F0CE010E94A41C462F072F182FA8
:1039E000B801CE010E949D178C8B0B8F1C8FCE01CE
:1039F0000E94BD1C81E08D8FDF91CF911F910F91AF
:103A000008955F926F927F928F929F92AF92BF9232
:103A1000CF92DF92EF92FF920F931F93CF93DF939A
:103A2000CDB7DEB7A4970FB6F894DEBF0FBECDBFFB
:103A30006C01DC015C967C936E935B970E941C1872
:103A4000F601808191810E94F429C6010E94BD1C6B
:103A5000D6015D961C925D975A961C92A12CB12CB2
:103A6000512C712C6CE0862E912C79E0672EF6019A
:103A7000438D548D9A012A0D3B1DF9017296659173
:103A80007491DB01109721F08C91882309F4BFC059
:103A9000F9013D96A491F601A68F4A0D5B1DFA012E
:103AA0003B961491A53411F0A03529F5225F3F4FC4
:103AB000F90185919491BC01A03549F442E050E0B0
:103AC000CE0182960E940551BE016E5D7F4FDB01E3
:103AD0002D913C91F601428D469D402D1124858902
:103AE000481B485F52E5E52E012F60E580819181FA
:103AF0000E94F826582ED6015E968C915E978335EB
:103B000009F053C01A3209F050C05B962D913C91D8
:103B10005C972A0D3B1DF9013E9605911491205F9B
:103B20003F4FF90125913491D901F60130A3278F38
:103B30009801205C3E4FF8018491803341F4D60116
:103B40005A968C915A978F5F5A968C9360C0F80161
:103B50003D96E491F0E08D919C911197E817F9075B
:103B6000E9F432E0E12CF12CF801EE0DFF1D249177
:103B7000F601428D469D402D11248589481B485FE2
:103B8000632F808191813CA30E94C324FFEFEF1A31
:103B9000FF0A3CA13A5F3A3439F7D1CF005F1F4F9B
:103BA0000217130709F0C7CFCACF32E000E010E0D8
:103BB0007401E518F108D6015E968C91853411F0F8
:103BC000803519F40E151F05E4F4D6015B96ED91CE
:103BD000FC915C97EA0DFB1DE00FF11F24915A96B2
:103BE0004C915A97469D402D112455968C9155978E
:103BF000481B485F632F8D919C913CA30E94C32476
:103C00003CA10F5F1F4F3A5F3A34A9F698CFB4E159
:103C1000AB0EB11CD6015B96ED91FC915C97EA0D61
:103C2000FB1DE491EE2349F07394B0E9AB16B1E0CB
:103C3000BB0609F01CCF34E1732E7394F60164893E
:103C4000C6010E943518F4E17F9E80011124D6013F
:103C50005B966D917C915C97600F711F6F5F7F4FDA
:103C6000FB018491803229F0CE0101960E94414EE1
:103C700006C0BE016F5F7F4FC6010E94B217BE0132
:103C80006F5F7F4FC6010E941C17D6015B968D9116
:103C90009C915C97800F911FFC013D9624919A9610
:103CA0001C921E929997223419F0263409F034C0E0
:103CB0004096FC0185919491BC01CE0148962CA3BD
:103CC0000E94414ED6015B96ED91FC915C97E00F0E
:103CD000F11F729685919491BC01CE010E960E94BF
:103CE000414EAE01425F5F4FBE01685E7F4FC6012D
:103CF0000E9452172CA1263479F4D6015B96ED91DF
:103D0000FC915C97E00FF11F3E96859194919996F6
:103D10008C9399979A969C93A4960FB6F894DEBFCD
:103D20000FBECDBFDF91CF911F910F91FF90EF900C
:103D3000DF90CF90BF90AF909F908F907F906F90CB
:103D40005F900895CF93DF93EC016C89662319F09F
:103D500061500E943518CE010E94BD1C882329F0B5
:103D60006B8D7C8DCE010E94011D88819981DF9130
:103D7000CF910C94282ACF93DF93EC016C89262FE6
:103D800030E08A8D90E001972817390724F46F5F9F
:103D9000CE010E943518CE010E94BD1C882329F057
:103DA0006B8D7C8DCE010E94011D88819981DF91F0
:103DB000CF910C94282A6F927F929F92AF92BF92DC
:103DC000CF92DF92EF92FF920F931F93CF93DF93E7
:103DD0001F92CDB7DEB73C01F62E5A016901E11002
:103DE00008C025E0F21609F49BC086E0F81227C14E
:103DF0009FC0DC018D919C910E94F429B801C30100
:103E00000E941C174AEC53E060E671E0C3010E9477
:103E1000521708E127E44CE062E0F30180819181D0
:103E20000E94792609E128E44BE061E0D3018D91FD
:103E30009C910E94792601E122E541E16AE4F301C7
:103E4000808191810E94292600E122E540E16AE417
:103E5000D3018D919C910E9429260FE021E54FE02E
:103E60006BE4F301808191810E9429260EE020E518
:103E70004EE06CE4D3018D919C910E9429260DE0C7
:103E80002FE44DE06DE4F301808191810E942926A9
:103E900003E122E543E16AE4D3018D919C910E9404
:103EA000292604E122E544E16AE4F301808191815D
:103EB0000E94292605E121E545E16BE4D3018D91BE
:103EC0009C910E94292606E120E546E16CE4F3017D
:103ED000808191810E94292607E12FE447E16DE46A
:103EE000D3018D919C910E9429261092650A90E041
:103EF00080E008C03D96E491D5012C912E1301C0BD
:103F0000982F8F5FF601B0E18B9FE00DF11D11241A
:103F100024912111EFCF9093650A8093660A61CFB7
:103F20008091650A882391F081508093650A0EC0C4
:103F30004091650A242F30E08091660A90E0019755
:103F4000281739071CF44F5F4093650A07E125E401
:103F50004DE063E0F301808191810E94D02634E03E
:103F600000E010E08091650AF60120E1829FE00DFB
:103F7000F11D1124E00FF11F24914FE0632FD301B5
:103F80008D919C9139830E94C3240F5F1F4F39810B
:103F90003A5F363439F703E223E54EE160E0F3019E
:103FA000808191810E94D0268091650AF60120E1EE
:103FB000829FE00DF11D11243E96859194918C0114
:103FC000912CE12C07C0692D6E0D4EE10E943E241C
:103FD000980EE394F801EE0DF11D2491D3018D911B
:103FE0009C912111F0CF0E94282AB2E0FB1641F0EB
:103FF000E3E0FE1619F0F1E0FF121FC081E022C0DD
:104000008091650A20E1829FC00CD11C1124F60129
:104010003D96E491D501EC9341E065E571E0C30183
:104020000E94581888E893E128EC30E0F9013197B4
:10403000F1F70197D9F782E005C080E003C0E110F5
:1040400085CFD3CF0F90DF91CF911F910F91FF902C
:10405000EF90DF90CF90BF90AF909F907F906F9048
:104060000895AF92BF92CF92EF92FF920F931F935A
:10407000CF93DF9300D0CDB7DEB75C01DC011296A1
:104080008D919C9113970E94D213F82EF501858D86
:1040900081110DC08F2D8150823048F421A532A5A9
:1040A0002115310521F036A325A384E0858FD501A4
:1040B0005D968C91833009F476C020F4813059F1FB
:1040C000D0F509C0853009F44AC008F4B3C0863081
:1040D00009F0C0C030C0B4E0FB16A9F0BF1520F055
:1040E000E3E0FE12B7C013C0F5E0FF1621F086E052
:1040F000F812B0C004C0C5010E94A21EABC0C50129
:104100000E94BB1EA7C0C5010E94E21BA3C0C5013F
:104110000E94E21C9FC080931E01D5015B966D91A9
:104120007C915C97C5010E94011DF5018081918100
:104130000E94282A8FC085010A5C1F4F9501255DCA
:104140003F4FD5015F964D915C919097C0901E01B5
:104150005E96EC906F2DC5010E94DD1874C085013C
:10416000055D1F4FD50193962D913C9194979196A3
:104170004D915C919297E0901E016F2DC5010E94B8
:10418000DB1E10921E01882309F464C0823009F0FE
:104190005EC0D5019796ED91FC919897309709F400
:1041A00056C0099554C080911E01882359F0D5014D
:1041B0005F966D917C91909742E050E083E59AE0A4
:1041C0000E94055185010A5C1F4F9501255D3F4FF7
:1041D000C0901E01F501E68C43E55AE06F2DC50144
:1041E0000E94DD1810921E018823A1F18230E9F4AB
:1041F000D5015F966D917C91909742E050E0CE01A1
:1042000001960E94055129813A818091530A90912B
:10421000540A2817390749F0F501678D70A142E06B
:1042200050E083E59AE00E941D5181E0D5015D9642
:104230008C9310C0D5019596ED91FC919697609165
:104240001E018F2D099510921E01882319F081E01F
:10425000F501858FD5015D968C918111F12C8F2D03
:104260000F900F90DF91CF911F910F91FF90EF90E2
:10427000CF90BF90AF9008958F929F92BF92CF92B0
:10428000DF92EF92FF920F931F93CF93DF931F92D2
:10429000CDB7DEB74C01162F7A016901B02E00238D
:1042A00011F1FC01808191810E94F429B601C401C1
:1042B0000E941C174AEC53E060E671E0C4010E94C2
:1042C000521708E121E54CE061E0F4018081918121
:1042D0000E94792609E122E54BE060E0F40180814B
:1042E00091810E947926143099F018F41330E1F589
:1042F00005C0153039F11630B9F513C08091670A41
:10430000882311F0815001C08AE08093670A2EC093
:104310008091670A8A3010F48F5FF7CF1092670A96
:1043200025C08091670AF701E80FF11D80818B3568
:1043300010F080E480838081813410F0815012C0BD
:104340008AE510C08091670AF701E80FF11D8081AE
:10435000813410F48BE5808380818B3510F48F5F7E
:1043600001C081E4808302C0BB20B1F107E12FE4EA
:104370004DE062E0F401808191810E94D026BE2C44
:10438000670133E0FC2CFB18F60121916F01822FAD
:1043900081548A3108F020E24FE0632FF4018081DC
:1043A000918139830E94C3248091670A3981F81270
:1043B0000BC0232F2A5F06E14EE0632FF4018081BA
:1043C00091810E94A8263981395F3035D9F6F401F0
:1043D000808191810E94282A1150123030F4E12FFF
:1043E000F0E0E35CFE4F808101C080E00F90DF9140
:1043F000CF911F910F91FF90EF90DF90CF90BF90E2
:104400009F908F900895279A2F9A0895F89484EF9B
:1044100091E0BA010E94074E882777FD8095982F7A
:104420000E94B54C4B015C012BEA3AEA4AE250E4A7
:104430000E94694DEB01182F092F98017D2F832FC2
:10444000922F0E94874C762E20E030E040E85FE318
:10445000F8016C2F7D2F8F2F9E2F0E941B4C87FF02
:10446000CFC077247394CCC020E030E04FE753E412
:10447000F8016C2F7D2F8F2F902F0E94654D1816FD
:104480000CF04EC020E030E04AE754E4C501B4012E
:104490000E941F4C362E472E582E692E20E030E009
:1044A0004AEF54E40E94694D6B017C0120E030E04A
:1044B00040E85FE37D2D9F2D0E941B4C87FD2AC0A5
:1044C00020E03FEF4FE757E46C2D7D2D8E2D9F2D83
:1044D0000E94654D1816BCF420E030E040E251E443
:1044E000632D742D852D962D0E94694D0E94874C59
:1044F00006C088EC90E00197F1F7615071096115F1
:104500007105B9F710C06C2D7D2D8E2D9F2D0E9449
:10451000874C02C061E070E0CB010197F1F703C066
:10452000872D8A95F1F72F9A20E030E040E85FE38D
:10453000F8016C2F7D2F8F2F902F0E941B4C87FD31
:104540005CC020E030E04FE753E4F8016C2F7D2F92
:104550008F2F902F0E94654D18160CF04EC020E052
:1045600030E04AE754E4C501B4010E941F4C362EE6
:10457000472E582E692E20E030E04AEF54E40E9486
:10458000694D6B017C0120E030E040E85FE37D2D68
:104590009F2D0E941B4C87FD2AC020E03FEF4FE774
:1045A00057E46C2D7D2D8E2D9F2D0E94654D181684
:1045B000BCF420E030E040E251E4632D742D852D01
:1045C000962D0E94694D0E94874C06C088EC90E0B1
:1045D0000197F1F76150710961157105B9F710C0C4
:1045E0006C2D7D2D8E2D9F2D0E94874C02C061E089
:1045F00070E0CB010197F1F703C0872D8A95F1F7A1
:104600002F9820E030E040E85FE3F8016C2F7D2F29
:104610008F2F902F0E941B4C87FD82CF25CFFC014E
:104620002081211122C0F89420E130E058E22F9837
:10463000452F4A95F1F72F9A452F4A95F1F72150CA
:104640003109A9F7E4E4F9E33197F1F720E130E02B
:1046500058E22F98452F4A95F1F72F9A452F4A9502
:10466000F1F721503109A9F77894FC01208121301C
:1046700029F448E250E060ED77E006C0253031F4DF
:1046800046E250E068EC72E30E940622243029F4EE
:1046900048E250E06CE073E2F7CF233029F446E2C1
:1046A00050E066EA7EE0F0CF223029F448E250E0A4
:1046B00060E179E0E9CF0895FC012081211122C059
:1046C000F89420E130E058E22F98452F4A95F1F711
:1046D0002F9A452F4A95F1F721503109A9F7E0EEBD
:1046E000F9E23197F1F720E130E058E22F98452FB9
:1046F0004A95F1F72F9A452F4A95F1F72150310944
:10470000A9F77894FC012081233029F446E250E097
:1047100066EA7EE006C0223031F448E250E060E113
:1047200079E00E9406220895FC012081243031F4B2
:1047300048E250E068E273E20E9406220895FC011C
:104740002081243031F448E250E068E273E20E94B4
:10475000062208958D982D98089508956435D8F40B
:104760004033C8F4E42FF0E023E0F595E7952A956F
:10477000E1F726E0629FE00DF11D1124E80FF91F1B
:10478000477081E090E0042E01C0880F0A94EAF798
:104790009081982B908308956435E0F44033D0F4F1
:1047A000E42FF0E033E0F595E7953A95E1F726E060
:1047B000629FE00DF11D1124E80FF91F477081E0A1
:1047C00090E0042E01C0880F0A94EAF7809590814A
:1047D000892380830895E42FF0E053E0F595E79571
:1047E0005A95E1F726E0629FE00DF11D1124E80FD4
:1047F000F91F808190E0477002C0959587954A9592
:10480000E2F7817008950F931F93CF93DF93EC012C
:10481000162F042F0E94EB23402F612F882339F09D
:10482000CE01DF91CF911F910F910C94CC23CE013B
:10483000DF91CF911F910F910C94AE23DB0180E0AB
:1048400019C0E03211F48E5F15C0EE3299F09E2F40
:1048500090539A3010F48D5F0DC0EB3508F0E052A4
:10486000E15496E0E99FF0011124E95CF24FE491F4
:104870008E0F8F5FED91E111E4CF08956F927F92DB
:104880008F929F92AF92BF92CF92DF92EF92FF9260
:104890000F931F93CF93DF936C01862E742E2032DB
:1048A00009F443C02E3209F442C0822F80538A306B
:1048B00010F4265106C02B3508F0205221542B3518
:1048C000B0F586E0289F90011124F901E95CF24FD0
:1048D000949000E010E068E3A62E6DE0B62EA20EE4
:1048E000B31E1EC0F501E00FF11FE490C0E0D0E060
:1048F000F12C682E680C97010C2E02C03595279577
:104900000A94E2F720FF06C04C2F470D662DC60122
:104910000E94AE232196C530D10569F70F5F1F4F66
:10492000802F0915F8F2892D03C082E001C080E0D4
:10493000DF91CF911F910F91FF90EF90DF90CF907B
:10494000BF90AF909F908F907F906F900895EF925F
:10495000FF920F931F93CF93DF938C01F62EE42EDB
:10496000E90107C04E2D6F2DC8010E943E24F80EAC
:10497000F39429912111F6CFDF91CF911F910F91DF
:10498000FF90EF9008957F928F929F92AF92BF9287
:10499000CF92DF92EF92FF920F931F93CF93DF930B
:1049A0005C01962E842E205286E0289F70011124EF
:1049B000C0E0D0E08FE09EE0E80EF91EF701EC0FBA
:1049C000FD1FC49000E010E0D12C7C2E790CC601B4
:1049D000002E02C0959587950A94E2F780FF06C0E5
:1049E000482D400F672DC5010E94AE230F5F1F4F5A
:1049F0000830110561F72196C630D105F9F6DF912F
:104A0000CF911F910F91FF90EF90DF90CF90BF90CB
:104A1000AF909F908F907F9008958F929F92AF92CA
:104A2000CF92DF92EF92FF921F93CF93DF936C01AF
:104A3000162FA42EE9012A30310590F024363105D5
:104A400010F41A5F0DC0283E83E0380710F4145F9D
:104A500007C0203187E2380710F41E5E01C0185EDF
:104A60007AE0872E912CCE01B4010E94F34D7C0197
:104A7000282F205D4A2D612FC6010E94C324CE013C
:104A80008E199F09B4010E94F34DEB011650209737
:104A900051F7DF91CF911F91FF90EF90DF90CF9072
:104AA000AF909F908F900895CF92DF92FF920F93D7
:104AB0001F93CF93DF931F92CDB7DEB78C01562F94
:104AC000F42E690108C04F2D652FC80159830E943B
:104AD000C32459815A5FF60121916F012111F3CF4F
:104AE0000F90DF91CF911F910F91FF90DF90CF90AA
:104AF00008952F923F924F925F926F927F928F9282
:104B00009F92AF92BF92CF92DF92EF92FF920F935C
:104B10001F93CF93DF931F92CDB7DEB73C01562E84
:104B2000342F2E3231F02B3231F02D3231F02F7004
:104B300005C02AE003C02BE001C02CE083E0289FE1
:104B400050011124E4E0AA0CBB1CEA95E1F7E12C2A
:104B5000F12C2EC0F601E20DF31D849000E010E070
:104B6000912C422C450CC401002E02C095958795CE
:104B70000A94E2F780FF08C0432F400F642DC30161
:104B800039830E94AE2339810F5F1F4F0830110512
:104B900051F79FEF291A390AE0E12E163104D1F6B8
:104BA000385FF0E1EF0EF11C80E3E816F10451F0FC
:104BB0006701CA0CDB1C212C312CE7E3F0E1CE0E9F
:104BC000DF1EC8CF0F90DF91CF911F910F91FF9003
:104BD000EF90DF90CF90BF90AF909F908F907F909D
:104BE0006F905F904F903F902F900895CF92DF92FB
:104BF000FF920F931F93CF93DF931F92CDB7DEB732
:104C00008C01562FF42E690108C04F2D652FC80165
:104C100059830E9479255981505FF60121916F01D6
:104C20002111F3CF0F90DF91CF911F910F91FF9042
:104C3000DF90CF900895222339F0213019F02F3FD3
:104C400039F404C00C94AE230C94CC230C940324AC
:104C50000895AF92BF92CF92DF92EF92FF920F939F
:104C60001F93CF93DF93EC01F62EE42E122F161B29
:104C7000041BBB24B394111101C0B12CCC24C394E8
:104C8000011101C0C12C4E2D6F2DCE010E94AE230B
:104C9000101798F0D12ED694A12C0CC0D00ED1169E
:104CA00010F0D11AEC0CFB0C4E2D6F2DCE010E9492
:104CB000AE23A394A112F2CF11C0D02ED694A12C72
:104CC000D10ED01610F0D01AFB0CEC0C4E2D6F2D1F
:104CD000CE010E94AE23A394A012F2CFDF91CF9118
:104CE0001F910F91FF90EF90DF90CF90BF90AF900A
:104CF0000895DF92EF92FF920F931F93CF93DF936C
:104D0000EC01F62ED42EE22E102F042F0E9429261D
:104D1000012F2E2D4D2D6E2DCE010E9429262F2DD7
:104D20004D2D6F2DCE010E9429262E2D412F6F2D46
:104D3000CE010E942926DF91CF911F910F91FF9004
:104D4000EF90DF90089581E0611101C080E0089547
:104D5000CF92DF92EF92FF920F931F93CF93DF9347
:104D60001F92CDB7DEB76C01E42EF62E0BC0412F9B
:104D70006F2DC60129830E9403241F5F298101171B
:104D8000B0F7F3942F1510F01E2DF9CF0F90DF918F
:104D9000CF911F910F91FF90EF90DF90CF900895EA
:104DA000CF92DF92EF92FF920F931F93CF93DF93F7
:104DB0001F92CDB7DEB76C01E42EF62E0BC0412F4B
:104DC0006F2DC60129830E94CC231F5F2981011703
:104DD000B0F7F3942F1510F01E2DF9CF0F90DF913F
:104DE000CF911F910F91FF90EF90DF90CF9008959A
:104DF0004F925F926F927F928F929F92AF92BF92EB
:104E0000CF92DF92EF92FF920F931F93CF93DF9396
:104E10001F92CDB7DEB72C01762E642E690182E594
:104E2000E81202C0EAEF07C02A303105A8F02436A4
:104E3000310518F4E6E07E0E0FC0283EF3E03F0790
:104E400010F48CE008C02031E7E23E0718F4F2E1EC
:104E50007F0E02C088E1780E043529F1053521F076
:104E6000063409F040C1ACC030E00AE010E0C601F1
:104E7000B8010E94F34D7C01282F205D462D672D3F
:104E8000C20139830E94C324C6018E199F09B8014B
:104E90000E94F34D6B01EAEF7E0E39813F5F611591
:104EA000710529F721C10CE3E02EF12CC601B701F1
:104EB0000E94F34D5C01C6018A199B09B7010E944B
:104EC000F34D4B010AE010E0C501B8010E94F34D1B
:104ED0006C01282F205D462D672DC2010E94C3243E
:104EE000C5018C199D09B8010E94F34D262F205D44
:104EF000672D6650462DC2010E94C324672D6C5059
:104F00002AE3462DC2010E94C324C401B7010E94B6
:104F1000F34D6C01C4018C199D09B7010E94F34D3A
:104F20005B01C601B8010E94F34D7C01282F205D72
:104F3000672D6251462DC2010E94C324372D38517E
:104F4000C6018E199F09B8010E94F34D262F6111E9
:104F500002C013E001C014E0205D462D632FC201A2
:104F60000E94C324672D6E512AE3462DC2010E9480
:104F7000C324372D3452C5016CE370E00E94F34D19
:104F80006AE070E00E94F34D811116E0282F205D49
:104F9000462D632FC2010E94C324672D6A52062D3D
:104FA000095F87E090E0811B282F220F280F220F36
:104FB000260F462DC2010E94D02637E0311B94C037
:104FC00028E532E0C601B9010E94F34D7C01C6011B
:104FD0008E199F09B9010E94F34D5B010AE010E0B0
:104FE000C701B8010E94F34D6C01282F205D462DAA
:104FF000672DC2010E94C324672D66502EE2462D04
:10500000C2010E94C324C7018C199D09B8010E94E6
:10501000F34D7B01CB01B8010E94F34D6C01282FA9
:10502000205D672D6C50462DC2010E94C324372D90
:105030003251C7018C199D09B8010E94F34D262FEA
:10504000611103C012E0D12E02C0B3E0DB2E205D5F
:10505000462D632FC2010E94C324672D68512AE3A5
:10506000462DC2010E94C324372D3E51C50168E57B
:1050700072E00E94F34D8C016AE070E00E94F34DF3
:105080007C01282F882311F0A5E0DA2E205D462D23
:10509000632FC2010E94C324372D3452C8018E19D8
:1050A0009F096AE070E00E94F34D262F662311F0FD
:1050B000F6E0DF2E205D462D632FC2010E94C3243F
:1050C000672D6A52062D095F87E090E08D19282F21
:1050D000220F280F220F260F462DC2010E94D02634
:1050E00037E03D1901C030E0832F0F90DF91CF9161
:1050F0001F910F91FF90EF90DF90CF90BF90AF90F6
:105100009F908F907F906F905F904F9008952F9217
:105110003F924F925F926F927F928F929F92AF9247
:10512000BF92CF92DF92EF92FF920F931F93CF9394
:10513000DF9300D000D01F92CDB7DEB7282E592FB5
:10514000362EF9018491B9016E5F7F4F7D836C83A8
:1051500031962491311002C0442391F030E059017E
:1051600093E0B594A7949A95E1F7742F412C982F6A
:10517000930D99834901840E911C682E712C5DC09A
:10518000843561F7203351F7222D392F66E019C09D
:10519000FA014F5F5F4FE491D901A80FB91FEC935B
:1051A0000696883FE1E09E0799F78C819D818C5A95
:1051B0009F4F9D838C8361502F5F3F4F662309F47F
:1051C00045C04C815D8180E090E0E2CFF7019FEF28
:1051D000E91AF90AC49000E010E0D12C472F400FE3
:1051E000242F30E082169306BCF09601002E02C0F8
:1051F000359527950A94E2F7652D822D952F5B83CF
:105200007A8320FF05C00E94AE235B817A8104C0AF
:105210000E94CC237A815B810F5F1F4F08301105FC
:10522000E9F65394E9815E12D1CF8C819D81860D80
:10523000971D9D838C834394785F242D30E02A153D
:105240003B0524F4532CEC80FD80ECCF0F900F90A5
:105250000F900F900F90DF91CF911F910F91FF90C2
:10526000EF90DF90CF90BF90AF909F908F907F9006
:105270006F905F904F903F902F9008955F926F9244
:105280007F928F929F92AF92BF92CF92DF92EF92D6
:10529000FF920F931F93CF93DF93EC01F62E042F11
:1052A000E22ED62ED21A6D2D0E94AE23B02EBE183D
:1052B0004B2D6F2DCE010E94AE23CE2CCF0C402F54
:1052C0006C2DCE010E94AE23AE2CA00E4A2D6F2D68
:1052D000CE010E94AE2311E001C0182F5E2C511A9E
:1052E0008A2C811A712E7F0C482D672DCE010E94C9
:1052F000AE236B2C610E9F2C911A462D692DCE0189
:105300000E94AE23462D672DCE010E94AE23482D6C
:10531000692DCE010E94AE23812E800E7C2C711A45
:10532000482D672DCE010E94AE23602E611A9D2C60
:10533000910E462D692DCE010E94AE23462D672D7C
:10534000CE010E94AE23482D692DCE010E94AE23CE
:10535000812F8F5F511608F6DF91CF911F910F912A
:10536000FF90EF90DF90CF90BF90AF909F908F9085
:105370007F906F905F9008958F929F92AF92BF92AF
:10538000CF92DF92EF92FF92862E912CA12CB12C1E
:10539000A0E2B0E8A50194010E94D84D6B017C0108
:1053A00080E4C82284E8D82288E0E822FF24A2E032
:1053B000B8E00E94D84D6071717282709927C62A38
:1053C000D72AE82AF92AA701960161E071E081E075
:1053D00090E00E94E34DFF90EF90DF90CF90BF9060
:1053E000AF909F908F9008959C0146E00EC0F90108
:1053F000E80FF91F10820696883F51E09507B9F72C
:1054000041502F5F3F4F442319F080E090E0EFCFF1
:1054100008952898411102C0169801C0169A6EBDD1
:105420000DB407FEFDCF289A08951F93CF93DF9305
:10543000EC01162F642F606440E00E94092A612F5E
:10544000606840E0CE01DF91CF911F910C94092A52
:10545000CF92DF92EF92FF920F931F93CF93DF9340
:10546000D82EC92E40E060E00E94152ACD2DDC2DFB
:105470007E0186E0E80EF11C13C0FE01E00FF11F73
:1054800041E060818D2D9C2D0E94092A0A5F1F4FEB
:10549000083F81E0180789F72196CE15DF0519F03E
:1054A00000E010E0EACFDF91CF911F910F91FF90C4
:1054B000EF90DF90CF9008950F931F93CF93DF93DA
:1054C000EC0140E06CE00E94092A40E060E8CE0177
:1054D0000E94092A08EF11E041E060E0CE010E943D
:1054E000092A01501109C1F7DF91CF911F910F9146
:1054F000089528982A98299871988D981698159843
:105500000895613039F4FC01E750FE4F60838D98B7
:105510002D9A08956F3F11F40C94AA23FC01E750D3
:10552000FE4F10828D9A2D980895FC01E850FE4F91
:105530006083662331F0FC01E750FE4F60810C94DC
:10554000812A0C94AA23CF93DF93EC01209A229A0C
:10555000219A699A859A259A0E9A0D9A719AFC0158
:10556000E750FE4F60810E94812A8AE18A95F1F717
:10557000159882E08A95F1F7159A81E58CBD40E097
:1055800061E2CE010E94092A40E060ECCE010E9457
:10559000092A40E066E0CE010E94092A40E063E16A
:1055A000CE010E94092A40E060E2CE010E94092A51
:1055B000CE010E945C2A40E06CE0CE010E94092AE4
:1055C0006FEFCE01DF91CF910C94952A88509E4FBA
:1055D000FC0180810895CF93DF93EC0180918D0AC7
:1055E000882319F080E00E942415FE01E05BFF4F44
:1055F000808181110CC0C15BDF4F8881882321F03D
:105600008091680A811107C01092680A0BC0479AFE
:10561000469A469807C01092680A82E397E00E9473
:105620000F23F2CFDF91CF910895CF93DF93EC0159
:1056300080918D0A882319F081E00E942415FE01D3
:10564000E05BFF4F8081811111C0C15BDF4F88811A
:10565000882321F081E08093680A02C01092680AD2
:1056600082E397E0DF91CF910C940F238091830A1E
:10567000811103C04698479818C08130B1F49091C9
:10568000680A911112C0469847988093680A84EF7F
:1056900091E028EC30E0F9013197F1F70197D9F763
:1056A000CE01DF91CF910C94EB2ADF91CF91089539
:1056B000CF93DF93EC0180918D0A882319F080E06D
:1056C0000E942415FE01E05BFF4F808181110BC019
:1056D000C15BDF4F8881882309F43EC08091680A4E
:1056E00081113DC039C08091830A811115C0479A4C
:1056F000469A469A84EF91E028EC30E0F901319720
:10570000F1F70197D9F7C05BDF4F349B03C081E00D
:1057100088832AC0188228C0813031F58091680AB8
:10572000813011F5479A469A469A84EF91E028EC29
:1057300030E0F9013197F1F70197D9F7FE01E05B0D
:10574000FF4F349B03C081E0808301C01082109220
:10575000680ACE010E94152B1092680A05C082E3E8
:1057600097E00E940F23F8CFDF91CF910895FC01BD
:10577000E05BFF4F469B06C0349B03C081E0808303
:1057800001C01082808108951F93CF93DF93EC01B5
:10579000162F84E4689FB0011124675F7F4F44E4B3
:1057A00050E0CE010E941D51C45BDF4F1883DF9192
:1057B000CF911F910895FC0184E4808385E4818367
:1057C00086E4828381E4838385E584838CE4858316
:1057D00084E58683178285E090E0958784878AE058
:1057E00090E09787868784E190E0918B808B83E0BF
:1057F00090E0938B828B81E090E0958B848B978BEC
:10580000868B918F808FDF01AE5BBF4F11969C938B
:105810008E9360E0CF010C94C42B1F93CF93DF9342
:10582000EC01162F84E4689FB0011124675F7F4F5D
:1058300044E450E0CE010E940551C45BDF4F188361
:10584000DF91CF911F910895CF93DF93EC0189E011
:1058500090E00E9415518F3F19F4CE010E94DB2B7E
:1058600060E0CE010E940D2C469A3E9A479A3F9ADC
:105870003C98449A86988E9AC05BDF4F349B03C055
:1058800081E0888301C018821092680ADF91CF916D
:1058900008951F93CF93DF93C1E0D0E014E41C9FE1
:1058A000C0011D9F900D1124875F9F4F0E941551CD
:1058B0008F3F31F02196C931D10589F78FEF01C0B3
:1058C0008C2FDF91CF911F910895855B9F4F21E031
:1058D000FC01208308952F923F924F925F926F9226
:1058E0007F928F929F92AF92BF92CF92DF92EF9270
:1058F000FF920F931F93CF93DF93CDB7DEB76497DB
:105900000FB6F894DEBF0FBECDBF1C01469B09C089
:10591000FC01E05BFF4F349B03C081E0808301C04A
:105920001082F101E55BFF4F8081811108C08091F9
:105930006A0A882309F4D5C321E0298701C01986A2
:1059400080916A0A811118C081E080936A0A1092DE
:105950006B0A87E897E00E94761410926C0A109206
:105960006D0A469A3E9A479A3F9A3C98449A86987E
:105970008E9A469A479A469A80916B0A811154C032
:1059800080911F01882371F080918D0A882331F066
:105990008FEC93E00E94B9370E94BB3780916B0A6D
:1059A00080931F0160918707709188078091890714
:1059B00090918A0728EE33E040E050E00E941B4EB1
:1059C000D1011C96CD90DC901D97E12CF12CC216D4
:1059D000D306E406F506A0F487E897E00E94761463
:1059E00087E897E00E946A1410926E0A10926F0A7C
:1059F0001092700A1092710A82E080936B0A14C0B0
:105A0000F1018485958589019A010F5F1F4F2F4F02
:105A10003F4FAC0160E070E0041715072607370719
:105A200018F0C1010E94EB2A80916B0A823009F0C4
:105A30003DC080911F01823071F080918D0A8823D2
:105A400031F080EE93E00E94B9370E94BB3780911D
:105A50006B0A80931F01D10156968D919C915797A7
:105A6000892B09F042C354968D919C91559782FDE4
:105A70003CC341C3F9013197F1F70197D9F7C1014F
:105A80000E94582B84EF91E028EC30E0F901319727
:105A9000F1F70197D9F7F10180899189029718F4FC
:105AA000C1010E94EB2A84E080936B0A80916B0A0B
:105AB000813009F014C280911F01813071F0809112
:105AC0008D0A882331F081EF93E00E94B9370E945C
:105AD000BB3780916B0A80931F01F101E15BFF4F9F
