:100000000C9455090C9484090C9484090C9484096B
:100010000C9484090C9484090C9484090C9484092C
:100020000C9484090C9484090C949D3A0C948409D2
:100030000C9484090C94F2120C9484090C94840995
:100040000C9484090C9484090C9484090C948409FC
:100050000C9484090C9484090C9484090C948409EC
:100060000C9484090C9484090C9484090C948409DC
:100070000C9484090C9484090C9484090C948409CC
:100080000C9484090C9484090C9484090C948409BC
:100090000C9422430C9484091E03540069006D00E3
:1000A00065006C0061007000730065002B0020008B
:1000B00043004400430000001C0345006C0069003D
:1000C0006A006100680020005000610072006B004F
:1000D0006500720000000403090409023E000201E9
:1000E00000C03209040000010202010005240010D2
:1000F0000104240206052406000107058203080006
:10010000FF09040100020A000000070504021000B4
:10011000010705830210000112011001020000080E
:10012000EB03442001000102DC0152657472696531
:1001300076696E672044657669636520496E666FEF
:100140002E2E2E0D0A004465766963652041747475
:1001500061636865642E0D0A000D0A446576696363
:100160006520556E61747461636865642E0D0A00C4
:1001700047657474696E6720436F6E6669672044D3
:100180006174612E0D0A00436F6E74726F6C2045AE
:1001900072726F72202847657420436F6E666967BC
:1001A00075726174696F6E292E0D0A00496E766151
:1001B0006C6964204465766963652E0D0A00202D04
:1001C0002D204572726F7220436F64653A2025645A
:1001D0000D0A00436F6E74726F6C204572726F72FD
:1001E000202853657420436F6E6669677572617469
:1001F000696F6E292E0D0A202D2D204572726F72A7
:1002000020436F64653A2025640D0A005374696CBD
:100210006C20496D6167652044657669636520459A
:100220006E756D6572617465642E0D0A00486F739A
:1002300074204D6F6465204572726F720D0A202D17
:100240002D204572726F7220436F64652025640D06
:100250000A0044657620456E756D204572726F7296
:100260000D0A202D2D204572726F7220436F646538
:100270002025640D0A202D2D2053756220457272B1
:100280006F7220436F64652025640D0A202D2D2098
:10029000496E2053746174652025640D0A00546111
:1002A0006B696E6720706963747572652E2E2E0DF2
:1002B0000A004572726F7220380D0A004368616E41
:1002C00067696E672050726F70657274792E2E2E7A
:1002D0000D0A004572726F7220390D0A0045727264
:1002E0006F722031320D0A004572726F7220310D2B
:1002F0000A002020204D616E756661637475726519
:10030000723A2025730D0A002020204D6F64656C21
:100310003A2025730D0A0020202044657669636524
:100320002056657273696F6E3A2025730D0A0D0AA7
:10033000004572726F7220320D0A004F70656E694F
:100340006E672053657373696F6E2E2E2E0D0A0033
:100350004572726F7220340D0A00436C6F73696EC0
:10036000672053657373696F6E2E2E2E0D0A00453C
:1003700072726F7220360D0A00446F6E652E0D0A80
:1003800000436F6D6D616E64204572726F7220283C
:100390002553292E0D0A202D2D204572726F7220B3
:1003A000436F64652025640D0A00526573706F6E9B
:1003B000736520436F646520213D204F4B005472CC
:1003C000616E73616374696F6E204661696C00537E
:1003D000696D706C652054696D6572004DFB040099
:1003E000001D0154696D656C6170736520202000EB
:1003F0004D4B0500001C01436F6E6E656374202039
:10040000202020004DB3060000000053657474697D
:100410006E677320202020004DEF060000000000D2
:100420002020202020202020202020005600000016
:1004300000000053746F702054696D6572202000B5
:1004400046FD0900001E0A416464204B657966720E
:10045000616D650046860900002F0A44656C204BDB
:1004600065796672616D6500462A0B00002E0A569A
:100470006965772044657461696C730046590C00A6
:100480000000004C6F61642053617665642E2E007D
:1004900046110A00001D01536176652041732E2E1E
:1004A0002020200046220E000000005361766520C7
:1004B000202020202020200046440B0000D3095398
:1004C0006176652044656661756C740046670B0053
:1004D00000000052657665727420202020202000E4
:1004E00046D20900001D01004F5054494F4E5300A1
:1004F0002020200046F509CB07D20744656C6179BE
:10050000202020202020540045180AD30700005046
:10051000686F746F7320202020205500451C0ADC72
:100520000700004761702020202020202020460066
:10053000451A0AE707320A00202020202020202028
:100540002020200046500CD207EF074D6F64652035
:100550002020202020202A0053F507E7090000442E
:10056000656C6179202020202020540045DF09D3CC
:100570000700004672616D65732020202020550021
:1005800045E109DC071B01496E7472766C2020205E
:100590002020460045E309E707330A484452204536
:1005A000787027732020550045E509E707310A5385
:1005B00068757474657220202020460045E909E7BB
:1005C00007310A5368757474657220202020460034
:1005D00045E909E7071A014844522045562B2F2DBB
:1005E0002020550045EB094508310A42756C622010
:1005F000312020202020460045ED09E707300A2A57
:100600004B657920202020202020540045010A5DE0
:1006100008300A42756C62203220202020204600DB
:1006200045EF09E707300A2A4B6579202020202072
:100630002020540045030A5D082C0A42756C622094
:10064000332020202020460045F109E7072C0A2A04
:100650004B657920202020202020540045050A5D8C
:10066000082B0A42756C622034202020202046008E
:1006700045F309E7072B0A2A4B6579202020202023
:100680002020540045070A5D082A0A42756C622042
:10069000352020202020460045F509E7072A0A00DA
:1006A00020202020202020202020200046610E69CC
:1006B00008EF07426C7565746F6F74682020200026
:1006C00046100C00002D07555342202020202020EA
:1006D0002020200046890B00000000002020202060
:1006E0002020202020202000560000000000005381
:1006F000797374656D20496E666F2000461D110088
:100700000000004C434420436F6C6F722020200097
:100710005371087F0A6D314C434420424C20546988
:100720006D65200053A108800A6D31505752204159
:1007300075746F204F666600531109810A6D314C44
:100740004544204175746F204F66660053710982DD
:100750000A6D3142756C62204D6F64652020200067
:1007600053E1097D0A6D3143616D65726120465028
:100770005320200053110A700A6D3143616D657278
:1007800061204D616B65200053C10A7E0A6D3144C2
:100790006576204D6F6465204C45440053410B87BE
:1007A0000A6D31446576656C6F706D656E742000FE
:1007B0004D710B0000000000202020202020202070
:1007C00020202000560000000000005245545552E1
:1007D0004E000068683A6D6D3A7373003020666FA2
:1007E0007220696E662E006D6D3A73732E7300531E
:1007F000544152540054696D652D6C6170736520CD
:10080000200001250C48445220542D6C6170736502
:10081000200003350C4844522050686F746F20202C
:10082000200002430C42756C622D72616D702020B5
:10083000200005540C0020202020202020202020F3
:10084000200000000053746F707320626574776538
:10085000656E206578706F73757265730053696E8D
:100860006365207374617274004F5054494F4E5346
:100870000057686974652020202020202000006235
:100880000C526564202020202020202020000162BE
:100890000C002020202020202020202020000000EC
:1008A000003130205365636F6E6473202000017245
:1008B0000C3330205365636F6E6473202000037225
:1008C0000C31204D696E7574652020202000067261
:1008D0000C32204D696E75746573202020000C72F7
:1008E0000C35204D696E75746573202020001E72D2
:1008F0000C3130204D696E757465732020003C7298
:100900000C0020202020202020202020200000007B
:100910000031204D696E757465202020200006840A
:100920000C32204D696E75746573202020000C8494
:100930000C35204D696E75746573202020001E846F
:100940000C3130204D696E757465732020003C8435
:100950000C3330204D696E75746573202000B484AB
:100960000C0020202020202020202020200000001B
:10097000003130205365636F6E6473202000019650
:100980000C3330205365636F6E6473202000039630
:100990000C31204D696E757465202020200006966C
:1009A0000C32204D696E75746573202020000C9602
:1009B0000C35204D696E75746573202020001E96DD
:1009C0000C3130204D696E757465732020003C96A3
:1009D0000C002020202020202020202020000000AB
:1009E000005374616E64617264202020200000A8AE
:1009F0000C4D6F6D2E20546F67676C65200001BB36
:100A00000C0020202020202020202020200000007A
:100A1000003120465053202020202020200065CE89
:100A20000C3220465053202020202020200033CE9E
:100A30000C3320465053202020202020200022CE9E
:100A40000C342046505320202020202020001ACE95
:100A50000C3520465053202020202020200015CE89
:100A60000C3620465053202020202020200011CE7C
:100A70000C372046505320202020202020000FCE6D
:100A80000C382046505320202020202020000DCE5E
:100A90000C313020465053202020202020000BCE47
:100AA0000C3132204650532020202020200009CE37
:100AB0000C002020202020202020202020000000CA
:100AC000004F746865722020202020202000FEE066
:100AD0000C43616E6F6E202020202020200000F546
:100AE0000C4E696B6F6E202020202020200001F525
:100AF0000C4D696E6F6C746120202020200003F57E
:100B00000C4F6C796D70757320202020200004F547
:100B10000C50656E7461782020202020200005F59F
:100B20000C536F6E7920202020202020200002F519
:100B30000C00202020202020202020202000000049
:100B4000004F666620202020202020202000000169
:100B50000D4F6E20772F42756C622020200001140B
:100B60000D00202020202020202020202000000018
:100B70000053687574746572205465737400465927
:100B80000D00001D0153687574746572204C616717
:100B9000200046A20C00001D0149522054657374C8
:100BA00020202020200046F30D00001D01342048A5
:100BB0006F7572204C696768740046613400001DCF
:100BC00001537973205374617475732020004617A4
:100BD00012000000004261747465727920202020A8
:100BE000200046460F000000004C69676874204DE5
:100BF00065746572200046641000000000506F7735
:100C00006572204F66662020200046821500000095
:100C1000000020202020202020202020200056001E
:100C2000000000000042617369632054696D656CC7
:100C300061707365004844522054696D656C617041
:100C400073650053696E676C652048445220496D96
:100C50006167650052616D70206578706F737572A1
:100C600065004261636B6C6967687420636F6C6FC9
:100C700072004261636B6C69676874206F6E2074E8
:100C8000696D65004175746F20707772206F6666BC
:100C90002074696D65004C4544206175746F206F48
:100CA00066662074696D6500486F6C6473207368B4
:100CB000757474657220646F776E0050726573731B
:100CC000206F6E207072657373206F6666004672C7
:100CD000616D657320706572205365636F6E64008B
:100CE00043686F6F7365206966206E6F74206C694E
:100CF000737465640043616D657261206D616B653D
:100D0000004C4544206F666620647572696E6720EA
:100D10007573650053687574746572206C696768D3
:100D20007473204C4544000402040507064D4149F4
:100D30004E204D454E5500041E05051E00041F158E
:100D4000150A00040E11111100041F11110E0004E8
:100D50001F15151100041F05050100040E11151DB6
:100D600000041F04041F0003111F110000040811D8
:100D70000F0100041F040A1100041F1010100005C9
:100D80001F0204021F041F02041F00040E11110E93
:100D900000041F09090600040E11191E00041F0992
:100DA00009160004121515090003011F01000004B3
:100DB0000F10100F00030F100F0000051F0804088C
:100DC0001F041B04041B0003031C0300000419156B
:100DD000151300030E150E000003121F1000000370
:100DE00019151200000311150A00000307041F0063
:100DF00000031715090000031E151D000003190547
:100E0000030000030A150A00000317150F00000075
:100E100000000000000000002F0000000007000795
:100E20000000147F147F1400242A7F2A12006264B9
:100E30000813230036495522500000050300000026
:100E4000001C224100000041221C000014083E0842
:100E5000140008083E0808000000A0600000080810
:100E6000080808000060600000002010080402006C
:100E70003E5149453E0000427F40000042615149D9
:100E800046002141454B31001814127F10002745C0
:100E9000454539003C4A49493000017109050300C4
:100EA000364949493600064949291E0000363600B0
:100EB00000000056360000000814224100001414FF
:100EC0001414140000412214080002015109060004
:100ED000324959513E007C1211127C007F49494928
:100EE00036003E41414122007F4141221C007F49A2
:100EF000494941007F09090901003E4149497A00F9
:100F00007F0808087F0000417F4100002040413FEA
:100F100001007F08142241007F40404040007F02D2
:100F20000C027F007F0408107F003E4141413E00DB
:100F30007F09090906003E4151215E007F091929F8
:100F4000460046494949310001017F0101003F4007
:100F500040403F001F2040201F003F4038403F00DE
:100F600063140814630007087008070061514945BD
:100F70004300007F41410000552A552A5500004199
:100F8000417F000004020102040040404040400054
:100F90000001020400002054545478007F48444467
:100FA0003800384444442000384444487F003854D2
:100FB00054541800087E0901020018A4A4A47C005F
:100FC0007F080404780000447D4000004080847D58
:100FD00000007F102844000000417F4000007C0496
:100FE000180478007C08040478003844444438002D
:100FF000FC242424180018242418FC007C08040471
:101000000800485454542000043F444020003C4011
:1010100040207C001C2040201C003C4030403C0014
:101020004428102844001CA0A0A07C004464544C18
:10103000440000060909060080C0E0E060E0E0C06E
:101040008000000000000070FFFF0100000000FFB2
:10105000FFFE0000000000000F1F3C383038381F32
:101060000F0300000000000000000080E0E000002E
:10107000000000000000000000030303FFFF000069
:101080000000000000000000003838383F3F3838CA
:101090003800000000000000C0C0E06060E0E0C078
:1010A000800000000000000001000080C0E0F93F67
:1010B0001F000000000000003C3E3F3F3B39383835
:1010C0003838000000000000C0E0E06060E0E0C0F0
:1010D000C0000000000000000100003030387DEF4B
:1010E000CF000000000000001C38383030383C1FB2
:1010F0000F010000000000000000000080C0E0E0E0
:1011000000000000000000E0F0F8DECFC7C1FFFFE4
:10111000C0C00000000000000000000000003F3FD1
:101120000000000000000000E0E0E0E0E0E0E0E0BF
:10113000E0E00000000000003F3F3F38383070F032
:10114000E0000000000000001C38383030383C1F40
:101150000F010000000000000080C0C0E06060E0FF
:10116000E0000000000000E0FEFF3739181838F0FA
:10117000F0C00000000000000F1F1C383030381F86
:101180000F07000000000000E0E0E0E0E0E0E0E049
:10119000E0E000000000000000000080E0F87E1F9A
:1011A000070100000000000000383E1F070100009A
:1011B000000000000000000080C0E0E06060E0C0CF
:1011C000C000000000000000CFFF7F38307070FFCB
:1011D000EFC70000000000030F1F3C383030381FFD
:1011E0001F0F00000000000080C0E0E060E0E0C0F1
:1011F000800000000000000C3F7FF1E0C0C0E1FF74
:10120000FFFE0000000000000038303038381E0FAC
:1012100007000000000000000000000000000000C7
:1012200000000000000000000000000000000000BE
:10123000000000000000003C3C3C000000000000FA
:10124000000000000000000000000000000000009E
:101250000000000000000000004040404040FEFE52
:1012600040404040400000000000000000000F0F20
:10127000000000000000000000000000000000006E
:1012800000000000000000004040404040400000DE
:10129000000000000000000000000000000000004E
:1012A0000000000000000000514A11241FBECFEFD3
:1012B000D0E2DEBFCDBF16E0A0E0B1E0ECE6F0EAA0
:1012C00000E00BBF02C007900D92A43EB107D9F712
:1012D0001BE0A4EEB6E001C01D92A130B107E1F71A
:1012E00012E1CAEAD2E100E006C022970109FE013C
:1012F0000BBF0E94C84CC83AD10780E00807A9F785
:101300000E94D8480C9434500C9400008091150A27
:101310009091160A059708F03FC08091150A9091A8
:10132000160A892B31F481E090E09093160A80939D
:10133000150AE091150AF091160AA091150AB091CC
:10134000160AAA0FBB1FA150B64F8D919C91805FCA
:10135000914FEE0FFF1FEF5FF54F91838083E09178
:10136000150AF091160AA091150AB091160AAA0F53
:10137000BB1FA351B64F8D919C91EE0FFF1FE15102
:10138000F64F918380838091150A9091160A0196F9
:101390009093160A8093150A85E997E00E94E01C55
:1013A00081E00895CF93DF931F92CDB7DEB7462F2C
:1013B000662341F060911F0A83ED99E049830E9402
:1013C000082B498169E371E085E997E00E9456188E
:1013D000882331F085E997E00E94E01C81E001C09C
:1013E00080E00F90DF91CF910895813021F485E95D
:1013F00097E00E94E01C81E00895462F6111109251
:101400001E0A62E471E085E997E00E94561888237D
:1014100031F085E997E00E94E01C81E0089580E0CA
:1014200008952F923F925F926F927F928F929F9238
:10143000AF92BF92CF92DF92EF92FF920F931F93E2
:10144000CF93DF9300D000D0CDB7DEB7182F853013
:1014500031F480914A0A8823A1F081500FC0863070
:1014600081F480914A0A482F50E020914B0A30E0E5
:10147000215031094217530724F48F5F80934A0AA1
:1014800003C0662309F4A1C089ED97E00E94EF280C
:1014900080914A0A833020F0682E6A946A9401C0D1
:1014A000612C10924B0A1C821B8254E4752EE62C90
:1014B000F12CC70104969A83898369E0362E5B80FC
:1014C000EB81FC817E9E60017F9ED00C1124C601C1
:1014D000875F9F4F0E94A04F81508E3FE8F503E049
:1014E000A12CB12C252C23948B809C80FFEF8F1A8C
:1014F0009F0A261430F189819A81881599050CF18B
:10150000C5018C0D9D1D875F9F4F0E94A04F982F96
:1015100091549A3108F080E240914B0A4E19439D54
:10152000402D1124485F282F602F89ED97E00E94FD
:10153000BE2390914B0A80914A0A981302C05092A0
:101540004C0A9FEFA91AB90A0A5F0B3491F68091F1
:101550004B0A8F5F80934B0AEB81FC813196FC83B1
:10156000EB83789709F0ABCF80914A0A861949E05E
:10157000849F402D1124042F015F495F21E562E023
:1015800089ED97E00E94A3256AE471E085E997E080
:101590000E941A1745E551E06AE571E085E997E098
:1015A0000E94501708E220E043E060E089ED97E0F8
:1015B0000E94242523E543E063E589ED97E00E943E
:1015C000242589ED97E00E942329123059F018F460
:1015D000113049F505C0133019F0143021F502C05F
:1015E00081E022C060914C0A83ED99E00E94082BB3
:1015F00041E061E671E085E997E00E94561880EDD0
:1016000097E028EC30E0F9013197F1F70197D9F72D
:1016100085E997E00E94E01C60E085E997E00E9480
:10162000331882E001C080E00F900F900F900F9070
:10163000DF91CF911F910F91FF90EF90DF90CF90AE
:10164000BF90AF909F908F907F906F905F903F90F2
:101650002F9008958091150A9091160A029748F0EC
:101660008091150A9091160A01979093160A80931B
:10167000150A85E997E00E94E01C60E085E997E0A3
:101680000E94331881E00895CF93DF931F92CDB766
:10169000DEB7462F662341F060911F0A83ED99E083
:1016A00049830E94BF2A49816FE471E085E997E090
:1016B0000E945618882331F085E997E00E94E01CCB
:1016C00081E001C080E00F90DF91CF910895CF932A
:1016D000DF931F92CDB7DEB7462F662339F060E067
:1016E00083ED99E049830E94BF2A49816FE471E04C
:1016F00085E997E00E945618882331F085E997E044
:101700000E94E01C81E001C080E00F90DF91CF914A
:101710000895CF93C82F611107C09091AD0A8091B1
:101720003B0A981709F46EC09091AD0A90933B0A5A
:10173000992379F189ED97E00E94EF2828E631E0BE
:1017400047E063E089ED97E00E944F2426E731E00F
:101750004FE063E089ED97E00E944F2426E731E0F7
:1017600047E163E089ED97E00E944F2426E731E0EE
:101770004FE163E089ED97E00E944F2464E871E057
:1017800085E997E00E941A1749ED56E060E971E09B
:101790002EC089ED97E00E94EF2827E931E047E06D
:1017A00063E089ED97E00E944F2425EA31E04FE0A5
:1017B00063E089ED97E00E944F2423EB31E047E19D
:1017C00063E089ED97E00E944F2426E731E04FE186
:1017D00063E089ED97E00E944F2461EC71E085E9B8
:1017E00097E00E941A1749ED56E06AE571E085E935
:1017F00097E00E94501789ED97E00E94232981E02D
:101800008093280ACC2339F08091AD0A811105C05C
:101810001092280A02C080E001C081E0CF910895B3
:10182000CF93C82F6623B1F189ED97E00E94EF288E
:101830002DEC31E047E063E089ED97E00E944F2412
:101840002BED31E04FE063E089ED97E00E944F24FB
:1018500029EE31E047E163E089ED97E00E944F24F3
:1018600027EF31E04FE163E089ED97E00E944F24DC
:1018700065E072E085E997E00E941A1749ED56E0AD
:1018800060E971E085E997E00E94501789ED97E0E3
:101890000E94232981E0C11101C080E0CF91089509
:1018A000662319F0823019F480E00C94100C81E06A
:1018B0000895EF920F93CF93C82F6623D1F089ED4F
:1018C00097E00E94EF282DE032E042E161E089EDEF
:1018D00097E00E944F2464E172E085E997E00E945E
:1018E0001A1740E951E06AE172E085E997E00E9449
:1018F00050170AE123E542E164E289ED97E00E9496
:10190000CB2581E897E00E940115E2E5EE2E06E482
:101910009B0142E163E589ED97E00E94F32589EDA3
:1019200097E00E942329C13021F0C23031F481E0D8
:1019300005C081E897E00E94741480E0CF910F9178
:10194000EF9008958F929F92AF92BF92EF920F9374
:10195000CF93DF93C82F6623B1F089ED97E00E9403
:10196000EF286FE172E085E997E00E941A1740E3E3
:1019700052E068E372E085E997E00E94501789ED34
:1019800097E00E9423298C2F8150823008F083C079
:1019900006E220E542E16AE089ED97E00E94CB256E
:1019A0002FE332E042E16AE089ED97E00E944F24A4
:1019B000479A3F9A3C98449A86988E9A469A3E9ABD
:1019C000389A409A3D98459A28EE33E048EC50E02A
:1019D000FA013197F1F721503109D1F7C23031F0D6
:1019E000479881E897E00E9474141EC0469880E1F1
:1019F00097E228EC30E0F9013197F1F70197D9F738
:101A0000EFCF81E897E00E94E314683E73408105C0
:101A1000910550F081E897E00E94E314EB0184EF18
:101A200091E028EC30E003C03599EBCFF3CFF9011A
:101A30003197F1F70197D9F7479A469A81E897E0ED
:101A40000E94741425C081E897E00E94E314693E67
:101A5000734081059105E0F081E897E00E94E3146E
:101A60004B015C01FCE4EF2E05E59E0142E168E3D9
:101A700089ED97E00E94F32594014CE168E389ED3C
:101A800097E00E94F32589ED97E00E94232905C085
:101A9000359BD9CFE1CFC33011F080E001C081E0A8
:101AA000DF91CF910F91EF90BF90AF909F908F906B
:101AB00008950F93CF93C82F6623D1F01092380A60
:101AC0001092390A89ED97E00E94EF2867E472E0EE
:101AD00085E997E00E941A1744E552E069E572E053
:101AE00085E997E00E94501789ED97E00E9423292D
:101AF000C130D9F48091380A8130B1F1C093380AED
:101B00000AE128E342E164E189ED97E00E94CB25F8
:101B10002EE532E042E164E189ED97E00E944F2436
:101B200083ED99E00E94E6292DC0C230D9F480915E
:101B3000380A8230C9F0C093380A0AE128E342E14A
:101B400064E189ED97E00E94CB2525E632E042E191
:101B500064E189ED97E00E944F2483ED99E00E94B3
:101B6000102A10C0CC2391F01092380A0AE128E321
:101B700042E164E189ED97E00E94CB2583ED99E095
:101B80000E94532A89ED97E00E94232983ED99E072
:101B90000E94B22A9091390A882371F091111CC0D9
:101BA00081E08093390A2CE632E04CE166E089ED71
:101BB00097E00E94A2230CC0913071F41092390A70
:101BC00004E221E54CE166E089ED97E00E94CB2537
:101BD00089ED97E00E94232981E0C33009F080E07D
:101BE000CF910F910895CF93C82F6623B1F089ED5F
:101BF00097E00E94EF286CE772E085E997E00E9489
:101C00001A1744E852E06CE872E085E997E00E9418
:101C1000501789ED97E00E942329C23061F0C3304C
:101C200019F0C13061F402C081E00AC08CE297E093
:101C30000E945E2204C08CE297E00E941A2280E09B
:101C4000CF9108950F93CF93C82F062F662331F0BD
:101C500083ED99E00E94442B80933D0A24E932E011
:101C60004EE35AE06C2F85E997E00E943A21C82F95
:101C7000823019F51092490A6EE37AE083ED99E01B
:101C80000E94D34C60913D0A83ED99E00E94BF2AE7
:101C900041E06FE471E085E997E00E94561820ED7D
:101CA00037E048EC50E0FA013197F1F72150310963
:101CB000D1F785E997E00E94E01C8C2FCF910F911E
:101CC0000895462F611180933C0A80913C0A82302E
:101CD000A1F46CE972E085E997E00E94561880E46F
:101CE0009FE128EC30E0F9013197F1F70197D9F73E
:101CF00083ED99E00E94602B13C085E997E00E9474
:101D0000DA1B60E085E997E00E94331863E374E032
:101D100085E997E00E94FF1C89ED97E00E94232946
:101D200081E00895A89588E10FB6F894809360004B
:101D3000109260000FBE2FE088E190E00FB6F8949B
:101D4000A895809360000FBE209360006C98749AF1
:101D50000E945215811102C0649935C00E9413156A
:101D60000E94773181E897E00E940A1489ED97E09C
:101D70000E949E2989ED97E090939607809395079E
:101D80008FE697E0909398078093970783B7817FBA
:101D9000846083BF83B7816083BF6FEC73E085E9A4
:101DA00097E00E94FF1C89ED97E00E9423290E9482
:101DB000B4480E9418438DE297E00E940D318DE2F5
:101DC00097E00C94B73089ED97E00E949E290E941D
:101DD00048328AEA92E00E94133288E10FB6F89402
:101DE00080936000109260000FBE0E948215B6CFF3
:101DF000EF920F931F93CF93DF93182F662359F120
:101E00000E943615EC0189ED97E00E94EF2821EE43
:101E100032E042E161E089ED97E00E944F240CE45A
:101E2000E02E05E59E0142E167E389ED97E00E941F
:101E3000F3256BEE72E085E997E00E941A1749EDF1
:101E400056E060E971E085E997E00E94501789ED5E
:101E500097E00E94232981E0113009F080E0DF91B2
:101E6000CF911F910F91EF9008950E9452158330EA
:101E700048F4E82FF0E0EE0FFF1FEF5CFE4F2081EB
:101E8000318102C022EF32E0C9010895FF920F9321
:101E90001F93CF93DF93F82E0E94D315EC010E947D
:101EA0005215482FC45FD14084E28C9F90018D9FD2
:101EB000300D1124C90161E970E00E947E4C162F9B
:101EC000643228F0413009F472C0643211F44230B7
:101ED00009F414E289ED97E00E94EF280E94350F83
:101EE000EC01BC0189ED97E00E941923082F0E94A4
:101EF0005215882349F0069569E2601B9E014FE167
:101F000089ED97E00E94A2230FE02CE34FE064E10B
:101F100089ED97E00E9424250BE124E140E164E192
:101F200089ED97E00E9424252CE34BE165E189EDE2
:101F300097E00E94242503E12CE340E16CE389ED66
:101F400097E00E9424250AE12CE347E16CE389ED48
:101F500097E00E94242507E12DE343E16DE389ED3D
:101F600097E00E942425C0E06C2F6A5E09E1262FCD
:101F700041E189ED97E00E942425CF5F1C17A0F76F
:101F800068EF72E085E997E00E941A1749ED56E084
:101F900060E971E085E997E00E94501789ED97E0CC
:101FA0000E94232981E0F81621F080E002C013E2AC
:101FB00091CFDF91CF911F910F91FF900895EF92F4
:101FC000FF920F931F93CF93DF9300D000D000D0E8
:101FD000CDB7DEB79C01FB01009719F480E3808345
:101FE0001182C90160E177E20E947E4C7B0180EFA3
:101FF00098ED689F8001699F100D789F100D112446
:10200000020F131FC80168EE73E00E947E4CAB0103
:1020100088E19CEF689F9001699F300D789F300D9B
:102020001124200F311FC90164E670E00E947E4C2C
:10203000162F84E6689F201931091124C9016AE02E
:1020400070E00E947E4C1E828E2D805D8983405DF3
:102050004A83105D1B83862F805D8C83AAE06A9F74
:10206000201931091124205D2D83DE01119620E015
:102070008D918033A9F417C081E090E08C0F9D1FF3
:10208000830F911DDC018C91DA018D93AD013F5FCF
:10209000832F821B353080F3E80FF11D108207C0BB
:1020A000AF01322FF5CF2F5F2530D1F3E1CF269648
:1020B0000FB6F894DEBF0FBECDBFDF91CF911F9159
:1020C0000F91FF90EF9008950F931F93CF93DF939D
:1020D00000D000D000D0CDB7DEB7182F662341F076
:1020E00060E089ED97E00E94902980E00E9422152F
:1020F00080913A0A811187C089ED97E00E94EF280C
:1021000067E073E085E997E00E941A17123031F416
:1021100081E080933A0A43E153E002C047E153E093
:1021200060E971E085E997E00E94501780E00E9425
:102130008B16BE016F5F7F4F0E94DF0FBE016F5F86
:102140007F4F89ED97E00E94192300E5602F681BFF
:102150009E012F5F3F4F4EE089ED97E00E94A22342
:102160002DE133E04EE063E089ED97E00E94A22389
:1021700081E00E948B16BE016F5F7F4F0E94DF0FD0
:10218000BE016F5F7F4F89ED97E00E941923602F9A
:10219000681B9E012F5F3F4F44E189ED97E00E944D
:1021A000A22326E233E044E163E089ED97E00E9458
:1021B000A22382E00E948B16BE016F5F7F4F0E94B8
:1021C000DF0FBE016F5F7F4F89ED97E00E941923FB
:1021D000602F681B9E012F5F3F4F4AE189ED97E01A
:1021E0000E94A2232FE233E04AE163E089ED97E009
:1021F0000E94A22389ED97E00E942329E0E2FEE4F9
:102200003197F1F705C0123019F410923A0A09C05B
:10221000113039F46FEF89ED97E00E94902981E049
:1022200001C080E026960FB6F894DEBF0FBECDBF8A
:10223000DF91CF911F910F9108952F923F924F926E
:102240005F926F927F928F929F92AF92BF92CF9246
:10225000DF92EF92FF920F931F93CF93DF93CDB74F
:10226000DEB728970FB6F894DEBF0FBECDBF082F9C
:10227000662309F4BDC089ED97E00E94EF288DE246
:1022800097E00E944D30282E312C62E473E089EDF6
:1022900097E00E94192360E5681B22E433E048E0E0
:1022A00089ED97E00E94A22328E433E048E063E050
:1022B00089ED97E00E94A22382E02816310418F0ED
:1022C00028E333E002C02DE333E0B90189ED97E064
:1022D0002F8338870E94192360E5681B2F8138857A
:1022E0004EE089ED97E00E94A2232FE433E04EE018
:1022F00063E089ED97E00E94A22328E533E044E102
:1023000063E089ED97E00E94A2239DE5C92E95E048
:10231000D92E93E3E92EFF24F39410E02AE0822ED5
:10232000912CA12CB12CC701B601A50194010E94EA
:10233000A64C2B013C01862F805D89831A82BE0149
:102340006F5F7F4F89ED97E00E941923180F1F5F81
:1023500060E5611B9E012F5F3F4F44E189ED97E0EF
:102360000E94A223C701B60164197509860997095D
:10237000A50194010E94A64C69017A01211531053D
:102380004105510581F682E028163104F8F0BE01BE
:102390006F5F7F4FC1010E94DF0FBE016F5F7F4FF4
:1023A00089ED97E00E94192360E5681B9E012F5F6D
:1023B0003F4F40E289ED97E00E94A22322E633E0FE
:1023C00040E263E089ED97E00E94A22361E773E0B9
:1023D00085E997E00E941A1749ED56E060E971E03F
:1023E00085E997E00E94501789ED97E00E94232924
:1023F00081E0013019F0033009F080E028960FB633
:10240000F894DEBF0FBECDBFDF91CF911F910F912A
:10241000FF90EF90DF90CF90BF90AF909F908F9004
:102420007F906F905F904F903F902F900895EF9224
:10243000FF920F931F93CF93DF9300D000D000D073
:10244000CDB7DEB7E82E89ED97E00E94EF280E9415
:10245000350F8C01BC0189ED97E00E94192330E50E
:10246000F32E6F2D681B980148E089ED97E00E94DC
:10247000A2232DE733E048E063E089ED97E00E9476
:10248000A2230E94DE15BE016F5F7F4F90E00E9485
:10249000DF0FBE016F5F7F4F89ED97E00E94192328
:1024A0006F2D681B9E012F5F3F4F4EE089ED97E037
:1024B0000E94A22322E833E04EE063E089ED97E03A
:1024C0000E94A2230E943615BE016F5F7F4F0E94BB
:1024D000DF0FBE016F5F7F4F89ED97E00E941923E8
:1024E0006F2D681B9E012F5F3F4F44E189ED97E000
:1024F0000E94A22321EE32E044E163E089ED97E0FF
:102500000E94A223BE016F5F7F4F8091850790914B
:1025100086070E94DF0FBE016F5F7F4F89ED97E056
:102520000E9419236F2D681B9E012F5F3F4F4AE1C8
:1025300089ED97E00E94A2232BE833E04AE163E0B3
:1025400089ED97E00E94A223BE016F5F7F4F8091CB
:10255000890790918A070E94DF0FBE016F5F7F4F4E
:1025600089ED97E00E9419236F2D681B9E012F5F54
:102570003F4F40E289ED97E00E94A22324E933E037
:1025800040E263E089ED97E00E94A2236EE973E0E8
:1025900085E997E00E941A1749ED56E060E971E07D
:1025A00085E997E00E94501789ED97E00E94232962
:1025B000E0E2FEE43197F1F781E0E81629F093E0DC
:1025C000E91619F080E001C081E026960FB6F89474
:1025D000DEBF0FBECDBFDF91CF911F910F91FF9056
:1025E000EF9008951F920F920FB60F9211240BB621
:1025F0000F921BBE2F933F934F935F936F937F93E5
:102600008F939F93AF93BF93EF93FF9381E897E0EE
:102610000E9435148FE697E00E945913FF91EF91C5
:10262000BF91AF919F918F917F916F915F914F91EA
:102630003F912F910F900BBE0F900FBE0F901F90E8
:102640001895CF93DF93DC0120E030E041E050E0CB
:102650001D92FC01E20FF31F16821486F901E95D59
:10266000F24FE491223078F47DB1EA0102C0CC0F40
:10267000DD1FEA95E2F76C2F609567236DB96EB1A7
:102680006C2B6EB90EC07AB1EA0102C0CC0FDD1F0F
:10269000EA95E2F76C2F609567236AB96BB16C2BF2
:1026A0006BB92F5F3F4F2630310591F6DF91CF9107
:1026B0000895DF92EF92FF920F931F93CF93DF93D2
:1026C0007C018C01C0E0D0E0DD24D394FE01E95D03
:1026D000F24FE491C23010F48CB101C089B190E0A6
:1026E00002C095958795EA95E2F780958170D801AB
:1026F000A9F08C918F30F0F48F5FF80180838B30DC
:10270000C8F0F701EC0FFD1F8681811113C0D4863C
:10271000D68281E897E00E947A140CC08C918823BD
:1027200049F0F701EC0FFD1F148681508C93833024
:1027300008F4168221960F5F1F4FC630D10531F67F
:10274000DF91CF911F910F91FF90EF90DF9008954F
:10275000FC0186E01192158213868150D9F7089505
:10276000CF93DF93EC0181E897E00E94071588235F
:1027700019F0CE010E94A81320E030E0822FFE0164
:10278000E20FF31F9485992311F08F5F06C02F5F2E
:102790003F4F2630310591F780E0DF91CF910895CA
:1027A000CF93DF93EC0181E897E00E94071588231F
:1027B00019F0CE010E94A81320E030E0822FFE0124
:1027C000E20FF31F9485992319F014868F5F06C0DA
:1027D0002F5F3F4F2630310589F780E0DF91CF91A1
:1027E00008950F931F93CF93DF931F92CDB7DEB75A
:1027F0008C0101C0A895C80169830E94D01369812A
:102800008613F8CF862F0F90DF91CF911F910F91F4
:1028100008950895FC0192E09093B000A1EBB0E020
:102820001C928C9184608C938AE78093B300109201
:10283000B60090937000128A81E082871082118224
:1028400012821382148215821682178211861086D4
:10285000789408951092B0001092B1001092B300D5
:102860001092B600109270000895FC018085918549
:1028700001969187808740815181628173814F5F8A
:102880005F4F6F4F7F4F4083518362837383883ED6
:102890009340E8F0118610864481558166817781E6
:1028A0004F5F5F4F6F4F7F4F4483558366837783BE
:1028B0008685978501969787868784859585019675
:1028C00095878487808991890196918B808B089563
:1028D000FC011082118212821382148215821682E8
:1028E0001782118610860895FC01108211821282CF
:1028F00013820895CF93DF93EC011F861E861D86F9
:102900001C866B89662329F089ED97E00E94902947
:102910001B8ADF91CF910895CF93DF93EC018A85D5
:10292000811103C01F861E8606C08B85811103C0DE
:10293000CE010E947A148A858B87882399F0809132
:10294000810A2AE0829FC00111242E853F85281725
:10295000390740F00E948215CE010E947A1481E06E
:102960008A8B18C08B89811115C08091800A2AE05A
:10297000829FC00111242C853D852817390750F00E
:1029800089ED97E00E94E1298B8B60E089ED97E06B
:102990000E9490290E942B15882381F08091820A41
:1029A0002AE0829FC0011124288939892817390714
:1029B00038F080E0DF91CF910C942215198A188AA3
:1029C000DF91CF910895FC016081718182819381B3
:1029D00008950F931F93FC0124813581468157810F
:1029E000A8EEB3E00E94634C8B019C018085918529
:1029F000080F191F211D311DB801C9011F910F9129
:102A00000895FC0164817581868197810895FC0198
:102A10008289128A089589ED97E00E949E2989EDA6
:102A200097E00C9423293B9A43980B9A1398269A83
:102A30002E9A279A2F9A6B98739A6F9A849A8C98E9
:102A400077980895269A882319F02E9881E00895A2
:102A50002E9A80E00895269B07C085B186FB8827C3
:102A600080F991E08927089580E00895CF93DF935E
:102A700000D0CDB7DEB78091F70A9091F80A9E0199
:102A80002F5F3F4F009719F421503B4002C0281B95
:102A9000390B3A83298389819A810F900F90DF91B6
:102AA000CF9108950F98179AE0E2FEE4CF010197C5
:102AB000F1F780B117983197F1F7079905C0809524
:102AC000881F8827881F089582E00895CF9385E99D
:102AD00097E00E94DA1BC1E08FE697E00E94D013D6
:102AE000813029F485E997E0CF910C94E01C0E9495
:102AF00052158823B9F3A8956C2F80E00E94460FE9
:102B0000C0E0EACF0E945215811108C08091E00018
:102B100081608093E000F894439AFFCF0C9466158F
:102B200095EA90937A008F3010F0885013C040B32C
:102B300021E030E0082E01C0220F0A94EAF7922F1C
:102B40009095942390BB90917E00922B90937E0061
:102B5000883058F7806480937C0080917A0080648C
:102B600080937A0044E660E070E0CB0120917A0027
:102B700024FFFCCF20917A00206120937A002091DD
:102B8000780030917900620F731F811D911D4150B3
:102B900069F710927A0024E630E040E050E00E94AD
:102BA000A64CC9010895819A899880E29EE4019714
:102BB000F1F782E00E949015819808951F93CF93BA
:102BC000DF9300D000D000D0CDB7DEB70E94D31580
:102BD0009E838D830E945215182F42E050E0811190
:102BE00045C063E070E0CE0101960E94904F2D81B8
:102BF0003E8189819A812817390740F442E050E0EC
:102C000063E070E0CE0105960E94A84F42E050E0DC
:102C100061E070E0CE0103960E94904F8B819C8111
:102C2000019611F41C821B822D813E818B819C8137
:102C30008217930740F442E050E061E070E0CE017B
:102C400005960E94A84F49815A812D813E81241BFF
:102C5000350B64E6629FC001639F900D11246B8168
:102C60007C81641B750B0E947E4C4AC067E070E05B
:102C7000CE0101960E94904F4D815E8129813A815B
:102C80004217530740F442E050E063E070E0CE01A9
:102C900005960E94A84F42E050E065E070E0CE014A
:102CA00003960E94904F4D815E812B813C812417B9
:102CB000350740F442E050E061E070E0CE01059657
:102CC0000E94A84F49815A812D813E81241B350BDA
:102CD00064E6629FC001639F900D11246B817C812B
:102CE000641B750B0E947E4C113031F46436710503
:102CF00038F063E670E004C0123011F464E670E06E
:102D0000862F26960FB6F894DEBF0FBECDBFDF919B
:102D1000CF911F9108950F931F93CF93DF93D82FD7
:102D200080E00E94221589ED97E00E94E129C82FDA
:102D300060E089ED97E00E949029CC2351F024EFC8
:102D400031E048EC50E0FA013197F1F721503109B8
:102D5000D1F791B1987F91B992B1987F92B991B121
:102D60008D2FD33008F082E021E030E001C0220F47
:102D70008A95EAF7892F822B81B982B1D22FD0951B
:102D80008D2382B944EF51E0A8ECB0E0FD0131970A
:102D9000F1F741505109D1F780E00E9490158C0164
:102DA00031B13D2331B989ED97E00E94E1298C17BB
:102DB00028F46C2F89ED97E00E949029C801DF91DB
:102DC000CF911F910F910895CF93DF93EC0180E095
:102DD0000E948B169983888381E00E948B169B83C7
:102DE0008A8382E00E948B169D838C83DF91CF9132
:102DF0000895E0EEF0E08081816080830E94B53923
:102E000089ED97E00E94742981E897E00E942A14D6
:102E1000F89488E10FB6F8948093600010926000F7
:102E20000FBEE0E0F0EF0995FC01168A178A108EBC
:102E3000118E0895EF92FF920F931F93CF93DF931C
:102E4000EC017B01888199810E941923182F169526
:102E500005E023E540E060E0888199810E94CB2570
:102E600003E023E541E060E0888199810E94A32589
:102E7000212F265D68E2611B05E040E08881998191
:102E80000E94CB2569E2611B970140E0888199810E
:102E9000DF91CF911F910F91FF90EF900C94A2239F
:102EA000CF92DF92EF92FF920F93CF93DF93EC01DB
:102EB0006B017A010FE223E549E260E088819981A4
:102EC0000E94CB2596014AE262E0888199810E94A6
:102ED000A223B701888199810E94192363E5681BA9
:102EE00097014AE2888199810E94A22323E549E261
:102EF00060E0888199810E94A325DF91CF910F9195
:102F0000FF90EF90DF90CF9008959B0190E080E0DC
:102F1000F901729665917491FB01309719F0508117
:102F2000552319F0491731F09F5F8F5F2C5E3F4F9B
:102F3000843171F708959B0180E090E0F901729669
:102F400065917491FB01941751F0309711F0508105
:102F500051118F5F9F5F2C5E3F4F943179F7089539
:102F6000CF93DF93EB01FC012389222369F130E049
:102F700021503109F901EE0FFF1FE20FF31FE80F97
:102F8000F91F848125813681F4E18F9F200D311D49
:102F90001124DB0180E090E0F901E80FF91FE491D2
:102FA000ED9301968C309105B9F78BE090E0FE012E
:102FB000E80FF91F2081203211F011820AC0019719
:102FC00081309105A1F705C06DE27DE0CE010E9440
:102FD000CC4CCE01DF91CF910895DF92EF92FF921A
:102FE0000F931F93CF93DF93EC01162FF42EE22E55
:102FF000D02E6E894F89288D098D842F862B822BA8
:10300000802B21F0888199810E94A3251E8BFF8A45
:10301000E88ED98E0D2D2E2D4F2D612F888199810F
:103020000E94A325DF91CF911F910F91FF90EF9008
:10303000DF9008950F93CF93DF93EC016E894F8952
:10304000288D098D842F862B822B802B21F088815F
:1030500099810E94A3251E8A1F8A188E198EDF91DE
:10306000CF910F9108950F931F93CF93DF93EC01AE
:10307000162F8A8D681730F0CE010E941A188FEF34
:103080008C8B0FC049E0649F402D11248D89481B13
:10309000042F015F495F21E561E0CE010E94ED1739
:1030A0001C8BDF91CF911F910F910895EF92FF92AA
:1030B0000F931F93CF93DF931F92CDB7DEB77C01A1
:1030C000162F372F442309F452C0A62FB72FFD0126
:1030D00001900020E9F73197EA1BFB0B26E02E9FB9
:1030E000C0012F9F900D112496958795AC0160E04B
:1030F00070E040935B0A50935C0A60935D0A7093A2
:103100005E0A282F255D67E2681B08E14CE0F701A5
:103110008081918139830E94CB2590915B0A292F70
:10312000265D68E2691B07E14DE0F701808191812E
:103130000E94742569E290915B0A691B212F3981F5
:103140004FE0F701808191810E944F24F701808137
:1031500091810E94232981E897E00E94E9146093FD
:103160005B0A70935C0A80935D0A90935E0A81E823
:1031700097E00E94E91400915B0A10915C0A20918B
:103180005D0A30915E0A601B710B820B930B643FEA
:1031900071408105910530F4F701828193810E948D
:1031A000D013811181E00F90DF91CF911F910F918A
:1031B000FF90EF9008957F928F929F92AF92BF926F
:1031C000CF92DF92EF92FF920F931F93CF93DF93F3
:1031D000EC01F62E5A014901702E10924F0ACC20B4
:1031E00009F430C1FA01C080D180888199810E94A0
:1031F000EF2805E023E542E060E0888199810E94A4
:10320000A3250EE121E046E060E0888199810E94DB
:10321000A32523E546E062E5888199810E94A325E4
:10322000A72DB12FFD0101900020E9F73197EA1B8E
:10323000FB0BE093500A6AEF6E9F602D1124605BD8
:10324000272D312F40E2888199810E944F24F4017B
:1032500001900020E9F73197E819F909E093500A45
:1032600026E0E29FF0011124F595E7958AE28E1B96
:103270008093510A07E223E54FE160E0888199815C
:103280000E94A32544EC53E06AE571E0CE010E9460
:1032900050176091510A9091500A292F220F290F3F
:1032A000220F260F05E042E0888199810E94A32524
:1032B000940140E06091510A888199810E944F24D5
:1032C00080E0E82FF0E0ED5AF54F10828F5F8530F7
:1032D000C0F346E4E41621F054E5E5128AC043C089
:1032E000E8E5F2E0C601BF010E947E4C8C01C81ADD
:1032F000D90A2AE030E0B9010E94924C8093530A27
:10330000A801481B590BCA01B9010E94924C8B01BC
:10331000CB01B9010E94924C8093540AA801481B2A
:10332000590BCA01B9010E94924C6093550AC6011B
:10333000BF010E947E4CCB01BF010E947E4CFC016C
:10334000B9010E94924C8093560AAF01481B590B59
:10335000CA01B9010E94924C6093580A7093590AAD
:103360006093570A6AC0ECE3F0E0C601BF010E9417
:103370007E4C8C01C601801B910BBF010E947E4CCC
:103380006B012AE030E0C801B9010E94924C8093A1
:10339000530AA801481B590BCA01B9010E94924C5B
:1033A0006093540AC601BF010E947E4C8C01C81A6A
:1033B000D90AB9010E94924C8093550AA801481B72
:1033C000590BCA01B9010E94924C6093560AC6017A
:1033D000BF010E947E4CCB01BF010E947E4C9093A6
:1033E000590A8093580AB9010E94924C8093570A57
:1033F00024C09090580A4091590AE0E00AE010E099
:1034000013C0C601B8010E947E4C9C01982E432F28
:10341000C601821B930BB8010E947E4C6B01F0E049
:10342000ED5AF54F2083E82D8E2E8394C114D104DC
:1034300041F79092580A4093590A85E08093500AC8
:103440001092520A8F2D8150823008F4FDC00EE197
:1034500021E548E063E0888199810E94CB251092A4
:10346000510A10EF12C0E62FF0E0ED5AF54F20811F
:10347000205D619F602D11246C5B45E00E947424E7
:103480008091510A8F5F8093510A6091510A209177
:10349000500A88819981621730F356E4E51621F0CD
:1034A000E4E5EE1232C013C00EE022E24CE061E22D
:1034B0000E94742506E122E244E161E2888199815B
:1034C0000E9474250AE122E448E161E41AC00EE09A
:1034D00022E34CE061E30E94742506E122E344E12B
:1034E00061E3888199810E9474250EE022E14CE01D
:1034F00061E1888199810E94742506E122E144E11D
:1035000061E1888199810E9474258091520A25E0A9
:1035100030E0281B31092295207F60EF869F602DC7
:1035200011246D5B0CE148E0888199810E94A325FC
:103530008091520AF6E4EF1621F024E5E21207C06A
:1035400003C0823031F003C080FF08C002C0843065
:1035500011F485E001C089E080935A0A888199813D
:103560000E942329FF2009F4FBC044E0F41671F007
:103570004F1520F053E0F512F3C025C085E0F81692
:1035800009F453C096E0F912EBC042C08091520A90
:1035900025E030E0281B31092295207F60EF869FCF
:1035A000602D11246D5B0CE148E0888199810E94B7
:1035B000A3258091520A811102C08091500A815046
:1035C0008093520ACDC08091520A25E030E0281B3A
:1035D00031092295207F60EF869F602D11246D5B5D
:1035E0000CE148E0888199810E94A3254091520A0C
:1035F000242F30E08091500A90E001972817390776
:1036000024F44F5F4093520AABC01092520AA8C0F4
:10361000E091520AF0E0ED5AF54F8081882311F0D5
:1036200081500EC080915A0A0BC0E091520AF0E01E
:10363000ED5AF54F808190915A0A891718F48F5FDF
:1036400080838EC010828CC06091570A5091540ABA
:10365000E6E4EE1631F08091560AF4E5EF1246C02A
:1036600023C08091550A2AE0529F8001112444E62C
:10367000849F000D111D11248091530A080F111D04
:103680008091560A90E05AE0659F800D911D1124AB
:1036900048E552E0849F9001859F300D949F300D46
:1036A0001124020F131F42C00091530A10E09AE048
:1036B000599F000D111D112440E15EE0649F9001AF
:1036C000659F300D1124020F131F2091550A30E021
:1036D000EAE08E9F200D311D11244CE3429FC00172
:1036E000439F900D1124080F191F20C04AE090E05D
:1036F000FAE06F9F800D911D1124489F9001499F12
:10370000300D11248091550A280F311D429FC001B0
:10371000439F900D1124850F911D489F8001499F63
:10372000100D11248091530A080F111D22E0F2128E
:1037300014C041E06FE471E0CE010E94561888E8A1
:1037400093E128EC30E0F9013197F1F70197D9F7CF
:10375000F5011183008382E001C081E080934F0A6C
:1037600080914F0ADF91CF911F910F91FF90EF90C1
:10377000DF90CF90BF90AF909F908F907F900895F3
:10378000CF93DF93FC012389253088F42F5F238BAF
:1037900030E021503109E901CC0FDD1FC20FD31FEA
:1037A000C80FD91F7E836D830E9485178C83DF919C
:1037B000CF910895FC01638D748D44890C94C01BD6
:1037C000EF92FF920F931F93CF93DF93EC014C89FD
:1037D0008A8D481708F0AFC00B8D1C8DB801CE0143
:1037E0000E94851794E1899F70011124B8016E0D24
:1037F0007F1DFB013D9624912E8F2D3469F030F40E
:10380000253429F1263409F096C018C02035F9F086
:10381000233509F090C063C0CE010E94DA1BEB8D06
:10382000FC8DEE0DFF1D3E96859194918B8F9C8FA4
:1038300060E0CE010E94331881E07CC0625F7F4F60
:10384000FB01859194918DA39EA384E073C080E0D9
:1038500090E0382FFB01E80FF91FE491DE01A80F7B
:10386000B91F9B96EC93E03229F001968A309105BE
:1038700081F73AE0DE01A30FB11D9B961C92FB017C
:10388000709685919491009791F0FC0130E0CE0103
:103890008E1B9F0B4491DC01AE0FBF1FD6964C933D
:1038A000442331F03F5F31963D30A1F701C030E055
:1038B000DE01A30FB11DD6961C92203511F483E0D2
:1038C00001C082E08D8FFB013B96E491EE8F625F39
:1038D0007F4FFB01859194918F8F98A32CC080E03E
:1038E00090E0282FFB01E80FF91FE491DE01A80FFB
:1038F000B91F9B96EC93E03229F001968B3091052D
:1039000081F72BE0FE01E20FF11D13A6FB01729679
:10391000859194918FA398A7FB01709685919491BE
:1039200089A39AA3625F7F4FFB01859194918BA33A
:103930009CA385E08D8FDF91CF911F910F91FF9018
:10394000EF900895FC018389882389F08150838B4F
:1039500090E0DC01AA0FBB1FA80FB91FAE0FBF1F5D
:10396000FD01349614966C91718182810895648171
:10397000758186810895FC01558944894330A8F0FA
:10398000242F30E0828D90E001972817390731F419
:1039900089E0489F402D1124475105C089E0489F88
:1039A000402D11244251458B01C0158A8589811112
:1039B00005C081E0511103C080E0089581E00895C1
:1039C0000F931F93CF93DF93EC018B89882381F0B2
:1039D000CE010E94A21C462F072F182FB801CE013E
:1039E0000E949B178C8B0B8F1C8FCE010E94BB1CDF
:1039F00081E08D8FDF91CF911F910F9108955F929C
:103A00006F927F928F929F92AF92BF92CF92DF92EE
:103A1000EF92FF920F931F93CF93DF93CDB7DEB753
:103A2000A4970FB6F894DEBF0FBECDBF6C01DC01CA
:103A30005C967C936E935B970E941A18F6018081C6
:103A400091810E94EF28C6010E94BB1CD6015D96A1
:103A50001C925D975A961C92A12CB12C512C712C62
:103A60006CE0862E912C79E0672EF601438D548D03
:103A70009A012A0D3B1DF901729665917491DB0143
:103A8000109721F08C91882309F4BFC0F9013D966D
:103A9000A491F601A68F4A0D5B1DFA013B96149185
:103AA000A53411F0A03529F5225F3F4FF90185912A
:103AB0009491BC01A03549F442E050E0CE018296D9
:103AC0000E94904FBE016E5D7F4FDB012D913C91B6
:103AD000F601428D469D402D11248589481B485F83
:103AE00052E5E52E012F60E5808191810E94F3254A
:103AF000582ED6015E968C915E97833509F053C09F
:103B00001A3209F050C05B962D913C915C972A0DBA
:103B10003B1DF9013E9605911491205F3F4FF9013D
:103B200025913491D901F60130A3278F9801205CAB
:103B30003E4FF8018491803341F4D6015A968C911E
:103B40005A978F5F5A968C9360C0F8013D96E49126
:103B5000F0E08D919C911197E817F907E9F432E0B4
:103B6000E12CF12CF801EE0DFF1D2491F601428DA0
:103B7000469D402D11248589481B485F632F808115
:103B800091813CA30E94BE23FFEFEF1AFF0A3CA1E4
:103B90003A5F3A3439F7D1CF005F1F4F021713074E
:103BA00009F0C7CFCACF32E000E010E07401E51899
:103BB000F108D6015E968C91853411F0803519F4A8
:103BC0000E151F05E4F4D6015B96ED91FC915C9710
:103BD000EA0DFB1DE00FF11F24915A964C915A9764
:103BE000469D402D112455968C915597481B485F52
:103BF000632F8D919C913CA30E94BE233CA10F5F3B
:103C00001F4F3A5F3A34A9F698CFB4E1AB0EB11C1E
:103C1000D6015B96ED91FC915C97EA0DFB1DE4915A
:103C2000EE2349F07394B0E9AB16B1E0BB0609F09E
:103C30001CCF34E1732E7394F6016489C6010E948F
:103C40003318F4E17F9E80011124D6015B966D91BB
:103C50007C915C97600F711F6F5F7F4FFB018491B8
:103C6000803229F0CE0101960E94CC4C06C0BE01E4
:103C70006F5F7F4FC6010E94B017BE016F5F7F4F1D
:103C8000C6010E941A17D6015B968D919C915C9794
:103C9000800F911FFC013D9624919A961C921E92D2
:103CA0009997223419F0263409F034C04096FC016B
:103CB00085919491BC01CE0148962CA30E94CC4CD6
:103CC000D6015B96ED91FC915C97E00FF11F729627
:103CD00085919491BC01CE010E960E94CC4CAE0110
:103CE000425F5F4FBE01685E7F4FC6010E94501762
:103CF0002CA1263479F4D6015B96ED91FC915C976A
:103D0000E00FF11F3E968591949199968C93999727
:103D10009A969C93A4960FB6F894DEBF0FBECDBFC3
:103D2000DF91CF911F910F91FF90EF90DF90CF9097
:103D3000BF90AF909F908F907F906F905F9008950D
:103D4000CF93DF93EC016C89662319F061500E94D8
:103D50003318CE010E94BB1C882329F06B8D7C8D0B
:103D6000CE010E94FF1C88819981DF91CF910C9434
:103D70002329CF93DF93EC016C89262F30E08A8DC5
:103D800090E001972817390724F46F5FCE010E9455
:103D90003318CE010E94BB1C882329F06B8D7C8DCB
:103DA000CE010E94FF1C88819981DF91CF910C94F4
:103DB00023296F927F929F92AF92BF92CF92DF9210
:103DC000EF92FF920F931F93CF93DF931F92CDB784
:103DD000DEB73C01F62E5A016901E11008C025E06A
:103DE000F21609F49BC086E0F81227C19FC0DC01DF
:103DF0008D919C910E94EF28B801C3010E941A176F
:103E000044EC53E06AE571E0C3010E94501708E1F9
:103E100027E44CE062E0F301808191810E947425E7
:103E200009E128E44BE061E0D3018D919C910E946F
:103E3000742501E122E541E16AE4F3018081918189
:103E40000E94242500E122E540E16AE4D3018D913E
:103E50009C910E9424250FE021E54FE06BE4F301E3
:103E6000808191810E9424250EE020E54EE06CE4E3
:103E7000D3018D919C910E9424250DE02FE44DE00B
:103E80006DE4F301808191810E94242503E122E504
:103E900043E16AE4D3018D919C910E94242504E1C1
:103EA00022E544E16AE4F301808191810E942425A6
:103EB00005E121E545E16BE4D3018D919C910E94E0
:103EC000242506E120E546E16CE4F301808191813F
:103ED0000E94242507E12FE447E16DE4D3018D9191
:103EE0009C910E94242510925F0A90E080E008C017
:103EF0003D96E491D5012C912E1301C0982F8F5F30
:103F0000F601B0E18B9FE00DF11D112424912111E8
:103F1000EFCF90935F0A8093600A61CF80915F0A30
:103F2000882391F0815080935F0A0EC040915F0A10
:103F3000242F30E08091600A90E00197281739071C
:103F40001CF44F5F40935F0A07E125E44DE063E016
:103F5000F301808191810E94CB2534E000E010E0E4
:103F600080915F0AF60120E1829FE00DF11D11248E
:103F7000E00FF11F24914FE0632FD3018D919C91AD
:103F800039830E94BE230F5F1F4F39813A5F363459
:103F900039F703E223E54EE160E0F301808191818E
:103FA0000E94CB2580915F0AF60120E1829FE00DFF
:103FB000F11D11243E96859194918C01912CE12C58
:103FC00007C0692D6E0D4EE10E943923980EE394CF
:103FD000F801EE0DF11D2491D3018D919C912111D9
:103FE000F0CF0E942329B2E0FB1641F0E3E0FE1679
:103FF00019F0F1E0FF121FC081E022C080915F0A3A
:1040000020E1829FC00CD11C1124F6013D96E49161
:10401000D501EC9341E06FE471E0C3010E945618B2
:1040200088E893E128EC30E0F9013197F1F7019746
:10403000D9F782E005C080E003C0E11085CFD3CF7F
:104040000F90DF91CF911F910F91FF90EF90DF9034
:10405000CF90BF90AF909F907F906F900895AF9258
:10406000BF92CF92EF92FF920F931F93CF93DF9364
:1040700000D0CDB7DEB75C01DC0112968D919C912A
:1040800013970E94D013F82EF501858D81110DC074
:104090008F2D8150823048F421A532A5211531059C
:1040A00021F036A325A384E0858FD5015D968C9100
:1040B000833009F476C020F4813059F1D0F509C07D
:1040C000853009F44AC008F4B3C0863009F0C0C096
:1040D00030C0B4E0FB16A9F0BF1520F0E3E0FE12FB
:1040E000B7C013C0F5E0FF1621F086E0F812B0C0AB
:1040F00004C0C5010E94A01EABC0C5010E94B91E2C
:10410000A7C0C5010E94E01BA3C0C5010E94E01C1E
:104110009FC080931E01D5015B966D917C915C9749
:10412000C5010E94FF1CF501808191810E94232915
:104130008FC085010A5C1F4F9501255D3F4FD5015A
:104140005F964D915C919097C0901E015E96EC90A9
:104150006F2DC5010E94DB1874C08501055D1F4FDE
:10416000D50193962D913C91949791964D915C91A8
:104170009297E0901E016F2DC5010E94D91E1092EA
:104180001E01882309F464C0823009F05EC0D501A5
:104190009796ED91FC919897309709F456C0099540
:1041A00054C080911E01882359F0D5015F966D910E
:1041B0007C91909742E050E08DE49AE00E94904F0D
:1041C00085010A5C1F4F9501255D3F4FC0901E0180
:1041D000F501E68C4DE45AE06F2DC5010E94DB1815
:1041E00010921E018823A1F18230E9F4D5015F9677
:1041F0006D917C91909742E050E0CE0101960E9433
:10420000904F29813A8180914D0A90914E0A28174A
:10421000390749F0F501678D70A142E050E08DE467
:104220009AE00E94A84F81E0D5015D968C9310C062
:10423000D5019596ED91FC91969760911E018F2D79
:10424000099510921E01882319F081E0F501858FF0
:10425000D5015D968C918111F12C8F2D0F900F90CF
:10426000DF91CF911F910F91FF90EF90CF90BF9072
:10427000AF9008958F929F92BF92CF92DF92EF926C
:10428000FF920F931F93CF93DF931F92CDB7DEB7AB
:104290004C01162F7A016901B02E002311F1FC01A7
:1042A000808191810E94EF28B601C4010E941A17F3
:1042B00044EC53E06AE571E0C4010E94501708E144
:1042C00021E54CE061E0F401808191810E94742538
:1042D00009E122E54BE060E0F401808191810E94D8
:1042E0007425143099F018F41330E1F505C0153039
:1042F00039F11630B9F513C08091610A882311F0A5
:10430000815001C08AE08093610A2EC08091610AC9
:104310008A3010F48F5FF7CF1092610A25C0809128
:10432000610AF701E80FF11D80818B3510F080E400
:1043300080838081813410F0815012C08AE510C0E2
:104340008091610AF701E80FF11D8081813410F43A
:104350008BE5808380818B3510F48F5F01C081E411
:10436000808302C0BB20B1F107E12FE44DE062E0A1
:10437000F401808191810E94CB25BE2C670133E03E
:10438000FC2CFB18F60121916F01822F81548A3198
:1043900008F020E24FE0632FF4018081918139839E
:1043A0000E94BE238091610A3981F8120BC0232F2D
:1043B0002A5F06E14EE0632FF401808191810E9423
:1043C000A3253981395F3035D9F6F4018081918197
:1043D0000E9423291150123030F4E12FF0E0E95C03
:1043E000FE4F808101C080E00F90DF91CF911F913F
:1043F0000F91FF90EF90DF90CF90BF909F908F90A4
:104400000895279A2F9A0895F89490E22F98892F6B
:104410008A95F1F72F9A892F8A95F1F7F7CFF894BB
:1044200092E22F98892F8A95F1F72F9A892F8A95F2
:10443000F1F7F7CFFC012081211122C0F89420E18F
:1044400030E058E22F98452F4A95F1F72F9A452FE3
:104450004A95F1F721503109A9F7E4E4F9E33197DE
:10446000F1F720E130E058E22F98452F4A95F1F717
:104470002F9A452F4A95F1F721503109A9F77894E1
:10448000FC012081213019F460ED77E009C025306E
:1044900019F468EC72E30AC0243021F46CE073E292
:1044A0000E940422233021F466EA7EE00E940F225B
:1044B000223019F460E179E0F3CF0895FC01208106
:1044C000211122C0F89420E130E058E22F98452FC6
:1044D0004A95F1F72F9A452F4A95F1F72150310966
:1044E000A9F7E0EEF9E23197F1F720E130E058E288
:1044F0002F98452F4A95F1F72F9A452F4A95F1F7B6
:1045000021503109A9F77894FC012081233021F44E
:1045100066EA7EE00E940F22223021F460E179E019
:104520000E9404220895FC012081243021F468E2D5
:1045300073E20E9404220895FC012081243021F4BA
:1045400068E273E20E94042208958D982D980895E0
:1045500008956435D8F44033C8F4E42FF0E023E044
:10456000F595E7952A95E1F726E0629FE00DF11DAC
:104570001124E80FF91F477081E090E0042E01C07C
:10458000880F0A94EAF79081982B908308956435F8
:10459000E0F44033D0F4E42FF0E033E0F595E79514
:1045A0003A95E1F726E0629FE00DF11D1124E80F36
:1045B000F91F477081E090E0042E01C0880F0A9433
:1045C000EAF780959081892380830895E42FF0E0B5
:1045D00053E0F595E7955A95E1F726E0629FE00DE7
:1045E000F11D1124E80FF91F808190E0477002C08F
:1045F000959587954A95E2F7817008950F931F93DB
:10460000CF93DF93EC01162F042F0E94E622402F58
:10461000612F882339F0CE01DF91CF911F910F9147
:104620000C94C722CE01DF91CF911F910F910C9472
:10463000A922DB0180E019C0E03211F48E5F15C0C1
:10464000EE3299F09E2F90539A3010F48D5F0DC08A
:10465000EB3508F0E052E15496E0E99FF0011124B7
:10466000E95CF24FE4918E0F8F5FED91E111E4CFA1
:1046700008956F927F928F929F92AF92BF92CF9246
:10468000DF92EF92FF920F931F93CF93DF936C0112
:10469000862E742E203209F443C02E3209F442C013
:1046A000822F80538A3010F4265106C02B3508F033
:1046B000205221542B35B0F586E0289F900111241B
:1046C000F901E95CF24F949000E010E068E3A62E57
:1046D0006DE0B62EA20EB31E1EC0F501E00FF11F55
:1046E000E490C0E0D0E0F12C682E680C97010C2E0D
:1046F00002C0359527950A94E2F720FF06C04C2F9B
:10470000470D662DC6010E94A9222196C530D1050C
:1047100069F70F5F1F4F802F0915F8F2892D03C02D
:1047200082E001C080E0DF91CF911F910F91FF9057
:10473000EF90DF90CF90BF90AF909F908F907F9041
:104740006F900895EF92FF920F931F93CF93DF9393
:104750008C01F62EE42EE90107C04E2D6F2DC80105
:104760000E943923F80EF39429912111F6CFDF919D
:10477000CF911F910F91FF90EF9008957F928F92AC
:104780009F92AF92BF92CF92DF92EF92FF920F93E0
:104790001F93CF93DF935C01962E842E205286E0E8
:1047A000289F70011124C0E0D0E08FE09EE0E80E69
:1047B000F91EF701EC0FFD1FC49000E010E0D12CB2
:1047C0007C2E790CC601002E02C0959587950A941F
:1047D000E2F780FF06C0482D400F672DC5010E94FB
:1047E000A9220F5F1F4F0830110561F72196C630CF
:1047F000D105F9F6DF91CF911F910F91FF90EF90C6
:10480000DF90CF90BF90AF909F908F907F90089552
:104810008F929F92AF92CF92DF92EF92FF921F936F
:10482000CF93DF936C01162FA42EE9012A303105B6
:1048300090F02436310510F41A5F0DC0283E83E055
:10484000380710F4145F07C0203187E2380710F4EE
:104850001E5E01C0185E7AE0872E912CCE01B40155
:104860000E947E4C7C01282F205D4A2D612FC601BD
:104870000E94BE23CE018E199F09B4010E947E4C76
:10488000EB011650209751F7DF91CF911F91FF90C8
:10489000EF90DF90CF90AF909F908F900895CF9240
:1048A000DF92FF920F931F93CF93DF931F92CDB7A9
:1048B000DEB78C01562FF42E690108C04F2D652FED
:1048C000C80159830E94BE2359815A5FF601219184
:1048D0006F012111F3CF0F90DF91CF911F910F91B5
:1048E000FF90DF90CF9008952F923F924F925F926A
:1048F0006F927F928F929F92AF92BF92CF92DF92F0
:10490000EF92FF920F931F93CF93DF931F92CDB738
:10491000DEB73C01562E342F2E3231F02B3231F0DF
:104920002D3231F02F7005C02AE003C02BE001C00A
:104930002CE083E0289F50011124E4E0AA0CBB1C6A
:10494000EA95E1F7E12CF12C2EC0F601E20DF31D02
:10495000849000E010E0912C422C450CC401002E04
:1049600002C0959587950A94E2F780FF08C0432F0F
:10497000400F642DC30139830E94A92239810F5F42
:104980001F4F0830110551F79FEF291A390AE0E14E
:104990002E163104D1F6385FF0E1EF0EF11C80E302
:1049A000E816F10451F06701CA0CDB1C212C312CF4
:1049B000E7E3F0E1CE0EDF1EC8CF0F90DF91CF917D
:1049C0001F910F91FF90EF90DF90CF90BF90AF902D
:1049D0009F908F907F906F905F904F903F902F901F
:1049E0000895CF92DF92FF920F931F93CF93DF939F
:1049F0001F92CDB7DEB78C01562FF42E690108C087
:104A00004F2D652FC80159830E9474245981505F2E
:104A1000F60121916F012111F3CF0F90DF91CF911A
:104A20001F910F91FF90DF90CF900895222339F0CE
:104A3000213019F02F3F39F404C00C94A9220C94B2
:104A4000C7220C94FE220895AF92BF92CF92DF92BC
:104A5000EF92FF920F931F93CF93DF93EC01F62E0B
:104A6000E42E122F161B041BBB24B394111101C09A
:104A7000B12CCC24C394011101C0C12C4E2D6F2D3B
:104A8000CE010E94A922101798F0D12ED694A12C05
:104A90000CC0D00ED11610F0D11AEC0CFB0C4E2D20
:104AA0006F2DCE010E94A922A394A112F2CF11C0B2
:104AB000D02ED694A12CD10ED01610F0D01AFB0C0B
:104AC000EC0C4E2D6F2DCE010E94A922A394A012B2
:104AD000F2CFDF91CF911F910F91FF90EF90DF9078
:104AE000CF90BF90AF900895DF92EF92FF920F9317
:104AF0001F93CF93DF93EC01F62ED42EE22E102FCE
:104B0000042F0E942425012F2E2D4D2D6E2DCE0118
:104B10000E9424252F2D4D2D6F2DCE010E9424257E
:104B20002E2D412F6F2DCE010E942425DF91CF9194
:104B30001F910F91FF90EF90DF90089581E0611138
:104B400001C080E00895CF92DF92EF92FF920F9321
:104B50001F93CF93DF931F92CDB7DEB76C01E42E86
:104B6000F62E0BC0412F6F2DC60129830E94FE2215
:104B70001F5F29810117B0F7F3942F1510F01E2D38
:104B8000F9CF0F90DF91CF911F910F91FF90EF9090
:104B9000DF90CF900895CF92DF92EF92FF920F9324
:104BA0001F93CF93DF931F92CDB7DEB76C01E42E36
:104BB000F62E0BC0412F6F2DC60129830E94C722FC
:104BC0001F5F29810117B0F7F3942F1510F01E2DE8
:104BD000F9CF0F90DF91CF911F910F91FF90EF9040
:104BE000DF90CF9008954F925F926F927F928F9255
:104BF0009F92AF92BF92CF92DF92EF92FF920F936C
:104C00001F93CF93DF931F92CDB7DEB72C01762E83
:104C1000642E690182E5E81202C0EAEF07C02A307B
:104C20003105A8F02436310518F4E6E07E0E0FC0F9
:104C3000283EF3E03F0710F48CE008C02031E7E2A3
:104C40003E0718F4F2E17F0E02C088E1780E0435C9
:104C500029F1053521F0063409F040C1ACC030E03F
:104C60000AE010E0C601B8010E947E4C7C01282FAA
:104C7000205D462D672DC20139830E94BE23C601E7
:104C80008E199F09B8010E947E4C6B01EAEF7E0EDF
:104C900039813F5F6115710529F721C10CE3E02ED1
:104CA000F12CC601B7010E947E4C5C01C6018A1935
:104CB0009B09B7010E947E4C4B010AE010E0C50140
:104CC000B8010E947E4C6C01282F205D462D672D77
:104CD000C2010E94BE23C5018C199D09B8010E9422
:104CE0007E4C262F205D672D6650462DC2010E9406
:104CF000BE23672D6C502AE3462DC2010E94BE23BD
:104D0000C401B7010E947E4C6C01C4018C199D093D
:104D1000B7010E947E4C5B01C601B8010E947E4C27
:104D20007C01282F205D672D6251462DC2010E9413
:104D3000BE23372D3851C6018E199F09B8010E9434
:104D40007E4C262F611102C013E001C014E0205DEB
:104D5000462D632FC2010E94BE23672D6E512AE3A8
:104D6000462DC2010E94BE23372D3452C5016CE38B
:104D700070E00E947E4C6AE070E00E947E4C8111DF
:104D800016E0282F205D462D632FC2010E94BE230E
:104D9000672D6A52062D095F87E090E0811B282F5E
:104DA000220F280F220F260F462DC2010E94CB256D
:104DB00037E0311B94C028E532E0C601B9010E94FA
:104DC0007E4C7C01C6018E199F09B9010E947E4C60
:104DD0005B010AE010E0C701B8010E947E4C6C0143
:104DE000282F205D462D672DC2010E94BE23672D0E
:104DF00066502EE2462DC2010E94BE23C7018C19C7
:104E00009D09B8010E947E4C7B01CB01B8010E9434
:104E10007E4C6C01282F205D672D6C50462DC20101
:104E20000E94BE23372D3251C7018C199D09B8014C
:104E30000E947E4C262F611103C012E0D12E02C0C9
:104E4000B3E0DB2E205D462D632FC2010E94BE23FE
:104E5000672D68512AE3462DC2010E94BE23372DDB
:104E60003E51C50168E572E00E947E4C8C016AE00B
:104E700070E00E947E4C7C01282F882311F0A5E071
:104E8000DA2E205D462D632FC2010E94BE23372DEE
:104E90003452C8018E199F096AE070E00E947E4C6E
:104EA000262F662311F0F6E0DF2E205D462D632FBE
:104EB000C2010E94BE23672D6A52062D095F87E05A
:104EC00090E08D19282F220F280F220F260F462D34
:104ED000C2010E94CB2537E03D1901C030E0832F8D
:104EE0000F90DF91CF911F910F91FF90EF90DF9086
:104EF000CF90BF90AF909F908F907F906F905F907A
:104F00004F9008952F923F924F925F926F927F92AF
:104F10008F929F92AF92BF92CF92DF92EF92FF92C9
:104F20000F931F93CF93DF9300D000D01F92CDB784
:104F3000DEB7282E592F362EF9018491B9016E5F04
:104F40007F4F7D836C8331962491311002C04423BE
:104F500091F030E0590193E0B594A7949A95E1F768
:104F6000742F412C982F930D99834901840E911C25
:104F7000682E712C5DC0843561F7203351F7222DE6
:104F8000392F66E019C0FA014F5F5F4FE491D901F4
:104F9000A80FB91FEC930696883FE1E09E0799F7AA
:104FA0008C819D818C5A9F4F9D838C8361502F5F94
:104FB0003F4F662309F445C04C815D8180E090E05D
:104FC000E2CFF7019FEFE91AF90AC49000E010E080
:104FD000D12C472F400F242F30E082169306BCF0CF
:104FE0009601002E02C0359527950A94E2F7652DAB
:104FF000822D952F5B837A8320FF05C00E94A92212
:105000005B817A8104C00E94C7227A815B810F5F35
:105010001F4F08301105E9F65394E9815E12D1CF94
:105020008C819D81860D971D9D838C834394785F31
:10503000242D30E02A153B0524F4532CEC80FD8010
:10504000ECCF0F900F900F900F900F90DF91CF91BA
:105050001F910F91FF90EF90DF90CF90BF90AF9096
:105060009F908F907F906F905F904F903F902F9088
:1050700008955F926F927F928F929F92AF92BF92AC
:10508000CF92DF92EF92FF920F931F93CF93DF9314
:10509000EC01F62E042FE22ED62ED21A6D2D0E9490
:1050A000A922B02EBE184B2D6F2DCE010E94A92231
:1050B000CE2CCF0C402F6C2DCE010E94A922AE2CFD
:1050C000A00E4A2D6F2DCE010E94A92211E001C031
:1050D000182F5E2C511A8A2C811A712E7F0C482DA4
:1050E000672DCE010E94A9226B2C610E9F2C911A74
:1050F000462D692DCE010E94A922462D672DCE0195
:105100000E94A922482D692DCE010E94A922812E3C
:10511000800E7C2C711A482D672DCE010E94A92289
:10512000602E611A9D2C910E462D692DCE010E9494
:10513000A922462D672DCE010E94A922482D692D56
:10514000CE010E94A922812F8F5F511608F6DF91B0
:10515000CF911F910F91FF90EF90DF90CF90BF9074
:10516000AF909F908F907F906F905F9008958F92F7
:105170009F92AF92BF92CF92DF92EF92FF92862ED4
:10518000912CA12CB12CA0E2B0E8A50194010E94C1
:10519000634C6B017C0180E4C82284E8D82288E05B
:1051A000E822FF24A2E0B8E00E94634C60717172B3
:1051B00082709927C62AD72AE82AF92AA7019601D8
:1051C00061E071E081E090E00E946E4CFF90EF9012
:1051D000DF90CF90BF90AF909F908F9008959C01EB
:1051E00046E00EC0F901E80FF91F10820696883FCD
:1051F00051E09507B9F741502F5F3F4F442319F015
:1052000080E090E0EFCF08952898411102C01698F1
:1052100001C0169A6EBD0DB407FEFDCF289A089501
:105220001F93CF93DF93EC01162F642F606440E04F
:105230000E940429612F606840E0CE01DF91CF9188
:105240001F910C940429CF92DF92EF92FF920F935B
:105250001F93CF93DF93D82EC92E40E060E00E94C9
:105260001029CD2DDC2D7E0186E0E80EF11C13C047
:10527000FE01E00FF11F41E060818D2D9C2D0E9409
:1052800004290A5F1F4F083F81E0180789F721961C
:10529000CE15DF0519F000E010E0EACFDF91CF91E5
:1052A0001F910F91FF90EF90DF90CF9008950F9393
:1052B0001F93CF93DF93EC0140E06CE00E94042940
:1052C00040E060E8CE010E94042908EF11E041E0CF
:1052D00060E0CE010E94042901501109C1F7DF915D
:1052E000CF911F910F91089528982A982998719825
:1052F0008D98169815980895613039F4FC01E7509F
:10530000FE4F60838D982D9A08956F3F11F40C9491
:10531000A522FC01E750FE4F10828D9A2D9808952A
:10532000FC01E850FE4F6083662331F0FC01E7503A
:10533000FE4F60810C947C290C94A522CF93DF93BF
:10534000EC01209A229A219A699A859A259A0E9AB6
:105350000D9A719AFC01E750FE4F60810E947C29F2
:105360008AE18A95F1F7159882E08A95F1F7159A06
:1053700081E58CBD40E061E2CE010E94042940E05D
:1053800060ECCE010E94042940E066E0CE010E945C
:10539000042940E063E1CE010E94042940E060E27C
:1053A000CE010E940429CE010E94572940E06CE002
:1053B000CE010E9404296FEFCE01DF91CF910C94B2
:1053C000902988509E4FFC0180810895CF93DF93F0
:1053D000EC018091870A882319F080E00E94221551
:1053E000FE01E05BFF4F808181110CC0C15BDF4F8C
:1053F0008881882321F08091620A811107C0109270
:10540000620A0BC0479A469A469807C01092620AF1
:105410008CE297E00E941A22F2CFDF91CF9108959B
:10542000CF93DF93EC018091870A882319F081E004
:105430000E942215FE01E05BFF4F8081811111C0A7
:10544000C15BDF4F8881882321F081E08093620A6D
:1054500002C01092620A8CE297E0DF91CF910C9427
:105460001A2280917D0A811103C04698479818C07E
:105470008130B1F49091620A911112C04698479818
:105480008093620A84EF91E028EC30E0F9013197D3
:10549000F1F70197D9F7CE01DF91CF910C94E6296E
:1054A000DF91CF910895CF93DF93EC018091870A2C
:1054B000882319F080E00E942215FE01E05BFF4F77
:1054C000808181110BC0C15BDF4F8881882309F483
:1054D0003EC08091620A81113DC039C080917D0A31
:1054E000811115C0479A469A469A84EF91E028ECBC
:1054F00030E0F9013197F1F70197D9F7C05BDF4F41
:10550000349B03C081E088832AC0188228C0813080
:1055100031F58091620A813011F5479A469A469A90
:1055200084EF91E028EC30E0F9013197F1F7019731
:10553000D9F7FE01E05BFF4F349B03C081E080831D
:1055400001C010821092620ACE010E94102A1092AD
:10555000620A05C08CE297E00E941A22F8CFDF9120
:10556000CF910895FC01E05BFF4F469B06C0349B42
:1055700003C081E0808301C01082808108951F9361
:10558000CF93DF93EC01162F84E4689FB0011124C0
:10559000675F7F4F44E450E0CE010E94A84FC45B98
:1055A000DF4F1883DF91CF911F910895FC0184E4B0
:1055B000808385E4818386E4828381E4838385E537
:1055C00084838CE4858384E58683178285E090E07C
:1055D000958784878AE090E09787868784E190E0CA
:1055E000918B808B83E090E0938B828B81E090E0C5
:1055F000958B848B978B868B918F808FDF01AE5B31
:10560000BF4F11969C938E9360E0CF010C94BF2AFC
:105610001F93CF93DF93EC01162F84E4689FB001B2
:105620001124675F7F4F44E450E0CE010E94904F09
:10563000C45BDF4F1883DF91CF911F910895CF9303
:10564000DF93EC0189E090E00E94A04F8F3F19F4B6
:10565000CE010E94D62A60E0CE010E94082B469A15
:105660003E9A479A3F9A3C98449A86988E9AC05B95
:10567000DF4F349B03C081E0888301C01882109201
:10568000620ADF91CF9108951F93CF93DF93C1E01A
:10569000D0E014E41C9FC0011D9F900D1124875F72
:1056A0009F4F0E94A04F8F3F31F02196C931D10505
:1056B00089F78FEF01C08C2FDF91CF911F91089553
:1056C000855B9F4F21E0FC01208308952F923F923C
:1056D0004F925F926F927F928F929F92AF92BF9202
:1056E000CF92DF92EF92FF920F931F93CF93DF93AE
:1056F000CDB7DEB764970FB6F894DEBF0FBECDBF4F
:105700001C01469B09C0FC01E05BFF4F349B03C0BA
:1057100081E0808301C01082F101E55BFF4F808151
:10572000811108C08091640A882309F4B2C321E082
:10573000298701C019868091640A811118C081E00F
:105740008093640A1092650A81E897E00E947414BD
:105750001092660A1092670A469A3E9A479A3F9AB2
:105760003C98449A86988E9A469A479A469A80918F
:10577000650A811154C080911F01882371F08091C6
:10578000870A882331F089EC93E00E9470360E94EA
:1057900072368091650A80931F0160918107709134
:1057A0008207809183079091840728EE33E040E0E0
:1057B00050E00E94A64CD1011C96CD90DC901D9724
:1057C000E12CF12CC216D306E406F506A0F481E81C
:1057D00097E00E94741481E897E00E946814109288
:1057E000680A1092690A10926A0A10926B0A82E0A3
:1057F0008093650A14C0F1018485958589019A0119
:105800000F5F1F4F2F4F3F4FAC0160E070E0041758
:1058100015072607370718F0C1010E94E629809175
:10582000650A823009F03DC080911F01823071F01D
:105830008091870A882331F08AED93E00E947036C8
:105840000E9472368091650A80931F01D10156969D
:105850008D919C915797892B09F01FC354968D9178
:105860009C91559782FD19C31EC3F9013197F1F739
:105870000197D9F7C1010E94532A84EF91E028ECE7
:1058800030E0F9013197F1F70197D9F7F1018089FB
:105890009189029718F4C1010E94E62984E080935F
:1058A000650A8091650A813009F014C280911F0158
:1058B000813071F08091870A882331F08BEE93E07C
:1058C0000E9470360E9472368091650A80931F0193
:1058D000F101E15BFF4F81E08083C1010E94102A4A
:1058E00080912001882309F4C6C110922001D101C2
:1058F00056962D913C91579744E6429FC001439F95
:10590000900D112490936D0A80936C0A54968D919A
:105910009C91559782FD5DC044C181E897E00E944B
:1059200001156501F5013197D5015696AA0FBB1FE8
:10593000A20DB31D4D915C918A0120E030E0061765
:1059400017072807390708F442C0FA83E983B1E052
:10595000B91510F4F50132973D96EE0FFF1FE20DD9
:10596000F31D60807180E981FA813D96EE0FFF1F83
:10597000E20DF31D40805180F5013D96EE0FFF1FB3
:10598000E20DF31D00811181F101EE5BFF4F80817B
:105990009181A816B90620F46501EFEFCE1ADE0A50
:1059A000D6011D96AA0FBB1FA20DB31D2D913C91D0
:1059B0003E832D8381E897E00E9401156B017C01F5
:1059C00031E03915B0F020E030E0A90120C0939417
:1059D00006C099249394710182E4E80EF11CA92C6D
:1059E000B12CD7018D919C918A159B0508F095CF1C
:1059F0006BC2D5015596AA0FBB1FA20DB31D6D91A9
:105A00007C9180E090E00E94664B9B01AC01C70155
:105A1000B6012F87388B498B5A8B0E94664B2F8596
:105A2000388949895A890E946D4A6E87872E8C8BE6
:105A30009B8BE981FA817796EE0FFF1FE20DF31D34
:105A40006081718180E090E00E94664B6A877B876D
:105A50008C879D87B1E0B91588F4F5017596EE0F36
:105A6000FF1FE20DF31D6081718180E090E00E94D4
:105A7000664B69837A838B839C8304C019821A8264
:105A80001B821C82ED81FE81BF0180E090E00E94BC
:105A9000664B20E030E048EC52E40E94F44B5B019E
:105AA0006C01B80180E090E00E94664B20E030E09D
:105AB00048EC52E40E94F44B7B018C01B20180E07F
:105AC00090E00E94664B20E030E048EC52E40E94F7
:105AD000F44B6D837E838F839887B30180E090E0E1
