:100000000C9453090C9482090C9482090C94820973
:100010000C9482090C9482090C9482090C94820934
:100020000C9482090C9482090C94833F0C948209ED
:100030000C9482090C9460140C9482090C9482092B
:100040000C9482090C9482090C9482090C94820904
:100050000C9482090C9482090C9482090C948209F4
:100060000C9482090C9482090C9482090C948209E4
:100070000C9482090C9482090C9482090C948209D4
:100080000C9482090C9482090C9482090C948209C4
:100090000C9408480C9482091E03540069006D00FA
:1000A00065006C0061007000730065002B0020008B
:1000B00043004400430000001C0345006C0069003D
:1000C0006A006100680020005000610072006B004F
:1000D0006500720000000403090409023E000201E9
:1000E00000C03209040000010202010005240010D2
:1000F0000104240206052406000107058203080006
:10010000FF09040100020A000000070504021000B4
:10011000010705830210000112011001020000080E
:10012000EB03442001000102DC0152657472696531
:1001300076696E672044657669636520496E666FEF
:100140002E2E2E0D0A004465766963652041747475
:1001500061636865642E0D0A000D0A446576696363
:100160006520556E61747461636865642E0D0A00C4
:1001700047657474696E6720436F6E6669672044D3
:100180006174612E0D0A00436F6E74726F6C2045AE
:1001900072726F72202847657420436F6E666967BC
:1001A00075726174696F6E292E0D0A00496E766151
:1001B0006C6964204465766963652E0D0A00202D04
:1001C0002D204572726F7220436F64653A2025645A
:1001D0000D0A00436F6E74726F6C204572726F72FD
:1001E000202853657420436F6E6669677572617469
:1001F000696F6E292E0D0A202D2D204572726F72A7
:1002000020436F64653A2025640D0A005374696CBD
:100210006C20496D6167652044657669636520459A
:100220006E756D6572617465642E0D0A00486F739A
:1002300074204D6F6465204572726F720D0A202D17
:100240002D204572726F7220436F64652025640D06
:100250000A0044657620456E756D204572726F7296
:100260000D0A202D2D204572726F7220436F646538
:100270002025640D0A202D2D2053756220457272B1
:100280006F7220436F64652025640D0A202D2D2098
:10029000496E2053746174652025640D0A00546111
:1002A0006B696E6720706963747572652E2E2E0DF2
:1002B0000A004572726F7220380D0A004368616E41
:1002C00067696E672050726F70657274792E2E2E7A
:1002D0000D0A004572726F7220390D0A0045727264
:1002E0006F722031320D0A004572726F7220310D2B
:1002F0000A002020204D616E756661637475726519
:10030000723A2025730D0A002020204D6F64656C21
:100310003A2025730D0A0020202044657669636524
:100320002056657273696F6E3A2025730D0A0D0AA7
:10033000004572726F7220320D0A004F70656E694F
:100340006E672053657373696F6E2E2E2E0D0A0033
:100350004572726F7220340D0A00436C6F73696EC0
:10036000672053657373696F6E2E2E2E0D0A00453C
:1003700072726F7220360D0A00446F6E652E0D0A80
:1003800000436F6D6D616E64204572726F7220283C
:100390002553292E0D0A202D2D204572726F7220B3
:1003A000436F64652025640D0A00526573706F6E9B
:1003B000736520436F646520213D204F4B005472CC
:1003C000616E73616374696F6E204661696C00547D
:1003D0007269676765722020202020004DFB0400B1
:1003E000001D0154696D656C6170736520202000EB
:1003F0004D370500001C01436F6E6E65637420204D
:10040000202020004D9F0600000000536574746991
:100410006E677320202020004DDB060000000000E6
:100420002020202020202020202020005600000016
:1004300000000053746F702054696D6572202000B5
:1004400046FB090000720B416464204B65796672BB
:10045000616D65004684090000820B44656C204B89
:1004600065796672616D6500460F0A0000810B5662
:100470006965772044657461696C7300464E0C00B1
:100480000000004C6F61642053617665642E2E007D
:1004900046290A00001D01536176652041732E2E06
:1004A00020202000469A0E0000000053617665204F
:1004B000202020202020200046420B00001C0B534F
:1004C0006176652044656661756C740046650B0055
:1004D00000000052657665727420202020202000E4
:1004E00046D00900001D01004F5054494F4E5300A3
:1004F0002020200046F309B707BE074361626C6500
:100500002052656D6F746500464B0D00001D01495A
:10051000522052656D6F746520202000466B0E00DE
:10052000001D01002020202020202020202020004D
:10053000560000000000004D6F6465202020202040
:1005400020202A0053BF07300B000044656C6179FE
:10055000202020202020540045280B0F08000046B2
:1005600072616D657320202020205500452A0B18EC
:10057000081B01496E7472766C20202020204600F2
:10058000452C0B2308860B4844522045787027736E
:1005900020205500452E0B2308840B536875747476
:1005A000657220202020460045320B2308840B531F
:1005B00068757474657220202020460045320B2334
:1005C000081A014844522045562B2F2D2020550053
:1005D00045340B2B08840B42756C6220312020209F
:1005E0002020460045360B2308830B2A4B657920D3
:1005F0002020202020205400454A0B4308830B4232
:10060000756C6220322020202020460045380B23C4
:1006100008830B2A4B6579202020202020205400BD
:10062000454C0B43087F0B42756C62203320202021
:1006300020204600453A0B23087F0B2A4B65792082
:100640002020202020205400454E0B43087E0B42E2
:10065000756C62203420202020204600453C0B236E
:10066000087E0B2A4B657920202020202020540072
:1006700045500B43087D0B42756C622035202020CD
:1006800020204600453E0B23087D0B002020202023
:10069000202020202020200046D80E4F0857084256
:1006A0006C7565746F6F746820202000460E0C0016
:1006B00000750855534220202020202020202000B3
:1006C00046870B0000000000202020202020202052
:1006D000202020005600000000000053797374654C
:1006E0006D20496E666F2000469D11000000004C91
:1006F000434420436F6C6F7220202000535D08D468
:100700000B55364C434420424C2054696D65200003
:10071000538D08D50B5536505752204175746F20B4
:100720004F66660053FD08D60B55364C45442041B4
:1007300075746F204F666600535D09D70B553642BE
:10074000756C62204D6F64652020200053CD09D266
:100750000B553643616D6572612046505320200071
:1007600053FD09C50B553643616D657261204D61BE
:100770006B65200053AD0AD30B5536446576204D8A
:100780006F6465204C454400533D0BDC0B553644EB
:100790006576656C6F706D656E7420004D6D0B0035
:1007A00000000000202020202020202020202000E9
:1007B0005600000000000052455455524E000054AF
:1007C000696D652D6C6170736520200001210C48F6
:1007D000445220542D6C61707365200003310C4825
:1007E00044522050686F746F20202000023F0C425A
:1007F000756C622D72616D702020200005500C0018
:100800002020202020202020202020000000006820
:10081000683A6D6D3A7373003020666F7220696EAE
:10082000662E006D6D3A73732E730053746F707380
:10083000206265747765656E206578706F73757278
:1008400065730053696E6365207374617274004F41
:100850005054494F4E530053544152540057686905
:1008600074652020202020202000005E0C5265644A
:1008700020202020202020202000015E0C002020AD
:1008800020202020202020202000000000313020C7
:100890005365636F6E6473202000016E0C3330204B
:1008A0005365636F6E6473202000036E0C31204D1E
:1008B000696E7574652020202000066E0C32204D74
:1008C000696E75746573202020000C6E0C35204D08
:1008D000696E75746573202020001E6E0C31302007
:1008E0004D696E757465732020003C6E0C002020ED
:1008F0002020202020202020200000000031204D3A
:10090000696E757465202020200006800C32204D11
:10091000696E75746573202020000C800C35204DA5
:10092000696E75746573202020001E800C313020A4
:100930004D696E757465732020003C800C33302047
:100940004D696E75746573202000B4800C00202002
:1009500020202020202020202000000000313020F6
:100960005365636F6E647320200001920C33302056
:100970005365636F6E647320200003920C31204D29
:10098000696E757465202020200006920C32204D7F
:10099000696E75746573202020000C920C35204D13
:1009A000696E75746573202020001E920C31302012
:1009B0004D696E757465732020003C920C002020F8
:1009C00020202020202020202000000000537461DF
:1009D0006E64617264202020200000A40C4D6F6DB5
:1009E0002E20546F67676C65200001B70C00202033
:1009F0002020202020202020200000000031204640
:100A00005053202020202020200065CA0C32204690
:100A10005053202020202020200033CA0C332046B1
:100A20005053202020202020200022CA0C342046B1
:100A3000505320202020202020001ACA0C352046A8
:100A40005053202020202020200015CA0C3620469C
:100A50005053202020202020200011CA0C3720468F
:100A6000505320202020202020000FCA0C38204680
:100A7000505320202020202020000DCA0C3130208F
:100A8000465053202020202020000BCA0C31322059
:100A90004650532020202020200009CA0C0020208E
:100AA000202020202020202020000000004F7468FB
:100AB00065722020202020202000FEDC0C43616E87
:100AC0006F6E202020202020200000F10C4E696B4A
:100AD0006F6E202020202020200001F10C4D696E37
:100AE0006F6C746120202020200003F10C4F6C7982
:100AF0006D70757320202020200004F10C50656E6D
:100B00007461782020202020200005F10C536F6EA6
:100B10007920202020202020200002F10C50616E3E
:100B200061736F6E69632020200006F10C002020A5
:100B3000202020202020202020000000004F66667A
:100B40002020202020202020200000FD0C4F6E209F
:100B5000772F42756C622020200001100D002020AC
:100B60002020202020202020200000000053687535
:100B70007474657220546573740046D10D00001DB5
:100B80000153687574746572204C61672000469744
:100B90000C00001D01495220546573742020202050
:100BA0002000466B0E00001D013420486F75722036
:100BB0004C696768740046473900001D015379731A
:100BC00020537461747573202000467C130000006C
:100BD000004261747465727920202020200046C490
:100BE0000F000000004C69676874204D65746572E1
:100BF000200046E21000000000506F776572204F21
:100C000066662020200046F5160000000000202027
:100C1000202020202020202020005600000000005E
:100C20000042617369632054696D656C617073651E
:100C3000004844522054696D656C617073650053BF
:100C4000696E676C652048445220496D6167650094
:100C500052616D70206578706F73757265004261C6
:100C6000636B6C6967687420636F6C6F72004261BC
:100C7000636B6C69676874206F6E2074696D6500C2
:100C80004175746F20707772206F66662074696D8D
:100C900065004C4544206175746F206F6666207452
:100CA000696D6500486F6C64732073687574746552
:100CB0007220646F776E005072657373206F6E20C0
:100CC0007072657373206F6666004672616D65733E
:100CD00020706572205365636F6E640043686F6FA8
:100CE0007365206966206E6F74206C697374656427
:100CF0000043616D657261206D616B65004C454418
:100D0000206F666620647572696E67207573650072
:100D100053687574746572206C6967687473204CCD
:100D20004544000402040507064D41494E204D4547
:100D30004E5500041E05051E00041F15150A00046B
:100D40000E11111100041F11110E00041F151511B1
:100D500000041F05050100040E11151D00041F04E9
:100D6000041F0003111F1100000408110F010004EB
:100D70001F040A1100041F10101000051F020402B6
:100D80001F041F02041F00040E11110E00041F098E
:100D9000090600040E11191E00041F09091600049B
:100DA000121515090003011F010000040F10100F98
:100DB00000030F100F0000051F0804081F041B0488
:100DC000041B0003031C0300000419151513000382
:100DD0000E150E000003121F10000003191512005B
:100DE000000311150A00000307041F000003171574
:100DF000090000031E151D00000319050300000370
:100E00000A150A00000317150F000000000000007B
:100E1000000000002F000000000700070000147F02
:100E2000147F1400242A7F2A12006264081323000E
:100E3000364955225000000503000000001C2241E5
:100E400000000041221C000014083E08140008089D
:100E50003E0808000000A06000000808080808001C
:100E60000060600000002010080402003E51494567
:100E70003E0000427F40000042615149460021414E
:100E8000454B31001814127F1000274545453900A5
:100E90003C4A494930000171090503003649494976
:100EA0003600064949291E0000363600000000566B
:100EB0003600000008142241000014141414140019
:100EC000004122140800020151090600324959511B
:100ED0003E007C1211127C007F49494936003E4198
:100EE000414122007F4141221C007F494949410084
:100EF0007F09090901003E4149497A007F08080835
:100F00007F0000417F4100002040413F01007F08F9
:100F1000142241007F40404040007F020C027F00CD
:100F20007F0408107F003E4141413E007F090909CE
:100F300006003E4151215E007F09192946004649BD
:100F40004949310001017F0101003F4040403F001D
:100F50001F2040201F003F4038403F00631408140A
:100F60006300070870080700615149454300007F8E
:100F700041410000552A552A55000041417F00009B
:100F8000040201020400404040404000000102040D
:100F900000002054545478007F48444438003844BA
:100FA00044442000384444487F00385454541800C6
:100FB000087E0901020018A4A4A47C007F08040490
:100FC000780000447D4000004080847D00007F1058
:100FD0002844000000417F4000007C041804780091
:100FE0007C0804047800384444443800FC24242459
:100FF000180018242418FC007C0804040800485435
:1010000054542000043F444020003C4040207C00D9
:101010001C2040201C003C4030403C00442810284C
:1010200044001CA0A0A07C004464544C4400000672
:101030000909060080C0E0E060E0E0C08000000038
:1010400000000070FFFF0100000000FFFFFE000035
:10105000000000000F1F3C383038381F0F0300001D
:101060000000000000000080E0E000000000000040
:101070000000000000030303FFFF00000000000069
:1010800000000000003838383F3F38383800000092
:1010900000000000C0C0E06060E0E0C08000000030
:1010A0000000000001000080C0E0F93F1F000000C8
:1010B000000000003C3E3F3F3B39383838380000E4
:1010C00000000000C0E0E06060E0E0C0C0000000A0
:1010D000000000000100003030387DEFCF0000003C
:1010E000000000001C38383030383C1F0F01000071
:1010F000000000000000000080C0E0E000000000F0
:10110000000000E0F0F8DECFC7C1FFFFC0C0000064
:10111000000000000000000000003F3F0000000051
:1011200000000000E0E0E0E0E0E0E0E0E0E00000FF
:10113000000000003F3F3F38383070F0E000000012
:10114000000000001C38383030383C1F0F01000010
:10115000000000000080C0C0E06060E0E00000002F
:10116000000000E0FEFF3739181838F0F0C000002A
:10117000000000000F1F1C383030381F0F07000020
:1011800000000000E0E0E0E0E0E0E0E0E0E000009F
:101190000000000000000080E0F87E1F0701000052
:1011A0000000000000383E1F0701000000000000A2
:1011B0000000000080C0E0E06060E0C0C00000000F
:1011C00000000000CFFF7F38307070FFEFC70000D5
:1011D000000000030F1F3C383030381F1F0F000085
:1011E0000000000080C0E0E060E0E0C0800000009F
:1011F0000000000C3F7FF1E0C0C0E1FFFFFE0000F7
:10120000000000000038303038381E0F07000000A2
:1012100000000000000000000000000000000000CE
:1012200000000000000000000000000000000000BE
:101230000000003C3C3C00000000000000000000FA
:10124000000000000000000000000000000000009E
:1012500000000000004040404040FEFE4040404052
:10126000400000000000000000000F0F0000000020
:10127000000000000000000000000000000000006E
:1012800000000000404040404040000000000000DE
:10129000000000000000000000000000000000004E
:1012A00000000000324F11241FBECFEFD0E2DEBF9E
:1012B000CDBF18E0A0E0B1E0EEE2FAEA00E00BBF3B
:1012C00002C007900D92AC32B107D9F71CE0ACE236
:1012D000B8E001C01D92A635B107E1F712E1C6EAF8
:1012E000D2E100E006C022970109FE010BBF0E9477
:1012F000A951C43AD10780E00807A9F70E94BC4D64
:101300000C9415550C94000080915E0B90915F0B2E
:10131000059708F03FC080915E0B90915F0B892B81
:1013200031F481E090E090935F0B80935E0BE0914D
:101330005E0BF0915F0BA0915E0BB0915F0BAA0F5B
:10134000BB1FA85BB44F8D919C91805F914FEE0FB6
:10135000FF1FE65BF44F91838083E0915E0BF09179
:101360005F0BA0915E0BB0915F0BAA0FBB1FAA5C35
:10137000B44F8D919C91EE0FFF1FE85CF44F918369
:10138000808380915E0B90915F0B019690935F0B31
:1013900080935E0B8DED98E00E945D1E81E00895C4
:1013A000CF93DF931F92CDB7DEB7462F662341F070
:1013B0006091730B8CE19BE049830E949E2F4981D1
:1013C00063E072E08DED98E00E94D219882331F03D
:1013D0008DED98E00E945D1E81E001C080E00F90DD
:1013E000DF91CF910895813021F48DED98E00E9436
:1013F0005D1E81E00895462F61111092720B6CE022
:1014000072E08DED98E00E94D219882331F08DEDC5
:1014100098E00E945D1E81E0089580E0089580912B
:101420005E0B90915F0B029748F080915E0B90915C
:101430005F0B019790935F0B80935E0B8DED98E0AF
:101440000E945D1E60E08DED98E00E94AF1981E082
:1014500008952F923F925F926F927F928F929F9208
:10146000AF92BF92CF92DF92EF92FF920F931F93B2
:10147000CF93DF9300D000D0CDB7DEB7182F8530E3
:1014800031F480919E0B8823A1F081500FC08630EB
:1014900081F480919E0B482F50E020919F0B30E00B
:1014A000215031094217530724F48F5F80939E0B1C
:1014B00003C0662309F4A1C082E299E00E947E2D58
:1014C00080919E0B833020F0682E6A946A9401C04C
:1014D000612C10929F0B1C821B8254E4752EE62C0B
:1014E000F12CC70104969A83898369E0362E5B80CC
:1014F000EB81FC817E9E60017F9ED00C1124C60191
:10150000875F9F4F0E94815481508E3FE8F503E032
:10151000A12CB12C252C23948B809C80FFEF8F1A5B
:101520009F0A261430F189819A81881599050CF15A
:10153000C5018C0D9D1D875F9F4F0E948154982F80
:1015400091549A3108F080E240919F0B4E19439DCF
:10155000402D1124485F282F602F82E299E00E94DD
:101560004D2890919F0B80919E0B981302C0509232
:10157000A00B9FEFA91AB90A0A5F0B3491F680916C
:101580009F0B8F5F80939F0BEB81FC813196FC83D7
:10159000EB83789709F0ABCF80919E0B861949E0D9
:1015A000849F402D1124042F015F495F21E562E0F3
:1015B00082E299E00E94322A64E172E08DED98E0C7
:1015C0000E948E184FE152E064E272E08DED98E0E7
:1015D0000E94C41808E220E043E060E082E299E063
:1015E0000E94B32923E543E063E582E299E00E948B
:1015F000B32982E299E00E94B22D123059F018F41A
:10160000113049F505C0133019F0143021F502C02E
:1016100081E022C06091A00B8CE19BE00E949E2F94
:1016200041E06BE272E08DED98E00E94D219FFEF8D
:1016300021EE84E0F15020408040E1F700C000003E
:101640008DED98E00E945D1E60E08DED98E00E94B7
:10165000AF1982E001C080E00F900F900F900F90C3
:10166000DF91CF911F910F91FF90EF90DF90CF907E
:10167000BF90AF909F908F907F906F905F903F90C2
:101680002F900895CF93DF931F92CDB7DEB7462FEB
:10169000662341F06091730B8CE19BE049830E94CB
:1016A000552F498169E172E08DED98E00E94D219D1
:1016B000882331F08DED98E00E945D1E81E001C02D
:1016C00080E00F90DF91CF910895CF93DF931F9229
:1016D000CDB7DEB7462F662339F060E08CE19BE0A2
:1016E00049830E94552F498169E172E08DED98E0B0
:1016F0000E94D219882331F08DED98E00E945D1E82
:1017000081E001C080E00F90DF91CF910895CF93E9
:10171000C82F611107C09091020C80918F0B981710
:1017200009F46EC09091020C90938F0B992379F17C
:1017300082E299E00E947E2D22E332E047E063E0FE
:1017400082E299E00E94DE2820E432E04FE063E08C
:1017500082E299E00E94DE2820E432E047E163E083
:1017600082E299E00E94DE2820E432E04FE163E06B
:1017700082E299E00E94DE286EE472E08DED98E04E
:101780000E948E1841E258E06AE572E02EC082E2C3
:1017900099E00E947E2D21E632E047E063E082E29C
:1017A00099E00E94DE282FE632E04FE063E082E21B
:1017B00099E00E94DE282DE732E047E163E082E213
:1017C00099E00E94DE2820E432E04FE163E082E20B
:1017D00099E00E94DE286BE872E08DED98E00E94AF
:1017E0008E1841E258E064E272E08DED98E00E94CC
:1017F000C41882E299E00E94B22D81E080937B0BB5
:10180000CC2339F08091020C811105C010927B0B22
:1018100002C080E001C081E0CF910895CF93C82F2E
:101820006623B1F182E299E00E947E2D27E932E041
:1018300047E063E082E299E00E94DE2825EA32E098
:101840004FE063E082E299E00E94DE2823EB32E081
:1018500047E163E082E299E00E94DE2821EC32E079
:101860004FE163E082E299E00E94DE286FEC72E0D3
:101870008DED98E00E948E1841E258E06AE572E032
:101880008DED98E00E94C41882E299E00E94B22D8A
:1018900081E0C11101C080E0CF910895EF920F93D4
:1018A000CF93C82F6623D1F082E299E00E947E2D6B
:1018B00027ED32E042E161E082E299E00E94DE2819
:1018C0006EED72E08DED98E00E948E184AE552E0D0
:1018D00064EE72E08DED98E00E94C4180AE123E501
:1018E00042E164E282E299E00E945A2A89EC98E09F
:1018F0000E946F16E2E5EE2E06E49B0142E163E5ED
:1019000082E299E00E94822A82E299E00E94B22D4E
:10191000C13021F0C23031F481E005C089EC98E09B
:101920000E94E21580E0CF910F91EF9008958F9281
:101930009F92AF92BF92EF920F93CF93DF93C82FF6
:101940006623B1F082E299E00E947E2D69EE72E09A
:101950008DED98E00E948E184AEF52E062E073E04D
:101960008DED98E00E94C41882E299E00E94B22DA9
:101970008C2F8150823008F080C006E220E542E1E1
:101980006AE082E299E00E945A2A29E033E042E1CB
:101990006AE082E299E00E94DE28479A3F9A3C98EA
:1019A000449A86988E9A469A3E9A389A409A3D98DA
:1019B000459A2FEF80E792E0215080409040E1F778
:1019C00000C00000C23051F446982FEF89E698E13C
:1019D000215080409040E1F700C00000479889EC1A
:1019E00098E00E94E2151EC089EC98E00E94511612
:1019F000683E734081059105A8F089EC98E00E944B
:101A00005116EB018FE798E321E081509040204090
:101A1000E1F700C00000479A469A89EC98E00E94DE
:101A2000E21528C03599E0CFE8CF89EC98E00E9414
:101A30005116693E734081059105E0F089EC98E00C
:101A40000E9451164B015C01FCE4EF2E05E59E015E
:101A500042E168E382E299E00E94822A94014CE12B
:101A600068E382E299E00E94822A82E299E00E9481
:101A7000B22D05C0359BD9CFE1CFC33011F080E046
:101A800001C081E0DF91CF910F91EF90BF90AF90B7
:101A90009F908F9008950F93CF93C82F6623E1F006
:101AA00010928D0B82E299E00E947E2D61E173E03D
:101AB0008DED98E00E948E184FE153E065E273E0EF
:101AC0008DED98E00E94C41882E299E00E94B22D48
:101AD0008CE19BE00E949D2EC13071F580918D0BB1
:101AE0008130B9F0C0938D0B0AE12AE442E168E04D
:101AF00082E299E00E945A2A2AE233E042E168E059
:101B000082E299E00E94DE288CE19BE00E94B22EE6
:101B10000EC010928D0B0AE12AE442E168E082E2F5
:101B200099E00E945A2A8CE19BE00E94F02E82E20A
:101B300099E00E94B22D31C0C23099F480918D0B92
:101B4000813089F010928D0B0AE12AE442E168E0CD
:101B500082E299E00E945A2A8CE19BE00E94252FA4
:101B6000E6CFCC23D1F010928D0B0AE12AE442E1BA
:101B700068E082E299E00E945A2A8CE19BE00E9490
:101B80009D2E82E299E00E94B22DC33031F48CE1A7
:101B90009BE00E94772E81E001C080E0CF910F9101
:101BA00008950F93CF93C82F6623D1F010928B0B1B
:101BB00010928C0B82E299E00E947E2D66E373E026
:101BC0008DED98E00E948E1843E453E068E473E0E2
:101BD0008DED98E00E94C41882E299E00E94B22D37
:101BE000C130D9F480918B0B8130B1F1C0938B0B54
:101BF0000AE128E342E164E182E299E00E945A2A84
:101C00002DE433E042E164E182E299E00E94DE28C3
:101C10008CE19BE00E949D2E2DC0C230D9F48091B2
:101C20008B0B8230C9F0C0938B0B0AE128E342E1B1
:101C300064E182E299E00E945A2A24E533E042E11D
:101C400064E182E299E00E94DE288CE19BE00E9440
:101C5000A82E10C0CC2391F010928B0B0AE128E340
:101C600042E164E182E299E00E945A2A8CE19BE021
:101C70000E94772E82E299E00E94B22D8CE19BE0D7
:101C80000E94482F90918C0B882371F091111CC0F9
:101C900081E080938C0B2BE533E04CE166E082E23F
:101CA00099E00E9431280CC0913071F410928C0B95
:101CB00004E221E54CE166E082E299E00E945A2AC2
:101CC00082E299E00E94B22D81E0C33009F080E009
:101CD000CF910F910895CF93C82F6623B1F082E280
:101CE00099E00E947E2D6BE673E08DED98E00E94F6
:101CF0008E1845E753E06DE773E08DED98E00E94A4
:101D0000C41882E299E00E94B22DC23061F0C33063
:101D100019F0C13061F402C081E00AC084E798E0A4
:101D20000E94232504C084E798E00E94BA2380E043
:101D3000CF9108950F93CF93C82F062F662331F0CC
:101D40008CE19BE00E94DC2F8093910B25E833E02F
:101D500042E95BE06C2F8DED98E00E94C222C82F13
:101D6000823011F510929D0B62E97BE08CE19BE0E3
:101D70000E94B4516091910B8CE19BE00E94552F21
:101D800041E069E172E08DED98E00E94D2192FEFF9
:101D900081EE94E0215080409040E1F700C00000C7
:101DA0008DED98E00E945D1E8C2FCF910F910895CC
:101DB000462F61118093900B8091900B8230D9F463
:101DC0006DE873E08DED98E00E94D2192FEF87E85F
:101DD00093E1215080409040E1F700C000008CE189
:101DE0009BE00E94F82F67E972E18DED98E00E9478
:101DF000611983E008958DED98E00E94571D60E021
:101E00008DED98E00E94AF1963E374E08DED98E0EA
:101E10000E947C1E82E299E00E94B22D81E008952A
:101E2000A89588E10FB6F894809360001092600046
:101E30000FBE2FE088E190E00FB6F894A89580934C
:101E400060000FBE209360006C98749A0E94C016C8
:101E5000811102C0649935C00E9481160E945F36CC
:101E600089EC98E00E94781582E299E00E942D2E7C
:101E700082E299E09093DE088093DD0887EB98E09A
:101E80009093E0088093DF0883B7817F846083BFED
:101E900083B7816083BF6FEC73E08DED98E00E94A3
:101EA0007C1E82E299E00E94B22D0E94984D0E9411
:101EB000FE4785E798E00E94F53585E798E00C94A9
:101EC0009F3582E299E00E942D2E0E9430378BE9E7
:101ED00093E00E94FB3688E10FB6F894809360008F
:101EE000109260000FBE0E94F516B6CFEF920F93CE
:101EF0001F93CF93DF93182F662359F10E94A416E6
:101F0000EC0182E299E00E947E2D22ED33E042E175
:101F100061E082E299E00E94DE280CE4E02E05E513
:101F20009E0142E167E382E299E00E94822A6CED21
:101F300073E08DED98E00E948E1841E258E06AE56A
:101F400072E08DED98E00E94C41882E299E00E9450
:101F5000B22D81E0113009F080E0DF91CF911F9127
:101F60000F91EF9008950E94C016833048F4E82F37
:101F7000F0E0EE0FFF1FEF5CFE4F2081318102C0C9
:101F800023EE33E0C9010895FF920F931F93CF937F
:101F9000DF93F82E0E944617EC010E94C016482FCE
:101FA000C45FD14084E28C9F90018D9F300D11243D
:101FB000C90161E970E00E945F51162F643228F078
:101FC000413009F472C0643211F4423009F414E271
:101FD00082E299E00E947E2D0E94B30FEC01BC01C9
:101FE00082E299E00E94A827082F0E94C016882349
:101FF00049F0069569E2601B9E014FE182E299E09B
:102000000E9431280FE02CE34FE064E182E299E086
:102010000E94B3290BE124E140E164E182E299E00E
:102020000E94B3292CE34BE165E182E299E00E9432
:10203000B32903E12CE340E16CE382E299E00E94E2
:10204000B3290AE12CE347E16CE382E299E00E94C4
:10205000B32907E12DE343E16DE382E299E00E94B9
:10206000B329C0E06C2F6A5E09E1262F41E182E2CC
:1020700099E00E94B329CF5F1C17A0F769EE73E0C7
:102080008DED98E00E948E1841E258E06AE572E01A
:102090008DED98E00E94C41882E299E00E94B22D72
:1020A00081E0F81621F080E002C013E291CFDF91C9
:1020B000CF911F910F91FF900895EF92FF920F9390
:1020C0001F93CF93DF9300D000D000D0CDB7DEB701
:1020D0009C01FB01009719F480E380831182C90100
:1020E00060E177E20E945F517B0180EF98ED689F8D
:1020F0008001699F100D789F100D1124020F131F8E
:10210000C80168EE73E00E945F51AB0188E19CEF6B
:10211000689F9001699F300D789F300D1124200F2A
:10212000311FC90164E670E00E945F51162F84E6FA
:10213000689F201931091124C9016AE070E00E94EA
:102140005F511E828E2D805D8983405D4A83105DC4
:102150001B83862F805D8C83AAE06A9F201931093A
:102160001124205D2D83DE01119620E08D918033B6
:10217000A9F417C081E090E08C0F9D1F830F911D83
:10218000DC018C91DA018D93AD013F5F832F821BBF
:10219000353080F3E80FF11D108207C0AF01322FF8
:1021A000F5CF2F5F2530D1F3E1CF26960FB6F89407
:1021B000DEBF0FBECDBFDF91CF911F910F91FF907A
:1021C000EF9008950F931F93CF93DF9300D000D02B
:1021D00000D0CDB7DEB7182F662341F060E082E271
:1021E00099E00E941F2E80E00E94901680918E0B35
:1021F000811189C082E299E00E947E2D68EF73E030
:102200008DED98E00E948E18123031F481E08093B9
:102210008E0B44E054E002C048E054E06AE572E00E
:102220008DED98E00E94C41880E00E940018BE0165
:102230006F5F7F4F0E945D10BE016F5F7F4F82E234
:1022400099E00E94A82700E5602F681B9E012F5F80
:102250003F4F4EE082E299E00E9431282EE034E0C8
:102260004EE063E082E299E00E94312881E00E9422
:102270000018BE016F5F7F4F0E945D10BE016F5F4F
:102280007F4F82E299E00E94A827602F681B9E0181
:102290002F5F3F4F44E182E299E00E94312827E11D
:1022A00034E044E163E082E299E00E94312882E078
:1022B0000E940018BE016F5F7F4F0E945D10BE013B
:1022C0006F5F7F4F82E299E00E94A827602F681B12
:1022D0009E012F5F3F4F4AE182E299E00E94312840
:1022E00020E234E04AE163E082E299E00E94312892
:1022F00082E299E00E94B22D8FE19EE40197F1F70E
:1023000000C0000005C0123019F410928E0B09C0F5
:10231000113039F46FEF82E299E00E941F2E81E0C4
:1023200001C080E026960FB6F894DEBF0FBECDBF89
:10233000DF91CF911F910F9108952F923F924F926D
:102340005F926F927F928F929F92AF92BF92CF9245
:10235000DF92EF92FF920F931F93CF93DF93CDB74E
:10236000DEB728970FB6F894DEBF0FBECDBF082F9B
:10237000662309F4BDC082E299E00E947E2D85E7C4
:1023800098E00E943535282E312C63E374E082E218
:1023900099E00E94A82760E5681B23E334E048E049
:1023A00082E299E00E94312829E334E048E063E0CA
:1023B00082E299E00E94312882E02816310418F068
:1023C00029E234E002C02EE234E0B90182E299E071
:1023D0002F8338870E94A82760E5681B2F813885E6
:1023E0004EE082E299E00E94312820E434E04EE0A1
:1023F00063E082E299E00E94312829E434E044E17C
:1024000063E082E299E00E9431289DE5C92E95E0C3
:10241000D92E93E3E92EFF24F39410E02AE0822ED4
:10242000912CA12CB12CC701B601A50194010E94E9
:1024300087512B013C01862F805D89831A82BE0162
:102440006F5F7F4F82E299E00E94A827180F1F5FFD
:1024500060E5611B9E012F5F3F4F44E182E299E0FE
:102460000E943128C701B6016419750986099709C8
:10247000A50194010E94875169017A012115310556
:102480004105510581F682E028163104F8F0BE01BD
:102490006F5F7F4FC1010E945D10BE016F5F7F4F74
:1024A00082E299E00E94A82760E5681B9E012F5FE9
:1024B0003F4F40E282E299E00E94312823E534E078
:1024C00040E263E082E299E00E94312862E674E033
:1024D0008DED98E00E948E1841E258E06AE572E0C6
:1024E0008DED98E00E94C41882E299E00E94B22D1E
:1024F00081E0013019F0033009F080E028960FB632
:10250000F894DEBF0FBECDBFDF91CF911F910F9129
:10251000FF90EF90DF90CF90BF90AF909F908F9003
:102520007F906F905F904F903F902F9008950F9302
:102530001F93CF93DF9300D000D000D0CDB7DEB78C
:10254000082F82E299E00E947E2DBE016F5F7F4FCF
:1025500080916C0B90916D0B0E945D10BE016F5FBE
:102560007F4F82E299E00E94A82710E5612F681B47
:102570009E012F5F3F4F48E082E299E00E943128A0
:102580002EE634E048E063E082E299E00E943128E0
:10259000BE016F5F7F4F80916E0B90916F0B0E9419
:1025A0005D10BE016F5F7F4F82E299E00E94A82715
:1025B000612F681B9E012F5F3F4F4EE082E299E042
:1025C0000E94312826E734E04EE063E082E299E0A1
:1025D0000E943128BE016F5F7F4F8091700B9091F8
:1025E000710B0E945D10BE016F5F7F4F82E299E028
:1025F0000E94A827612F681B9E012F5F3F4F44E177
:1026000082E299E00E94312822E834E044E163E06C
:1026100082E299E00E94312860E67BE082E299E064
:102620000E94A827612F681B20E63BE04AE182E276
:1026300099E00E9431282EE834E04AE163E082E22A
:1026400099E00E9431280E945317BE016F5F7F4FAF
:1026500090E00E945D10BE016F5F7F4F82E299E0C3
:102660000E94A827612F681B9E012F5F3F4F40E209
:1026700082E299E00E94312826E934E040E263E0FA
:1026800082E299E00E94312865EA74E08DED98E0DD
:102690000E948E184DEA54E061E278E08DED98E0FA
:1026A0000E94C41882E299E00E94B22D8FE19EE45C
:1026B0000197F1F700C000008091720B882371F040
:1026C000023071F48DED98E00E94571D6BEF79E0B8
:1026D0008DED98E00E94611983E003C081E001C0A4
:1026E00080E026960FB6F894DEBF0FBECDBFDF9117
:1026F000CF911F910F910895EF92FF920F931F9327
:10270000CF93DF9300D000D000D0CDB7DEB7E82E56
:1027100082E299E00E947E2D0E94B30F8C01BC01E1
:1027200082E299E00E94A82730E5F32E6F2D681B06
:10273000980148E082E299E00E94312822EB34E0DF
:1027400048E063E082E299E00E9431280E9453173A
:10275000BE016F5F7F4F90E00E945D10BE016F5F12
:102760007F4F82E299E00E94A8276F2D681B9E018F
:102770002F5F3F4F4EE082E299E00E94312827EB25
:1027800034E04EE063E082E299E00E9431280E944A
:10279000A416BE016F5F7F4F0E945D10BE016F5F88
:1027A0007F4F82E299E00E94A8276F2D681B9E014F
:1027B0002F5F3F4F44E182E299E00E94312822EDF1
:1027C00033E044E163E082E299E00E943128BE01F7
:1027D0006F5F7F4F8091CD089091CE080E945D1071
:1027E000BE016F5F7F4F82E299E00E94A8276F2DA4
:1027F000681B9E012F5F3F4F4AE182E299E00E94F1
:10280000312820EC34E04AE163E082E299E00E9462
:102810003128BE016F5F7F4F8091D1089091D2081F
:102820000E945D10BE016F5F7F4F82E299E00E94BF
:10283000A8276F2D681B9E012F5F3F4F40E282E269
:1028400099E00E94312829EC34E040E263E082E222
:1028500099E00E94312863ED74E08DED98E00E94CC
:102860008E1841E258E06AE572E08DED98E00E9432
:10287000C41882E299E00E94B22D8FE19EE4019794
:10288000F1F700C0000091E081E0E91619F093E053
:10289000E91280E026960FB6F894DEBF0FBECDBFDA
:1028A000DF91CF911F910F91FF90EF9008956623D4
:1028B00019F0823019F480E00C940E0C81E0089538
:1028C0001F920F920FB60F9211240BB60F921BBEE0
:1028D0002F933F934F935F936F937F938F939F9328
:1028E000AF93BF93EF93FF9389EC98E00E94A315F9
:1028F00087EB98E00E94C714FF91EF91BF91AF91D1
:102900009F918F917F916F915F914F913F912F9107
:102910000F900BBE0F900FBE0F901F901895CF9386
:10292000DF93DC0120E030E041E050E01D92FC014B
:10293000E20FF31F16821486F901ED5DF24FE49168
:10294000223078F47DB1EA0102C0CC0FDD1FEA9598
:10295000E2F76C2F609567236DB96EB16C2B6EB981
:102960000EC07AB1EA0102C0CC0FDD1FEA95E2F792
:102970006C2F609567236AB96BB16C2B6BB92F5FB5
:102980003F4F2630310591F6DF91CF910895DF92C8
:10299000EF92FF920F931F93CF93DF937C018C01F3
:1029A000C0E0D0E0DD24D394FE01ED5DF24FE49170
:1029B000C23010F48CB101C089B190E002C095958D
:1029C0008795EA95E2F780958170D801A9F08C91FE
:1029D0008F30F0F48F5FF80180838B30C8F0F701FF
:1029E000EC0FFD1F8681811113C0D486D68289EC3D
:1029F00098E00E94E8150CC08C91882349F0F701FB
:102A0000EC0FFD1F148681508C93833008F41682DE
:102A100021960F5F1F4FC630D10531F6DF91CF9160
:102A20001F910F91FF90EF90DF900895FC0186E0D9
:102A30001192158213868150D9F70895CF93DF93B1
:102A4000EC0189EC98E00E947516882319F0CE01FC
:102A50000E94161520E030E0822FFE01E20FF31FE6
:102A60009485992311F08F5F06C02F5F3F4F26306A
:102A7000310591F780E0DF91CF910895CF93DF93F7
:102A8000EC0189EC98E00E947516882319F0CE01BC
:102A90000E94161520E030E0822FFE01E20FF31FA6
:102AA0009485992319F014868F5F06C02F5F3F4FDE
:102AB0002630310589F780E0DF91CF9108950F939B
:102AC0001F93CF93DF931F92CDB7DEB78C0101C068
:102AD000A895C80169830E943E1569818613F8CFC5
:102AE000862F0F90DF91CF911F910F910895089538
:102AF000FC0192E09093B000A1EBB0E01C928C91AD
:102B000084608C938AE78093B3001092B600909310
:102B10007000128A81E082871082118212821382F1
:102B20001482158216821782118610867894089571
:102B30001092B0001092B1001092B3001092B60043
:102B4000109270000895FC0180859185019691870F
:102B5000808740815181628173814F5F5F4F6F4FEA
:102B60007F4F4083518362837383883E9340E8F0B4
:102B70001186108644815581668177814F5F5F4F52
:102B80006F4F7F4F44835583668377838685978510
:102B90000196978786878485958501969587848792
:102BA000808991890196918B808B0895FC01108218
:102BB0001182128213821482158216821782118664
:102BC00010860895FC0110821182128213820895EA
:102BD000CF93DF93EC011F861E861D861C866B89B2
:102BE000662329F082E299E00E941F2E1B8ADF9162
:102BF000CF910895CF93DF93EC018A85811103C0B3
:102C00001F861E8606C08B85811103C0CE010E94DF
:102C1000E8158A858B87882399F08091D60B2AE066
:102C2000829FC00111242E853F852817390740F067
:102C30000E94F516CE010E94E81581E08A8B18C02B
:102C40008B89811115C08091D50B2AE0829FC0012C
:102C500011242C853D852817390750F082E299E030
:102C60000E94722E8B8B60E082E299E00E941F2E00
:102C70000E949916882381F08091D70B2AE0829FC9
:102C8000C0011124288939892817390738F080E0D4
:102C9000DF91CF910C949016198A188ADF91CF9109
:102CA0000895FC01608171818281938108950F9361
:102CB0001F93FC012481358146815781A8EEB3E042
:102CC0000E9444518B019C0180859185080F191F3A
:102CD000211D311DB801C9011F910F910895FC01FB
:102CE00064817581868197810895FC018289128AA9
:102CF000089582E299E00E942D2E82E299E00C94E0
:102D0000B22D3B9A43980B9A1398269A2E9A279A9B
:102D10002F9A6B98739A6F9A849A8C9877980895E3
:102D2000269A882319F02E9881E008952E9A80E043
:102D30000895269B07C085B186FB882780F991E01E
:102D40008927089580E00895CF93DF9300D0CDB711
:102D5000DEB780914C0C90914D0C9E012F5F3F4F40
:102D6000009719F426553C4002C0281B390B3A83C2
:102D7000298389819A810F900F90DF91CF910895D7
:102D80000F98179A8FE19EE40197F1F700C00000B9
:102D900080B11798EFE1FEE43197F1F700C0000031
:102DA000079905C08095881F8827881F089582E0AD
:102DB0000895CF938DED98E00E94571DC1E087EBF9
:102DC00098E00E943E15813029F48DED98E0CF9176
:102DD0000C945D1E0E94C0168823B9F3A8956C2F31
:102DE00080E00E94C40FC0E0EACF0E94C0168111AB
:102DF00008C08091E00081608093E000F894439ADD
:102E0000FFCF0C94D91695EA90937A008F3010F08A
:102E1000885013C040B321E030E0082E01C0220FDB
:102E20000A94EAF7922F9095942390BB90917E009C
:102E3000922B90937E00883058F7806480937C00BA
:102E400080917A00806480937A0044E660E070E0CC
:102E5000CB0120917A0024FFFCCF20917A002061E1
:102E600020937A002091780030917900620F731FCF
:102E7000811D911D415069F710927A0024E630E0DF
:102E800040E050E00E948751C9010895819A8998D5
:102E90008FE19EE40197F1F700C0000082E00E94FC
:102EA0000317819808951F93CF93DF9300D000D02C
:102EB00000D0CDB7DEB70E9446179E838D830E9457
:102EC000C016182F42E050E0811145C063E070E069
:102ED000CE0101960E9471542D813E8189819A8193
:102EE0002817390740F442E050E063E070E0CE017B
:102EF00005960E94895442E050E061E070E0CE0106
:102F000003960E9471548B819C81019611F41C825E
:102F10001B822D813E818B819C818217930740F417
:102F200042E050E061E070E0CE0105960E948954D5
:102F300049815A812D813E81241B350B64E6629FB5
:102F4000C001639F900D11246B817C81641B750B04
:102F50000E945F514AC067E070E0CE0101960E9476
:102F600071544D815E8129813A814217530740F4A3
:102F700042E050E063E070E0CE0105960E94895483
:102F800042E050E065E070E0CE0103960E9471548B
:102F90004D815E812B813C812417350740F442E04E
:102FA00050E061E070E0CE0105960E9489544981AD
:102FB0005A812D813E81241B350B64E6629FC0013E
:102FC000639F900D11246B817C81641B750B0E94A3
:102FD0005F51113031F46436710538F063E670E00A
:102FE00004C0123011F464E670E0862F26960FB606
:102FF000F894DEBF0FBECDBFDF91CF911F91089532
:103000000F931F93CF93DF93D82F80E00E949016E9
:1030100082E299E00E94722EC82F60E082E299E07D
:103020000E941F2ECC2349F02FE788E391E0215026
:1030300080409040E1F700C0000091B1987F91B9C5
:1030400092B1987F92B991B18D2FD33008F082E080
:1030500021E030E001C0220F8A95EAF7892F822B08
:1030600081B982B1D22FD0958D2382B92FE788E321
:1030700091E0215080409040E1F700C0000080E0E6
:103080000E9403178C0131B13D2331B982E299E0EE
:103090000E94722E8C1728F46C2F82E299E00E9415
:1030A0001F2EC801DF91CF911F910F910895CF93EB
:1030B000DF93EC0180E00E9400189983888381E00F
:1030C0000E9400189B838A8382E00E9400189D83DF
:1030D0008C83DF91CF910895E0EEF0E080818160F4
:1030E00080830E949B3E82E299E00E94032E89EC3D
:1030F00098E00E949815F89488E10FB6F8948093B0
:103100006000109260000FBEE0E0F0EF0995FC0156
:10311000168A178A108E118E168E0895EF92FF92DE
:103120000F931F93CF93DF93EC017B0188819981EB
:103130000E94A827182F169505E023E540E060E0DF
:10314000888199810E945A2A03E023E541E060E0EA
:10315000888199810E94322A212F265D68E2611BB5
:1031600005E040E0888199810E945A2A69E2611B4A
:10317000970140E088819981DF91CF911F910F9154
:10318000FF90EF900C943128CF92DF92EF92FF9254
:103190000F93CF93DF93EC016B017A010FE223E5EC
:1031A00049E260E0888199810E945A2A96014AE2A8
:1031B00062E0888199810E943128B70188819981D4
:1031C0000E94A82763E5681B97014AE288819981DC
:1031D0000E94312823E549E260E0888199810E94BC
:1031E000322ADF91CF910F91FF90EF90DF90CF9037
:1031F00008959B0190E080E0F901729665917491C9
:10320000FB01309719F05081552319F0491731F01F
:103210009F5F8F5F2C5E3F4F843171F708959B0154
:1032200080E090E0F901729665917491FB0194172A
:1032300051F0309711F0508151118F5F9F5F2C5EDC
:103240003F4F943179F70895CF93DF93EB01FC0161
:103250002389222369F130E021503109F901EE0F71
:10326000FF1FE20FF31FE80FF91F848125813681CC
:10327000F4E18F9F200D311D1124DB0180E090E0EF
:10328000F901E80FF91FE491ED9301968C30910557
:10329000B9F78BE090E0FE01E80FF91F20812032A2
:1032A00011F011820AC0019781309105A1F705C084
:1032B00069E27DE0CE010E94AD51CE01DF91CF9158
:1032C0000895FC0177A366A3089521E0FC01268FF1
:1032D0000895DF92EF92FF920F931F93CF93DF93A6
:1032E000EC01162FF42EE22ED02E6E894F89288DF8
:1032F000098D842F862B822B802B21F08881998148
:103300000E94322A1E8BFF8AE88ED98E0D2D2E2D1B
:103310004F2D612F888199810E94322ADF91CF91B0
:103320001F910F91FF90EF90DF9008950F93CF932F
:10333000DF93EC016E894F89288D098D842F862BB0
:10334000822B802B21F0888199810E94322A1E8A4B
:103350001F8A188E198EDF91CF910F9108950F93C8
:103360001F93CF93DF93EC01162F8A8D681730F0EF
:10337000CE010E9496198FEF8C8B0FC049E0649F9D
:10338000402D11248D89481B042F015F495F21E5E1
:1033900061E0CE010E9469191C8BDF91CF911F91D2
:1033A0000F910895EF92FF920F931F93CF93DF93A6
:1033B0001F92CDB7DEB77C01162F372F442309F4B7
:1033C00052C0A62FB72FFD0101900020E9F73197D9
:1033D000EA1BFB0B26E02E9FC0012F9F900D1124AE
:1033E00096958795AC0160E070E04093AF0B5093E9
:1033F000B00B6093B10B7093B20B282F255D67E281
:10340000681B08E14CE0F7018081918139830E94BB
:103410005A2A9091AF0B292F265D68E2691B07E1BC
:103420004DE0F701808191810E94032A69E2909129
:10343000AF0B691B212F39814FE0F701808191810A
:103440000E94DE28F701808191810E94B22D89ECD3
:1034500098E00E9457166093AF0B7093B00B809367
:10346000B10B9093B20B89EC98E00E945716009133
:10347000AF0B1091B00B2091B10B3091B20B601BD0
:10348000710B820B930B643F71408105910530F401
:10349000F701828193810E943E15811181E00F9096
:1034A000DF91CF911F910F91FF90EF9008957F9240
:1034B0008F929F92AF92BF92CF92DF92EF92FF9244
:1034C0000F931F93CF93DF93EC01F62E5A0149011E
:1034D000702E1092A30BCC2009F430C1FA01C080E9
:1034E000D180888199810E947E2D05E023E542E00C
:1034F00060E0888199810E94322A0EE121E046E055
:1035000060E0888199810E94322A23E546E062E5E5
:10351000888199810E94322AA72DB12FFD01019047
:103520000020E9F73197EA1BFB0BE093A40B6AEF4D
:103530006E9F602D1124605B272D312F40E2888122
:1035400099810E94DE28F40101900020E9F731976B
:10355000E819F909E093A40B26E0E29FF001112499
:10356000F595E7958AE28E1B8093A50B07E223E58C
:103570004FE160E0888199810E94322A49EF54E04E
:1035800064E272E0CE010E94C4186091A50B909194
:10359000A40B292F220F290F220F260F05E042E04E
:1035A000888199810E94322A940140E06091A50BA4
:1035B000888199810E94DE2880E0E82FF0E0E955BB
:1035C000F44F10828F5F8530C0F346E4E41621F09B
:1035D00054E5E5128AC043C0E8E5F2E0C601BF0148
:1035E0000E945F518C01C81AD90A2AE030E0B90163
:1035F0000E9473518093A70BA801481B590BCA0165
:10360000B9010E9473518B01CB01B9010E94735122
:103610008093A80BA801481B590BCA01B9010E944D
:1036200073516093A90BC601BF010E945F51CB018A
:10363000BF010E945F51FC01B9010E947351809348
:10364000AA0BAF01481B590BCA01B9010E94735163
:103650006093AC0B7093AD0B6093AB0B6AC0ECE363
:10366000F0E0C601BF010E945F518C01C601801BC2
:10367000910BBF010E945F516B012AE030E0C8014D
:10368000B9010E9473518093A70BA801481B590BE5
:10369000CA01B9010E9473516093A80BC601BF0112
:1036A0000E945F518C01C81AD90AB9010E94735156
:1036B0008093A90BA801481B590BCA01B9010E94AC
:1036C00073516093AA0BC601BF010E945F51CB01E9
:1036D000BF010E945F519093AD0B8093AC0BB90179
:1036E0000E9473518093AB0B24C09090AC0B40911F
:1036F000AD0BE0E00AE010E013C0C601B8010E9483
:103700005F519C01982E432FC601821B930BB80179
:103710000E945F516B01F0E0E955F44F2083E82DE2
:103720008E2E8394C114D10441F79092AC0B409338
:10373000AD0B85E08093A40B1092A60B8F2D8150CA
:10374000823008F4FDC00EE121E548E063E08881A5
:1037500099810E945A2A1092A50B10EF12C0E62FF1
:10376000F0E0E955F44F2081205D619F602D112428
:103770006C5B45E00E9403298091A50B8F5F8093CD
:10378000A50B6091A50B2091A40B888199816217EC
:1037900030F356E4E51621F0E4E5EE1232C013C032
:1037A0000EE022E24CE061E20E94032A06E122E2FE
:1037B00044E161E2888199810E94032A0AE122E4BE
:1037C00048E161E41AC00EE022E34CE061E30E94AC
:1037D000032A06E122E344E161E3888199810E94A2
:1037E000032A0EE022E14CE061E1888199810E9488
:1037F000032A06E122E144E161E1888199810E9486
:10380000032A8091A60B25E030E0281B3109229580
:10381000207F60EF869F602D11246D5B0CE148E0F6
:10382000888199810E94322A8091A60BF6E4EF16D6
:1038300021F024E5E21207C003C0823031F003C05A
:1038400080FF08C002C0843011F485E001C089E027
:103850008093AE0B888199810E94B22DFF2009F4DC
:10386000FCC044E0F41671F04F1520F053E0F5125F
:10387000F4C025C085E0F81609F453C096E0F912AB
:10388000ECC042C08091A60B25E030E0281B310936
:103890002295207F60EF869F602D11246D5B0CE1E7
:1038A00048E0888199810E94322A8091A60B81117B
:1038B00002C08091A40B81508093A60BCEC0809152
:1038C000A60B25E030E0281B31092295207F60EF10
:1038D000869F602D11246D5B0CE148E08881998101
:1038E0000E94322A4091A60B242F30E08091A40B35
:1038F00090E001972817390724F44F5F4093A60BF7
:10390000ACC01092A60BA9C0E091A60BF0E0E9555F
:10391000F44F8081882311F081500EC08091AE0B4E
:103920000BC0E091A60BF0E0E955F44F8081909137
:10393000AE0B891718F48F5F80838FC010828DC003
:103940006091AB0B5091A80BE6E4EE1631F080913C
:10395000AA0BF4E5EF1246C023C08091A90B2AE020
:10396000529F8001112444E6849F000D111D1124F3
:103970008091A70B080F111D8091AA0B90E05AE0CF
:10398000659F800D911D112448E552E0849F9001B0
:10399000859F300D949F300D1124020F131F42C0DC
:1039A0000091A70B10E09AE0599F000D111D112402
:1039B00040E15EE0649F9001659F300D1124020F8D
:1039C000131F2091A90B30E0EAE08E9F200D311DDE
:1039D00011244CE3429FC001439F900D1124080F16
:1039E000191F20C04AE090E0FAE06F9F800D911D02
:1039F0001124489F9001499F300D11248091A90BFB
:103A0000280F311D429FC001439F900D1124850F47
:103A1000911D489F8001499F100D11248091A70B93
:103A2000080F111D22E0F21215C041E069E172E0B9
:103A3000CE010E94D2194FEF54E38CE04150504028
:103A40008040E1F700C00000F50111830083F0928F
:103A5000A30B03C081E08093A30B8091A30BDF91A4
:103A6000CF911F910F91FF90EF90DF90CF90BF907B
:103A7000AF909F908F907F900895CF93DF93FC013C
:103A80002389253088F42F5F238B30E021503109C2
:103A9000E901CC0FDD1FC20FD31FC80FD91F7E83D2
:103AA0006D830E94F9188C83DF91CF910895FC01FA
:103AB000638D748D44890C943D1DEF92FF920F939A
:103AC0001F93CF93DF93EC014C898A8D481708F040
:103AD000AFC00B8D1C8DB801CE010E94F91894E186
:103AE000899F70011124B8016E0D7F1DFB013D9669
:103AF00024912F8F2D3469F030F4253429F12634A8
:103B000009F096C018C02035F9F0233509F090C0AF
:103B100063C0CE010E94571DEB8DFC8DEE0DFF1D85
:103B20003E96859194918B8F9C8F60E0CE010E9490
:103B3000AF1981E07CC0625F7F4FFB01859194915A
:103B40008EA39FA384E073C080E090E0382FFB0138
:103B5000E80FF91FE491DE01A80FB91F9C96EC93C2
:103B6000E03229F001968A30910581F73AE0DE01D2
:103B7000A30FB11D9C961C92FB01709685919491A8
:103B8000009791F0FC0130E0CE018E1B9F0B449119
:103B9000DC01AE0FBF1FD7964C93442331F03F5F3B
:103BA00031963D30A1F701C030E0DE01A30FB11D19
:103BB000D7961C92203511F483E001C082E08D8FEE
:103BC000FB013B96E491EF8F625F7F4FFB01859194
:103BD000949188A399A32CC080E090E0282FFB014A
:103BE000E80FF91FE491DE01A80FB91F9C96EC9332
:103BF000E03229F001968B30910581F72BE0FE0130
:103C0000E20FF11D14A6FB0172968591949188A78D
:103C100099A7FB017096859194918AA39BA3625FFB
:103C20007F4FFB01859194918CA39DA385E08D8F9F
:103C3000DF91CF911F910F91FF90EF900895FC01BC
:103C40008389882389F08150838B90E0DC01AA0F5F
:103C5000BB1FA80FB91FAE0FBF1FFD0134961496EE
:103C60006C91718182810895648175818681089546
:103C7000FC01558944894330A8F0242F30E0828D1F
:103C800090E001972817390731F489E0489F402DCB
:103C90001124475105C089E0489F402D112442510D
:103CA000458B01C0158A8589811105C081E05111BC
:103CB00003C080E0089581E008950F931F93CF9390
:103CC000DF93EC018B89882381F0CE010E941F1EB7
:103CD000462F072F182FB801CE010E940F198C8B89
:103CE0000B8F1C8FCE010E94381E81E08D8FDF91DB
:103CF000CF911F910F9108955F926F927F928F9253
:103D00009F92AF92BF92CF92DF92EF92FF920F936A
:103D10001F93CF93DF93CDB7DEB7A4970FB6F89478
:103D2000DEBF0FBECDBF6C01DC015C967C936E9351
:103D30005B970E949619F601808191810E947E2DE9
:103D4000C6010E94381ED6015D961C925D975A9658
:103D50001C92A12CB12C512C712C6CE0862E912C34
:103D600079E0672EF601438D548D9A012A0D3B1D93
:103D7000F901729665917491DB01109721F08C9195
:103D8000882309F4BFC0F9013D96A491F601A78FDD
:103D90004A0D5B1DFA013B961491A53411F0A03534
:103DA00029F5225F3F4FF90185919491BC01A0351F
:103DB00049F442E050E0CE0182960E947154BE0167
:103DC0006E5D7F4FDB012D913C91F601428D469D4A
:103DD000402D11248589481B485F52E5E52E012FAF
:103DE00060E5808191810E94822A582ED6015F96DB
:103DF0008C915F97833509F053C01A3209F050C097
:103E00005B962D913C915C972A0D3B1DF9013E96E6
:103E100005911491205F3F4FF90125913491D9010B
:103E2000F60131A320A39801205C3E4FF801849154
:103E3000803341F4D6015A968C915A978F5F5A96E7
:103E40008C9360C0F8013D96E491F0E08D919C91D7
:103E50001197E817F907E9F432E0E12CF12CF801A9
:103E6000EE0DFF1D2491F601428D469D402D11243B
:103E70008589481B485F632F808191813CA30E9404
:103E80004D28FFEFEF1AFF0A3CA13A5F3A3439F7A9
:103E9000D1CF005F1F4F0217130709F0C7CFCACF5A
:103EA00032E000E010E07401E518F108D6015F96F9
:103EB0008C91853411F0803519F40E151F05E4F44A
:103EC000D6015B96ED91FC915C97EA0DFB1DE00F2E
:103ED000F11F24915A964C915A97469D402D1124DA
:103EE00055968C915597481B485F632F8D919C91F7
:103EF0003CA30E944D283CA10F5F1F4F3A5F3A340C
:103F0000A9F698CFB4E1AB0EB11CD6015B96ED914A
:103F1000FC915C97EA0DFB1DE491EE2349F073944C
:103F2000B0E9AB16B1E0BB0609F01CCF34E1732E4B
:103F30007394F6016489C6010E94AF19F4E17F9E73
:103F400080011124D6015B966D917C915C97600F86
:103F5000711F6F5F7F4FFB018491803229F0CE018A
:103F600001960E94AD5106C0BE016F5F7F4FC60132
:103F70000E942419BE016F5F7F4FC6010E948E18F8
:103F8000D6015B968D919C915C97800F911FFC01EF
:103F90003D9624919B961C921E929A97223419F07A
:103FA000263409F034C04096FC0185919491BC01FF
:103FB000CE0148962CA30E94AD51D6015B96ED919F
:103FC000FC915C97E00FF11F729685919491BC0172
:103FD000CE010E960E94AD51AE01425F5F4FBE0111
:103FE000685E7F4FC6010E94C4182CA1263479F464
:103FF000D6015B96ED91FC915C97E00FF11F3E9628
:10400000859194919A968C939A979B969C93A4965B
:104010000FB6F894DEBF0FBECDBFDF91CF911F91D9
:104020000F91FF90EF90DF90CF90BF90AF909F9057
:104030008F907F906F905F900895CF93DF93EC0106
:104040006C89662319F061500E94AF19CE010E945D
:10405000381E882329F06B8D7C8DCE010E947C1E3A
:1040600088819981DF91CF910C94B22DCF93DF930A
:10407000EC016C89262F30E08A8D90E0019728179B
:10408000390724F46F5FCE010E94AF19CE010E9460
:10409000381E882329F06B8D7C8DCE010E947C1EFA
:1040A00088819981DF91CF910C94B22D6F927F928C
:1040B0009F92AF92BF92CF92DF92EF92FF920F93B7
:1040C0001F93CF93DF931F92CDB7DEB73C01F62E3F
:1040D0005A016901E11008C025E0F21609F49BC0FD
:1040E00086E0F81227C19FC0DC018D919C910E944F
:1040F0007E2DB801C3010E948E1849EF54E064E29E
:1041000072E0C3010E94C41808E127E44CE062E0B9
:10411000F301808191810E94032A09E128E44BE0A8
:1041200061E0D3018D919C910E94032A01E122E577
:1041300041E16AE4F301808191810E94B32900E1A9
:1041400022E540E16AE4D3018D919C910E94B3295C
:104150000FE021E54FE06BE4F301808191810E9443
:10416000B3290EE020E54EE06CE4D3018D919C91E3
:104170000E94B3290DE02FE44DE06DE4F30180814E
:1041800091810E94B32903E122E543E16AE4D3016E
:104190008D919C910E94B32904E122E544E16AE4F7
:1041A000F301808191810E94B32905E121E545E178
:1041B0006BE4D3018D919C910E94B32906E120E527
:1041C00046E16CE4F301808191810E94B32907E10B
:1041D0002FE447E16DE4D3018D919C910E94B329B6
:1041E0001092B30B90E080E008C03D96E491D501B9
:1041F0002C912E1301C0982F8F5FF601B0E18B9F99
:10420000E00DF11D112424912111EFCF9093B30BF8
:104210008093B40B61CF8091B30B882391F08150D0
:104220008093B30B0EC04091B30B242F30E08091EC
:10423000B40B90E00197281739071CF44F5F4093A7
:10424000B30B07E125E44DE063E0F3018081918148
:104250000E945A2A34E000E010E08091B30BF6018E
:1042600020E1829FE00DF11D1124E00FF11F249148
:104270004FE0632FD3018D919C9139830E944D288B
:104280000F5F1F4F39813A5F363439F703E223E578
:104290004EE160E0F301808191810E945A2A809171
:1042A000B30BF60120E1829FE00DF11D11243E9633
:1042B000859194918C01912CE12C07C0692D6E0D94
:1042C0004EE10E94C827980EE394F801EE0DF11D0F
:1042D0002491D3018D919C912111F0CF0E94B22D98
:1042E000B2E0FB1641F0E3E0FE1619F0F1E0FF1238
:1042F0001FC081E022C08091B30B20E1829FC00CDF
:10430000D11C1124F6013D96E491D501EC9341E0D6
:1043100069E172E0C3010E94D219BFEFE4E3FCE05F
:10432000B150E040F040E1F700C0000082E005C07D
:1043300080E003C0E11085CFD3CF0F90DF91CF9104
:104340001F910F91FF90EF90DF90CF90BF90AF90B3
:104350009F907F906F900895AF92BF92CF92EF920F
:10436000FF920F931F93CF93DF9300D0CDB7DEB7AB
:104370005C01DC0112968D919C9113970E943E1571
:10438000F82EF501858D81110DC08F2D8150823061
:1043900048F422A533A52115310521F037A326A322
:1043A00084E0858FD5015E969C91992319F081E078
:1043B00080931E01F501858D833009F477C020F4C8
:1043C000813079F1D8F509C0853009F450C008F47E
:1043D000B1C0863009F0C2C031C0992311F081E02C
:1043E000858FB4E0FB16A9F0BF1520F0E3E0FE12C4
:1043F000B5C013C0F5E0FF1621F086E0F812AEC09C
:1044000004C0C5010E941D20A9C0C5010E9436201C
:10441000A5C0C5010E945D1DA1C0C5010E945D1E11
:104420009DC080931E01638D748DC5010E947C1E0A
:10443000F501808191810E94B22D90C08501095CB7
:104440001F4F9501245D3F4FD50190964D915C9192
:104450009197C0901E015F96EC906F2DC5010E9450
:10446000571A10921E01882309F478C074C0850180
:10447000045D1F4F24A135A142A153A1E0901E016C
:104480006F2DC5010E94562010921E01882309F449
:1044900065C0823009F05FC0D5019896ED91FC911E
:1044A0009997309709F457C0099555C080911E011E
:1044B000882341F060A171A142E050E081EA9BE0D5
:1044C0000E9471548501095C1F4F9501245D3F4F87
:1044D000C0901E01F501E78C41EA5BE06F2DC5013C
:1044E0000E94571A10921E018823C1F18230E9F40C
:1044F000D50190966D917C91919742E050E0CE016C
:1045000001960E94715429813A818091A10B90916A
:10451000A20B2817390749F0F50160A171A142E00B
:1045200050E081EA9BE00E94895481E0D5015D96CC
:104530008C9314C006A0F7A1E02D60911E018F2D71
:10454000099510921E01882349F0833021F481E0FF
:1045500080931E0103C081E0F501858FD5015D9632
:104560008C918111F12CF501168E8F2D0F900F90EB
:10457000DF91CF911F910F91FF90EF90CF90BF905F
:10458000AF9008958F929F92BF92CF92DF92EF9259
:10459000FF920F931F93CF93DF931F92CDB7DEB798
:1045A0004C01162F7A016901B02E002311F1FC0194
:1045B000808191810E947E2DB601C4010E948E18D7
:1045C00049EF54E064E272E0C4010E94C41808E1BB
:1045D00021E54CE061E0F401808191810E94032A91
:1045E00009E122E54BE060E0F401808191810E94C5
:1045F000032A143099F018F41330E1F505C0153092
:1046000039F11630B9F513C08091B50B882311F03C
:10461000815001C08AE08093B50B2EC08091B50B0C
:104620008A3010F48F5FF7CF1092B50B25C08091C0
:10463000B50BF701E80FF11D80818B3510F080E498
:1046400080838081813410F0815012C08AE510C0CF
:104650008091B50BF701E80FF11D8081813410F4D2
:104660008BE5808380818B3510F48F5F01C081E4FE
:10467000808302C0BB20B1F107E12FE44DE062E08E
:10468000F401808191810E945A2ABE2C670133E097
:10469000FC2CFB18F60121916F01822F81548A3185
:1046A00008F020E24FE0632FF4018081918139838B
:1046B0000E944D288091B50B3981F8120BC0232F31
:1046C0002A5F06E14EE0632FF401808191810E9410
:1046D000322A3981395F3035D9F6F40180819181F0
:1046E0000E94B22D1150123030F4E12FF0E0E95C5D
:1046F000FE4F808101C080E00F90DF91CF911F912C
:104700000F91FF90EF90DF90CF90BF909F908F9090
:104710000895279A2F9A0895CB01F89469E170E0E3
:104720000E945F5180E090E02F9820E22A95F1F7F7
:104730002F9A20E22A95F1F7019668177907A0F7DA
:1047400078940895CB016AE170E00E945F5180E0A7
:1047500090E0F8942F9822E22A95F1F700C02F9A62
:1047600022E22A95F1F700C078940196681779073C
:1047700080F708958F929F92AF92BF92CF92DF926F
:10478000EF92FF920F931F93CF93DF93CDB7DEB7D6
:10479000A1970FB6F894DEBF0FBECDBF8C01FC0110
:1047A0008081882331F0F8018081813009F04EC08A
:1047B00027C080E190E0F8942F98F8E2FA95F1F79D
:1047C00000C02F9A28E22A95F1F700C0789401974B
:1047D00091F783E499E30197F1F700C0000080E1CD
:1047E00090E0F8942F98E8E2EA95F1F700C02F9A4C
:1047F000F8E2FA95F1F700C07894019791F7D3CFDA
:1048000060ED77E0C8010E948C238BE699ED01975B
:10481000F1F700C0000066E871E0C8010E948C2337
:10482000E7E5FCE03197F1F700C000006AE971E0CC
:10483000C8010E948C2387EF9BE10197F1F700C02C
:10484000000060E971E0C8010E948C23F8018081BA
:10485000853031F0F8018081843009F059C01EC0E4
:1048600068EC72E3C8010E94A2238FE697E10197EA
:10487000F1F700C0000057E0E52EF12C68EE73E080
:10488000C8010E94A223EFECF7E03197F1F700C0D6
:104890000000F1E0EF1AF10889F7DCCF80E2E9E3EC
:1048A000F1E0DE01119601900D928A95E1F76CE03E
:1048B00073E2C8010E948C238FE392E20197F1F723
:1048C00000C0000060E772E0C8010E948C23EE2463
:1048D000E394F12CEC0EFD1E6E0191E2C90ED11C89
:1048E000F70181917F01811105C08FEC93E0019761
:1048F000F1F704C0EFE7FCE03197F1F700C00000EA
:1049000068E572E0C8010E948C23EC14FD0441F7B5
:10491000F80180818330C1F581E2E9E5F1E0DE0153
:10492000119601900D928A95E1F766EA7EE0C80142
:104930000E94A22383EC9EE00197F1F700C00000E3
:10494000EE24E394F12CEC0EFD1E6E0192E2C90EF2
:10495000D11CF70181917F0168EC71E0811108C0E1
:10496000C8010E94A2238DEC93E00197F1F707C0E4
:10497000C8010E94A223EBE2FBE03197F1F700C0EF
:104980000000EC14FD0429F7F8018081823009F061
:1049900047C024E1EAE7F1E0CE010196DC01019095
:1049A0000D922A95E1F723E0C22ED12C982E892E64
:1049B0005E01F5E1AF0EB11C60E179E0C8010E9433
:1049C0008C2383E195E00197F1F700C00000E92C0A
:1049D000F82CF70181917F0181110AC06FE372E029
:1049E000C8010E948C2383E195E00197F1F709C08B
:1049F00067E974E0C8010E948C23E3E1F5E0319798
:104A0000F1F700C00000EA14FB0419F78FE19EE4FF
:104A10000197F1F700C0000091E0C91AD10861F6D2
:104A2000A1960FB6F894DEBF0FBECDBFDF91CF9138
:104A30001F910F91FF90EF90DF90CF90BF90AF90BC
:104A40009F908F9008959F92AF92BF92CF92DF92E6
:104A5000EF92FF920F931F93CF93DF93CDB7DEB703
:104A6000A1970FB6F894DEBF0FBECDBF8C01FC013D
:104A70008081811124C0F89480E190E02F98F8E2C1
:104A8000FA95F1F700C02F9A28E22A95F1F700C0B5
:104A90000197A1F78FED99E20197F1F700C00000AF
:104AA00080E190E02F98E8E2EA95F1F700C02F9AB4
:104AB000F8E2FA95F1F700C00197A1F77894F801B0
:104AC00080818330C1F581E2EEE8F1E0DE011196EC
:104AD00001900D928A95E1F766EA7EE0C8010E9496
:104AE000A22383EC9EE00197F1F700C00000EE24C2
:104AF000E394F12CEC0EFD1E6E0192E2C90ED11C66
:104B0000F70181917F0168EC71E0811108C0C80153
:104B10000E94A2238DEC93E00197F1F707C0C80132
:104B20000E94A223EBE2FBE03197F1F700C0000006
:104B3000EC14FD0429F7F80180818230E9F524E1C5
:104B4000EFEAF1E0CE010196DC0101900D922A9589
:104B5000E1F763E0B62EA82E992E6E01F5E1CF0E97
:104B6000D11C60E179E0C8010E948C2383E195E0CB
:104B70000197F1F700C00000EA2CF92CF7018191B0
:104B80007F01811103C06FE372E002C067E974E046
:104B9000C8010E948C2383E195E00197F1F700C0E2
:104BA0000000EC14FD0451F7EFE1FEE43197F1F75A
:104BB00000C00000BA94A9F6A1960FB6F894DEBF23
:104BC0000FBECDBFDF91CF911F910F91FF90EF905E
:104BD000DF90CF90BF90AF909F900895AF92BF921B
:104BE000CF92DF92EF92FF920F931F93CF93DF93B9
:104BF000CDB7DEB7A0970FB6F894DEBF0FBECDBF1E
:104C00008C015B01FC018081843009F079C080E275
:104C1000E3ECF1E0DE01119601900D928A95E1F747
:104C200068E273E2C8010E948C2387E293E2019755
:104C3000F1F700C0000064EF71E0C8010E948C230E
:104C4000EE24E394F12CEC0EFD1E6E0191E2C90EF0
:104C5000D11CF70181917F01811105C087EE93E09E
:104C60000197F1F704C0E7EBFBE03197F1F700C0E3
:104C7000000064EF71E0C8010E948C23EC14FD0475
:104C800041F7FFEF29EF80E0F15020408040E1F74D
:104C900000C0000095012536310510F024E630E013
:104CA00044E3429FC001439F900D112464E670E0ED
:104CB0000E945F517B019FEFE91AF90ADD24D3942A
:104CC0001AC068E273E2C8010E948C23EFE9FFE09A
:104CD0003197F1F700C0000064EF71E0C8010E9455
:104CE0008C23FFEF27E582E0F15020408040E1F780
:104CF00000C00000D3948D2D90E08E159F0508F321
:104D0000A0960FB6F894DEBF0FBECDBFDF91CF9156
:104D10001F910F91FF90EF90DF90CF90BF90AF90D9
:104D20000895AF92BF92CF92DF92EF92FF920F93CE
:104D30001F93CF93DF93CDB7DEB7A0970FB6F8944C
:104D4000DEBF0FBECDBF8C015B01FC0180818430D2
:104D500009F079C080E2E3EEF1E0DE011196019006
:104D60000D928A95E1F768E273E2C8010E948C23F4
:104D700087E293E20197F1F700C0000064EF71E071
:104D8000C8010E948C23EE24E394F12CEC0EFD1E4E
:104D90006E0191E2C90ED11CF70181917F01811151
:104DA00005C087EE93E00197F1F704C0E7EBFBE065
:104DB0003197F1F700C0000064EF71E0C8010E9474
:104DC0008C23EC14FD0441F7FFEF29EF80E0F15054
:104DD00020408040E1F700C00000950125363105F4
:104DE00010F024E630E046E4429FC001439F900D5E
:104DF000112464E670E00E945F517B019FEFE91A85
:104E0000F90ADD24D3941AC068E273E2C8010E9453
:104E10008C23EFE9FFE03197F1F700C0000064EF69
:104E200071E0C8010E948C23FFEF27E582E0F1507A
:104E300020408040E1F700C00000D3948D2D90E029
:104E40008E159F0508F3A0960FB6F894DEBF0FBE2F
:104E5000CDBFDF91CF911F910F91FF90EF90DF9029
:104E6000CF90BF90AF9008958D982D980895089594
:104E70006435D8F44033C8F4E42FF0E023E0F5952E
:104E8000E7952A95E1F726E0629FE00DF11D1124D8
:104E9000E80FF91F477081E090E0042E01C0880FF1
:104EA0000A94EAF79081982B908308956435E0F492
:104EB0004033D0F4E42FF0E033E0F595E7953A95F0
:104EC000E1F726E0629FE00DF11D1124E80FF91FC4
:104ED000477081E090E0042E01C0880F0A94EAF741
:104EE00080959081892380830895E42FF0E053E03A
:104EF000F595E7955A95E1F726E0629FE00DF11DE3
:104F00001124E80FF91F808190E0477002C0959549
:104F100087954A95E2F7817008950F931F93CF9379
:104F2000DF93EC01162F042F0E947527402F612F6D
:104F3000882339F0CE01DF91CF911F910F910C940E
:104F40005627CE01DF91CF911F910F910C943827F6
:104F5000DB0180E019C0E03211F48E5F15C0EE3243
:104F600099F09E2F90539A3010F48D5F0DC0EB3561
:104F700008F0E052E15496E0E99FF0011124ED5C65
:104F8000F24FE4918E0F8F5FED91E111E4CF089520
:104F90006F927F928F929F92AF92BF92CF92DF9249
:104FA000EF92FF920F931F93CF93DF936C01862EA6
:104FB000742E203209F443C02E3209F442C0822FED
:104FC00080538A3010F4265106C02B3508F0205249
:104FD00021542B35B0F586E0289F90011124F9016A
:104FE000ED5CF24F949000E010E064E3A62E6DE0DB
:104FF000B62EA20EB31E1EC0F501E00FF11FE49005
:10500000C0E0D0E0F12C682E680C97010C2E02C095
:10501000359527950A94E2F720FF06C04C2F470DDF
:10502000662DC6010E9438272196C530D10569F743
:105030000F5F1F4F802F0915F8F2892D03C082E002
:1050400001C080E0DF91CF911F910F91FF90EF9011
:10505000DF90CF90BF90AF909F908F907F906F9098
:105060000895EF92FF920F931F93CF93DF938C01DC
:10507000F62EE42EE90107C04E2D6F2DC8010E94C7
:10508000C827F80EF39429912111F6CFDF91CF9123
:105090001F910F91FF90EF9008957F928F929F92B2
:1050A000AF92BF92CF92DF92EF92FF920F931F9336
:1050B000CF93DF935C01962E842E205286E0289FAA
:1050C00070011124C0E0D0E08BE09EE0E80EF91EF4
:1050D000F701EC0FFD1FC49000E010E0D12C7C2EF6
:1050E000790CC601002E02C0959587950A94E2F7C7
:1050F00080FF06C0482D400F672DC5010E9438274C
:105100000F5F1F4F0830110561F72196C630D1059A
:10511000F9F6DF91CF911F910F91FF90EF90DF9003
:10512000CF90BF90AF909F908F907F9008958F9277
:105130009F92AF92CF92DF92EF92FF921F93CF9305
:10514000DF936C01162FA42EE9012A30310590F06F
:105150002436310510F41A5F0DC0283E83E038076D
:1051600010F4145F07C0203187E2380710F41E5E88
:1051700001C0185E7AE0872E912CCE01B4010E9406
:105180005F517C01282F205D4A2D612FC6010E94AE
:105190004D28CE018E199F09B4010E945F51EB0189
:1051A0001650209751F7DF91CF911F91FF90EF900C
:1051B000DF90CF90AF909F908F900895CF92DF9225
:1051C000FF920F931F93CF93DF931F92CDB7DEB75C
:1051D0008C01562FF42E690108C04F2D652FC80190
:1051E00059830E944D2859815A5FF60121916F0120
:1051F0002111F3CF0F90DF91CF911F910F91FF906D
:10520000DF90CF9008952F923F924F925F926F92CE
:105210007F928F929F92AF92BF92CF92DF92EF9246
:10522000FF920F931F93CF93DF931F92CDB7DEB7FB
:105230003C01562E342F2E3231F02B3231F02D32EC
:1052400031F02F7005C02AE003C02BE001C02CE034
:1052500083E0289F50011124E4E0AA0CBB1CEA95CE
:10526000E1F7E12CF12C2EC0F601E20DF31D849044
:1052700000E010E0912C422C450CC401002E02C02D
:10528000959587950A94E2F780FF08C0432F400F59
:10529000642DC30139830E94382739810F5F1F4F66
:1052A0000830110551F79FEF291A390AE0E12E164F
:1052B0003104D1F6385FF0E1EF0EF11C80E3E8161F
:1052C000F10451F06701CA0CDB1C212C312CE3E303
:1052D000F0E1CE0EDF1EC8CF0F90DF91CF911F916E
:1052E0000F91FF90EF90DF90CF90BF90AF909F9085
:1052F0008F907F906F905F904F903F902F90089588
:10530000CF92DF92FF920F931F93CF93DF931F9261
:10531000CDB7DEB78C01562FF42E690108C04F2D92
:10532000652FC80159830E9403295981505FF601F6
:1053300021916F012111F3CF0F90DF91CF911F9138
:105340000F91FF90DF90CF900895222339F0213004
:1053500019F02F3F39F404C00C9438270C945627C9
:105360000C948D270895AF92BF92CF92DF92EF9267
:10537000FF920F931F93CF93DF93EC01F62EE42E51
:10538000122F161B041BBB24B394111101C0B12CA6
:10539000CC24C394011101C0C12C4E2D6F2DCE0120
:1053A0000E943827101798F0D12ED694A12C0CC04B
:1053B000D00ED11610F0D11AEC0CFB0C4E2D6F2D27
:1053C000CE010E943827A394A112F2CF11C0D02E93
:1053D000D694A12CD10ED01610F0D01AFB0CEC0CE8
:1053E0004E2D6F2DCE010E943827A394A012F2CF2C
:1053F000DF91CF911F910F91FF90EF90DF90CF90B1
:10540000BF90AF900895DF92EF92FF920F931F939A
:10541000CF93DF93EC01F62ED42EE22E102F042F23
:105420000E94B329012F2E2D4D2D6E2DCE010E94ED
:10543000B3292F2D4D2D6F2DCE010E94B3292E2D76
:10544000412F6F2DCE010E94B329DF91CF911F9183
:105450000F91FF90EF90DF90089581E0611101C0FE
:1054600080E00895CF92DF92EF92FF920F931F9307
:10547000CF93DF931F92CDB7DEB76C01E42EF62EEB
:105480000BC0412F6F2DC60129830E948D271F5FFE
:1054900029810117B0F7F3942F1510F01E2DF9CFC5
:1054A0000F90DF91CF911F910F91FF90EF90DF90C0
:1054B000CF900895CF92DF92EF92FF920F931F93B8
:1054C000CF93DF931F92CDB7DEB76C01E42EF62E9B
:1054D0000BC0412F6F2DC60129830E9456271F5FE5
:1054E00029810117B0F7F3942F1510F01E2DF9CF75
:1054F0000F90DF91CF911F910F91FF90EF90DF9070
:10550000CF9008954F925F926F927F928F929F9269
:10551000AF92BF92CF92DF92EF92FF920F931F93C1
:10552000CF93DF931F92CDB7DEB72C01762E642E7A
:10553000690182E5E81202C0EAEF07C02A303105AE
:10554000A8F02436310518F4E6E07E0E0FC0283EA0
:10555000F3E03F0710F48CE008C02031E7E23E079B
:1055600018F4F2E17F0E02C088E1780E043529F1CB
:10557000053521F0063409F040C1ACC030E00AE046
:1055800010E0C601B8010E945F517C01282F205D08
:10559000462D672DC20139830E944D28C6018E1900
:1055A0009F09B8010E945F516B01EAEF7E0E3981BD
:1055B0003F5F6115710529F721C10CE3E02EF12C45
:1055C000C601B7010E945F515C01C6018A199B099F
:1055D000B7010E945F514B010AE010E0C501B8011C
:1055E0000E945F516C01282F205D462D672DC2015E
:1055F0000E944D28C5018C199D09B8010E945F5178
:10560000262F205D672D6650462DC2010E944D2831
:10561000672D6C502AE3462DC2010E944D28C4011B
:10562000B7010E945F516C01C4018C199D09B7013B
:105630000E945F515B01C601B8010E945F517C016D
:10564000282F205D672D6251462DC2010E944D28F2
:10565000372D3851C6018E199F09B8010E945F513C
:10566000262F611102C013E001C014E0205D462D19
:10567000632FC2010E944D28672D6E512AE3462DEB
:10568000C2010E944D28372D3452C5016CE370E0F1
:105690000E945F516AE070E00E945F51811116E044
:1056A000282F205D462D632FC2010E944D28672DB3
:1056B0006A52062D095F87E090E0811B282F220F98
:1056C000280F220F260F462DC2010E945A2A37E0CA
:1056D000311B94C028E532E0C601B9010E945F5138
:1056E0007C01C6018E199F09B9010E945F515B01BF
:1056F0000AE010E0C701B8010E945F516C01282F39
:10570000205D462D672DC2010E944D28672D6650F1
:105710002EE2462DC2010E944D28C7018C199D0919
:10572000B8010E945F517B01CB01B8010E945F511B
:105730006C01282F205D672D6C50462DC2010E9400
:105740004D28372D3251C7018C199D09B8010E948F
:105750005F51262F611103C012E0D12E02C0B3E0C9
:10576000DB2E205D462D632FC2010E944D28672D40
:1057700068512AE3462DC2010E944D28372D3E5123
:10578000C50168E572E00E945F518C016AE070E03B
:105790000E945F517C01282F882311F0A5E0DA2EAA
:1057A000205D462D632FC2010E944D28372D3452B3
:1057B000C8018E199F096AE070E00E945F51262F90
:1057C000662311F0F6E0DF2E205D462D632FC20127
:1057D0000E944D28672D6A52062D095F87E090E0F0
:1057E0008D19282F220F280F220F260F462DC201B8
:1057F0000E945A2A37E03D1901C030E0832F0F90F4
:10580000DF91CF911F910F91FF90EF90DF90CF909C
:10581000BF90AF909F908F907F906F905F904F90D0
:1058200008952F923F924F925F926F927F928F9244
:105830009F92AF92BF92CF92DF92EF92FF920F931F
:105840001F93CF93DF9300D000D01F92CDB7DEB768
:10585000282E592F362EF9018491B9016E5F7F4FA2
:105860007D836C8331962491311002C0442391F0E2
:1058700030E0590193E0B594A7949A95E1F7742F1D
:10588000412C982F930D99834901840E911C682E09
:10589000712C5DC0843561F7203351F7222D392FEB
:1058A00066E019C0FA014F5F5F4FE491D901A80F7C
:1058B000B91FEC930696883FE1E09E0799F78C812B
:1058C0009D818C5A9F4F9D838C8361502F5F3F4FEA
:1058D000662309F445C04C815D8180E090E0E2CF11
:1058E000F7019FEFE91AF90AC49000E010E0D12C0B
:1058F000472F400F242F30E082169306BCF096010C
:10590000002E02C0359527950A94E2F7652D822D69
:10591000952F5B837A8320FF05C00E9438275B8127
:105920007A8104C00E9456277A815B810F5F1F4FE6
:1059300008301105E9F65394E9815E12D1CF8C81CC
:105940009D81860D971D9D838C834394785F242DC4
:1059500030E02A153B0524F4532CEC80FD80ECCF7D
:105960000F900F900F900F900F90DF91CF911F919C
:105970000F91FF90EF90DF90CF90BF90AF909F90EE
:105980008F907F906F905F904F903F902F900895F1
:105990005F926F927F928F929F92AF92BF92CF92BF
:1059A000DF92EF92FF920F931F93CF93DF93EC015F
:1059B000F62E042FE22ED62ED21A6D2D0E943827F5
:1059C000B02EBE184B2D6F2DCE010E943827CE2C45
:1059D000CF0C402F6C2DCE010E943827AE2CA00E8C
:1059E0004A2D6F2DCE010E94382711E001C0182FDB
:1059F0005E2C511A8A2C811A712E7F0C482D672D2E
:105A0000CE010E9438276B2C610E9F2C911A462DD7
:105A1000692DCE010E943827462D672DCE010E94A8
:105A20003827482D692DCE010E943827812E800EFF
:105A30007C2C711A482D672DCE010E943827602ECC
:105A4000611A9D2C910E462D692DCE010E9438279A
:105A5000462D672DCE010E943827482D692DCE0195
:105A60000E943827812F8F5F511608F6DF91CF9162
:105A70001F910F91FF90EF90DF90CF90BF90AF906C
:105A80009F908F907F906F905F9008958F929F92DC
:105A9000AF92BF92CF92DF92EF92FF92862E912C1F
:105AA000A12CB12CA0E2B0E8A50194010E944451C0
:105AB0006B017C0180E4C82284E8D82288E0E822D7
:105AC000FF24A2E0B8E00E944451607171728270BC
:105AD0009927C62AD72AE82AF92AA701960161E060
