:100000000C9423090C9452090C9452090C94520933
:100010000C9452090C9452090C9452090C945209F4
:100020000C9452090C9452090C947A3D0C94520988
:100030000C9452090C94C0120C9452090C9452095D
:100040000C9452090C9452090C9452090C945209C4
:100050000C9452090C9452090C9452090C945209B4
:100060000C9452090C9452090C9452090C945209A4
:100070000C9452090C9452090C9452090C94520994
:100080000C9452090C9452090C9452090C94520984
:100090000C94FF450C9452091E03540069006D0036
:1000A00065006C0061007000730065002B0020008B
:1000B00043004400430000001C0345006C0069003D
:1000C0006A006100680020005000610072006B004F
:1000D0006500720000000403090409023E000201E9
:1000E00000C03209040000010202010005240010D2
:1000F0000104240206052406000107058203080006
:10010000FF09040100020A000000070504021000B4
:10011000010705830210000112011001020000080E
:10012000EB03442001000102DC0152657472696531
:1001300076696E672044657669636520496E666FEF
:100140002E2E2E0D0A004465766963652041747475
:1001500061636865642E0D0A000D0A446576696363
:100160006520556E61747461636865642E0D0A00C4
:1001700047657474696E6720436F6E6669672044D3
:100180006174612E0D0A00436F6E74726F6C2045AE
:1001900072726F72202847657420436F6E666967BC
:1001A00075726174696F6E292E0D0A00496E766151
:1001B0006C6964204465766963652E0D0A00202D04
:1001C0002D204572726F7220436F64653A2025645A
:1001D0000D0A00436F6E74726F6C204572726F72FD
:1001E000202853657420436F6E6669677572617469
:1001F000696F6E292E0D0A202D2D204572726F72A7
:1002000020436F64653A2025640D0A005374696CBD
:100210006C20496D6167652044657669636520459A
:100220006E756D6572617465642E0D0A00486F739A
:1002300074204D6F6465204572726F720D0A202D17
:100240002D204572726F7220436F64652025640D06
:100250000A0044657620456E756D204572726F7296
:100260000D0A202D2D204572726F7220436F646538
:100270002025640D0A202D2D2053756220457272B1
:100280006F7220436F64652025640D0A202D2D2098
:10029000496E2053746174652025640D0A00546111
:1002A0006B696E6720706963747572652E2E2E0DF2
:1002B0000A004572726F7220380D0A004368616E41
:1002C00067696E672050726F70657274792E2E2E7A
:1002D0000D0A004572726F7220390D0A0045727264
:1002E0006F722031320D0A004572726F7220310D2B
:1002F0000A002020204D616E756661637475726519
:10030000723A2025730D0A002020204D6F64656C21
:100310003A2025730D0A0020202044657669636524
:100320002056657273696F6E3A2025730D0A0D0AA7
:10033000004572726F7220320D0A004F70656E694F
:100340006E672053657373696F6E2E2E2E0D0A0033
:100350004572726F7220340D0A00436C6F73696EC0
:10036000672053657373696F6E2E2E2E0D0A00453C
:1003700072726F7220360D0A00446F6E652E0D0A80
:1003800000436F6D6D616E64204572726F7220283C
:100390002553292E0D0A202D2D204572726F7220B3
:1003A000436F64652025640D0A00526573706F6E9B
:1003B000736520436F646520213D204F4B005472CC
:1003C000616E73616374696F6E204661696C00547D
:1003D000696D656C61707365202020004DE7040035
:1003E000001C01436F6E6E65637420202020200086
:1003F0004D4F060000000053657474696E677320EA
:10040000202020004D8B060000000000202020202E
:100410002020202020202000560000000000005353
:10042000746F702054696D657220200046CB0900FE
:1004300000E80A416464204B65796672616D65006D
:100440004654090000F90A44656C204B65796672D0
:10045000616D650046F80A0000F80A566965772064
:1004600044657461696C7300461E0C000000004C0A
:100470006F61642053617665642E2E0046DF0900AB
:10048000001D01536176652041732E2E202020002F
:1004900046E70D00000000536176652020202020F3
:1004A0002020200046120B00009D0A536176652033
:1004B00044656661756C740046350B00000000529F
:1004C00065766572742020202020200046A0090057
:1004D000001D01004F5054494F4E53002020200072
:1004E00046C30967076E074D6F64652020202020F2
:1004F00020202A00536F07B10A000044656C61791F
:10050000202020202020540045A90ABF07000046D3
:1005100072616D65732020202020550045AB0AC80C
:10052000071B01496E7472766C2020202020460043
:1005300045AD0AD307FD0A48445220457870277319
:100540002020550045AF0AD307FB0A536875747421
:10055000657220202020460045B30AD307FB0A53CA
:1005600068757474657220202020460045B30AD354
:10057000071A014844522045562B2F2D20205500A4
:1005800045B50ADB07FB0A42756C6220312020204A
:100590002020460045B70AD307FA0A2A4B6579207E
:1005A000202020202020540045CB0AF307FA0A42DD
:1005B000756C6220322020202020460045B90AD3E5
:1005C00007FA0A2A4B657920202020202020540099
:1005D00045CD0AF307F60A42756C622033202020CD
:1005E0002020460045BB0AD307F60A2A4B6579202E
:1005F000202020202020540045CF0AF307F50A428E
:10060000756C6220342020202020460045BD0AD38E
:1006100007F50A2A4B65792020202020202054004D
:1006200045D10AF307F40A42756C62203520202078
:100630002020460045BF0AD307F40A0020202020CE
:10064000202020202020200046260EFF07070842F9
:100650006C7565746F6F74682020200046DE0B0097
:1006600000F7075553422020202020202020200082
:1006700046570B00000000002020202020202020D2
:10068000202020005600000000000053797374659C
:100690006D20496E666F200046E210000000004C9D
:1006A000434420436F6C6F7220202000530D084993
:1006B0000B4A344C434420424C2054696D65200061
:1006C000533D084A0B4A34505752204175746F20ED
:1006D0004F66660053AD084B0B4A344C45442041ED
:1006E00075746F204F666600530D094C0B4A3442F7
:1006F000756C62204D6F646520202000537D094792
:100700000B4A3443616D65726120465053202000CE
:1007100053AD093A0B4A3443616D657261204D61F6
:100720006B652000535D0A480B4A34446576204DC2
:100730006F6465204C45440053DD0A510B4A344434
:100740006576656C6F706D656E7420004D0D0B00E5
:100750000000000020202020202020202020200039
:100760005600000000000052455455524E000054FF
:10077000696D652D6C6170736520200001C10B48A7
:10078000445220542D6C61707365200003D10B48D6
:1007900044522050686F746F2020200002DF0B420B
:1007A000756C622D72616D702020200005F00B00C9
:1007B0002020202020202020202020000000006871
:1007C000683A6D6D3A7373003020666F7220696EFF
:1007D000662E006D6D3A73732E730053746F7073D1
:1007E000206265747765656E206578706F737572C9
:1007F00065730053696E6365207374617274004F92
:100800005054494F4E530053544152540057686955
:100810007465202020202020200000FE0B526564FB
:100820002020202020202020200001FE0B0020205E
:100830002020202020202020200000000031302017
:100840005365636F6E6473202000010E0C333020FB
:100850005365636F6E6473202000030E0C31204DCE
:10086000696E7574652020202000060E0C32204D24
:10087000696E75746573202020000C0E0C35204DB8
:10088000696E75746573202020001E0E0C313020B7
:100890004D696E757465732020003C0E0C0020209D
:1008A0002020202020202020200000000031204D8A
:1008B000696E757465202020200006200C32204DC2
:1008C000696E75746573202020000C200C35204D56
:1008D000696E75746573202020001E200C31302055
:1008E0004D696E757465732020003C200C333020F8
:1008F0004D696E75746573202000B4200C002020B3
:100900002020202020202020200000000031302046
:100910005365636F6E647320200001320C33302006
:100920005365636F6E647320200003320C31204DD9
:10093000696E757465202020200006320C32204D2F
:10094000696E75746573202020000C320C35204DC3
:10095000696E75746573202020001E320C313020C2
:100960004D696E757465732020003C320C002020A8
:10097000202020202020202020000000005374612F
:100980006E64617264202020200000440C4D6F6D65
:100990002E20546F67676C65200001570C002020E3
:1009A0002020202020202020200000000031204690
:1009B00050532020202020202000656A0C32204641
:1009C00050532020202020202000336A0C33204662
:1009D00050532020202020202000226A0C34204662
:1009E000505320202020202020001A6A0C35204659
:1009F00050532020202020202000156A0C3620464D
:100A000050532020202020202000116A0C3720463F
:100A1000505320202020202020000F6A0C38204630
:100A2000505320202020202020000D6A0C3130203F
:100A3000465053202020202020000B6A0C31322009
:100A400046505320202020202000096A0C0020203E
:100A5000202020202020202020000000004F74684B
:100A600065722020202020202000FE7C0C43616E37
:100A70006F6E202020202020200000910C4E696BFA
:100A80006F6E202020202020200001910C4D696EE7
:100A90006F6C746120202020200003910C4F6C7932
:100AA0006D70757320202020200004910C50656E1D
:100AB0007461782020202020200005910C536F6E57
:100AC0007920202020202020200002910C002020CE
:100AD000202020202020202020000000004F6666DB
:100AE00020202020202020202000009D0C4F6E2060
:100AF000772F42756C622020200001B00C0020206E
:100B00002020202020202020200000000053687595
:100B100074746572205465737400461E0D00001DC8
:100B20000153687574746572204C616720004667D4
:100B30000C00001D014952205465737420202020B0
:100B4000200046B80D00001D013420486F7572204A
:100B50004C6967687400463E3700001D0153797385
:100B60002053746174757320200046DC110000006E
:100B70000042617474657279202020202000460BA9
:100B80000F000000004C69676874204D6574657241
:100B9000200046291000000000506F776572204F3A
:100BA000666620202000465015000000000020202E
:100BB00020202020202020202000560000000000BF
:100BC0000042617369632054696D656C617073657F
:100BD000004844522054696D656C61707365005320
:100BE000696E676C652048445220496D61676500F5
:100BF00052616D70206578706F7375726500426127
:100C0000636B6C6967687420636F6C6F720042611C
:100C1000636B6C69676874206F6E2074696D650022
:100C20004175746F20707772206F66662074696DED
:100C300065004C4544206175746F206F66662074B2
:100C4000696D6500486F6C647320736875747465B2
:100C50007220646F776E005072657373206F6E2020
:100C60007072657373206F6666004672616D65739E
:100C700020706572205365636F6E640043686F6F08
:100C80007365206966206E6F74206C697374656487
:100C90000043616D657261206D616B65004C454478
:100CA000206F666620647572696E672075736500D3
:100CB00053687574746572206C6967687473204C2E
:100CC0004544000402040507064D41494E204D45A8
:100CD0004E5500041E05051E00041F15150A0004CC
:100CE0000E11111100041F11110E00041F15151112
:100CF00000041F05050100040E11151D00041F044A
:100D0000041F0003111F1100000408110F0100044B
:100D10001F040A1100041F10101000051F02040216
:100D20001F041F02041F00040E11110E00041F09EE
:100D3000090600040E11191E00041F0909160004FB
:100D4000121515090003011F010000040F10100FF8
:100D500000030F100F0000051F0804081F041B04E8
:100D6000041B0003031C03000004191515130003E2
:100D70000E150E000003121F1000000319151200BB
:100D8000000311150A00000307041F0000031715D4
:100D9000090000031E151D000003190503000003D0
:100DA0000A150A00000317150F00000000000000DC
:100DB000000000002F000000000700070000147F63
:100DC000147F1400242A7F2A12006264081323006F
:100DD000364955225000000503000000001C224146
:100DE00000000041221C000014083E0814000808FE
:100DF0003E0808000000A06000000808080808007D
:100E00000060600000002010080402003E514945C7
:100E10003E0000427F4000004261514946002141AE
:100E2000454B31001814127F100027454545390005
:100E30003C4A4949300001710905030036494949D6
:100E40003600064949291E000036360000000056CB
:100E50003600000008142241000014141414140079
:100E6000004122140800020151090600324959517B
:100E70003E007C1211127C007F49494936003E41F8
:100E8000414122007F4141221C007F4949494100E4
:100E90007F09090901003E4149497A007F08080895
:100EA0007F0000417F4100002040413F01007F085A
:100EB000142241007F40404040007F020C027F002E
:100EC0007F0408107F003E4141413E007F0909092F
:100ED00006003E4151215E007F091929460046491E
:100EE0004949310001017F0101003F4040403F007E
:100EF0001F2040201F003F4038403F00631408146B
:100F00006300070870080700615149454300007FEE
:100F100041410000552A552A55000041417F0000FB
:100F2000040201020400404040404000000102046D
:100F300000002054545478007F484444380038441A
:100F400044442000384444487F0038545454180026
:100F5000087E0901020018A4A4A47C007F080404F0
:100F6000780000447D4000004080847D00007F10B8
:100F70002844000000417F4000007C0418047800F1
:100F80007C0804047800384444443800FC242424B9
:100F9000180018242418FC007C0804040800485495
:100FA00054542000043F444020003C4040207C003A
:100FB0001C2040201C003C4030403C0044281028AD
:100FC00044001CA0A0A07C004464544C44000006D3
:100FD0000909060080C0E0E060E0E0C08000000099
:100FE00000000070FFFF0100000000FFFFFE000096
:100FF000000000000F1F3C383038381F0F0300007E
:101000000000000000000080E0E0000000000000A0
:101010000000000000030303FFFF000000000000C9
:1010200000000000003838383F3F383838000000F2
:1010300000000000C0C0E06060E0E0C08000000090
:101040000000000001000080C0E0F93F1F00000028
:10105000000000003C3E3F3F3B3938383838000044
:1010600000000000C0E0E06060E0E0C0C000000000
:10107000000000000100003030387DEFCF0000009C
:10108000000000001C38383030383C1F0F010000D1
:10109000000000000000000080C0E0E00000000050
:1010A000000000E0F0F8DECFC7C1FFFFC0C00000C5
:1010B000000000000000000000003F3F00000000B2
:1010C00000000000E0E0E0E0E0E0E0E0E0E0000060
:1010D000000000003F3F3F38383070F0E000000073
:1010E000000000001C38383030383C1F0F01000071
:1010F000000000000080C0C0E06060E0E000000090
:10110000000000E0FEFF3739181838F0F0C000008A
:10111000000000000F1F1C383030381F0F07000080
:1011200000000000E0E0E0E0E0E0E0E0E0E00000FF
:101130000000000000000080E0F87E1F07010000B2
:101140000000000000383E1F070100000000000002
:101150000000000080C0E0E06060E0C0C00000006F
:1011600000000000CFFF7F38307070FFEFC7000035
:10117000000000030F1F3C383030381F1F0F0000E5
:101180000000000080C0E0E060E0E0C080000000FF
:101190000000000C3F7FF1E0C0C0E1FFFFFE000057
:1011A000000000000038303038381E0F0700000003
:1011B000000000000000000000000000000000002F
:1011C000000000000000000000000000000000001F
:1011D0000000003C3C3C000000000000000000005B
:1011E00000000000000000000000000000000000FF
:1011F00000000000004040404040FEFE40404040B3
:10120000400000000000000000000F0F0000000080
:1012100000000000000000000000000000000000CE
:10122000000000004040404040400000000000003E
:1012300000000000000000000000000000000000AE
:10124000000000002E4D11241FBECFEFD0E2DEBF04
:10125000CDBF17E0A0E0B1E0E6E2F6EA00E00BBFA8
:1012600002C007900D92AE3AB107D9F71BE0AEEA83
:10127000B7E001C01D92AB3CB107E1F712E1C6E453
:10128000D2E100E006C022970109FE010BBF0E94D7
:10129000A54FC434D10780E00807A9F70E94B54BD9
:1012A0000C9411530C9400008091DF0A9091E00A95
:1012B000059708F03FC08091DF0A9091E00A892BE2
:1012C00031F481E090E09093E00A8093DF0AE091AE
:1012D000DF0AF091E00AA091DF0AB091E00AAA0FBC
:1012E000BB1FA753B54F8D919C91805F914FEE0F1F
:1012F000FF1FE553F54F91838083E091DF0AF09162
:10130000E00AA091DF0AB091E00AAA0FBB1FA9541E
:10131000B54F8D919C91EE0FFF1FE754F54F9183D0
:1013200080838091DF0A9091E00A01969093E00A11
:101330008093DF0A8FE598E00E94AE1C81E008955B
:10134000CF93DF931F92CDB7DEB7462F662341F0D0
:101350006091E90A8DE99AE049830E94E52D49816F
:1013600063E072E08FE598E00E942418882331F052
:101370008FE598E00E94AE1C81E001C080E00F90F4
:10138000DF91CF910895813021F48FE598E00E949C
:10139000AE1C81E00895462F61111092E80A6CE0BE
:1013A00072E08FE598E00E942418882331F08FE5E1
:1013B00098E00E94AE1C81E0089580E008952F928D
:1013C0003F925F926F927F928F929F92AF92BF9265
:1013D000CF92DF92EF92FF920F931F93CF93DF9301
:1013E00000D000D0CDB7DEB7182F853031F4809112
:1013F000140B8823A1F081500FC0863081F48091B6
:10140000140B482F50E02091150B30E0215031098A
:101410004217530724F48F5F8093140B03C0662395
:1014200009F4A1C083EA98E00E94CC2B8091140BB0
:10143000833020F0682E6A946A9401C0612C109267
:10144000150B1C821B8254E4752EE62CF12CC7016F
:1014500004969A83898369E0362E5B80EB81FC8158
:101460007E9E60017F9ED00C1124C601875F9F4F36
:101470000E947D5281508E3FE8F503E0A12CB12CF3
:10148000252C23948B809C80FFEF8F1A9F0A2614B3
:1014900030F189819A81881599050CF1C5018C0D6F
:1014A0009D1D875F9F4F0E947D52982F91549A31C6
:1014B00008F080E24091150B4E19439D402D1124F8
:1014C000485F282F602F83EA98E00E949B26909126
:1014D000150B8091140B981302C05092160B9FEFBE
:1014E000A91AB90A0A5F0B3491F68091150B8F5F28
:1014F0008093150BEB81FC813196FC83EB8378970D
:1015000009F0ABCF8091140B861949E0849F402DE0
:101510001124042F015F495F21E562E083EA98E02E
:101520000E94802864E172E08FE598E00E94E8164E
:101530004FE152E064E272E08FE598E00E941E17EE
:1015400008E220E043E060E083EA98E00E9401289E
:1015500023E543E063E583EA98E00E94012883EAFB
:1015600098E00E94002C123059F018F4113049F51F
:1015700005C0133019F0143021F502C081E022C0FB
:101580006091160B8DE99AE00E94E52D41E06BE237
:1015900072E08FE598E00E94241880ED97E028EC37
:1015A00030E0F9013197F1F70197D9F78FE598E02D
:1015B0000E94AE1C60E08FE598E00E94011882E076
:1015C00001C080E00F900F900F900F90DF91CF91AE
:1015D0001F910F91FF90EF90DF90CF90BF90AF9051
:1015E0009F908F907F906F905F903F902F90089585
:1015F0008091DF0A9091E00A029748F08091DF0A1B
:101600009091E00A01979093E00A8093DF0A8FE5BA
:1016100098E00E94AE1C60E08FE598E00E940118FF
:1016200081E00895CF93DF931F92CDB7DEB7462FA9
:10163000662341F06091E90A8DE99AE049830E94AE
:101640009C2D498169E172E08FE598E00E942418A1
:10165000882331F08FE598E00E94AE1C81E001C044
:1016600080E00F90DF91CF910895CF93DF931F9289
:10167000CDB7DEB7462F662339F060E08DE99AE0FA
:1016800049830E949C2D498169E172E08FE598E0D1
:101690000E942418882331F08FE598E00E94AE1C48
:1016A00081E001C080E00F90DF91CF910895CF934A
:1016B000C82F611107C09091770B8091050B981787
:1016C00009F46EC09091770B9093050B992379F1F3
:1016D00083EA98E00E94CC2B22E332E047E063E00B
:1016E00083EA98E00E942C2720E432E04FE063E098
:1016F00083EA98E00E942C2720E432E047E163E08F
:1017000083EA98E00E942C2720E432E04FE163E076
:1017100083EA98E00E942C276EE472E08FE598E05F
:101720000E94E81643EA57E06AE572E02EC083EAB9
:1017300098E00E94CC2B21E632E047E063E083EAA8
:1017400098E00E942C272FE632E04FE063E083EA26
:1017500098E00E942C272DE732E047E163E083EA1E
:1017600098E00E942C2720E432E04FE163E083EA16
:1017700098E00E942C276BE872E08FE598E00E94C9
:10178000E81643EA57E064E272E08FE598E00E94D1
:101790001E1783EA98E00E94002C81E08093F20AF1
:1017A000CC2339F08091770B811105C01092F20A99
:1017B00002C080E001C081E0CF910895CF93C82F8F
:1017C0006623B1F183EA98E00E94CC2B27E932E04E
:1017D00047E063E083EA98E00E942C2725EA32E0A4
:1017E0004FE063E083EA98E00E942C2723EB32E08D
:1017F00047E163E083EA98E00E942C2721EC32E085
:101800004FE163E083EA98E00E942C276FEC72E0DE
:101810008FE598E00E94E81643EA57E06AE572E037
:101820008FE598E00E941E1783EA98E00E94002C42
:1018300081E0C11101C080E0CF910895EF920F9334
:10184000CF93C82F6623D1F083EA98E00E94CC2B77
:1018500027ED32E042E161E083EA98E00E942C2724
:101860006EED72E08FE598E00E94E8164AE552E0DE
:1018700064EE72E08FE598E00E941E170AE123E50E
:1018800042E164E283EA98E00E94A8288BE498E0B1
:101890000E94CF14E2E5EE2E06E49B0142E163E5EF
:1018A00083EA98E00E94D02883EA98E00E94002C06
:1018B000C13021F0C23031F481E005C08BE498E002
:1018C0000E94421480E0CF910F91EF9008958F9283
:1018D0009F92AF92BF92EF920F93CF93DF93C82F57
:1018E0006623B1F083EA98E00E94CC2B69EE72E0A7
:1018F0008FE598E00E94E8164AEF52E062E073E05C
:101900008FE598E00E941E1783EA98E00E94002C61
:101910008C2F8150823008F083C006E220E542E13E
:101920006AE083EA98E00E94A82829E033E042E1D7
:101930006AE083EA98E00E942C27479A3F9A3C98F5
:10194000449A86988E9A469A3E9A389A409A3D983A
:10195000459A28EE33E048EC50E0FA013197F1F770
:1019600021503109D1F7C23031F047988BE498E02B
:101970000E9442141EC0469880E197E228EC30E0B5
:10198000F9013197F1F70197D9F7EFCF8BE498E0A0
:101990000E94B114683E73408105910550F08BE4BC
:1019A00098E00E94B114EB0184EF91E028EC30E064
:1019B00003C03599EBCFF3CFF9013197F1F70197D8
:1019C000D9F7479A469A8BE498E00E94421425C0C2
:1019D0008BE498E00E94B114693E73408105910543
:1019E000E0F08BE498E00E94B1144B015C01FCE450
:1019F000EF2E05E59E0142E168E383EA98E00E944C
:101A0000D02894014CE168E383EA98E00E94D02852
:101A100083EA98E00E94002C05C0359BD9CFE1CF26
:101A2000C33011F080E001C081E0DF91CF910F91D0
:101A3000EF90BF90AF909F908F9008950F93CF93AA
:101A4000C82F6623D1F01092020B1092030B83EA89
:101A500098E00E94CC2B61E173E08FE598E00E9452
:101A6000E8164EE153E063E273E08FE598E00E94F0
:101A70001E1783EA98E00E94002CC130D9F48091AF
:101A8000020B8130B1F1C093020B0AE128E342E17D
:101A900064E183EA98E00E94A82828E233E042E16A
:101AA00064E183EA98E00E942C278DE99AE00E9485
:101AB000C32C2DC0C230D9F48091020B8230C9F002
:101AC000C093020B0AE128E342E164E183EA98E073
:101AD0000E94A8282FE233E042E164E183EA98E023
:101AE0000E942C278DE99AE00E94ED2C10C0CC2397
:101AF00091F01092020B0AE128E342E164E183EAEB
:101B000098E00E94A8288DE99AE00E94302D83EA8F
:101B100098E00E94002C8DE99AE00E948F2D909110
:101B2000030B882371F091111CC081E08093030B9B
:101B300026E333E04CE166E083EA98E00E947F26EA
:101B40000CC0913071F41092030B04E221E54CE1DA
:101B500066E083EA98E00E94A82883EA98E00E9461
:101B6000002C81E0C33009F080E0CF910F910895FF
:101B7000CF93C82F6623B1F083EA98E00E94CC2B64
:101B800066E473E08FE598E00E94E8164EE453E0C7
:101B900066E573E08FE598E00E941E1783EA98E0FF
:101BA0000E94002CC23061F0C33019F0C13061F4E2
:101BB00002C081E00AC086EF97E00E94592304C06A
:101BC00086EF97E00E94002280E0CF9108950F9366
:101BD000CF93C82F062F662331F08DE99AE00E943B
:101BE000212E8093070B2EE533E048E05BE06C2F5D
:101BF0008FE598E00E940821C82F823019F51092D5
:101C0000130B68E07BE08DE99AE00E94B04F609191
:101C1000070B8DE99AE00E949C2D41E069E172E09A
:101C20008FE598E00E94241820ED37E048EC50E062
:101C3000FA013197F1F721503109D1F78FE598E09A
:101C40000E94AE1C8C2FCF910F910895462F6111E9
:101C50008093060B8091060B8230A1F466E673E058
:101C60008FE598E00E94241880E49FE128EC30E0A2
:101C7000F9013197F1F70197D9F78DE99AE00E94C0
:101C80003D2E13C08FE598E00E94A81B60E08FE511
:101C900098E00E9401186FE174E08FE598E00E94DF
:101CA000CD1C83EA98E00E94002C81E00895A8955D
:101CB00088E10FB6F89480936000109260000FBE28
:101CC0002FE088E190E00FB6F894A895809360002B
:101CD0000FBE209360006C98749A0E9420158111A9
:101CE00002C0649935C00E94E1140E9454348BE410
:101CF00098E00E94D81383EA98E00E947B2C83EA44
:101D000098E09093600880935F0889E398E090934F
:101D100062088093610883B7817F846083BF83B743
:101D2000816083BF6FEC73E08FE598E00E94CD1C6B
:101D300083EA98E00E94002C0E94914B0E94F54596
:101D400087EF97E00E94EA3387EF97E00C94943393
:101D500083EA98E00E947B2C0E94253584E793E07B
:101D60000E94F03488E10FB6F894809360001092DE
:101D700060000FBE0E945015B6CFEF920F931F93D5
:101D8000CF93DF93182F662359F10E940415EC01BD
:101D900083EA98E00E94CC2B2BEA33E042E161E039
:101DA00083EA98E00E942C270CE4E02E05E59E01D2
:101DB00042E167E383EA98E00E94D02865EB73E094
:101DC0008FE598E00E94E81643EA57E06AE572E082
:101DD0008FE598E00E941E1783EA98E00E94002C8D
:101DE00081E0113009F080E0DF91CF911F910F91D8
:101DF000EF9008950E942015833048F4E82FF0E01A
:101E0000EE0FFF1FEF5CFE4F2081318102C02CEBF3
:101E100033E0C9010895FF920F931F93CF93DF938F
:101E2000F82E0E94A115EC010E942015482FC45FD6
:101E3000D14084E28C9F90018D9F300D1124C90107
:101E400061E970E00E945B4F162F643228F0413048
:101E500009F472C0643211F4423009F414E283EAE6
:101E600098E00E94CC2B0E94FA0EEC01BC0183EAA0
:101E700098E00E94F625082F0E942015882349F03B
:101E8000069569E2601B9E014FE183EA98E00E949B
:101E90007F260FE02CE34FE064E183EA98E00E94A4
:101EA00001280BE124E140E164E183EA98E00E942B
:101EB00001282CE34BE165E183EA98E00E940128C8
:101EC00003E12CE340E16CE383EA98E00E940128FF
:101ED0000AE12CE347E16CE383EA98E00E940128E1
:101EE00007E12DE343E16DE383EA98E00E940128D6
:101EF000C0E06C2F6A5E09E1262F41E183EA98E099
:101F00000E940128CF5F1C17A0F762EC73E08FE5F9
:101F100098E00E94E81643EA57E06AE572E08FE530
:101F200098E00E941E1783EA98E00E94002C81E04E
:101F3000F81621F080E002C013E291CFDF91CF913B
:101F40001F910F91FF900895EF92FF920F931F93AF
:101F5000CF93DF9300D000D000D0CDB7DEB79C0187
:101F6000FB01009719F480E380831182C90160E1CD
:101F700077E20E945B4F7B0180EF98ED689F8001C4
:101F8000699F100D789F100D1124020F131FC801B7
:101F900068EE73E00E945B4FAB0188E19CEF689FA5
:101FA0009001699F300D789F300D1124200F311F53
:101FB000C90164E670E00E945B4F162F84E6689FBB
:101FC000201931091124C9016AE070E00E945B4FB9
:101FD0001E828E2D805D8983405D4A83105D1B8348
:101FE000862F805D8C83AAE06A9F20193109112415
:101FF000205D2D83DE01119620E08D918033A9F4C0
:1020000017C081E090E08C0F9D1F830F911DDC01B4
:102010008C91DA018D93AD013F5F832F821B3530A8
:1020200080F3E80FF11D108207C0AF01322FF5CF0A
:102030002F5F2530D1F3E1CF26960FB6F894DEBF9F
:102040000FBECDBFDF91CF911F910F91FF90EF9009
:1020500008950F931F93CF93DF9300D000D000D04B
:10206000CDB7DEB7182F662341F060E083EA98E031
:102070000E946D2C80E00E94F0148091040B81116D
:1020800087C083EA98E00E94CC2B61ED73E08FE576
:1020900098E00E94E816123031F481E08093040B3E
:1020A0004DED53E002C041EE53E06AE572E08FE58A
:1020B00098E00E941E1780E00E945916BE016F5FD3
:1020C0007F4F0E94A40FBE016F5F7F4F83EA98E0AD
:1020D0000E94F62500E5602F681B9E012F5F3F4F91
:1020E0004EE083EA98E00E947F2627EE33E04EE040
:1020F00063E083EA98E00E947F2681E00E945916FF
:10210000BE016F5F7F4F0E94A40FBE016F5F7F4FC4
:1021100083EA98E00E94F625602F681B9E012F5FDE
:102120003F4F44E183EA98E00E947F2620EF33E0AE
:1021300044E163E083EA98E00E947F2682E00E9407
:102140005916BE016F5F7F4F0E94A40FBE016F5FE3
:102150007F4F83EA98E00E94F625602F681B9E015E
:102160002F5F3F4F4AE183EA98E00E947F2629EFE4
:1021700033E04AE163E083EA98E00E947F2683EA45
:1021800098E00E94002CE0E2FEE43197F1F705C0F0
:10219000123019F41092040B09C0113039F46FEFAA
:1021A00083EA98E00E946D2C81E001C080E02696D1
:1021B0000FB6F894DEBF0FBECDBFDF91CF911F9158
:1021C0000F9108952F923F924F925F926F927F925C
:1021D0008F929F92AF92BF92CF92DF92EF92FF9237
:1021E0000F931F93CF93DF93CDB7DEB728970FB62A
:1021F000F894DEBF0FBECDBF082F662309F4BDC023
:1022000083EA98E00E94CC2B87EF97E00E942A3364
:10221000282E312C6CE074E083EA98E00E94F625C9
:1022200060E5681B2CE034E048E083EA98E00E9417
:102230007F2622E134E048E063E083EA98E00E94F0
:102240007F2682E02816310418F022E034E002C034
:1022500027E034E0B90183EA98E02F8338870E94B1
:10226000F62560E5681B2F8138854EE083EA98E00B
:102270000E947F2629E134E04EE063E083EA98E0A3
:102280000E947F2622E234E044E163E083EA98E0A2
:102290000E947F269DE5C92E95E0D92E93E3E92E75
:1022A000FF24F39410E02AE0822E912CA12CB12C73
:1022B000C701B601A50194010E94834F2B013C0187
:1022C000862F805D89831A82BE016F5F7F4F83EA0C
:1022D00098E00E94F625180F1F5F60E5611B9E01C4
:1022E0002F5F3F4F44E183EA98E00E947F26C701B9
:1022F000B6016419750986099709A50194010E9420
:10230000834F69017A01211531054105510581F697
:1023100082E028163104F8F0BE016F5F7F4FC101E3
:102320000E94A40FBE016F5F7F4F83EA98E00E9476
:10233000F62560E5681B9E012F5F3F4F40E283EA70
:1023400098E00E947F262CE234E040E263E083EADA
:1023500098E00E947F266BE374E08FE598E00E948E
:10236000E81643EA57E06AE572E08FE598E00E94DC
:102370001E1783EA98E00E94002C81E0013019F0DA
:10238000033009F080E028960FB6F894DEBF0FBE48
:10239000CDBFDF91CF911F910F91FF90EF90DF9014
:1023A000CF90BF90AF909F908F907F906F905F90F5
:1023B0004F903F902F900895EF92FF920F931F93AD
:1023C000CF93DF9300D000D000D0CDB7DEB7E82E9A
:1023D00083EA98E00E94CC2B0E94FA0E8C01BC018B
:1023E00083EA98E00E94F62530E5F32E6F2D681BF6
:1023F000980148E083EA98E00E947F2627E434E0D1
:1024000048E063E083EA98E00E947F260E94AC15D2
:10241000BE016F5F7F4F90E00E94A40FBE016F5F0F
:102420007F4F83EA98E00E94F6256F2D681B9E017E
:102430002F5F3F4F4EE083EA98E00E947F262CE416
:1024400034E04EE063E083EA98E00E947F260E9439
:102450000415BE016F5F7F4F0E94A40FBE016F5F26
:102460007F4F83EA98E00E94F6256F2D681B9E013E
:102470002F5F3F4F44E183EA98E00E947F262BEADA
:1024800033E044E163E083EA98E00E947F26BE01E6
:102490006F5F7F4F80914F08909150080E94A40F6A
:1024A000BE016F5F7F4F83EA98E00E94F6256F2D93
:1024B000681B9E012F5F3F4F4AE183EA98E00E942C
:1024C0007F2625E534E04AE163E083EA98E00E9454
:1024D0007F26BE016F5F7F4F809153089091540813
:1024E0000E94A40FBE016F5F7F4F83EA98E00E94B5
:1024F000F6256F2D681B9E012F5F3F4F40E283EA58
:1025000098E00E947F262EE534E040E263E083EA13
:1025100098E00E947F2668E674E08FE598E00E94CC
:10252000E81643EA57E06AE572E08FE598E00E941A
:102530001E1783EA98E00E94002CE0E2FEE4319747
:10254000F1F781E0E81629F093E0E91619F080E050
:1025500001C081E026960FB6F894DEBF0FBECDBF56
:10256000DF91CF911F910F91FF90EF900895662317
:1025700019F0823019F480E00C94DE0B81E00895AC
:102580001F920F920FB60F9211240BB60F921BBE23
:102590002F933F934F935F936F937F938F939F936B
:1025A000AF93BF93EF93FF938BE498E00E940314E3
:1025B00089E398E00E942713FF91EF91BF91AF91BB
:1025C0009F918F917F916F915F914F913F912F914B
:1025D0000F900BBE0F900FBE0F901F901895CF93CA
:1025E000DF93DC0120E030E041E050E01D92FC018F
:1025F000E20FF31F16821486F901ED53F34FE491B5
:10260000223078F47DB1EA0102C0CC0FDD1FEA95DB
:10261000E2F76C2F609567236DB96EB16C2B6EB9C4
:102620000EC07AB1EA0102C0CC0FDD1FEA95E2F7D5
:102630006C2F609567236AB96BB16C2B6BB92F5FF8
:102640003F4F2630310591F6DF91CF910895DF920B
:10265000EF92FF920F931F93CF93DF937C018C0136
:10266000C0E0D0E0DD24D394FE01ED53F34FE491BC
:10267000C23010F48CB101C089B190E002C09595D0
:102680008795EA95E2F780958170D801A9F08C9141
:102690008F30F0F48F5FF80180838B30C8F0F70142
:1026A000EC0FFD1F8681811113C0D486D6828BE486
:1026B00098E00E9448140CC08C91882349F0F701DF
:1026C000EC0FFD1F148681508C93833008F4168222
:1026D00021960F5F1F4FC630D10531F6DF91CF91A4
:1026E0001F910F91FF90EF90DF900895FC0186E01D
:1026F0001192158213868150D9F70895CF93DF93F5
:10270000EC018BE498E00E94D514882319F0CE01E7
:102710000E94761320E030E0822FFE01E20FF31FCB
:102720009485992311F08F5F06C02F5F3F4F2630AD
:10273000310591F780E0DF91CF910895CF93DF933A
:10274000EC018BE498E00E94D514882319F0CE01A7
:102750000E94761320E030E0822FFE01E20FF31F8B
:102760009485992319F014868F5F06C02F5F3F4F21
:102770002630310589F780E0DF91CF9108950F93DE
:102780001F93CF93DF931F92CDB7DEB78C0101C0AB
:10279000A895C80169830E949E1369818613F8CFAA
:1027A000862F0F90DF91CF911F910F91089508957B
:1027B000FC0192E09093B000A1EBB0E01C928C91F0
:1027C00084608C938AE78093B3001092B600909354
:1027D0007000128A81E08287108211821282138235
:1027E00014821582168217821186108678940895B5
:1027F0001092B0001092B1001092B3001092B60087
:10280000109270000895FC01808591850196918752
:10281000808740815181628173814F5F5F4F6F4F2D
:102820007F4F4083518362837383883E9340E8F0F7
:102830001186108644815581668177814F5F5F4F95
:102840006F4F7F4F44835583668377838685978553
:1028500001969787868784859585019695878487D5
:10286000808991890196918B808B0895FC0110825B
:1028700011821282138214821582168217821186A7
:1028800010860895FC01108211821282138208952D
:10289000CF93DF93EC011F861E861D861C866B89F5
:1028A000662329F083EA98E00E946D2C1B8ADF9151
:1028B000CF910895CF93DF93EC018A85811103C0F6
:1028C0001F861E8606C08B85811103C0CE010E9423
:1028D00048148A858B87882399F080914B0B2AE0D6
:1028E000829FC00111242E853F852817390740F0AB
:1028F0000E945015CE010E94481481E08A8B18C0B6
:102900008B89811115C080914A0B2AE0829FC001FA
:1029100011242C853D852817390750F083EA98E06B
:102920000E94BE2C8B8B60E083EA98E00E946D2CA5
:102930000E94F914882381F080914C0B2AE0829F39
:10294000C0011124288939892817390738F080E017
:10295000DF91CF910C94F014198A188ADF91CF91EE
:102960000895FC01608171818281938108950F93A4
:102970001F93FC012481358146815781A8EEB3E085
:102980000E94404F8B019C0180859185080F191F83
:10299000211D311DB801C9011F910F910895FC013E
:1029A00064817581868197810895FC018289128AEC
:1029B000089583EA98E00E947B2C83EA98E00C94C7
:1029C000002C3B9A43980B9A1398269A2E9A279A92
:1029D0002F9A6B98739A6F9A849A8C987798089527
:1029E000269A882319F02E9881E008952E9A80E087
:1029F0000895269B07C085B186FB882780F991E062
:102A00008927089580E00895CF93DF9300D0CDB754
:102A1000DEB78091C10B9091C20B9E012F5F3F4F9B
:102A2000009719F42B5C3B4002C0281B390B3A83FA
:102A3000298389819A810F900F90DF91CF9108951A
:102A40000F98179AE0E2FEE4CF010197F1F780B109
:102A500017983197F1F7079905C08095881F882747
:102A6000881F089582E00895CF938FE598E00E9433
:102A7000A81BC1E089E398E00E949E13813029F4ED
:102A80008FE598E0CF910C94AE1C0E94201588230E
:102A9000B9F3A8956C2F80E00E940B0FC0E0EACF3D
:102AA0000E942015811108C08091E0008160809310
:102AB000E000F894439AFFCF0C94341595EA909374
:102AC0007A008F3010F0885013C040B321E030E01E
:102AD000082E01C0220F0A94EAF7922F90959423B2
:102AE00090BB90917E00922B90937E00883058F797
:102AF000806480937C0080917A00806480937A0067
:102B000044E660E070E0CB0120917A0024FFFCCF26
:102B100020917A00206120937A00209178003091F2
:102B20007900620F731F811D911D415069F710924A
:102B30007A0024E630E040E050E00E94834FC90173
:102B40000895819A899880E29EE40197F1F782E0E6
:102B50000E945E15819808951F93CF93DF9300D054
:102B600000D000D0CDB7DEB70E94A1159E838D8323
:102B70000E942015182F42E050E0811145C063E00B
:102B800070E0CE0101960E946D522D813E818981B7
:102B90009A812817390740F442E050E063E070E082
:102BA000CE0105960E94855242E050E061E070E05F
:102BB000CE0103960E946D528B819C81019611F487
:102BC0001C821B822D813E818B819C818217930701
:102BD00040F442E050E061E070E0CE0105960E94D2
:102BE000855249815A812D813E81241B350B64E633
:102BF000629FC001639F900D11246B817C81641BD7
:102C0000750B0E945B4F4AC067E070E0CE010196F1
:102C10000E946D524D815E8129813A81421753078E
:102C200040F442E050E063E070E0CE0105960E947F
:102C3000855242E050E065E070E0CE0103960E94CC
:102C40006D524D815E812B813C812417350740F404
:102C500042E050E061E070E0CE0105960E948552AE
:102C600049815A812D813E81241B350B64E6629F88
:102C7000C001639F900D11246B817C81641B750BD7
:102C80000E945B4F113031F46436710538F063E611
:102C900070E004C0123011F464E670E0862F2696CE
:102CA0000FB6F894DEBF0FBECDBFDF91CF911F915D
:102CB00008950F931F93CF93DF93D82F80E00E9446
:102CC000F01483EA98E00E94BE2CC82F60E083EAEB
:102CD00098E00E946D2CCC2351F024EF31E048ECB9
:102CE00050E0FA013197F1F721503109D1F791B154
:102CF000987F91B992B1987F92B991B18D2FD330CD
:102D000008F082E021E030E001C0220F8A95EAF766
:102D1000892F822B81B982B1D22FD0958D2382B990
:102D200044EF51E0A8ECB0E0FD013197F1F74150DC
:102D30005109D1F780E00E945E158C0131B13D232D
:102D400031B983EA98E00E94BE2C8C1728F46C2FCE
:102D500083EA98E00E946D2CC801DF91CF911F910A
:102D60000F910895CF93DF93EC0180E00E945916F4
:102D70009983888381E00E9459169B838A8382E02D
:102D80000E9459169D838C83DF91CF910895E0EEC8
:102D9000F0E08081816080830E94923C83EA98E029
:102DA0000E94512C8BE498E00E94F813F89488E17B
:102DB0000FB6F89480936000109260000FBEE0E0C0
:102DC000F0EF0995FC01168A178A108E118E08956E
:102DD000EF92FF920F931F93CF93DF93EC017B0150
:102DE000888199810E94F625182F169505E023E524
:102DF00040E060E0888199810E94A82803E023E5F3
:102E000041E060E0888199810E948028212F265D21
:102E100068E2611B05E040E0888199810E94A82852
:102E200069E2611B970140E088819981DF91CF9130
:102E30001F910F91FF90EF900C947F26CF92DF921D
:102E4000EF92FF920F93CF93DF93EC016B017A0126
:102E50000FE223E549E260E0888199810E94A82879
:102E600096014AE262E0888199810E947F26B7013B
:102E7000888199810E94F62563E5681B97014AE2E3
:102E8000888199810E947F2623E549E260E088815C
:102E900099810E948028DF91CF910F91FF90EF9050
:102EA000DF90CF9008959B0190E080E0F901729649
:102EB00065917491FB01309719F05081552319F0F9
:102EC000491731F09F5F8F5F2C5E3F4F843171F760
:102ED00008959B0180E090E0F901729665917491EC
:102EE000FB01941751F0309711F0508151118F5F11
:102EF0009F5F2C5E3F4F943179F70895CF93DF9316
:102F0000EB01FC012389222369F130E021503109D2
:102F1000F901EE0FFF1FE20FF31FE80FF91F848185
:102F200025813681F4E18F9F200D311D1124DB01B5
:102F300080E090E0F901E80FF91FE491ED9301962C
:102F40008C309105B9F78BE090E0FE01E80FF91F96
:102F50002081203211F011820AC001978130910541
:102F6000A1F705C069EC7CE0CE010E94A94FCE011B
:102F7000DF91CF910895DF92EF92FF920F931F930D
:102F8000CF93DF93EC01162FF42EE22ED02E6E8914
:102F90004F89288D098D842F862B822B802B21F041
:102FA000888199810E9480281E8BFF8AE88ED98EA5
:102FB0000D2D2E2D4F2D612F888199810E94802803
:102FC000DF91CF911F910F91FF90EF90DF900895C7
:102FD0000F93CF93DF93EC016E894F89288D098D74
:102FE000842F862B822B802B21F0888199810E944F
:102FF00080281E8A1F8A188E198EDF91CF910F911B
:1030000008950F931F93CF93DF93EC01162F8A8DB2
:10301000681730F0CE010E94E8178FEF8C8B0FC03D
:1030200049E0649F402D11248D89481B042F015FC6
:10303000495F21E561E0CE010E94BB171C8BDF9147
:10304000CF911F910F910895EF92FF920F931F93CD
:10305000CF93DF931F92CDB7DEB77C01162F372FAA
:10306000442309F452C0A62FB72FFD010190002080
:10307000E9F73197EA1BFB0B26E02E9FC0012F9F3B
:10308000900D112496958795AC0160E070E0409317
:10309000250B5093260B6093270B7093280B282F3A
:1030A000255D67E2681B08E14CE0F70180819181B2
:1030B00039830E94A8289091250B292F265D68E26C
:1030C000691B07E14DE0F701808191810E94512841
:1030D00069E29091250B691B212F39814FE0F7019F
:1030E000808191810E942C27F701808191810E942B
:1030F000002C8BE498E00E94B7146093250B70932A
:10310000260B8093270B9093280B8BE498E00E946A
:10311000B7140091250B1091260B2091270B3091AD
:10312000280B601B710B820B930B643F7140810570
:10313000910530F4F701828193810E949E138111E1
:1031400081E00F90DF91CF911F910F91FF90EF9051
:1031500008957F928F929F92AF92BF92CF92DF920B
:10316000EF92FF920F931F93CF93DF93EC01F62E14
:103170005A014901702E1092190BCC2009F430C16C
:10318000FA01C080D180888199810E94CC2B05E012
:1031900023E542E060E0888199810E9480280EE169
:1031A00021E046E060E0888199810E94802823E543
:1031B00046E062E5888199810E948028A72DB12F81
:1031C000FD0101900020E9F73197EA1BFB0BE0932A
:1031D0001A0B6AEF6E9F602D1124605B272D312F33
:1031E00040E2888199810E942C27F40101900020FF
:1031F000E9F73197E819F909E0931A0B26E0E29F05
:10320000F0011124F595E7958AE28E1B80931B0B44
:1032100007E223E54FE160E0888199810E948028E0
:103220004EE854E064E272E0CE010E941E17609105
:103230001B0B90911A0B292F220F290F220F260FFB
:1032400005E042E0888199810E948028940140E055
:1032500060911B0B888199810E942C2780E0E82FC8
:10326000F0E0E35EF44F10828F5F8530C0F346E4F8
:10327000E41621F054E5E5128AC043C0E8E5F2E027
:10328000C601BF010E945B4F8C01C81AD90A2AE00F
:1032900030E0B9010E946F4F80931D0BA801481BBD
:1032A000590BCA01B9010E946F4F8B01CB01B901C3
:1032B0000E946F4F80931E0BA801481B590BCA0137
:1032C000B9010E946F4F60931F0BC601BF010E949E
:1032D0005B4FCB01BF010E945B4FFC01B9010E9413
:1032E0006F4F8093200BAF01481B590BCA01B901E6
:1032F0000E946F4F6093220B7093230B6093210BFE
:103300006AC0ECE3F0E0C601BF010E945B4F8C0194
:10331000C601801B910BBF010E945B4F6B012AE02D
:1033200030E0C801B9010E946F4F80931D0BA801C6
:10333000481B590BCA01B9010E946F4F60931E0BC5
:10334000C601BF010E945B4F8C01C81AD90AB9019E
:103350000E946F4F80931F0BA801481B590BCA0195
:10336000B9010E946F4F6093200BC601BF010E94FC
:103370005B4FCB01BF010E945B4F9093230B809367
:10338000220BB9010E946F4F8093210B24C09090B3
:10339000220B4091230BE0E00AE010E013C0C601CD
:1033A000B8010E945B4F9C01982E432FC601821BDF
:1033B000930BB8010E945B4F6B01F0E0E35EF44FAA
:1033C0002083E82D8E2E8394C114D10441F790926E
:1033D000220B4093230B85E080931A0B10921C0B59
:1033E0008F2D8150823008F4FDC00EE121E548E0C8
:1033F00063E0888199810E94A82810921B0B10EF2E
:1034000012C0E62FF0E0E35EF44F2081205D619F63
:10341000602D11246C5B45E00E94512780911B0BAD
:103420008F5F80931B0B60911B0B20911A0B88817F
:103430009981621730F356E4E51621F0E4E5EE12C7
:1034400032C013C00EE022E24CE061E20E9451283B
:1034500006E122E244E161E2888199810E945128DB
:103460000AE122E448E161E41AC00EE022E34CE004
:1034700061E30E94512806E122E344E161E388818F
:1034800099810E9451280EE022E14CE061E188819F
:1034900099810E94512806E122E144E161E188819D
:1034A00099810E94512880911C0B25E030E0281B57
:1034B00031092295207F60EF869F602D11246D5B7E
:1034C0000CE148E0888199810E94802880911C0B42
:1034D000F6E4EF1621F024E5E21207C003C08230C3
:1034E00031F003C080FF08C002C0843011F485E0D1
:1034F00001C089E08093240B888199810E94002C6F
:10350000FF2009F4FBC044E0F41671F04F1520F0E1
:1035100053E0F512F3C025C085E0F81609F453C056
:1035200096E0F912EBC042C080911C0B25E030E020
:10353000281B31092295207F60EF869F602D112482
:103540006D5B0CE148E0888199810E948028809120
:103550001C0B811102C080911A0B815080931C0BAF
:10356000CDC080911C0B25E030E0281B310922954D
:10357000207F60EF869F602D11246D5B0CE148E099
:10358000888199810E94802840911C0B242F30E073
:1035900080911A0B90E001972817390724F44F5FA8
:1035A00040931C0BABC010921C0BA8C0E0911C0BED
:1035B000F0E0E35EF44F8081882311F081500EC06B
:1035C0008091240B0BC0E0911C0BF0E0E35EF44F04
:1035D00080819091240B891718F48F5F80838EC0AF
:1035E00010828CC06091210B50911E0BE6E4EE1608
:1035F00031F08091200BF4E5EF1246C023C080919A
:103600001F0B2AE0529F8001112444E6849F000D85
:10361000111D112480911D0B080F111D8091200B8D
:1036200090E05AE0659F800D911D112448E552E01D
:10363000849F9001859F300D949F300D1124020FBF
:10364000131F42C000911D0B10E09AE0599F000D1E
:10365000111D112440E15EE0649F9001659F300DD3
:103660001124020F131F20911F0B30E0EAE08E9F00
:10367000200D311D11244CE3429FC001439F900D4A
:103680001124080F191F20C04AE090E0FAE06F9F54
:10369000800D911D1124489F9001499F300D1124E8
:1036A00080911F0B280F311D429FC001439F900D39
:1036B0001124850F911D489F8001499F100D1124F1
:1036C00080911D0B080F111D22E0F21214C041E081
:1036D00069E172E0CE010E94241888E893E128ECA9
:1036E00030E0F9013197F1F70197D9F7F50111832E
:1036F000008382E001C081E08093190B8091190B57
:10370000DF91CF911F910F91FF90EF90DF90CF90BD
:10371000BF90AF909F908F907F900895CF93DF934D
:10372000FC012389253088F42F5F238B30E0215062
:103730003109E901CC0FDD1FC20FD31FC80FD91FFC
:103740007E836D830E9453178C83DF91CF91089500
:10375000FC01638D748D44890C948E1BEF92FF9253
:103760000F931F93CF93DF93EC014C898A8D4817F9
:1037700008F0AFC00B8D1C8DB801CE010E9453170D
:1037800094E1899F70011124B8016E0D7F1DFB012A
:103790003D9624912E8F2D3469F030F4253429F193
:1037A000263409F096C018C02035F9F0233509F009
:1037B00090C063C0CE010E94A81BEB8DFC8DEE0D66
:1037C000FF1D3E96859194918B8F9C8F60E0CE017A
:1037D0000E94011881E07CC0625F7F4FFB018591F0
:1037E00094918DA39EA384E073C080E090E0382F75
:1037F000FB01E80FF91FE491DE01A80FB91F9B96AA
:10380000EC93E03229F001968A30910581F73AE095
:10381000DE01A30FB11D9B961C92FB017096859152
:103820009491009791F0FC0130E0CE018E1B9F0B2C
:103830004491DC01AE0FBF1FD6964C93442331F068
:103840003F5F31963D30A1F701C030E0DE01A30FAC
:10385000B11DD6961C92203511F483E001C082E0A0
:103860008D8FFB013B96E491EE8F625F7F4FFB01F2
:10387000859194918F8F98A32CC080E090E0282FA1
:10388000FB01E80FF91FE491DE01A80FB91F9B9619
:10389000EC93E03229F001968B30910581F72BE013
:1038A000FE01E20FF11D13A6FB0172968591949122
:1038B0008FA398A7FB0170968591949189A39AA3F1
:1038C000625F7F4FFB01859194918BA39CA385E060
:1038D0008D8FDF91CF911F910F91FF90EF90089501
:1038E000FC018389882389F08150838B90E0DC017F
:1038F000AA0FBB1FA80FB91FAE0FBF1FFD01349643
:1039000014966C917181828108956481758186819C
:103910000895FC01558944894330A8F0242F30E0F4
:10392000828D90E001972817390731F489E0489F8C
:10393000402D1124475105C089E0489F402D112496
:103940004251458B01C0158A8589811105C081E0EE
:10395000511103C080E0089581E008950F931F93F3
:10396000CF93DF93EC018B89882381F0CE010E94F5
:10397000701C462F072F182FB801CE010E9469171F
:103980008C8B0B8F1C8FCE010E94891C81E08D8F48
:10399000DF91CF911F910F9108955F926F927F9267
:1039A0008F929F92AF92BF92CF92DF92EF92FF924F
:1039B0000F931F93CF93DF93CDB7DEB7A4970FB6C6
:1039C000F894DEBF0FBECDBF6C01DC015C967C932A
:1039D0006E935B970E94E817F601808191810E94A7
:1039E000CC2BC6010E94891CD6015D961C925D9766
:1039F0005A961C92A12CB12C512C712C6CE0862E65
:103A0000912C79E0672EF601438D548D9A012A0D91
:103A10003B1DF901729665917491DB01109721F0BD
:103A20008C91882309F4BFC0F9013D96A491F60159
:103A3000A68F4A0D5B1DFA013B961491A53411F037
:103A4000A03529F5225F3F4FF90185919491BC0182
:103A5000A03549F442E050E0CE0182960E946D52BA
:103A6000BE016E5D7F4FDB012D913C91F601428DD1
:103A7000469D402D11248589481B485F52E5E52E5F
:103A8000012F60E5808191810E94D028582ED601B7
:103A90005E968C915E97833509F053C01A3209F017
:103AA00050C05B962D913C915C972A0D3B1DF9010E
:103AB0003E9605911491205F3F4FF9012591349175
:103AC000D901F60130A3278F9801205C3E4FF80101
:103AD0008491803341F4D6015A968C915A978F5F26
:103AE0005A968C9360C0F8013D96E491F0E08D9178
:103AF0009C911197E817F907E9F432E0E12CF12CD9
:103B0000F801EE0DFF1D2491F601428D469D402DDA
:103B100011248589481B485F632F808191813CA3D4
:103B20000E949B26FFEFEF1AFF0A3CA13A5F3A344E
:103B300039F7D1CF005F1F4F0217130709F0C7CF26
:103B4000CACF32E000E010E07401E518F108D601B8
:103B50005E968C91853411F0803519F40E151F0591
:103B6000E4F4D6015B96ED91FC915C97EA0DFB1DA8
:103B7000E00FF11F24915A964C915A97469D402D83
:103B8000112455968C915597481B485F632F8D9152
:103B90009C913CA30E949B263CA10F5F1F4F3A5F64
:103BA0003A34A9F698CFB4E1AB0EB11CD6015B96BE
:103BB000ED91FC915C97EA0DFB1DE491EE2349F039
:103BC0007394B0E9AB16B1E0BB0609F01CCF34E149
:103BD000732E7394F6016489C6010E940118F4E102
:103BE0007F9E80011124D6015B966D917C915C973C
:103BF000600F711F6F5F7F4FFB018491803229F04E
:103C0000CE0101960E94A94F06C0BE016F5F7F4F93
:103C1000C6010E947E17BE016F5F7F4FC6010E94E2
:103C2000E816D6015B968D919C915C97800F911F51
:103C3000FC013D9624919A961C921E9299972234EB
:103C400019F0263409F034C04096FC018591949116
:103C5000BC01CE0148962CA30E94A94FD6015B96C9
:103C6000ED91FC915C97E00FF11F72968591949114
:103C7000BC01CE010E960E94A94FAE01425F5F4F7C
:103C8000BE01685E7F4FC6010E941E172CA126341C
:103C900079F4D6015B96ED91FC915C97E00FF11FF2
:103CA0003E968591949199968C9399979A969C9328
:103CB000A4960FB6F894DEBF0FBECDBFDF91CF91B3
:103CC0001F910F91FF90EF90DF90CF90BF90AF903A
:103CD0009F908F907F906F905F900895CF93DF9328
:103CE000EC016C89662319F061500E940118CE0125
:103CF0000E94891C882329F06B8D7C8DCE010E9447
:103D0000CD1C88819981DF91CF910C94002CCF93A9
:103D1000DF93EC016C89262F30E08A8D90E00197CB
:103D20002817390724F46F5FCE010E940118CE01D5
:103D30000E94891C882329F06B8D7C8DCE010E9406
:103D4000CD1C88819981DF91CF910C94002C6F92CA
:103D50007F929F92AF92BF92CF92DF92EF92FF92AB
:103D60000F931F93CF93DF931F92CDB7DEB73C0124
:103D7000F62E5A016901E11008C025E0F21609F497
:103D80009BC086E0F81227C19FC0DC018D919C91F9
:103D90000E94CC2BB801C3010E94E8164EE854E003
:103DA00064E272E0C3010E941E1708E127E44CE0C0
:103DB00062E0F301808191810E94512809E128E4A9
:103DC0004BE061E0D3018D919C910E94512801E16B
:103DD00022E541E16AE4F301808191810E9401289A
:103DE00000E122E540E16AE4D3018D919C910E94BB
:103DF00001280FE021E54FE06BE4F3018081918120
:103E00000E9401280EE020E54EE06CE4D3018D9184
:103E10009C910E9401280DE02FE44DE06DE4F30138
:103E2000808191810E94012803E122E543E16AE457
:103E3000D3018D919C910E94012804E122E544E187
:103E40006AE4F301808191810E94012805E121E566
:103E500045E16BE4D3018D919C910E94012806E11C
:103E600020E546E16CE4F301808191810E94012804
:103E700007E12FE447E16DE4D3018D919C910E940D
:103E800001281092290B90E080E008C03D96E49153
:103E9000D5012C912E1301C0982F8F5FF601B0E150
:103EA0008B9FE00DF11D112424912111EFCF9093F0
:103EB000290B80932A0B61CF8091290B882391F0E5
:103EC00081508093290B0EC04091290B242F30E0A4
:103ED00080912A0B90E00197281739071CF44F5F57
:103EE0004093290B07E125E44DE063E0F301808175
:103EF00091810E94A82834E000E010E08091290B15
:103F0000F60120E1829FE00DF11D1124E00FF11F69
:103F100024914FE0632FD3018D919C9139830E94AE
:103F20009B260F5F1F4F39813A5F363439F703E222
:103F300023E54EE160E0F301808191810E94A82891
:103F40008091290BF60120E1829FE00DF11D1124E3
:103F50003E96859194918C01912CE12C07C0692D9E
:103F60006E0D4EE10E941626980EE394F801EE0DB8
:103F7000F11D2491D3018D919C912111F0CF0E94CC
:103F8000002CB2E0FB1641F0E3E0FE1619F0F1E080
:103F9000FF121FC081E022C08091290B20E1829F87
:103FA000C00CD11C1124F6013D96E491D501EC938F
:103FB00041E069E172E0C3010E94241888E893E1BE
:103FC00028EC30E0F9013197F1F70197D9F782E059
:103FD00005C080E003C0E11085CFD3CF0F90DF9103
:103FE000CF911F910F91FF90EF90DF90CF90BF90F6
:103FF000AF909F907F906F900895AF92BF92CF92B5
:10400000EF92FF920F931F93CF93DF9300D0CDB722
:10401000DEB75C01DC0112968D919C9113970E9492
:104020009E13F82EF501858D81110DC08F2D8150C5
:10403000823048F421A532A52115310521F036A39F
:1040400025A384E0858FD5015D968C91833009F49A
:1040500076C020F4813059F1D0F509C0853009F4DB
:104060004AC008F4B3C0863009F0C0C030C0B4E024
:10407000FB16A9F0BF1520F0E3E0FE12B7C013C095
:10408000F5E0FF1621F086E0F812B0C004C0C501CB
:104090000E946E1EABC0C5010E94871EA7C0C5014D
:1040A0000E94AE1BA3C0C5010E94AE1C9FC080939E
:1040B0001E01D5015B966D917C915C97C5010E94B4
:1040C000CD1CF501808191810E94002C8FC085015B
:1040D0000A5C1F4F9501255D3F4FD5015F964D91BD
:1040E0005C919097C0901E015E96EC906F2DC5017B
:1040F0000E94A91874C08501055D1F4FD5019396D4
:104100002D913C91949791964D915C919297E0906E
:104110001E016F2DC5010E94A71E10921E0188234B
:1041200009F464C0823009F05EC0D5019796ED9124
:10413000FC919897309709F456C0099554C0809126
:104140001E01882359F0D5015F966D917C9190975F
:1041500042E050E087E19BE00E946D5285010A5CDD
:104160001F4F9501255D3F4FC0901E01F501E68C64
:1041700047E15BE06F2DC5010E94A91810921E0156
:104180008823A1F18230E9F4D5015F966D917C918D
:10419000909742E050E0CE0101960E946D52298135
:1041A0003A818091170B9091180B2817390749F025
:1041B000F501678D70A142E050E087E19BE00E942D
:1041C000855281E0D5015D968C9310C0D5019596FE
:1041D000ED91FC91969760911E018F2D099510929B
:1041E0001E01882319F081E0F501858FD5015D96C8
:1041F0008C918111F12C8F2D0F900F90DF91CF9129
:104200001F910F91FF90EF90CF90BF90AF900895C6
:104210008F929F92BF92CF92DF92EF92FF920F9375
:104220001F93CF93DF931F92CDB7DEB74C01162FAC
:104230007A016901B02E002311F1FC018081918186
:104240000E94CC2BB601C4010E94E8164EE854E04F
:1042500064E272E0C4010E941E1708E121E54CE00F
:1042600061E0F401808191810E94512809E122E5F9
:104270004BE060E0F401808191810E94512814306C
:1042800099F018F41330E1F505C0153039F1163006
:10429000B9F513C080912B0B882311F0815001C018
:1042A0008AE080932B0B2EC080912B0B8A3010F468
:1042B0008F5FF7CF10922B0B25C080912B0BF7014E
:1042C000E80FF11D80818B3510F080E480838081C0
:1042D000813410F0815012C08AE510C080912B0B00
:1042E000F701E80FF11D8081813410F48BE58083A4
:1042F00080818B3510F48F5F01C081E4808302C020
:10430000BB20B1F107E12FE44DE062E0F4018081D0
:1043100091810E94A828BE2C670133E0FC2CFB1879
:10432000F60121916F01822F81548A3108F020E239
:104330004FE0632FF4018081918139830E949B2695
:1043400080912B0B3981F8120BC0232F2A5F06E1D5
:104350004EE0632FF401808191810E948028398191
:10436000395F3035D9F6F401808191810E94002CAB
:104370001150123030F4E12FF0E0E95CFE4F808103
:1043800001C080E00F90DF91CF911F910F91FF90BE
:10439000EF90DF90CF90BF909F908F900895279AD5
:1043A0002F9A0895CB01F89469E170E00E945B4F69
:1043B00080E090E030E22F98232F2A95F1F72F9A92
:1043C000232F2A95F1F7019668177907A0F77894BB
:1043D0000895CB01F8946AE170E00E945B4F80E0A1
:1043E00090E032E22F98232F2A95F1F72F9A232F6E
:1043F0002A95F1F7019668177907A0F77894089540
:104400004F925F926F927F928F929F92AF92BF92E4
:10441000CF92DF92EF92FF920F931F93CF93DF9390
:10442000CDB7DEB7A1970FB6F894DEBF0FBECDBFF4
:104430008C01FC018081811120C0F89480E190E022
:1044400038E22F98232F2A95F1F72F9A232F2A95B8
:10445000F1F70197B1F784E499E30197F1F780E16F
:1044600090E038E22F98232F2A95F1F72F9A232FE7
:104470002A95F1F70197B1F77894F801808181309E
:1044800001F560ED77E0C8010E94D2218CE699ED3C
:104490000197F1F766E871E0C8010E94D22188E532
:1044A0009CE00197F1F76AE971E0C8010E94D2210E
:1044B00088EF9BE10197F1F760E971E0C8010E9484
:1044C000D221F8018081853031F0F801808184307B
:1044D00009F058C01DC068EC72E3C8010E94E921D0
:1044E00080E797E10197F1F7B7E0EB2EF12C80ED33
:1044F000C82E87E0D82E68EE73E0C8010E94E9213B
:10450000C6010197F1F7F1E0EF1AF108A1F7DDCF4D
:1045100080E2E9E3F1E0DE01119601900D928A95C7
:10452000E1F76CE073E2C8010E94D22180E492E2DC
:104530000197F1F760E772E0C8010E94D221EE24F2
:10454000E394F12CEC0EFD1E6E0181E2C80ED11C2D
:10455000F0E8AF2EFCE0BF2EA0ED8A2EA3E09A2E4D
:10456000F70181917F01811102C0C40101C0C50121
:104570000197F1F768E572E0C8010E94D221EC14BE
:10458000FD0471F7F80180818330C1F581E2E9E52E
:10459000F1E0DE01119601900D928A95E1F766EA4D
:1045A0007EE0C8010E94E92184EC9EE00197F1F7CA
:1045B000EE24E394F12CEC0EFD1E6E01F2E2CF0E20
:1045C000D11C6CE2A62E6BE0B62E7EEC872E73E03B
:1045D000972EF70181917F0168EC71E0811105C090
:1045E000C8010E94E921C40104C0C8010E94E92158
:1045F000C5010197F1F7EC14FD0459F7F80180812A
:10460000823009F03FC024E1EAE7F1E0CE010196F3
:10461000DC0101900D922A95E1F723E0C22ED12C06
:1046200034E1A32E35E0B32E582E492E3E01F5E19C
:104630006F0E711C40E2842E4EE4942E60E179E00E
:10464000C8010E94D221C5010197F1F7E52CF42C95
:10465000F70181917F01811103C06FE372E002C015
:1046600067E974E0C8010E94D221C5010197F1F702
:10467000E614F70469F7C4010197F1F7F1E0CF1AE6
:10468000D108E1F6A1960FB6F894DEBF0FBECDBFFC
:10469000DF91CF911F910F91FF90EF90DF90CF901E
:1046A000BF90AF909F908F907F906F905F904F9052
:1046B00008955F926F927F928F929F92AF92BF9276
:1046C000CF92DF92EF92FF920F931F93CF93DF93DE
:1046D000CDB7DEB7A1970FB6F894DEBF0FBECDBF42
:1046E0008C01FC018081811120C0F89480E190E070
:1046F00038E22F98232F2A95F1F72F9A232F2A9506
:10470000F1F70197B1F780EE99E20197F1F780E1B7
:1047100090E038E22F98232F2A95F1F72F9A232F34
:104720002A95F1F70197B1F77894F80180818330E9
:10473000C1F581E2EEE8F1E0DE01119601900D9203
:104740008A95E1F766EA7EE0C8010E94E92184ECDF
:104750009EE00197F1F7EE24E394F12CEC0EFD1EA0
:104760006E01F2E2CF0ED11C6CE2A62E6BE0B62EEB
:104770007EEC872E73E0972EF70181917F0168EC24
:1047800071E0811105C0C8010E94E921C40104C083
:10479000C8010E94E921C5010197F1F7EC14FD045D
:1047A00059F7F8018081823009F03CC024E1EFEA3A
:1047B000F1E0CE010196DC0101900D922A95E1F71E
:1047C00023E0722E34E1C32E35E0D32E682E592E0D
:1047D0004E01F5E18F0E911C40E2A42E4EE4B42E62
:1047E00060E179E0C8010E94D221C6010197F1F78A
:1047F000E62CF52CF70181917F01811103C06FE355
:1048000072E002C067E974E0C8010E94D221C601CB
:104810000197F1F7E814F90469F7C5010197F1F779
:104820007A94F1F6A1960FB6F894DEBF0FBECDBF15
:10483000DF91CF911F910F91FF90EF90DF90CF907C
:10484000BF90AF909F908F907F906F905F900895F2
:104850006F927F928F929F92AF92BF92CF92DF9290
:10486000EF92FF920F931F93CF93DF93CDB7DEB7F5
:10487000A0970FB6F894DEBF0FBECDBF8C013B01F1
:10488000FC018081843009F07BC080E2E3ECF1E040
:10489000DE01119601900D928A95E1F768E273E2CC
:1048A000C8010E94D22188E293E20197F1F764EFF8
:1048B00071E0C8010E94D221EE24E394F12CEC0EA9
:1048C000FD1E6E01F1E2CF0ED11CB8EBAB2EBBE0AA
:1048D000BB2E88EE882E83E0982EF70181917F0110
:1048E000811102C0C40101C0C5010197F1F764EF55
:1048F00071E0C8010E94D221EC14FD0471F780E937
:1049000091E028EC30E0F9013197F1F70197D9F700
:1049100093012536310510F024E630E044E3429F50
:10492000C001439F900D112464E670E00E945B4F2C
:104930007B01FFEFEF1AFF0A99249394E0EACE2E51
:10494000EFE0DE2EF8ECAF2EB12C15C068E273E27A
:10495000C8010E94D221C6010197F1F764EF71E00E
:10496000C8010E94D22180EC93E0F5013197F1F764
:104970000197D9F79394892D90E08E159F0530F318
:10498000A0960FB6F894DEBF0FBECDBFDF91CF91DA
:104990001F910F91FF90EF90DF90CF90BF90AF905D
:1049A0009F908F907F906F9008956F927F928F92DB
:1049B0009F92AF92BF92CF92DF92EF92FF920F93AE
:1049C0001F93CF93DF93CDB7DEB7A0970FB6F894C0
:1049D000DEBF0FBECDBF8C013B01FC018081843066
:1049E00009F07BC080E2E3EEF1E0DE011196019078
:1049F0000D928A95E1F768E273E2C8010E94D22124
:104A000088E293E20197F1F764EF71E0C8010E9438
:104A1000D221EE24E394F12CEC0EFD1E6E01F1E2A6
:104A2000CF0ED11C48EBA42E4BE0B42E58EE852EB1
:104A300053E0952EF70181917F01811102C0C401DD
:104A400001C0C5010197F1F764EF71E0C8010E9450
:104A5000D221EC14FD0471F780E991E028EC30E0FC
:104A6000F9013197F1F70197D9F79301253631050F
:104A700010F024E630E046E4429FC001439F900DD1
:104A8000112464E670E00E945B4F7B01FFEFEF1A98
:104A9000FF0A9924939490EAC92E9FE0D92E28EC1E
:104AA000A22EB12C15C068E273E2C8010E94D22187
:104AB000C6010197F1F764EF71E0C8010E94D221AD
:104AC00080EC93E0F5013197F1F70197D9F79394D2
:104AD000892D90E08E159F0530F3A0960FB6F894BF
:104AE000DEBF0FBECDBFDF91CF911F910F91FF9021
:104AF000EF90DF90CF90BF90AF909F908F907F907E
:104B00006F9008958D982D98089508956435D8F480
:104B10004033C8F4E42FF0E023E0F595E7952A95BB
:104B2000E1F726E0629FE00DF11D1124E80FF91F67
:104B3000477081E090E0042E01C0880F0A94EAF7E4
:104B40009081982B908308956435E0F44033D0F43D
:104B5000E42FF0E033E0F595E7953A95E1F726E0AC
:104B6000629FE00DF11D1124E80FF91F477081E0ED
:104B700090E0042E01C0880F0A94EAF78095908196
:104B8000892380830895E42FF0E053E0F595E795BD
:104B90005A95E1F726E0629FE00DF11D1124E80F20
:104BA000F91F808190E0477002C0959587954A95DE
:104BB000E2F7817008950F931F93CF93DF93EC0179
:104BC000162F042F0E94C325402F612F882339F010
:104BD000CE01DF91CF911F910F910C94A425CE01AE
:104BE000DF91CF911F910F910C948625DB0180E01E
:104BF00019C0E03211F48E5F15C0EE3299F09E2F8D
:104C000090539A3010F48D5F0DC0EB3508F0E052F0
:104C1000E15496E0E99FF0011124ED52F34FE49145
:104C20008E0F8F5FED91E111E4CF08956F927F9227
:104C30008F929F92AF92BF92CF92DF92EF92FF92AC
:104C40000F931F93CF93DF936C01862E742E203227
:104C500009F443C02E3209F442C0822F80538A30B7
:104C600010F4265106C02B3508F0205221542B3564
:104C7000B0F586E0289F90011124F901ED52F34F21
:104C8000949000E010E064EDA62E6CE0B62EA20E2B
:104C9000B31E1EC0F501E00FF11FE490C0E0D0E0AC
:104CA000F12C682E680C97010C2E02C035952795C3
:104CB0000A94E2F720FF06C04C2F470D662DC6016F
:104CC0000E9486252196C530D10569F70F5F1F4FD9
:104CD000802F0915F8F2892D03C082E001C080E021
:104CE000DF91CF911F910F91FF90EF90DF90CF90C8
:104CF000BF90AF909F908F907F906F900895EF92AC
:104D0000FF920F931F93CF93DF938C01F62EE42E27
:104D1000E90107C04E2D6F2DC8010E941626F80E1E
:104D2000F39429912111F6CFDF91CF911F910F912B
:104D3000FF90EF9008957F928F929F92AF92BF92D3
:104D4000CF92DF92EF92FF920F931F93CF93DF9357
:104D50005C01962E842E205286E0289F700111243B
:104D6000C0E0D0E08BEA9DE0E80EF91EF701EC0F01
:104D7000FD1FC49000E010E0D12C7C2E790CC60100
:104D8000002E02C0959587950A94E2F780FF06C031
:104D9000482D400F672DC5010E9486250F5F1F4FCC
:104DA0000830110561F72196C630D105F9F6DF917B
:104DB000CF911F910F91FF90EF90DF90CF90BF9018
:104DC000AF909F908F907F9008958F929F92AF9217
:104DD000CF92DF92EF92FF921F93CF93DF936C01FC
:104DE000162FA42EE9012A30310590F02436310522
:104DF00010F41A5F0DC0283E83E0380710F4145FEA
:104E000007C0203187E2380710F41E5E01C0185E2B
:104E10007AE0872E912CCE01B4010E945B4F7C0179
:104E2000282F205D4A2D612FC6010E949B26CE01AE
:104E30008E199F09B4010E945B4FEB011650209719
:104E400051F7DF91CF911F91FF90EF90DF90CF90BE
:104E5000AF909F908F900895CF92DF92FF920F9323
:104E60001F93CF93DF931F92CDB7DEB78C01562FE0
:104E7000F42E690108C04F2D652FC80159830E9487
:104E80009B2659815A5FF60121916F012111F3CFC1
:104E90000F90DF91CF911F910F91FF90DF90CF90F6
:104EA00008952F923F924F925F926F927F928F92CE
:104EB0009F92AF92BF92CF92DF92EF92FF920F93A9
:104EC0001F93CF93DF931F92CDB7DEB73C01562ED1
:104ED000342F2E3231F02B3231F02D3231F02F7051
:104EE00005C02AE003C02BE001C02CE083E0289F2E
:104EF00050011124E4E0AA0CBB1CEA95E1F7E12C77
:104F0000F12C2EC0F601E20DF31D849000E010E0BC
:104F1000912C422C450CC401002E02C0959587951A
:104F20000A94E2F780FF08C0432F400F642DC301AD
:104F300039830E94862539810F5F1F4F0830110584
:104F400051F79FEF291A390AE0E12E163104D1F604
:104F5000385FF0E1EF0EF11C80E3E816F10451F048
:104F60006701CA0CDB1C212C312CE3EDFFE0CE0ED7
:104F7000DF1EC8CF0F90DF91CF911F910F91FF904F
:104F8000EF90DF90CF90BF90AF909F908F907F90E9
:104F90006F905F904F903F902F900895CF92DF9247
:104FA000FF920F931F93CF93DF931F92CDB7DEB77E
:104FB0008C01562FF42E690108C04F2D652FC801B2
:104FC00059830E9451275981505FF60121916F0149
:104FD0002111F3CF0F90DF91CF911F910F91FF908F
:104FE000DF90CF900895222339F0213019F02F3F20
:104FF00039F404C00C9486250C94A4250C94DB256C
:105000000895AF92BF92CF92DF92EF92FF920F93EB
:105010001F93CF93DF93EC01F62EE42E122F161B75
:10502000041BBB24B394111101C0B12CCC24C39434
:10503000011101C0C12C4E2D6F2DCE010E9486257D
:10504000101798F0D12ED694A12C0CC0D00ED116EA
:1050500010F0D11AEC0CFB0C4E2D6F2DCE010E94DE
:105060008625A394A112F2CF11C0D02ED694A12CE4
:10507000D10ED01610F0D01AFB0CEC0C4E2D6F2D6B
:10508000CE010E948625A394A012F2CFDF91CF918A
:105090001F910F91FF90EF90DF90CF90BF90AF9056
:1050A0000895DF92EF92FF920F931F93CF93DF93B8
:1050B000EC01F62ED42EE22E102F042F0E94012890
:1050C000012F2E2D4D2D6E2DCE010E9401282F2D4A
:1050D0004D2D6F2DCE010E9401282E2D412F6F2DB9
:1050E000CE010E940128DF91CF911F910F91FF9077
:1050F000EF90DF90089581E0611101C080E0089594
:10510000CF92DF92EF92FF920F931F93CF93DF9393
:105110001F92CDB7DEB76C01E42EF62E0BC0412FE7
:105120006F2DC60129830E94DB251F5F298101178E
:10513000B0F7F3942F1510F01E2DF9CF0F90DF91DB
:10514000CF911F910F91FF90EF90DF90CF90089536
:10515000CF92DF92EF92FF920F931F93CF93DF9343
:105160001F92CDB7DEB76C01E42EF62E0BC0412F97
:105170006F2DC60129830E94A4251F5F2981011775
:10518000B0F7F3942F1510F01E2DF9CF0F90DF918B
:10519000CF911F910F91FF90EF90DF90CF900895E6
:1051A0004F925F926F927F928F929F92AF92BF9237
:1051B000CF92DF92EF92FF920F931F93CF93DF93E3
:1051C0001F92CDB7DEB72C01762E642E690182E5E1
:1051D000E81202C0EAEF07C02A303105A8F02436F1
:1051E000310518F4E6E07E0E0FC0283EF3E03F07DD
:1051F00010F48CE008C02031E7E23E0718F4F2E139
:105200007F0E02C088E1780E043529F1053521F0C2
:10521000063409F040C1ACC030E00AE010E0C6013D
:10522000B8010E945B4F7C01282F205D462D672D21
:10523000C20139830E949B26C6018E199F09B801BD
:105240000E945B4F6B01EAEF7E0E39813F5F611573
:10525000710529F721C10CE3E02EF12CC601B7013D
:105260000E945B4F5C01C6018A199B09B7010E942D
:105270005B4F4B010AE010E0C501B8010E945B4F93
:105280006C01282F205D462D672DC2010E949B26B0
:10529000C5018C199D09B8010E945B4F262F205D26
:1052A000672D6650462DC2010E949B26672D6C50CB
:1052B0002AE3462DC2010E949B26C401B7010E9429
:1052C0005B4F6C01C4018C199D09B7010E945B4FB3
:1052D0005B01C601B8010E945B4F7C01282F205D55
:1052E000672D6251462DC2010E949B26372D3851F1
:1052F000C6018E199F09B8010E945B4F262F6111CC
:1053000002C013E001C014E0205D462D632FC201EE
:105310000E949B26672D6E512AE3462DC2010E94F2
:105320009B26372D3452C5016CE370E00E945B4F21
:105330006AE070E00E945B4F811116E0282F205D2B
:10534000462D632FC2010E949B26672D6A52062DAF
:10535000095F87E090E0811B282F220F280F220F82
:10536000260F462DC2010E94A82837E0311B94C0A9
:1053700028E532E0C601B9010E945B4F7C01C601FD
:105380008E199F09B9010E945B4F5B010AE010E092
:10539000C701B8010E945B4F6C01282F205D462D8C
:1053A000672DC2010E949B26672D66502EE2462D76
:1053B000C2010E949B26C7018C199D09B8010E9459
:1053C0005B4F7B01CB01B8010E945B4F6C01282F22
:1053D000205D672D6C50462DC2010E949B26372D03
:1053E0003251C7018C199D09B8010E945B4F262FCD
:1053F000611103C012E0D12E02C0B3E0DB2E205DAC
:10540000462D632FC2010E949B26672D68512AE317
:10541000462DC2010E949B26372D3E51C50168E5ED
:1054200072E00E945B4F8C016AE070E00E945B4F6B
:105430007C01282F882311F0A5E0DA2E205D462D6F
:10544000632FC2010E949B26372D3452C8018E194A
:105450009F096AE070E00E945B4F262F662311F0DF
:10546000F6E0DF2E205D462D632FC2010E949B26B1
:10547000672D6A52062D095F87E090E08D19282F6D
:10548000220F280F220F260F462DC2010E94A828A6
:1054900037E03D1901C030E0832F0F90DF91CF91AD
:1054A0001F910F91FF90EF90DF90CF90BF90AF9042
:1054B0009F908F907F906F905F904F9008952F9264
:1054C0003F924F925F926F927F928F929F92AF9294
:1054D000BF92CF92DF92EF92FF920F931F93CF93E1
:1054E000DF9300D000D01F92CDB7DEB7282E592F02
:1054F000362EF9018491B9016E5F7F4F7D836C83F5
:1055000031962491311002C0442391F030E05901CA
:1055100093E0B594A7949A95E1F7742F412C982FB6
:10552000930D99834901840E911C682E712C5DC0E6
:10553000843561F7203351F7222D392F66E019C0E9
:10554000FA014F5F5F4FE491D901A80FB91FEC93A7
:105550000696883FE1E09E0799F78C819D818C5AE1
:105560009F4F9D838C8361502F5F3F4F662309F4CB
:1055700045C04C815D8180E090E0E2CFF7019FEF74
:10558000E91AF90AC49000E010E0D12C472F400F2F
:10559000242F30E082169306BCF09601002E02C044
:1055A000359527950A94E2F7652D822D952F5B831B
:1055B0007A8320FF05C00E9486255B817A8104C022
:1055C0000E94A4257A815B810F5F1F4F083011056F
:1055D000E9F65394E9815E12D1CF8C819D81860DCD
:1055E000971D9D838C834394785F242D30E02A158A
:1055F0003B0524F4532CEC80FD80ECCF0F900F90F2
:105600000F900F900F90DF91CF911F910F91FF900E
:10561000EF90DF90CF90BF90AF909F908F907F9052
:105620006F905F904F903F902F9008955F926F9290
:105630007F928F929F92AF92BF92CF92DF92EF9222
:10564000FF920F931F93CF93DF93EC01F62E042F5D
:10565000E22ED62ED21A6D2D0E948625B02EBE18AF
:105660004B2D6F2DCE010E948625CE2CCF0C402FC6
:105670006C2DCE010E948625AE2CA00E4A2D6F2DDA
:10568000CE010E94862511E001C0182F5E2C511A10
:105690008A2C811A712E7F0C482D672DCE010E9415
:1056A00086256B2C610E9F2C911A462D692DCE01FB
:1056B0000E948625462D672DCE010E948625482D05
:1056C000692DCE010E948625812E800E7C2C711AB8
:1056D000482D672DCE010E948625602E611A9D2CD3
:1056E000910E462D692DCE010E948625462D672DEF
:1056F000CE010E948625482D692DCE010E94862567
:10570000812F8F5F511608F6DF91CF911F910F9176
:10571000FF90EF90DF90CF90BF90AF909F908F90D1
:105720007F906F905F9008958F929F92AF92BF92FB
:10573000CF92DF92EF92FF92862E912CA12CB12C6A
:10574000A0E2B0E8A50194010E94404F6B017C01EA
:1057500080E4C82284E8D82288E0E822FF24A2E07E
:10576000B8E00E94404F6071717282709927C62A1A
:10577000D72AE82AF92AA701960161E071E081E0C1
:1057800090E00E944B4FFF90EF90DF90CF90BF9042
:10579000AF909F908F9008959C0146E00EC0F90154
:1057A000E80FF91F10820696883F51E09507B9F778
:1057B00041502F5F3F4F442319F080E090E0EFCF3E
:1057C00008952898411102C0169801C0169A6EBD1E
:1057D0000DB407FEFDCF289A08951F93CF93DF9352
:1057E000EC01162F642F606440E00E94E12B612FD2
:1057F000606840E0CE01DF91CF911F910C94E12BC6
:10580000CF92DF92EF92FF920F931F93CF93DF938C
:10581000D82EC92E40E060E00E94ED2BCD2DDC2D6E
:105820007E0186E0E80EF11C13C0FE01E00FF11FBF
:1058300041E060818D2D9C2D0E94E12B0A5F1F4F5E
:10584000083F81E0180789F72196CE15DF0519F08A
:1058500000E010E0EACFDF91CF911F910F91FF9010
:10586000EF90DF90CF9008950F931F93CF93DF9326
:10587000EC0140E06CE00E94E12B40E060E8CE01EA
:105880000E94E12B08EF11E041E060E0CE010E94B0
:10589000E12B01501109C1F7DF91CF911F910F91B9
:1058A000089528982A98299871988D98169815988F
:1058B0000895613039F4FC01E750FE4F60838D9804
:1058C0002D9A08956F3F11F40C948225FC01E75046
:1058D000FE4F10828D9A2D980895FC01E850FE4FDE
:1058E0006083662331F0FC01E750FE4F60810C9429
:1058F000592C0C948225CF93DF93EC01209A229AA5
:10590000219A699A859A259A0E9A0D9A719AFC01A4
:10591000E750FE4F60810E94592C8AE18A95F1F789
:10592000159882E08A95F1F7159A81E58CBD40E0E3
:1059300061E2CE010E94E12B40E060ECCE010E94CA
:10594000E12B40E066E0CE010E94E12B40E063E104
:10595000CE010E94E12B40E060E2CE010E94E12BEB
:10596000CE010E94342C40E06CE0CE010E94E12B7D
:105970006FEFCE01DF91CF910C946D2C88509E4F2C
:10598000FC0180810895CF93DF93EC018091510B4E
:10599000882319F080E00E94F014FE01E05BFF4FC5
:1059A000808181110CC0C15BDF4F8881882321F089
:1059B00080912C0B811107C010922C0B0BC0479AC1
:1059C000469A469807C010922C0B86EF97E00E94EB
:1059D0000022F2CFDF91CF910895CF93DF93EC01B6
:1059E0008091510B882319F081E00E94F014FE0190
:1059F000E05BFF4F8081811111C0C15BDF4F888167
:105A0000882321F081E080932C0B02C010922C0B94
:105A100086EF97E0DF91CF910C9400228091470BA5
:105A2000811103C04698479818C08130B1F4909115
:105A30002C0B911112C04698479880932C0B84EF41
:105A400091E028EC30E0F9013197F1F70197D9F7AF
:105A5000CE01DF91CF910C94C32CDF91CF910895AB
:105A6000CF93DF93EC018091510B882319F080E0F4
:105A70000E94F014FE01E05BFF4F808181110BC09A
:105A8000C15BDF4F8881882309F43EC080912C0BD5
:105A900081113DC039C08091470B811115C0479AD3
:105AA000469A469A84EF91E028EC30E0F90131976C
:105AB000F1F70197D9F7C05BDF4F349B03C081E05A
:105AC00088832AC0188228C0813031F580912C0B40
:105AD000813011F5479A469A469A84EF91E028EC76
