:100000000C9453090C9482090C9482090C94820973
:100010000C9482090C9482090C9482090C94820934
:100020000C9482090C9482090C94EA3E0C94820987
:100030000C9482090C944A140C9482090C94820941
:100040000C9482090C9482090C9482090C94820904
:100050000C9482090C9482090C9482090C948209F4
:100060000C9482090C9482090C9482090C948209E4
:100070000C9482090C9482090C9482090C948209D4
:100080000C9482090C9482090C9482090C948209C4
:100090000C946F470C9482091E03540069006D0094
:1000A00065006C0061007000730065002B0020008B
:1000B00043004400430000001C0345006C0069003D
:1000C0006A006100680020005000610072006B004F
:1000D0006500720000000403090409023E000201E9
:1000E00000C03209040000010202010005240010D2
:1000F0000104240206052406000107058203080006
:10010000FF09040100020A000000070504021000B4
:10011000010705830210000112011001020000080E
:10012000EB03442001000102DC0152657472696531
:1001300076696E672044657669636520496E666FEF
:100140002E2E2E0D0A004465766963652041747475
:1001500061636865642E0D0A000D0A446576696363
:100160006520556E61747461636865642E0D0A00C4
:1001700047657474696E6720436F6E6669672044D3
:100180006174612E0D0A00436F6E74726F6C2045AE
:1001900072726F72202847657420436F6E666967BC
:1001A00075726174696F6E292E0D0A00496E766151
:1001B0006C6964204465766963652E0D0A00202D04
:1001C0002D204572726F7220436F64653A2025645A
:1001D0000D0A00436F6E74726F6C204572726F72FD
:1001E000202853657420436F6E6669677572617469
:1001F000696F6E292E0D0A202D2D204572726F72A7
:1002000020436F64653A2025640D0A005374696CBD
:100210006C20496D6167652044657669636520459A
:100220006E756D6572617465642E0D0A00486F739A
:1002300074204D6F6465204572726F720D0A202D17
:100240002D204572726F7220436F64652025640D06
:100250000A0044657620456E756D204572726F7296
:100260000D0A202D2D204572726F7220436F646538
:100270002025640D0A202D2D2053756220457272B1
:100280006F7220436F64652025640D0A202D2D2098
:10029000496E2053746174652025640D0A00546111
:1002A0006B696E6720706963747572652E2E2E0DF2
:1002B0000A004572726F7220380D0A004368616E41
:1002C00067696E672050726F70657274792E2E2E7A
:1002D0000D0A004572726F7220390D0A0045727264
:1002E0006F722031320D0A004572726F7220310D2B
:1002F0000A002020204D616E756661637475726519
:10030000723A2025730D0A002020204D6F64656C21
:100310003A2025730D0A0020202044657669636524
:100320002056657273696F6E3A2025730D0A0D0AA7
:10033000004572726F7220320D0A004F70656E694F
:100340006E672053657373696F6E2E2E2E0D0A0033
:100350004572726F7220340D0A00436C6F73696EC0
:10036000672053657373696F6E2E2E2E0D0A00453C
:1003700072726F7220360D0A00446F6E652E0D0A80
:1003800000436F6D6D616E64204572726F7220283C
:100390002553292E0D0A202D2D204572726F7220B3
:1003A000436F64652025640D0A00526573706F6E9B
:1003B000736520436F646520213D204F4B005472CC
:1003C000616E73616374696F6E204661696C00547D
:1003D0007269676765722020202020004DFB0400B1
:1003E000001D0154696D656C6170736520202000EB
:1003F0004D370500001C01436F6E6E65637420204D
:10040000202020004D9F0600000000536574746991
:100410006E677320202020004DDB060000000000E6
:100420002020202020202020202020005600000016
:1004300000000053746F702054696D6572202000B5
:1004400046FB090000680B416464204B65796672C5
:10045000616D65004684090000790B44656C204B92
:1004600065796672616D6500460F0A0000780B566B
:100470006965772044657461696C7300464E0C00B1
:100480000000004C6F61642053617665642E2E007D
:1004900046290A00001D01536176652041732E2E06
:1004A00020202000469A0E0000000053617665204F
:1004B000202020202020200046420B00001D0B534E
:1004C0006176652044656661756C740046650B0055
:1004D00000000052657665727420202020202000E4
:1004E00046D00900001D01004F5054494F4E5300A3
:1004F0002020200046F309B707BE074361626C6500
:100500002052656D6F746500464B0D00001D01495A
:10051000522052656D6F746520202000466B0E00DE
:10052000001D01002020202020202020202020004D
:10053000560000000000004D6F6465202020202040
:1005400020202A0053BF07310B000044656C6179FD
:10055000202020202020540045290B0F08000046B1
:1005600072616D657320202020205500452B0B18EB
:10057000081B01496E7472766C20202020204600F2
:10058000452D0B23087D0B48445220457870277376
:1005900020205500452F0B23087B0B53687574747E
:1005A000657220202020460045330B23087B0B5327
:1005B00068757474657220202020460045330B2333
:1005C000081A014844522045562B2F2D2020550053
:1005D00045350B2B087B0B42756C622031202020A7
:1005E0002020460045370B23087A0B2A4B657920DB
:1005F0002020202020205400454B0B43087A0B423A
:10060000756C6220322020202020460045390B23C3
:10061000087A0B2A4B6579202020202020205400C6
:10062000454D0B4308760B42756C62203320202029
:1006300020204600453B0B2308760B2A4B6579208A
:100640002020202020205400454F0B4308750B42EA
:10065000756C62203420202020204600453D0B236D
:1006600008750B2A4B65792020202020202054007B
:1006700045510B4308740B42756C622035202020D5
:1006800020204600453F0B2308740B00202020202B
:10069000202020202020200046D80E4F0857084256
:1006A0006C7565746F6F746820202000460E0C0016
:1006B00000770855534220202020202020202000B1
:1006C00046870B0000000000202020202020202052
:1006D000202020005600000000000053797374654C
:1006E0006D20496E666F2000469611000000004C98
:1006F000434420436F6C6F7220202000535D08CB71
:100700000BBC354C434420424C2054696D6520009D
:10071000538D08CC0BBC35505752204175746F2057
:100720004F66660053FD08CD0BBC354C4544204157
:1007300075746F204F666600535D09CE0BBC354261
:10074000756C62204D6F64652020200053CD09C96F
:100750000BBC3543616D657261204650532020000B
:1007600053FD09BC0BBC3543616D657261204D6161
:100770006B65200053AD0ACA0BBC35446576204D2D
:100780006F6465204C454400533D0BD30BBC35448E
:100790006576656C6F706D656E7420004D6D0B0035
:1007A00000000000202020202020202020202000E9
:1007B0005600000000000052455455524E000054AF
:1007C000696D652D6C6170736520200001210C48F6
:1007D000445220542D6C61707365200003310C4825
:1007E00044522050686F746F20202000023F0C425A
:1007F000756C622D72616D702020200005500C0018
:100800002020202020202020202020000000006820
:10081000683A6D6D3A7373003020666F7220696EAE
:10082000662E006D6D3A73732E730053746F707380
:10083000206265747765656E206578706F73757278
:1008400065730053696E6365207374617274004F41
:100850005054494F4E530053544152540057686905
:1008600074652020202020202000005E0C5265644A
:1008700020202020202020202000015E0C002020AD
:1008800020202020202020202000000000313020C7
:100890005365636F6E6473202000016E0C3330204B
:1008A0005365636F6E6473202000036E0C31204D1E
:1008B000696E7574652020202000066E0C32204D74
:1008C000696E75746573202020000C6E0C35204D08
:1008D000696E75746573202020001E6E0C31302007
:1008E0004D696E757465732020003C6E0C002020ED
:1008F0002020202020202020200000000031204D3A
:10090000696E757465202020200006800C32204D11
:10091000696E75746573202020000C800C35204DA5
:10092000696E75746573202020001E800C313020A4
:100930004D696E757465732020003C800C33302047
:100940004D696E75746573202000B4800C00202002
:1009500020202020202020202000000000313020F6
:100960005365636F6E647320200001920C33302056
:100970005365636F6E647320200003920C31204D29
:10098000696E757465202020200006920C32204D7F
:10099000696E75746573202020000C920C35204D13
:1009A000696E75746573202020001E920C31302012
:1009B0004D696E757465732020003C920C002020F8
:1009C00020202020202020202000000000537461DF
:1009D0006E64617264202020200000A40C4D6F6DB5
:1009E0002E20546F67676C65200001B70C00202033
:1009F0002020202020202020200000000031204640
:100A00005053202020202020200065CA0C32204690
:100A10005053202020202020200033CA0C332046B1
:100A20005053202020202020200022CA0C342046B1
:100A3000505320202020202020001ACA0C352046A8
:100A40005053202020202020200015CA0C3620469C
:100A50005053202020202020200011CA0C3720468F
:100A6000505320202020202020000FCA0C38204680
:100A7000505320202020202020000DCA0C3130208F
:100A8000465053202020202020000BCA0C31322059
:100A90004650532020202020200009CA0C0020208E
:100AA000202020202020202020000000004F7468FB
:100AB00065722020202020202000FEDC0C43616E87
:100AC0006F6E202020202020200000F10C4E696B4A
:100AD0006F6E202020202020200001F10C4D696E37
:100AE0006F6C746120202020200003F10C4F6C7982
:100AF0006D70757320202020200004F10C50656E6D
:100B00007461782020202020200005F10C536F6EA6
:100B10007920202020202020200002F10C50616E3E
:100B200061736F6E69632020200006F10C002020A5
:100B3000202020202020202020000000004F66667A
:100B40002020202020202020200000FD0C4F6E209F
:100B5000772F42756C622020200001100D002020AC
:100B60002020202020202020200000000053687535
:100B70007474657220546573740046D10D00001DB5
:100B80000153687574746572204C61672000469744
:100B90000C00001D01495220546573742020202050
:100BA0002000466B0E00001D013420486F75722036
:100BB0004C696768740046AE3800001D01537973B4
:100BC0002053746174757320200046661300000082
:100BD000004261747465727920202020200046BD97
:100BE0000F000000004C69676874204D65746572E1
:100BF000200046DB1000000000506F776572204F28
:100C000066662020200046DF16000000000020203D
:100C1000202020202020202020005600000000005E
:100C20000042617369632054696D656C617073651E
:100C3000004844522054696D656C617073650053BF
:100C4000696E676C652048445220496D6167650094
:100C500052616D70206578706F73757265004261C6
:100C6000636B6C6967687420636F6C6F72004261BC
:100C7000636B6C69676874206F6E2074696D6500C2
:100C80004175746F20707772206F66662074696D8D
:100C900065004C4544206175746F206F6666207452
:100CA000696D6500486F6C64732073687574746552
:100CB0007220646F776E005072657373206F6E20C0
:100CC0007072657373206F6666004672616D65733E
:100CD00020706572205365636F6E640043686F6FA8
:100CE0007365206966206E6F74206C697374656427
:100CF0000043616D657261206D616B65004C454418
:100D0000206F666620647572696E67207573650072
:100D100053687574746572206C6967687473204CCD
:100D20004544000402040507064D41494E204D4547
:100D30004E5500041E05051E00041F15150A00046B
:100D40000E11111100041F11110E00041F151511B1
:100D500000041F05050100040E11151D00041F04E9
:100D6000041F0003111F1100000408110F010004EB
:100D70001F040A1100041F10101000051F020402B6
:100D80001F041F02041F00040E11110E00041F098E
:100D9000090600040E11191E00041F09091600049B
:100DA000121515090003011F010000040F10100F98
:100DB00000030F100F0000051F0804081F041B0488
:100DC000041B0003031C0300000419151513000382
:100DD0000E150E000003121F10000003191512005B
:100DE000000311150A00000307041F000003171574
:100DF000090000031E151D00000319050300000370
:100E00000A150A00000317150F000000000000007B
:100E1000000000002F000000000700070000147F02
:100E2000147F1400242A7F2A12006264081323000E
:100E3000364955225000000503000000001C2241E5
:100E400000000041221C000014083E08140008089D
:100E50003E0808000000A06000000808080808001C
:100E60000060600000002010080402003E51494567
:100E70003E0000427F40000042615149460021414E
:100E8000454B31001814127F1000274545453900A5
:100E90003C4A494930000171090503003649494976
:100EA0003600064949291E0000363600000000566B
:100EB0003600000008142241000014141414140019
:100EC000004122140800020151090600324959511B
:100ED0003E007C1211127C007F49494936003E4198
:100EE000414122007F4141221C007F494949410084
:100EF0007F09090901003E4149497A007F08080835
:100F00007F0000417F4100002040413F01007F08F9
:100F1000142241007F40404040007F020C027F00CD
:100F20007F0408107F003E4141413E007F090909CE
:100F300006003E4151215E007F09192946004649BD
:100F40004949310001017F0101003F4040403F001D
:100F50001F2040201F003F4038403F00631408140A
:100F60006300070870080700615149454300007F8E
:100F700041410000552A552A55000041417F00009B
:100F8000040201020400404040404000000102040D
:100F900000002054545478007F48444438003844BA
:100FA00044442000384444487F00385454541800C6
:100FB000087E0901020018A4A4A47C007F08040490
:100FC000780000447D4000004080847D00007F1058
:100FD0002844000000417F4000007C041804780091
:100FE0007C0804047800384444443800FC24242459
:100FF000180018242418FC007C0804040800485435
:1010000054542000043F444020003C4040207C00D9
:101010001C2040201C003C4030403C00442810284C
:1010200044001CA0A0A07C004464544C4400000672
:101030000909060080C0E0E060E0E0C08000000038
:1010400000000070FFFF0100000000FFFFFE000035
:10105000000000000F1F3C383038381F0F0300001D
:101060000000000000000080E0E000000000000040
:101070000000000000030303FFFF00000000000069
:1010800000000000003838383F3F38383800000092
:1010900000000000C0C0E06060E0E0C08000000030
:1010A0000000000001000080C0E0F93F1F000000C8
:1010B000000000003C3E3F3F3B39383838380000E4
:1010C00000000000C0E0E06060E0E0C0C0000000A0
:1010D000000000000100003030387DEFCF0000003C
:1010E000000000001C38383030383C1F0F01000071
:1010F000000000000000000080C0E0E000000000F0
:10110000000000E0F0F8DECFC7C1FFFFC0C0000064
:10111000000000000000000000003F3F0000000051
:1011200000000000E0E0E0E0E0E0E0E0E0E00000FF
:10113000000000003F3F3F38383070F0E000000012
:10114000000000001C38383030383C1F0F01000010
:10115000000000000080C0C0E06060E0E00000002F
:10116000000000E0FEFF3739181838F0F0C000002A
:10117000000000000F1F1C383030381F0F07000020
:1011800000000000E0E0E0E0E0E0E0E0E0E000009F
:101190000000000000000080E0F87E1F0701000052
:1011A0000000000000383E1F0701000000000000A2
:1011B0000000000080C0E0E06060E0C0C00000000F
:1011C00000000000CFFF7F38307070FFEFC70000D5
:1011D000000000030F1F3C383030381F1F0F000085
:1011E0000000000080C0E0E060E0E0C0800000009F
:1011F0000000000C3F7FF1E0C0C0E1FFFFFE0000F7
:10120000000000000038303038381E0F07000000A2
:1012100000000000000000000000000000000000CE
:1012200000000000000000000000000000000000BE
:101230000000003C3C3C00000000000000000000FA
:10124000000000000000000000000000000000009E
:1012500000000000004040404040FEFE4040404052
:10126000400000000000000000000F0F0000000020
:10127000000000000000000000000000000000006E
:1012800000000000404040404040000000000000DE
:10129000000000000000000000000000000000004E
:1012A000000000009C4E11241FBECFEFD0E2DEBF35
:1012B000CDBF18E0A0E0B1E0E2E0F9EA00E00BBF4A
:1012C00002C007900D92AE32B107D9F71CE0AEE232
:1012D000B8E001C01D92AD34B107E1F712E1C6EAF2
:1012E000D2E100E006C022970109FE010BBF0E9477
:1012F0001351C43AD10780E00807A9F70E94234D93
:101300000C947F540C94000080915F0B9091600BC3
:10131000059708F03FC080915F0B9091600B892B7F
:1013200031F481E090E09093600B80935F0BE0914B
:101330005F0BF091600BA0915F0BB091600BAA0F57
:10134000BB1FA75BB44F8D919C91805F914FEE0FB7
:10135000FF1FE55BF44F91838083E0915F0BF09179
:10136000600BA0915F0BB091600BAA0FBB1FA95C33
:10137000B44F8D919C91EE0FFF1FE75CF44F91836A
:10138000808380915F0B9091600B01969093600B2E
:1013900080935F0B8FED98E00E943E1E81E00895E0
:1013A000CF93DF931F92CDB7DEB7462F662341F070
:1013B0006091690B8DE19BE049830E94742F498104
:1013C00063E072E08FED98E00E94B319882331F05A
:1013D0008FED98E00E943E1E81E001C080E00F90FA
:1013E000DF91CF910895813021F48FED98E00E9434
:1013F0003E1E81E00895462F61111092680B6CE04B
:1014000072E08FED98E00E94B319882331F08FEDE0
:1014100098E00E943E1E81E0089580E0089580914A
:101420005F0B9091600B029748F080915F0B909159
:10143000600B01979093600B80935F0B8FED98E0AA
:101440000E943E1E60E08FED98E00E94901981E0BE
:1014500008952F923F925F926F927F928F929F9208
:10146000AF92BF92CF92DF92EF92FF920F931F93B2
:10147000CF93DF9300D000D0CDB7DEB7182F8530E3
:1014800031F48091950B8823A1F081500FC08630F4
:1014900081F48091950B482F50E02091960B30E01D
:1014A000215031094217530724F48F5F8093950B25
:1014B00003C0662309F4A1C083E299E00E94542D81
:1014C0008091950B833020F0682E6A946A9401C055
:1014D000612C1092960B1C821B8254E4752EE62C14
:1014E000F12CC70104969A83898369E0362E5B80CC
:1014F000EB81FC817E9E60017F9ED00C1124C60191
:10150000875F9F4F0E94EB5381508E3FE8F503E0C9
:10151000A12CB12C252C23948B809C80FFEF8F1A5B
:101520009F0A261430F189819A81881599050CF15A
:10153000C5018C0D9D1D875F9F4F0E94EB53982F17
:1015400091549A3108F080E24091960B4E19439DD8
:10155000402D1124485F282F602F83E299E00E94DC
:1015600023289091960B8091950B981302C050926E
:10157000970B9FEFA91AB90A0A5F0B3491F6809175
:10158000960B8F5F8093960BEB81FC813196FC83E9
:10159000EB83789709F0ABCF8091950B861949E0E2
:1015A000849F402D1124042F015F495F21E562E0F3
:1015B00083E299E00E94082A64E172E08FED98E0EE
:1015C0000E9477184FE152E064E272E08FED98E0FC
:1015D0000E94AD1808E220E043E060E083E299E079
:1015E0000E94892923E543E063E583E299E00E94B4
:1015F000892983E299E00E94882D123059F018F46D
:10160000113049F505C0133019F0143021F502C02E
:1016100081E022C06091970B8DE19BE00E94742FC6
:1016200041E06BE272E08FED98E00E94B319FFEFAA
:1016300021EE84E0F15020408040E1F700C000003E
:101640008FED98E00E943E1E60E08FED98E00E94D2
:10165000901982E001C080E00F900F900F900F90E2
:10166000DF91CF911F910F91FF90EF90DF90CF907E
:10167000BF90AF909F908F907F906F905F903F90C2
:101680002F900895CF93DF931F92CDB7DEB7462FEB
:10169000662341F06091690B8DE19BE049830E94D4
:1016A0002B2F498169E172E08FED98E00E94B31918
:1016B000882331F08FED98E00E943E1E81E001C04A
:1016C00080E00F90DF91CF910895CF93DF931F9229
:1016D000CDB7DEB7462F662339F060E08DE19BE0A1
:1016E00049830E942B2F498169E172E08FED98E0D8
:1016F0000E94B319882331F08FED98E00E943E1EBE
:1017000081E001C080E00F90DF91CF910895CF93E9
:10171000C82F611107C09091F90B8091860B981723
:1017200009F46EC09091F90B9093860B992379F18F
:1017300083E299E00E94542D22E332E047E063E027
:1017400083E299E00E94B42820E432E04FE063E0B5
:1017500083E299E00E94B42820E432E047E163E0AC
:1017600083E299E00E94B42820E432E04FE163E094
:1017700083E299E00E94B4286EE472E08FED98E075
:101780000E94771844E258E06AE572E02EC083E2D6
:1017900099E00E94542D21E632E047E063E083E2C5
:1017A00099E00E94B4282FE632E04FE063E083E244
:1017B00099E00E94B4282DE732E047E163E083E23C
:1017C00099E00E94B42820E432E04FE163E083E234
:1017D00099E00E94B4286BE872E08FED98E00E94D7
:1017E000771844E258E064E272E08FED98E00E94DE
:1017F000AD1883E299E00E94882D81E08093720BFE
:10180000CC2339F08091F90B811105C01092720B35
:1018100002C080E001C081E0CF910895CF93C82F2E
:101820006623B1F183E299E00E94542D27E932E06A
:1018300047E063E083E299E00E94B42825EA32E0C1
:101840004FE063E083E299E00E94B42823EB32E0AA
:1018500047E163E083E299E00E94B42821EC32E0A2
:101860004FE163E083E299E00E94B4286FEC72E0FC
:101870008FED98E00E94771844E258E06AE572E044
:101880008FED98E00E94AD1883E299E00E94882DC8
:1018900081E0C11101C080E0CF910895EF920F93D4
:1018A000CF93C82F6623D1F083E299E00E94542D94
:1018B00027ED32E042E161E083E299E00E94B42842
:1018C0006EED72E08FED98E00E9477184AE552E0E5
:1018D00064EE72E08FED98E00E94AD180AE123E516
:1018E00042E164E283E299E00E94302A8BEC98E0C6
:1018F0000E945916E2E5EE2E06E49B0142E163E503
:1019000083E299E00E94582A83E299E00E94882DA0
:10191000C13021F0C23031F481E005C08BEC98E099
:101920000E94CC1580E0CF910F91EF9008958F9297
:101930009F92AF92BF92EF920F93CF93DF93C82FF6
:101940006623B1F083E299E00E94542D69EE72E0C3
:101950008FED98E00E9477184AEF52E062E073E062
:101960008FED98E00E94AD1883E299E00E94882DE7
:101970008C2F8150823008F080C006E220E542E1E1
:101980006AE083E299E00E94302A29E033E042E1F4
:101990006AE083E299E00E94B428479A3F9A3C9813
:1019A000449A86988E9A469A3E9A389A409A3D98DA
:1019B000459A2FEF80E792E0215080409040E1F778
:1019C00000C00000C23051F446982FEF89E698E13C
:1019D000215080409040E1F700C0000047988BEC18
:1019E00098E00E94CC151EC08BEC98E00E943B163C
:1019F000683E734081059105A8F08BEC98E00E9449
:101A00003B16EB018FE798E321E0815090402040A6
:101A1000E1F700C00000479A469A8BEC98E00E94DC
:101A2000CC1528C03599E0CFE8CF8BEC98E00E9428
:101A30003B16693E734081059105E0F08BEC98E020
:101A40000E943B164B015C01FCE4EF2E05E59E0174
:101A500042E168E383E299E00E94582A94014CE154
:101A600068E383E299E00E94582A83E299E00E94A9
:101A7000882D05C0359BD9CFE1CFC33011F080E070
:101A800001C081E0DF91CF910F91EF90BF90AF90B7
:101A90009F908F9008950F93CF93C82F6623E1F006
:101AA0001092840B83E299E00E94542D61E173E06F
:101AB0008FED98E00E9477184FE153E065E273E004
:101AC0008FED98E00E94AD1883E299E00E94882D86
:101AD0008DE19BE00E94732EC13071F58091840BE3
:101AE0008130B9F0C093840B0AE12AE442E168E056
:101AF00083E299E00E94302A2AE233E042E168E082
:101B000083E299E00E94B4288DE19BE00E94882E38
:101B10000EC01092840B0AE12AE442E168E083E2FD
:101B200099E00E94302A8DE19BE00E94C62E83E25C
:101B300099E00E94882D31C0C23099F48091840BC5
:101B4000813089F01092840B0AE12AE442E168E0D6
:101B500083E299E00E94302A8DE19BE00E94FB2EF7
:101B6000E6CFCC23D1F01092840B0AE12AE442E1C3
:101B700068E083E299E00E94302A8DE19BE00E94B8
:101B8000732E83E299E00E94882DC33031F48DE1F9
:101B90009BE00E944D2E81E001C080E0CF910F912B
:101BA00008950F93CF93C82F6623D1F01092820B24
:101BB0001092830B83E299E00E94542D66E373E058
:101BC0008FED98E00E94771843E453E068E473E0F7
:101BD0008FED98E00E94AD1883E299E00E94882D75
:101BE000C130D9F48091820B8130B1F1C093820B66
:101BF0000AE128E342E164E183E299E00E94302AAD
:101C00002DE433E042E164E183E299E00E94B428EC
:101C10008DE19BE00E94732E2DC0C230D9F48091DB
:101C2000820B8230C9F0C093820B0AE128E342E1C3
:101C300064E183E299E00E94302A24E533E042E146
:101C400064E183E299E00E94B4288DE19BE00E9468
:101C50007E2E10C0CC2391F01092820B0AE128E373
:101C600042E164E183E299E00E94302A8DE19BE049
:101C70000E944D2E83E299E00E94882D8DE19BE029
:101C80000E941E2F9091830B882371F091111CC02C
:101C900081E08093830B2BE533E04CE166E083E247
:101CA00099E00E9407280CC0913071F41092830BC8
:101CB00004E221E54CE166E083E299E00E94302AEB
:101CC00083E299E00E94882D81E0C33009F080E032
:101CD000CF910F910895CF93C82F6623B1F083E27F
:101CE00099E00E94542D6BE673E08FED98E00E941E
:101CF000771845E753E06DE773E08FED98E00E94B9
:101D0000AD1883E299E00E94882DC23061F0C330A3
:101D100019F0C13061F402C081E00AC086E798E0A2
:101D20000E94F92404C086E798E00E94902380E096
:101D3000CF9108950F93CF93C82F062F662331F0CC
:101D40008DE19BE00E94B22F8093880B25E833E061
:101D500049E85BE06C2F8FED98E00E949822C82F35
:101D6000823011F51092940B69E87BE08DE19BE0E5
:101D70000E941E516091880B8DE19BE00E942B2FE9
:101D800041E069E172E08FED98E00E94B3192FEF16
:101D900081EE94E0215080409040E1F700C00000C7
:101DA0008FED98E00E943E1E8C2FCF910F910895E9
:101DB000462F61118093870B8091870B8230A1F4AD
:101DC0006DE873E08FED98E00E94B3192FEF87E87C
:101DD00093E1215080409040E1F700C000008DE188
:101DE0009BE00E94CE2F13C08FED98E00E94381D1B
:101DF00060E08FED98E00E94901963E374E08FED4E
:101E000098E00E945D1E83E299E00E94882D81E0A7
:101E10000895A89588E10FB6F89480936000109219
:101E200060000FBE2FE088E190E00FB6F894A8950F
:101E3000809360000FBE209360006C98749A0E949B
:101E4000AA16811102C0649935C00E946B160E94C7
:101E5000C6358BEC98E00E94621583E299E00E94FF
:101E6000032E83E299E09093E0088093DF0889EBEA
:101E700098E09093E2088093E10883B7817F8460C3
:101E800083BF83B7816083BF6FEC73E08FED98E011
:101E90000E945D1E83E299E00E94882D0E94FF4C03
:101EA0000E94654787E798E00E945C3587E798E0E5
:101EB0000C94063583E299E00E94032E0E94973627
:101EC0008BE993E00E94623688E10FB6F894809324
:101ED0006000109260000FBE0E94DF16B6CFEF9236
:101EE0000F931F93CF93DF93182F662359F10E940E
:101EF0008E16EC0183E299E00E94542D22ED33E02E
:101F000042E161E083E299E00E94B4280CE4E02E13
:101F100005E59E0142E167E383E299E00E94582AC9
:101F20006CED73E08FED98E00E94771844E258E082
:101F30006AE572E08FED98E00E94AD1883E299E0C7
:101F40000E94882D81E0113009F080E0DF91CF916F
:101F50001F910F91EF9008950E94AA16833048F4C4
:101F6000E82FF0E0EE0FFF1FEF5CFE4F2081318184
:101F700002C023EE33E0C9010895FF920F931F932F
:101F8000CF93DF93F82E0E943017EC010E94AA161F
:101F9000482FC45FD14084E28C9F90018D9F300D0B
:101FA0001124C90161E970E00E94C950162F643202
:101FB00028F0413009F472C0643211F4423009F45F
:101FC00014E283E299E00E94542D0E94AC0FEC01D0
:101FD000BC0183E299E00E947E27082F0E94AA1686
:101FE000882349F0069569E2601B9E014FE183E278
:101FF00099E00E9407280FE02CE34FE064E183E2C0
:1020000099E00E9489290BE124E140E164E183E247
:1020100099E00E9489292CE34BE165E183E299E094
:102020000E94892903E12CE340E16CE383E299E01B
:102030000E9489290AE12CE347E16CE383E299E0FD
:102040000E94892907E12DE343E16DE383E299E0F2
:102050000E948929C0E06C2F6A5E09E1262F41E1C8
:1020600083E299E00E948929CF5F1C17A0F769EEEF
:1020700073E08FED98E00E94771844E258E06AE53B
:1020800072E08FED98E00E94AD1883E299E00E9423
:10209000882D81E0F81621F080E002C013E291CF94
:1020A000DF91CF911F910F91FF900895EF92FF92D2
:1020B0000F931F93CF93DF9300D000D000D0CDB704
:1020C000DEB79C01FB01009719F480E38083118245
:1020D000C90160E177E20E94C9507B0180EF98ED71
:1020E000689F8001699F100D789F100D1124020FC9
:1020F000131FC80168EE73E00E94C950AB0188E16C
:102100009CEF689F9001699F300D789F300D1124DE
:10211000200F311FC90164E670E00E94C950162FDC
:1021200084E6689F201931091124C9016AE070E032
:102130000E94C9501E828E2D805D8983405D4A8336
:10214000105D1B83862F805D8C83AAE06A9F201917
:1021500031091124205D2D83DE01119620E08D913F
:102160008033A9F417C081E090E08C0F9D1F830F8E
:10217000911DDC018C91DA018D93AD013F5F832FBE
:10218000821B353080F3E80FF11D108207C0AF01CC
:10219000322FF5CF2F5F2530D1F3E1CF26960FB642
:1021A000F894DEBF0FBECDBFDF91CF911F910F918D
:1021B000FF90EF9008950F931F93CF93DF9300D07C
:1021C00000D000D0CDB7DEB7182F662341F060E015
:1021D00083E299E00E94F52D80E00E947A168091BA
:1021E000850B811189C083E299E00E94542D68EF2C
:1021F00073E08FED98E00E947718123031F481E09F
:102200008093850B44E054E002C048E054E06AE566
:1022100072E08FED98E00E94AD1880E00E94EA170E
:10222000BE016F5F7F4F0E945610BE016F5F7F4FF0
:1022300083E299E00E947E2700E5602F681B9E01E3
:102240002F5F3F4F4EE083E299E00E9407282EE087
:1022500034E04EE063E083E299E00E94072881E0E9
:102260000E94EA17BE016F5F7F4F0E945610BE01A9
:102270006F5F7F4F83E299E00E947E27602F681B8B
:102280009E012F5F3F4F44E183E299E00E940728BF
:1022900027E134E044E163E083E299E00E9407280B
:1022A00082E00E94EA17BE016F5F7F4F0E945610C6
:1022B000BE016F5F7F4F83E299E00E947E27602F0F
:1022C000681B9E012F5F3F4F4AE183E299E00E9425
:1022D000072820E234E04AE163E083E299E00E94CB
:1022E000072883E299E00E94882D8FE19EE4019700
:1022F000F1F700C0000005C0123019F41092850BF0
:1023000009C0113039F46FEF83E299E00E94F52D96
:1023100081E001C080E026960FB6F894DEBF0FBEC4
:10232000CDBFDF91CF911F910F9108952F923F92D2
:102330004F925F926F927F928F929F92AF92BF92D5
:10234000CF92DF92EF92FF920F931F93CF93DF9381
:10235000CDB7DEB728970FB6F894DEBF0FBECDBF5E
:10236000082F662309F4BDC083E299E00E94542D32
:1023700087E798E00E949C34282E312C63E374E0B8
:1023800083E299E00E947E2760E5681B23E334E046
:1023900048E083E299E00E94072829E334E048E01E
:1023A00063E083E299E00E94072882E02816310466
:1023B00018F029E234E002C02EE234E0B90183E2F1
:1023C00099E02F8338870E947E2760E5681B2F8164
:1023D00038854EE083E299E00E94072820E434E04B
:1023E0004EE063E083E299E00E94072829E434E0AC
:1023F00044E163E083E299E00E9407289DE5C92E4D
:1024000095E0D92E93E3E92EFF24F39410E02AE01F
:10241000822E912CA12CB12CC701B601A5019401EB
:102420000E94F1502B013C01862F805D89831A8226
:10243000BE016F5F7F4F83E299E00E947E27180FF5
:102440001F5F60E5611B9E012F5F3F4F44E183E208
:1024500099E00E940728C701B60164197509860929
:102460009709A50194010E94F15069017A01211593
:1024700031054105510581F682E028163104F8F056
:10248000BE016F5F7F4FC1010E945610BE016F5F9A
:102490007F4F83E299E00E947E2760E5681B9E01E2
:1024A0002F5F3F4F40E283E299E00E94072823E537
:1024B00034E040E263E083E299E00E94072862E6AC
:1024C00074E08FED98E00E94771844E258E06AE5E6
:1024D00072E08FED98E00E94AD1883E299E00E94CF
:1024E000882D81E0013019F0033009F080E0289652
:1024F0000FB6F894DEBF0FBECDBFDF91CF911F9115
:102500000F91FF90EF90DF90CF90BF90AF909F9092
:102510008F907F906F905F904F903F902F90089595
:102520000F931F93CF93DF9300D000D000D0CDB78F
:10253000DEB7082F83E299E00E94542DBE016F5F41
:102540007F4F8091CF089091D0080E945610BE0115
:102550006F5F7F4F83E299E00E947E2710E5612F35
:10256000681B9E012F5F3F4F48E083E299E00E9485
:1025700007282EE634E048E063E083E299E00E9419
:102580000728BE016F5F7F4F8091CF089091D008E0
:102590000E945610BE016F5F7F4F83E299E00E9458
:1025A0007E27612F681B9E012F5F3F4F4EE083E225
:1025B00099E00E94072829E734E04EE063E083E2D7
:1025C00099E00E940728BE016F5F7F4F8091CF087E
:1025D0009091D0080E945610BE016F5F7F4F83E23A
:1025E00099E00E947E27612F681B9E012F5F3F4F5D
:1025F00044E183E299E00E94072825E834E044E1C1
:1026000063E083E299E00E9407286FE874E083E2C8
:1026100099E00E947E27612F681B2FE834E04AE191
:1026200083E299E00E94072827E934E04AE163E069
:1026300083E299E00E9407280E943D17BE016F5F68
:102640007F4F90E00E945610BE016F5F7F4F83E284
:1026500099E00E947E27612F681B9E012F5F3F4FEC
:1026600040E283E299E00E9407282FE934E040E24B
:1026700063E083E299E00E9407286EEA74E08FED40
:1026800098E00E94771846EB54E060EC74E08FED20
:1026900098E00E94AD1883E299E00E94882D8FE1B6
:1026A0009EE40197F1F700C0000081E0013019F0CD
:1026B000033009F080E026960FB6F894DEBF0FBE17
:1026C000CDBFDF91CF911F910F910895EF92FF92AF
:1026D0000F931F93CF93DF9300D000D000D0CDB7DE
:1026E000DEB7E82E83E299E00E94542D0E94AC0FE1
:1026F0008C01BC0183E299E00E947E2730E5F32E35
:102700006F2D681B980148E083E299E00E9407283A
:1027100028EC34E048E063E083E299E00E94072877
:102720000E943D17BE016F5F7F4F90E00E945610E0
:10273000BE016F5F7F4F83E299E00E947E276F2D7D
:10274000681B9E012F5F3F4F4EE083E299E00E949D
:1027500007282DEC34E04EE063E083E299E00E942C
:1027600007280E948E16BE016F5F7F4F0E94561091
:10277000BE016F5F7F4F83E299E00E947E276F2D3D
:10278000681B9E012F5F3F4F44E183E299E00E9466
:10279000072822ED33E044E163E083E299E00E9400
:1027A0000728BE016F5F7F4F8091CF089091D008BE
:1027B0000E945610BE016F5F7F4F83E299E00E9436
:1027C0007E276F2D681B9E012F5F3F4F4AE183E2FA
:1027D00099E00E94072826ED34E04AE163E083E2B5
:1027E00099E00E940728BE016F5F7F4F8091D30858
:1027F0009091D4080E945610BE016F5F7F4F83E214
:1028000099E00E947E276F2D681B9E012F5F3F4F2E
:1028100040E283E299E00E9407282FED34E040E295
:1028200063E083E299E00E94072869EE74E08FED8F
:1028300098E00E94771844E258E06AE572E08FED74
:1028400098E00E94AD1883E299E00E94882D8FE104
:102850009EE40197F1F700C0000091E081E0E916E5
:1028600019F093E0E91280E026960FB6F894DEBFE7
:102870000FBECDBFDF91CF911F910F91FF90EF90D1
:102880000895662319F0823019F480E00C940E0C40
:1028900081E008951F920F920FB60F9211240BB68C
:1028A0000F921BBE2F933F934F935F936F937F9332
:1028B0008F939F93AF93BF93EF93FF938BEC98E02D
:1028C0000E948D1589EB98E00E94B114FF91EF9161
:1028D000BF91AF919F918F917F916F915F914F9138
:1028E0003F912F910F900BBE0F900FBE0F901F9036
:1028F0001895CF93DF93DC0120E030E041E050E019
:102900001D92FC01E20FF31F16821486F901ED5DA2
:10291000F24FE491223078F47DB1EA0102C0CC0F8D
:10292000DD1FEA95E2F76C2F609567236DB96EB1F4
:102930006C2B6EB90EC07AB1EA0102C0CC0FDD1F5C
:10294000EA95E2F76C2F609567236AB96BB16C2B3F
:102950006BB92F5F3F4F2630310591F6DF91CF9154
:102960000895DF92EF92FF920F931F93CF93DF931F
:102970007C018C01C0E0D0E0DD24D394FE01ED5D4C
:10298000F24FE491C23010F48CB101C089B190E0F3
:1029900002C095958795EA95E2F780958170D801F8
:1029A000A9F08C918F30F0F48F5FF80180838B3029
:1029B000C8F0F701EC0FFD1F8681811113C0D4868A
:1029C000D6828BEC98E00E94D2150CC08C918823A3
:1029D00049F0F701EC0FFD1F148681508C93833072
:1029E00008F4168221960F5F1F4FC630D10531F6CD
:1029F000DF91CF911F910F91FF90EF90DF9008959D
:102A0000FC0186E01192158213868150D9F7089552
:102A1000CF93DF93EC018BEC98E00E945F16882344
:102A200019F0CE010E94001520E030E0822FFE0157
:102A3000E20FF31F9485992311F08F5F06C02F5F7B
:102A40003F4F2630310591F780E0DF91CF91089517
:102A5000CF93DF93EC018BEC98E00E945F16882304
:102A600019F0CE010E94001520E030E0822FFE0117
:102A7000E20FF31F9485992319F014868F5F06C027
:102A80002F5F3F4F2630310589F780E0DF91CF91EE
:102A900008950F931F93CF93DF931F92CDB7DEB7A7
:102AA0008C0101C0A895C80169830E94281569811D
:102AB0008613F8CF862F0F90DF91CF911F910F9142
:102AC00008950895FC0192E09093B000A1EBB0E06E
:102AD0001C928C9184608C938AE78093B30010924F
:102AE000B60090937000128A81E082871082118272
:102AF0001282138214821582168217821186108622
:102B0000789408951092B0001092B1001092B30022
:102B10001092B600109270000895FC018085918596
:102B200001969187808740815181628173814F5FD7
:102B30005F4F6F4F7F4F4083518362837383883E23
:102B40009340E8F011861086448155816681778133
:102B50004F5F5F4F6F4F7F4F44835583668377830B
:102B600086859785019697878687848595850196C2
:102B700095878487808991890196918B808B0895B0
:102B8000FC01108211821282138214821582168235
:102B90001782118610860895FC011082118212821C
:102BA00013820895CF93DF93EC011F861E861D8646
:102BB0001C866B89662329F083E299E00E94F52D3B
:102BC0001B8ADF91CF910895CF93DF93EC018A8523
:102BD000811103C01F861E8606C08B85811103C02C
:102BE000CE010E94D2158A858B87882399F0809127
:102BF000CD0B2AE0829FC00111242E853F85281726
:102C0000390740F00E94DF16CE010E94D21581E004
:102C10008A8B18C08B89811115C08091CC0B2AE05A
:102C2000829FC00111242C853D852817390750F05B
:102C300083E299E00E94482E8B8B60E083E299E06A
:102C40000E94F52D0E948316882381F08091CE0B7F
:102C50002AE0829FC0011124288939892817390761
:102C600038F080E0DF91CF910C947A16198A188A97
:102C7000DF91CF910895FC01608171818281938100
:102C800008950F931F93FC0124813581468157815C
:102C9000A8EEB3E00E94AE508B019C018085918527
:102CA000080F191F211D311DB801C9011F910F9176
:102CB0000895FC0164817581868197810895FC01E6
:102CC0008289128A089583E299E00E94032E83E2AA
:102CD00099E00C94882D3B9A43980B9A1398269A66
:102CE0002E9A279A2F9A6B98739A6F9A849A8C9837
:102CF00077980895269A882319F02E9881E00895F0
:102D00002E9A80E00895269B07C085B186FB882710
:102D100080F991E08927089580E00895CF93DF93AB
:102D200000D0CDB7DEB78091430C9091440C9E014A
:102D30002F5F3F4F009719F42D543C4002C0281BD1
:102D4000390B3A83298389819A810F900F90DF9103
:102D5000CF9108950F98179A8FE19EE40197F1F7AC
:102D600000C0000080B11798EFE1FEE43197F1F761
:102D700000C00000079905C08095881F8827881F1C
:102D8000089582E00895CF938FED98E00E94381D5A
:102D9000C1E089EB98E00E942815813029F48FED7D
:102DA00098E0CF910C943E1E0E94AA168823B9F396
:102DB000A8956C2F80E00E94BD0FC0E0EACF0E9472
:102DC000AA16811108C08091E00081608093E00024
:102DD000F894439AFFCF0C94C31695EA90937A0027
:102DE0008F3010F0885013C040B321E030E0082E3F
:102DF00001C0220F0A94EAF7922F9095942390BB7A
:102E000090917E00922B90937E00883058F78064DA
:102E100080937C0080917A00806480937A0044E6FD
:102E200060E070E0CB0120917A0024FFFCCF20917C
:102E30007A00206120937A00209178003091790007
:102E4000620F731F811D911D415069F710927A0026
:102E500024E630E040E050E00E94F150C9010895BE
:102E6000819A89988FE19EE40197F1F700C00000F4
:102E700082E00E94ED16819808951F93CF93DF930F
:102E800000D000D000D0CDB7DEB70E9430179E83AF
:102E90008D830E94AA16182F42E050E0811145C090
:102EA00063E070E0CE0101960E94DB532D813E81EC
:102EB00089819A812817390740F442E050E063E0A5
:102EC00070E0CE0105960E94F35342E050E061E0CD
:102ED00070E0CE0103960E94DB538B819C810196AA
:102EE00011F41C821B822D813E818B819C81821773
:102EF000930740F442E050E061E070E0CE010596B7
:102F00000E94F35349815A812D813E81241B350B48
:102F100064E6629FC001639F900D11246B817C81E8
:102F2000641B750B0E94C9504AC067E070E0CE0177
:102F300001960E94DB534D815E8129813A814217BF
:102F4000530740F442E050E063E070E0CE010596A4
:102F50000E94F35342E050E065E070E0CE0103963A
:102F60000E94DB534D815E812B813C812417350704
:102F700040F442E050E061E070E0CE0105960E942E
:102F8000F35349815A812D813E81241B350B64E620
:102F9000629FC001639F900D11246B817C81641B33
:102FA000750B0E94C950113031F46436710538F048
:102FB00063E670E004C0123011F464E670E0862F1E
:102FC00026960FB6F894DEBF0FBECDBFDF91CF912E
:102FD0001F9108950F931F93CF93DF93D82F80E015
:102FE0000E947A1683E299E00E94482EC82F60E082
:102FF00083E299E00E94F52DCC2349F02FE788E386
:1030000091E0215080409040E1F700C0000091B174
:10301000987F91B992B1987F92B991B18D2FD330A9
:1030200008F082E021E030E001C0220F8A95EAF743
:10303000892F822B81B982B1D22FD0958D2382B96D
:103040002FE788E391E0215080409040E1F700C0F5
:10305000000080E00E94ED168C0131B13D2331B9B2
:1030600083E299E00E94482E8C1728F46C2F83E2AB
:1030700099E00E94F52DC801DF91CF911F910F912A
:103080000895CF93DF93EC0180E00E94EA179983C3
:10309000888381E00E94EA179B838A8382E00E94F2
:1030A000EA179D838C83DF91CF910895E0EEF0E0E5
:1030B0008081816080830E94023E83E299E00E94C9
:1030C000D92D8BEC98E00E948215F89488E10FB618
:1030D000F89480936000109260000FBEE0E0F0EF83
:1030E0000995FC01168A178A108E118E0895EF92A9
:1030F000FF920F931F93CF93DF93EC017B018881A5
:1031000099810E947E27182F169505E023E540E05F
:1031100060E0888199810E94302A03E023E541E044
:1031200060E0888199810E94082A212F265D68E24B
:10313000611B05E040E0888199810E94302A69E2A4
:10314000611B970140E088819981DF91CF911F91A8
:103150000F91FF90EF900C940728CF92DF92EF929F
:10316000FF920F93CF93DF93EC016B017A010FE293
:1031700023E549E260E0888199810E94302A960126
:103180004AE262E0888199810E940728B70188811C
:1031900099810E947E2763E5681B97014AE2888136
:1031A00099810E94072823E549E260E0888199819E
:1031B0000E94082ADF91CF910F91FF90EF90DF904E
:1031C000CF9008959B0190E080E0F901729665919F
:1031D0007491FB01309719F05081552319F049176C
:1031E00031F09F5F8F5F2C5E3F4F843171F7089500
:1031F0009B0180E090E0F901729665917491FB016A
:10320000941751F0309711F0508151118F5F9F5FEB
:103210002C5E3F4F943179F70895CF93DF93EB0104
:10322000FC012389222369F130E021503109F901A1
:10323000EE0FFF1FE20FF31FE80FF91F84812581B6
:103240003681F4E18F9F200D311D1124DB0180E0D8
:1032500090E0F901E80FF91FE491ED9301968C30AD
:103260009105B9F78BE090E0FE01E80FF91F20818E
:10327000203211F011820AC0019781309105A1F727
:1032800005C069E27DE0CE010E941751CE01DF91B9
:10329000CF910895DF92EF92FF920F931F93CF93F8
:1032A000DF93EC01162FF42EE22ED02E6E894F897B
:1032B000288D098D842F862B822B802B21F08881ED
:1032C00099810E94082A1E8BFF8AE88ED98E0D2DC7
:1032D0002E2D4F2D612F888199810E94082ADF9120
:1032E000CF911F910F91FF90EF90DF9008950F9372
:1032F000CF93DF93EC016E894F89288D098D842F40
:10330000862B822B802B21F0888199810E94082AAC
:103310001E8A1F8A188E198EDF91CF910F91089502
:103320000F931F93CF93DF93EC01162F8A8D6817AD
:1033300030F0CE010E9477198FEF8C8B0FC049E0DF
:10334000649F402D11248D89481B042F015F495F24
:1033500021E561E0CE010E944A191C8BDF91CF91DB
:103360001F910F910895EF92FF920F931F93CF93A8
:10337000DF931F92CDB7DEB77C01162F372F442382
:1033800009F452C0A62FB72FFD0101900020E9F7E4
:103390003197EA1BFB0B26E02E9FC0012F9F900D5B
:1033A000112496958795AC0160E070E04093A60BE0
:1033B0005093A70B6093A80B7093A90B282F255D42
:1033C00067E2681B08E14CE0F70180819181398355
:1033D0000E94302A9091A60B292F265D68E2691B76
:1033E00007E14DE0F701808191810E94D92969E2CE
:1033F0009091A60B691B212F39814FE0F701808145
:1034000091810E94B428F701808191810E94882DCA
:103410008BEC98E00E9441166093A60B7093A70B6B
:103420008093A80B9093A90B8BEC98E00E94411617
:103430000091A60B1091A70B2091A80B3091A90B1E
:10344000601B710B820B930B643F714081059105EA
:1034500030F4F701828193810E942815811181E067
:103460000F90DF91CF911F910F91FF90EF900895F2
:103470007F928F929F92AF92BF92CF92DF92EF9204
:10348000FF920F931F93CF93DF93EC01F62E5A0117
:103490004901702E10929A0BCC2009F430C1FA0128
:1034A000C080D180888199810E94542D05E023E558
:1034B00042E060E0888199810E94082A0EE121E0C3
:1034C00046E060E0888199810E94082A23E546E071
:1034D00062E5888199810E94082AA72DB12FFD01FC
:1034E00001900020E9F73197EA1BFB0BE0939B0B5F
:1034F0006AEF6E9F602D1124605B272D312F40E213
:10350000888199810E94B428F40101900020E9F794
:103510003197E819F909E0939B0B26E0E29FF0014F
:103520001124F595E7958AE28E1B80939C0B07E2A8
:1035300023E54FE160E0888199810E94082A4FE0ED
:1035400055E064E272E0CE010E94AD1860919C0BE0
:1035500090919B0B292F220F290F220F260F05E098
:1035600042E0888199810E94082A940140E060919C
:103570009C0B888199810E94B42880E0E82FF0E0BC
:10358000E256F44F10828F5F8530C0F346E4E416B4
:1035900021F054E5E5128AC043C0E8E5F2E0C60137
:1035A000BF010E94C9508C01C81AD90A2AE030E034
:1035B000B9010E94DD5080939E0BA801481B590B56
:1035C000CA01B9010E94DD508B01CB01B9010E94F3
:1035D000DD5080939F0BA801481B590BCA01B9010C
:1035E0000E94DD506093A00BC601BF010E94C9502C
:1035F000CB01BF010E94C950FC01B9010E94DD50FE
:103600008093A10BAF01481B590BCA01B9010E945D
:10361000DD506093A30B7093A40B6093A20B6AC060
:10362000ECE3F0E0C601BF010E94C9508C01C60165
:10363000801B910BBF010E94C9506B012AE030E052
:10364000C801B9010E94DD5080939E0BA801481B60
:10365000590BCA01B9010E94DD5060939F0BC6014E
:10366000BF010E94C9508C01C81AD90AB9010E9431
:10367000DD508093A00BA801481B590BCA01B9016A
:103680000E94DD506093A10BC601BF010E94C9508A
:10369000CB01BF010E94C9509093A40B8093A30B50
:1036A000B9010E94DD508093A20B24C09090A30B1F
:1036B0004091A40BE0E00AE010E013C0C601B8019D
:1036C0000E94C9509C01982E432FC601821B930B68
:1036D000B8010E94C9506B01F0E0E256F44F20831C
:1036E000E82D8E2E8394C114D10441F79092A30B40
:1036F0004093A40B85E080939B0B10929D0B8F2D24
:103700008150823008F4FDC00EE121E548E063E01D
:10371000888199810E94302A10929C0B10EF12C070
:10372000E62FF0E0E256F44F2081205D619F602D8E
:1037300011246C5B45E00E94D92880919C0B8F5F1F
:1037400080939C0B60919C0B20919B0B88819981AD
:10375000621730F356E4E51621F0E4E5EE1232C0CC
:1037600013C00EE022E24CE061E20E94D92906E19A
:1037700022E244E161E2888199810E94D9290AE12B
:1037800022E448E161E41AC00EE022E34CE061E388
:103790000E94D92906E122E344E161E3888199810D
:1037A0000E94D9290EE022E14CE061E188819981F3
:1037B0000E94D92906E122E144E161E188819981F1
:1037C0000E94D92980919D0B25E030E0281B31090A
:1037D0002295207F60EF869F602D11246D5B0CE1A8
:1037E00048E0888199810E94082A80919D0BF6E427
:1037F000EF1621F024E5E21207C003C0823031F059
:1038000003C080FF08C002C0843011F485E001C00D
:1038100089E08093A50B888199810E94882DFF20E3
:1038200009F4FCC044E0F41671F04F1520F053E0A9
:10383000F512F4C025C085E0F81609F453C096E0EF
:10384000F912ECC042C080919D0B25E030E0281BAE
:1038500031092295207F60EF869F602D11246D5BDA
:103860000CE148E0888199810E94082A80919D0B93
:10387000811102C080919B0B815080939D0BCEC023
:1038800080919D0B25E030E0281B31092295207F97
:1038900060EF869F602D11246D5B0CE148E088810C
:1038A00099810E94082A40919D0B242F30E080913D
:1038B0009B0B90E001972817390724F44F5F409342
:1038C0009D0BACC010929D0BA9C0E0919D0BF0E048
:1038D000E256F44F8081882311F081500EC0809110
:1038E000A50B0BC0E0919D0BF0E0E256F44F8081F8
:1038F0009091A50B891718F48F5F80838FC0108279
:103900008DC06091A20B50919F0BE6E4EE1631F052
:103910008091A10BF4E5EF1246C023C08091A00B6B
:103920002AE0529F8001112444E6849F000D111D5E
:10393000112480919E0B080F111D8091A10B90E026
:103940005AE0659F800D911D112448E552E0849F47
:103950009001859F300D949F300D1124020F131F8D
:1039600042C000919E0B10E09AE0599F000D111D7E
:10397000112440E15EE0649F9001659F300D1124A9
:10398000020F131F2091A00B30E0EAE08E9F200D64
:10399000311D11244CE3429FC001439F900D11241F
:1039A000080F191F20C04AE090E0FAE06F9F800DD9
:1039B000911D1124489F9001499F300D1124809141
:1039C000A00B280F311D429FC001439F900D112471
:1039D000850F911D489F8001499F100D11248091F2
:1039E0009E0B080F111D22E0F21215C041E069E1A3
:1039F00072E0CE010E94B3194FEF54E38CE04150C6
:103A000050408040E1F700C00000F50111830083C1
:103A1000F0929A0B03C081E080939A0B80919A0BED
:103A2000DF91CF911F910F91FF90EF90DF90CF909A
:103A3000BF90AF909F908F907F900895CF93DF932A
:103A4000FC012389253088F42F5F238B30E021503F
:103A50003109E901CC0FDD1FC20FD31FC80FD91FD9
:103A60007E836D830E94E2188C83DF91CF9108954D
:103A7000FC01638D748D44890C941E1DEF92FF929E
:103A80000F931F93CF93DF93EC014C898A8D4817D6
:103A900008F0AFC00B8D1C8DB801CE010E94E2185A
:103AA00094E1899F70011124B8016E0D7F1DFB0107
:103AB0003D9624912E8F2D3469F030F4253429F170
:103AC000263409F096C018C02035F9F0233509F0E6
:103AD00090C063C0CE010E94381DEB8DFC8DEE0DB1
:103AE000FF1D3E96859194918B8F9C8F60E0CE0157
:103AF0000E94901981E07CC0625F7F4FFB0185913D
:103B000094918DA39EA384E073C080E090E0382F51
:103B1000FB01E80FF91FE491DE01A80FB91F9B9686
:103B2000EC93E03229F001968A30910581F73AE072
:103B3000DE01A30FB11D9B961C92FB01709685912F
:103B40009491009791F0FC0130E0CE018E1B9F0B09
:103B50004491DC01AE0FBF1FD6964C93442331F045
:103B60003F5F31963D30A1F701C030E0DE01A30F89
:103B7000B11DD6961C92203511F483E001C082E07D
:103B80008D8FFB013B96E491EE8F625F7F4FFB01CF
:103B9000859194918F8F98A32CC080E090E0282F7E
:103BA000FB01E80FF91FE491DE01A80FB91F9B96F6
:103BB000EC93E03229F001968B30910581F72BE0F0
:103BC000FE01E20FF11D13A6FB01729685919491FF
:103BD0008FA398A7FB0170968591949189A39AA3CE
:103BE000625F7F4FFB01859194918BA39CA385E03D
:103BF0008D8FDF91CF911F910F91FF90EF900895DE
:103C0000FC018389882389F08150838B90E0DC015B
:103C1000AA0FBB1FA80FB91FAE0FBF1FFD0134961F
:103C200014966C9171818281089564817581868179
:103C30000895FC01558944894330A8F0242F30E0D1
:103C4000828D90E001972817390731F489E0489F69
:103C5000402D1124475105C089E0489F402D112473
:103C60004251458B01C0158A8589811105C081E0CB
:103C7000511103C080E0089581E008950F931F93D0
:103C8000CF93DF93EC018B89882381F0CE010E94D2
:103C9000001E462F072F182FB801CE010E94F818DA
:103CA0008C8B0B8F1C8FCE010E94191E81E08D8F93
:103CB000DF91CF911F910F9108955F926F927F9244
:103CC0008F929F92AF92BF92CF92DF92EF92FF922C
:103CD0000F931F93CF93DF93CDB7DEB7A4970FB6A3
:103CE000F894DEBF0FBECDBF6C01DC015C967C9307
:103CF0006E935B970E947719F601808191810E94F3
:103D0000542DC6010E94191ED6015D961C925D9726
:103D10005A961C92A12CB12C512C712C6CE0862E41
:103D2000912C79E0672EF601438D548D9A012A0D6E
:103D30003B1DF901729665917491DB01109721F09A
:103D40008C91882309F4BFC0F9013D96A491F60136
:103D5000A68F4A0D5B1DFA013B961491A53411F014
:103D6000A03529F5225F3F4FF90185919491BC015F
:103D7000A03549F442E050E0CE0182960E94DB5328
:103D8000BE016E5D7F4FDB012D913C91F601428DAE
:103D9000469D402D11248589481B485F52E5E52E3C
:103DA000012F60E5808191810E94582A582ED6010A
:103DB0005E968C915E97833509F053C01A3209F0F4
:103DC00050C05B962D913C915C972A0D3B1DF901EB
:103DD0003E9605911491205F3F4FF9012591349152
:103DE000D901F60130A3278F9801205C3E4FF801DE
:103DF0008491803341F4D6015A968C915A978F5F03
:103E00005A968C9360C0F8013D96E491F0E08D9154
:103E10009C911197E817F907E9F432E0E12CF12CB5
:103E2000F801EE0DFF1D2491F601428D469D402DB7
:103E300011248589481B485F632F808191813CA3B1
:103E40000E942328FFEFEF1AFF0A3CA13A5F3A34A1
:103E500039F7D1CF005F1F4F0217130709F0C7CF03
:103E6000CACF32E000E010E07401E518F108D60195
:103E70005E968C91853411F0803519F40E151F056E
:103E8000E4F4D6015B96ED91FC915C97EA0DFB1D85
:103E9000E00FF11F24915A964C915A97469D402D60
:103EA000112455968C915597481B485F632F8D912F
:103EB0009C913CA30E9423283CA10F5F1F4F3A5FB7
:103EC0003A34A9F698CFB4E1AB0EB11CD6015B969B
:103ED000ED91FC915C97EA0DFB1DE491EE2349F016
:103EE0007394B0E9AB16B1E0BB0609F01CCF34E126
:103EF000732E7394F6016489C6010E949019F4E14F
:103F00007F9E80011124D6015B966D917C915C9718
:103F1000600F711F6F5F7F4FFB018491803229F02A
:103F2000CE0101960E94175106C0BE016F5F7F4F00
:103F3000C6010E940D19BE016F5F7F4FC6010E942E
:103F40007718D6015B968D919C915C97800F911F9D
:103F5000FC013D9624919A961C921E9299972234C8
:103F600019F0263409F034C04096FC0185919491F3
:103F7000BC01CE0148962CA30E941751D6015B9636
:103F8000ED91FC915C97E00FF11F729685919491F1
:103F9000BC01CE010E960E941751AE01425F5F4FE9
:103FA000BE01685E7F4FC6010E94AD182CA1263469
:103FB00079F4D6015B96ED91FC915C97E00FF11FCF
:103FC0003E968591949199968C9399979A969C9305
:103FD000A4960FB6F894DEBF0FBECDBFDF91CF9190
:103FE0001F910F91FF90EF90DF90CF90BF90AF9017
:103FF0009F908F907F906F905F900895CF93DF9305
:10400000EC016C89662319F061500E949019CE0171
:104010000E94191E882329F06B8D7C8DCE010E9491
:104020005D1E88819981DF91CF910C94882DCF936B
:10403000DF93EC016C89262F30E08A8D90E00197A8
:104040002817390724F46F5FCE010E949019CE0122
:104050000E94191E882329F06B8D7C8DCE010E9451
:104060005D1E88819981DF91CF910C94882D6F928C
:104070007F929F92AF92BF92CF92DF92EF92FF9288
:104080000F931F93CF93DF931F92CDB7DEB73C0101
:10409000F62E5A016901E11008C025E0F21609F474
:1040A0009BC086E0F81227C19FC0DC018D919C91D6
:1040B0000E94542DB801C3010E9477184FE055E0CB
:1040C00064E272E0C3010E94AD1808E127E44CE00D
:1040D00062E0F301808191810E94D92909E128E4FD
:1040E0004BE061E0D3018D919C910E94D92901E1BF
:1040F00022E541E16AE4F301808191810E948929EE
:1041000000E122E540E16AE4D3018D919C910E9497
:1041100089290FE021E54FE06BE4F3018081918173
:104120000E9489290EE020E54EE06CE4D3018D91D8
:104130009C910E9489290DE02FE44DE06DE4F3018C
:10414000808191810E94892903E122E543E16AE4AB
:10415000D3018D919C910E94892904E122E544E1DB
:104160006AE4F301808191810E94892905E121E5BA
:1041700045E16BE4D3018D919C910E94892906E170
:1041800020E546E16CE4F301808191810E94892958
:1041900007E12FE447E16DE4D3018D919C910E94EA
:1041A00089291092AA0B90E080E008C03D96E49126
:1041B000D5012C912E1301C0982F8F5FF601B0E12D
:1041C0008B9FE00DF11D112424912111EFCF9093CD
:1041D000AA0B8093AB0B61CF8091AA0B882391F03F
:1041E00081508093AA0B0EC04091AA0B242F30E07F
:1041F0008091AB0B90E00197281739071CF44F5FB3
:104200004093AA0B07E125E44DE063E0F3018081D0
:1042100091810E94302A34E000E010E08091AA0BE6
:10422000F60120E1829FE00DF11D1124E00FF11F46
:1042300024914FE0632FD3018D919C9139830E948B
:1042400023280F5F1F4F39813A5F363439F703E275
:1042500023E54EE160E0F301808191810E94302AE4
:104260008091AA0BF60120E1829FE00DF11D11243F
:104270003E96859194918C01912CE12C07C0692D7B
:104280006E0D4EE10E949E27980EE394F801EE0D0C
:10429000F11D2491D3018D919C912111F0CF0E94A9
:1042A000882DB2E0FB1641F0E3E0FE1619F0F1E0D4
:1042B000FF121FC081E022C08091AA0B20E1829FE3
:1042C000C00CD11C1124F6013D96E491D501EC936C
:1042D00041E069E172E0C3010E94B319BFEFE4E37A
:1042E000FCE0B150E040F040E1F700C0000082E0A7
:1042F00005C080E003C0E11085CFD3CF0F90DF91E0
:10430000CF911F910F91FF90EF90DF90CF90BF90D2
:10431000AF909F907F906F900895AF92BF92CF9291
:10432000EF92FF920F931F93CF93DF9300D0CDB7FF
:10433000DEB75C01DC0112968D919C9113970E946F
:104340002815F82EF501858D81110DC08F2D815016
:10435000823048F421A532A52115310521F036A37C
:1043600025A384E0858FD5015D968C91833009F477
:1043700076C020F4813059F1D0F509C0853009F4B8
:104380004AC008F4B3C0863009F0C0C030C0B4E001
:10439000FB16A9F0BF1520F0E3E0FE12B7C013C072
:1043A000F5E0FF1621F086E0F812B0C004C0C501A8
:1043B0000E94FE1FABC0C5010E941720A7C0C50107
:1043C0000E943E1DA3C0C5010E943E1E9FC0809357
:1043D0001E01D5015B966D917C915C97C5010E9491
:1043E0005D1EF501808191810E94882D8FC085011D
:1043F0000A5C1F4F9501255D3F4FD5015F964D919A
:104400005C919097C0901E015E96EC906F2DC50157
:104410000E94381A74C08501055D1F4FD50193961F
:104420002D913C91949791964D915C919297E0904B
:104430001E016F2DC5010E94372010921E01882396
:1044400009F464C0823009F05EC0D5019796ED9101
:10445000FC919897309709F456C0099554C0809103
:104460001E01882359F0D5015F966D917C9190973C
:1044700042E050E088E99BE00E94DB5385010A5C42
:104480001F4F9501255D3F4FC0901E01F501E68C41
:1044900048E95BE06F2DC5010E94381A10921E0199
:1044A0008823A1F18230E9F4D5015F966D917C916A
:1044B000909742E050E0CE0101960E94DB532981A3
:1044C0003A818091980B9091990B2817390749F000
:1044D000F501678D70A142E050E088E99BE00E9401
:1044E000F35381E0D5015D968C9310C0D50195966C
:1044F000ED91FC91969760911E018F2D0995109278
:104500001E01882319F081E0F501858FD5015D96A4
:104510008C918111F12C8F2D0F900F90DF91CF9105
:104520001F910F91FF90EF90CF90BF90AF900895A3
:104530008F929F92BF92CF92DF92EF92FF920F9352
:104540001F93CF93DF931F92CDB7DEB74C01162F89
:104550007A016901B02E002311F1FC018081918163
:104560000E94542DB601C4010E9477184FE055E017
:1045700064E272E0C4010E94AD1808E121E54CE05C
:1045800061E0F401808191810E94D92909E122E54D
:104590004BE060E0F401808191810E94D9291430C0
:1045A00099F018F41330E1F505C0153039F11630E3
:1045B000B9F513C08091AC0B882311F0815001C074
:1045C0008AE08093AC0B2EC08091AC0B8A3010F443
:1045D0008F5FF7CF1092AC0B25C08091AC0BF70129
:1045E000E80FF11D80818B3510F080E4808380819D
:1045F000813410F0815012C08AE510C08091AC0B5C
:10460000F701E80FF11D8081813410F48BE5808380
:1046100080818B3510F48F5F01C081E4808302C0FC
:10462000BB20B1F107E12FE44DE062E0F4018081AD
:1046300091810E94302ABE2C670133E0FC2CFB18CC
:10464000F60121916F01822F81548A3108F020E216
:104650004FE0632FF4018081918139830E942328E8
:104660008091AC0B3981F8120BC0232F2A5F06E131
:104670004EE0632FF401808191810E94082A3981E4
:10468000395F3035D9F6F401808191810E94882DFF
:104690001150123030F4E12FF0E0E95CFE4F8081E0
:1046A00001C080E00F90DF91CF911F910F91FF909B
:1046B000EF90DF90CF90BF909F908F900895279AB2
:1046C0002F9A0895CB01F89469E170E00E94C950D7
:1046D00080E090E02F9820E22A95F1F72F9A20E2CF
:1046E0002A95F1F7019668177907A0F7789408954D
:1046F000CB016AE170E00E94C95080E090E0F8943C
:104700002F9822E22A95F1F700C02F9A22E22A95EB
:10471000F1F700C0789401966817790780F708953B
:104720008F929F92AF92BF92CF92DF92EF92FF92C1
:104730000F931F93CF93DF93CDB7DEB7A1970FB63B
:10474000F894DEBF0FBECDBF8C01FC0180818823B1
:1047500031F0F8018081813009F04EC027C080E13E
:1047600090E0F8942F98F8E2FA95F1F700C02F9AAC
:1047700028E22A95F1F700C07894019791F783E435
:1047800099E30197F1F700C0000080E190E0F89410
:104790002F98E8E2EA95F1F700C02F9AF8E2FA952F
:1047A000F1F700C07894019791F7D3CF60ED77E0EF
:1047B000C8010E9462238BE699ED0197F1F700C0D2
:1047C000000066E871E0C8010E946223E7E5FCE0B2
:1047D0003197F1F700C000006AE971E0C8010E945A
:1047E000622387EF9BE10197F1F700C0000060E9C9
:1047F00071E0C8010E946223F8018081853031F0A8
:10480000F8018081843009F059C01EC068EC72E361
:10481000C8010E9478238FE697E10197F1F700C065
:10482000000057E0E52EF12C68EE73E0C8010E940D
:104830007823EFECF7E03197F1F700C00000F1E0EA
:10484000EF1AF10889F7DCCF80E2E9E3F1E0DE015D
:10485000119601900D928A95E1F76CE073E2C80120
:104860000E9462238FE392E20197F1F700C00000FB
:1048700060E772E0C8010E946223EE24E394F12C09
:10488000EC0EFD1E6E0191E2C90ED11CF701819163
:104890007F01811105C08FEC93E00197F1F704C00F
:1048A000EFE7FCE03197F1F700C0000068E572E047
:1048B000C8010E946223EC14FD0441F7F8018081D5
:1048C0008330C1F581E2E9E5F1E0DE011196019066
:1048D0000D928A95E1F766EA7EE0C8010E9478238E
:1048E00083EC9EE00197F1F700C00000EE24E39412
:1048F000F12CEC0EFD1E6E0192E2C90ED11CF701E7
:1049000081917F0168EC71E0811108C0C8010E94AB
:1049100078238DEC93E00197F1F707C0C8010E945E
:104920007823EBE2FBE03197F1F700C00000EC14D4
:10493000FD0429F7F8018081823009F047C024E1A5
:10494000EAE7F1E0CE010196DC0101900D922A9593
:10495000E1F723E0C22ED12C982E892E5E01F5E1DD
:10496000AF0EB11C60E179E0C8010E94622383E1CF
:1049700095E00197F1F700C00000E92CF82CF70151
:1049800081917F0181110AC06FE372E0C8010E942A
:10499000622383E195E00197F1F709C067E974E0CC
:1049A000C8010E946223E3E1F5E03197F1F700C00E
:1049B0000000EA14FB0419F78FE19EE40197F1F778
:1049C00000C0000091E0C91AD10861F6A1960FB6A7
:1049D000F894DEBF0FBECDBFDF91CF911F910F9135
:1049E000FF90EF90DF90CF90BF90AF909F908F900F
:1049F00008959F92AF92BF92CF92DF92EF92FF9273
:104A00000F931F93CF93DF93CDB7DEB7A1970FB668
:104A1000F894DEBF0FBECDBF8C01FC0180818111F7
:104A200024C0F89480E190E02F98F8E2FA95F1F72D
:104A300000C02F9A28E22A95F1F700C00197A1F74C
:104A40008FED99E20197F1F700C0000080E190E05E
:104A50002F98E8E2EA95F1F700C02F9AF8E2FA956C
:104A6000F1F700C00197A1F77894F80180818330B5
:104A7000C1F581E2EEE8F1E0DE01119601900D92C0
:104A80008A95E1F766EA7EE0C8010E94782383EC0C
:104A90009EE00197F1F700C00000EE24E394F12CB2
:104AA000EC0EFD1E6E0192E2C90ED11CF701819140
:104AB0007F0168EC71E0811108C0C8010E94782371
:104AC0008DEC93E00197F1F707C0C8010E947823AD
:104AD000EBE2FBE03197F1F700C00000EC14FD04BD
:104AE00029F7F80180818230E9F524E1EFEAF1E06D
:104AF000CE010196DC0101900D922A95E1F763E069
:104B0000B62EA82E992E6E01F5E1CF0ED11C60E1D4
:104B100079E0C8010E94622383E195E00197F1F7F3
:104B200000C00000EA2CF92CF70181917F0181116E
:104B300003C06FE372E002C067E974E0C8010E943D
:104B4000622383E195E00197F1F700C00000EC14C7
:104B5000FD0451F7EFE1FEE43197F1F700C00000EA
:104B6000BA94A9F6A1960FB6F894DEBF0FBECDBFDA
:104B7000DF91CF911F910F91FF90EF90DF90CF9039
:104B8000BF90AF909F900895AF92BF92CF92DF9267
:104B9000EF92FF920F931F93CF93DF93CDB7DEB7C2
:104BA000A0970FB6F894DEBF0FBECDBF8C015B019E
:104BB000FC018081843009F079C080E2E3ECF1E00F
:104BC000DE01119601900D928A95E1F768E273E299
:104BD000C8010E94622387E293E20197F1F700C0C7
:104BE000000064EF71E0C8010E946223EE24E394A8
:104BF000F12CEC0EFD1E6E0191E2C90ED11CF701E5
:104C000081917F01811105C087EE93E00197F1F753
:104C100004C0E7EBFBE03197F1F700C0000064EF60
:104C200071E0C8010E946223EC14FD0441F7FFEF1C
:104C300029EF80E0F15020408040E1F700C0000003
:104C400095012536310510F024E630E044E3429F1B
:104C5000C001439F900D112464E670E00E94C9508A
:104C60007B019FEFE91AF90ADD24D3941AC068E2A8
:104C700073E2C8010E946223EFE9FFE03197F1F788
:104C800000C0000064EF71E0C8010E946223FFEFE2
:104C900027E582E0F15020408040E1F700C00000AD
:104CA000D3948D2D90E08E159F0508F3A0960FB636
:104CB000F894DEBF0FBECDBFDF91CF911F910F9152
:104CC000FF90EF90DF90CF90BF90AF900895AF929C
:104CD000BF92CF92DF92EF92FF920F931F93CF93E9
:104CE000DF93CDB7DEB7A0970FB6F894DEBF0FBE47
:104CF000CDBF8C015B01FC018081843009F079C05B
:104D000080E2E3EEF1E0DE01119601900D928A95CA
:104D1000E1F768E273E2C8010E94622387E293E24E
:104D20000197F1F700C0000064EF71E0C8010E9434
:104D30006223EE24E394F12CEC0EFD1E6E0191E251
:104D4000C90ED11CF70181917F01811105C087EE49
:104D500093E00197F1F704C0E7EBFBE03197F1F73F
:104D600000C0000064EF71E0C8010E946223EC14EF
:104D7000FD0441F7FFEF29EF80E0F1502040804033
:104D8000E1F700C0000095012536310510F024E65A
:104D900030E046E4429FC001439F900D112464E639
:104DA00070E00E94C9507B019FEFE91AF90ADD24E7
:104DB000D3941AC068E273E2C8010E946223EFE94B
:104DC000FFE03197F1F700C0000064EF71E0C80127
:104DD0000E946223FFEF27E582E0F15020408040EF
:104DE000E1F700C00000D3948D2D90E08E159F0553
:104DF00008F3A0960FB6F894DEBF0FBECDBFDF91CB
:104E0000CF911F910F91FF90EF90DF90CF90BF90C7
:104E1000AF9008958D982D98089508956435D8F42D
:104E20004033C8F4E42FF0E023E0F595E7952A95A8
:104E3000E1F726E0629FE00DF11D1124E80FF91F54
:104E4000477081E090E0042E01C0880F0A94EAF7D1
:104E50009081982B908308956435E0F44033D0F42A
:104E6000E42FF0E033E0F595E7953A95E1F726E099
:104E7000629FE00DF11D1124E80FF91F477081E0DA
:104E800090E0042E01C0880F0A94EAF78095908183
:104E9000892380830895E42FF0E053E0F595E795AA
:104EA0005A95E1F726E0629FE00DF11D1124E80F0D
:104EB000F91F808190E0477002C0959587954A95CB
:104EC000E2F7817008950F931F93CF93DF93EC0166
:104ED000162F042F0E944B27402F612F882339F073
:104EE000CE01DF91CF911F910F910C942C27CE0111
:104EF000DF91CF911F910F910C940E27DB0180E081
:104F000019C0E03211F48E5F15C0EE3299F09E2F79
:104F100090539A3010F48D5F0DC0EB3508F0E052DD
:104F2000E15496E0E99FF0011124ED5CF24FE49129
:104F30008E0F8F5FED91E111E4CF08956F927F9214
:104F40008F929F92AF92BF92CF92DF92EF92FF9299
:104F50000F931F93CF93DF936C01862E742E203214
:104F600009F443C02E3209F442C0822F80538A30A4
:104F700010F4265106C02B3508F0205221542B3551
:104F8000B0F586E0289F90011124F901ED5CF24F05
:104F9000949000E010E064E3A62E6DE0B62EA20E21
:104FA000B31E1EC0F501E00FF11FE490C0E0D0E099
:104FB000F12C682E680C97010C2E02C035952795B0
:104FC0000A94E2F720FF06C04C2F470D662DC6015C
:104FD0000E940E272196C530D10569F70F5F1F4F3C
:104FE000802F0915F8F2892D03C082E001C080E00E
:104FF000DF91CF911F910F91FF90EF90DF90CF90B5
:10500000BF90AF909F908F907F906F900895EF9298
:10501000FF920F931F93CF93DF938C01F62EE42E14
:10502000E90107C04E2D6F2DC8010E949E27F80E82
:10503000F39429912111F6CFDF91CF911F910F9118
:10504000FF90EF9008957F928F929F92AF92BF92C0
:10505000CF92DF92EF92FF920F931F93CF93DF9344
:105060005C01962E842E205286E0289F7001112428
:10507000C0E0D0E08BE09EE0E80EF91EF701EC0FF7
:10508000FD1FC49000E010E0D12C7C2E790CC601ED
:10509000002E02C0959587950A94E2F780FF06C01E
:1050A000482D400F672DC5010E940E270F5F1F4F2F
:1050B0000830110561F72196C630D105F9F6DF9168
:1050C000CF911F910F91FF90EF90DF90CF90BF9005
:1050D000AF909F908F907F9008958F929F92AF9204
:1050E000CF92DF92EF92FF921F93CF93DF936C01E9
:1050F000162FA42EE9012A30310590F0243631050F
:1051000010F41A5F0DC0283E83E0380710F4145FD6
:1051100007C0203187E2380710F41E5E01C0185E18
:105120007AE0872E912CCE01B4010E94C9507C01F7
:10513000282F205D4A2D612FC6010E942328CE0111
:105140008E199F09B4010E94C950EB011650209797
:1051500051F7DF91CF911F91FF90EF90DF90CF90AB
:10516000AF909F908F900895CF92DF92FF920F9310
:105170001F93CF93DF931F92CDB7DEB78C01562FCD
:10518000F42E690108C04F2D652FC80159830E9474
:10519000232859815A5FF60121916F012111F3CF24
:1051A0000F90DF91CF911F910F91FF90DF90CF90E3
:1051B00008952F923F924F925F926F927F928F92BB
:1051C0009F92AF92BF92CF92DF92EF92FF920F9396
:1051D0001F93CF93DF931F92CDB7DEB73C01562EBE
:1051E000342F2E3231F02B3231F02D3231F02F703E
:1051F00005C02AE003C02BE001C02CE083E0289F1B
:1052000050011124E4E0AA0CBB1CEA95E1F7E12C63
:10521000F12C2EC0F601E20DF31D849000E010E0A9
:10522000912C422C450CC401002E02C09595879507
:105230000A94E2F780FF08C0432F400F642DC3019A
:1052400039830E940E2739810F5F1F4F08301105E7
:1052500051F79FEF291A390AE0E12E163104D1F6F1
:10526000385FF0E1EF0EF11C80E3E816F10451F035
:105270006701CA0CDB1C212C312CE3E3F0E1CE0EDC
:10528000DF1EC8CF0F90DF91CF911F910F91FF903C
:10529000EF90DF90CF90BF90AF909F908F907F90D6
:1052A0006F905F904F903F902F900895CF92DF9234
:1052B000FF920F931F93CF93DF931F92CDB7DEB76B
:1052C0008C01562FF42E690108C04F2D652FC8019F
:1052D00059830E94D9285981505FF60121916F01AD
:1052E0002111F3CF0F90DF91CF911F910F91FF907C
:1052F000DF90CF900895222339F0213019F02F3F0D
:1053000039F404C00C940E270C942C270C946327BA
:105310000895AF92BF92CF92DF92EF92FF920F93D8
:105320001F93CF93DF93EC01F62EE42E122F161B62
:10533000041BBB24B394111101C0B12CCC24C39421
:10534000011101C0C12C4E2D6F2DCE010E940E27E0
:10535000101798F0D12ED694A12C0CC0D00ED116D7
:1053600010F0D11AEC0CFB0C4E2D6F2DCE010E94CB
:105370000E27A394A112F2CF11C0D02ED694A12C47
:10538000D10ED01610F0D01AFB0CEC0C4E2D6F2D58
:10539000CE010E940E27A394A012F2CFDF91CF91ED
:1053A0001F910F91FF90EF90DF90CF90BF90AF9043
:1053B0000895DF92EF92FF920F931F93CF93DF93A5
:1053C000EC01F62ED42EE22E102F042F0E948929F4
:1053D000012F2E2D4D2D6E2DCE010E9489292F2DAE
:1053E0004D2D6F2DCE010E9489292E2D412F6F2D1D
:1053F000CE010E948929DF91CF911F910F91FF90DB
:10540000EF90DF90089581E0611101C080E0089580
:10541000CF92DF92EF92FF920F931F93CF93DF9380
:105420001F92CDB7DEB76C01E42EF62E0BC0412FD4
:105430006F2DC60129830E9463271F5F29810117F1
:10544000B0F7F3942F1510F01E2DF9CF0F90DF91C8
:10545000CF911F910F91FF90EF90DF90CF90089523
:10546000CF92DF92EF92FF920F931F93CF93DF9330
:105470001F92CDB7DEB76C01E42EF62E0BC0412F84
:105480006F2DC60129830E942C271F5F29810117D8
:10549000B0F7F3942F1510F01E2DF9CF0F90DF9178
:1054A000CF911F910F91FF90EF90DF90CF900895D3
:1054B0004F925F926F927F928F929F92AF92BF9224
:1054C000CF92DF92EF92FF920F931F93CF93DF93D0
:1054D0001F92CDB7DEB72C01762E642E690182E5CE
:1054E000E81202C0EAEF07C02A303105A8F02436DE
:1054F000310518F4E6E07E0E0FC0283EF3E03F07CA
:1055000010F48CE008C02031E7E23E0718F4F2E125
:105510007F0E02C088E1780E043529F1053521F0AF
:10552000063409F040C1ACC030E00AE010E0C6012A
:10553000B8010E94C9507C01282F205D462D672D9F
:10554000C20139830E942328C6018E199F09B80120
:105550000E94C9506B01EAEF7E0E39813F5F6115F1
:10556000710529F721C10CE3E02EF12CC601B7012A
:105570000E94C9505C01C6018A199B09B7010E94AB
:10558000C9504B010AE010E0C501B8010E94C950A2
:105590006C01282F205D462D672DC2010E94232813
:1055A000C5018C199D09B8010E94C950262F205DA4
:1055B000672D6650462DC2010E942328672D6C502E
:1055C0002AE3462DC2010E942328C401B7010E948C
:1055D000C9506C01C4018C199D09B7010E94C950C2
:1055E0005B01C601B8010E94C9507C01282F205DD3
:1055F000672D6251462DC2010E942328372D385154
:10560000C6018E199F09B8010E94C950262F611149
:1056100002C013E001C014E0205D462D632FC201DB
:105620000E942328672D6E512AE3462DC2010E9455
:105630002328372D3452C5016CE370E00E94C95015
:105640006AE070E00E94C950811116E0282F205DA9
:10565000462D632FC2010E942328672D6A52062D12
:10566000095F87E090E0811B282F220F280F220F6F
:10567000260F462DC2010E94302A37E0311B94C00C
:1056800028E532E0C601B9010E94C9507C01C6017B
:105690008E199F09B9010E94C9505B010AE010E010
:1056A000C701B8010E94C9506C01282F205D462D0A
:1056B000672DC2010E942328672D66502EE2462DD9
:1056C000C2010E942328C7018C199D09B8010E94BC
:1056D000C9507B01CB01B8010E94C9506C01282F31
:1056E000205D672D6C50462DC2010E942328372D66
:1056F0003251C7018C199D09B8010E94C950262F4B
:10570000611103C012E0D12E02C0B3E0DB2E205D98
:10571000462D632FC2010E942328672D68512AE37A
:10572000462DC2010E942328372D3E51C50168E550
:1057300072E00E94C9508C016AE070E00E94C9507A
:105740007C01282F882311F0A5E0DA2E205D462D5C
:10575000632FC2010E942328372D3452C8018E19AD
:105760009F096AE070E00E94C950262F662311F05D
:10577000F6E0DF2E205D462D632FC2010E94232814
:10578000672D6A52062D095F87E090E08D19282F5A
:10579000220F280F220F260F462DC2010E94302A09
:1057A00037E03D1901C030E0832F0F90DF91CF919A
:1057B0001F910F91FF90EF90DF90CF90BF90AF902F
:1057C0009F908F907F906F905F904F9008952F9251
:1057D0003F924F925F926F927F928F929F92AF9281
:1057E000BF92CF92DF92EF92FF920F931F93CF93CE
:1057F000DF9300D000D01F92CDB7DEB7282E592FEF
:10580000362EF9018491B9016E5F7F4F7D836C83E1
:1058100031962491311002C0442391F030E05901B7
:1058200093E0B594A7949A95E1F7742F412C982FA3
:10583000930D99834901840E911C682E712C5DC0D3
:10584000843561F7203351F7222D392F66E019C0D6
:10585000FA014F5F5F4FE491D901A80FB91FEC9394
:105860000696883FE1E09E0799F78C819D818C5ACE
:105870009F4F9D838C8361502F5F3F4F662309F4B8
:1058800045C04C815D8180E090E0E2CFF7019FEF61
:10589000E91AF90AC49000E010E0D12C472F400F1C
:1058A000242F30E082169306BCF09601002E02C031
:1058B000359527950A94E2F7652D822D952F5B8308
:1058C0007A8320FF05C00E940E275B817A8104C085
:1058D0000E942C277A815B810F5F1F4F08301105D2
:1058E000E9F65394E9815E12D1CF8C819D81860DBA
:1058F000971D9D838C834394785F242D30E02A1577
:105900003B0524F4532CEC80FD80ECCF0F900F90DE
:105910000F900F900F90DF91CF911F910F91FF90FB
:10592000EF90DF90CF90BF90AF909F908F907F903F
:105930006F905F904F903F902F9008955F926F927D
:105940007F928F929F92AF92BF92CF92DF92EF920F
:10595000FF920F931F93CF93DF93EC01F62E042F4A
:10596000E22ED62ED21A6D2D0E940E27B02EBE1812
:105970004B2D6F2DCE010E940E27CE2CCF0C402F29
:105980006C2DCE010E940E27AE2CA00E4A2D6F2D3D
:10599000CE010E940E2711E001C0182F5E2C511A73
:1059A0008A2C811A712E7F0C482D672DCE010E9402
:1059B0000E276B2C610E9F2C911A462D692DCE015E
:1059C0000E940E27462D672DCE010E940E27482DDE
:1059D000692DCE010E940E27812E800E7C2C711A1B
:1059E000482D672DCE010E940E27602E611A9D2C36
:1059F000910E462D692DCE010E940E27462D672D52
:105A0000CE010E940E27482D692DCE010E940E273F
:105A1000812F8F5F511608F6DF91CF911F910F9163
:105A2000FF90EF90DF90CF90BF90AF909F908F90BE
:105A30007F906F905F9008958F929F92AF92BF92E8
:105A4000CF92DF92EF92FF92862E912CA12CB12C57
:105A5000A0E2B0E8A50194010E94AE506B017C0168
:105A600080E4C82284E8D82288E0E822FF24A2E06B
:105A7000B8E00E94AE506071717282709927C62A98
:105A8000D72AE82AF92AA701960161E071E081E0AE
:105A900090E00E94B950FF90EF90DF90CF90BF90C0
:105AA000AF909F908F9008959C0146E00EC0F90141
:105AB000E80FF91F10820696883F51E09507B9F765
:105AC00041502F5F3F4F442319F080E090E0EFCF2B
:105AD00008952898411102C0169801C0169A6EBD0B
