:100000000C9455090C9484090C9484090C9484096B
:100010000C9484090C9484090C9484090C9484092C
:100020000C9484090C9484090C94693C0C94840904
:100030000C9484090C9421130C9484090C94840965
:100040000C9484090C9484090C9484090C948409FC
:100050000C9484090C9484090C9484090C948409EC
:100060000C9484090C9484090C9484090C948409DC
:100070000C9484090C9484090C9484090C948409CC
:100080000C9484090C9484090C9484090C948409BC
:100090000C94EE440C9484091E03540069006D0016
:1000A00065006C0061007000730065002B0020008B
:1000B00043004400430000001C0345006C0069003D
:1000C0006A006100680020005000610072006B004F
:1000D0006500720000000403090409023E000201E9
:1000E00000C03209040000010202010005240010D2
:1000F0000104240206052406000107058203080006
:10010000FF09040100020A000000070504021000B4
:10011000010705830210000112011001020000080E
:10012000EB03442001000102DC0152657472696531
:1001300076696E672044657669636520496E666FEF
:100140002E2E2E0D0A004465766963652041747475
:1001500061636865642E0D0A000D0A446576696363
:100160006520556E61747461636865642E0D0A00C4
:1001700047657474696E6720436F6E6669672044D3
:100180006174612E0D0A00436F6E74726F6C2045AE
:1001900072726F72202847657420436F6E666967BC
:1001A00075726174696F6E292E0D0A00496E766151
:1001B0006C6964204465766963652E0D0A00202D04
:1001C0002D204572726F7220436F64653A2025645A
:1001D0000D0A00436F6E74726F6C204572726F72FD
:1001E000202853657420436F6E6669677572617469
:1001F000696F6E292E0D0A202D2D204572726F72A7
:1002000020436F64653A2025640D0A005374696CBD
:100210006C20496D6167652044657669636520459A
:100220006E756D6572617465642E0D0A00486F739A
:1002300074204D6F6465204572726F720D0A202D17
:100240002D204572726F7220436F64652025640D06
:100250000A0044657620456E756D204572726F7296
:100260000D0A202D2D204572726F7220436F646538
:100270002025640D0A202D2D2053756220457272B1
:100280006F7220436F64652025640D0A202D2D2098
:10029000496E2053746174652025640D0A00546111
:1002A0006B696E6720706963747572652E2E2E0DF2
:1002B0000A004572726F7220380D0A004368616E41
:1002C00067696E672050726F70657274792E2E2E7A
:1002D0000D0A004572726F7220390D0A0045727264
:1002E0006F722031320D0A004572726F7220310D2B
:1002F0000A002020204D616E756661637475726519
:10030000723A2025730D0A002020204D6F64656C21
:100310003A2025730D0A0020202044657669636524
:100320002056657273696F6E3A2025730D0A0D0AA7
:10033000004572726F7220320D0A004F70656E694F
:100340006E672053657373696F6E2E2E2E0D0A0033
:100350004572726F7220340D0A00436C6F73696EC0
:10036000672053657373696F6E2E2E2E0D0A00453C
:1003700072726F7220360D0A00446F6E652E0D0A80
:1003800000436F6D6D616E64204572726F7220283C
:100390002553292E0D0A202D2D204572726F7220B3
:1003A000436F64652025640D0A00526573706F6E9B
:1003B000736520436F646520213D204F4B005472CC
:1003C000616E73616374696F6E204661696C00537E
:1003D000696D706C652054696D6572004DFB040099
:1003E000001D0154696D656C6170736520202000EB
:1003F0004D4B0500001C01436F6E6E656374202039
:10040000202020004DB3060000000053657474697D
:100410006E677320202020004DEF060000000000D2
:100420002020202020202020202020005600000016
:1004300000000053746F702054696D6572202000B5
:1004400046FD090000100A416464204B657966721C
:10045000616D65004686090000210A44656C204BE9
:1004600065796672616D650046330B0000200A569F
:100470006965772044657461696C730046010D00FD
:100480000000004C6F61642053617665642E2E007D
:1004900046110A00001D01536176652041732E2E1E
:1004A0002020200046CB0E0000000053617665201E
:1004B0002020202020202000464D0B0000C509539D
:1004C0006176652044656661756C740046700B004A
:1004D00000000052657665727420202020202000E4
:1004E00046D20900001D01004F5054494F4E5300A1
:1004F0002020200046F509CB07D20744656C6179BE
:100500002020202020205400450A0AD30700005054
:10051000686F746F7320202020205500450E0ADC80
:100520000700004761702020202020202020460066
:10053000450C0AE707240A00202020202020202044
:100540002020200046590CD207EF074D6F6465202C
:100550002020202020202A0053F507D9090000443C
:10056000656C6179202020202020540045D109D3DA
:100570000700004672616D65732020202020550021
:1005800045D309DC071B01496E7472766C2020206C
:100590002020460045D509E707250A484452204552
:1005A000787027732020550045D709E707230A53A1
:1005B00068757474657220202020460045DB09E7C9
:1005C00007230A5368757474657220202020460042
:1005D00045DB09E7071A014844522045562B2F2DC9
:1005E0002020550045DD094508230A42756C62202C
:1005F000312020202020460045DF09E707220A2A73
:100600004B657920202020202020540045F3095DEF
:1006100008220A42756C62203220202020204600E9
:1006200045E109E707220A2A4B657920202020208E
:100630002020540045F5095D081E0A42756C6220B1
:10064000332020202020460045E309E7071E0A2A20
:100650004B657920202020202020540045F7095D9B
:10066000081D0A42756C622034202020202046009C
:1006700045E509E7071D0A2A4B657920202020203F
:100680002020540045F9095D081C0A42756C62205F
:10069000352020202020460045E709E7071C0A00F6
:1006A000202020202020202020202000460A0F6922
:1006B00008EF07426C7565746F6F74682020200026
:1006C00046190C00001F07555342202020202020EF
:1006D0002020200046920B00000000002020202057
:1006E0002020202020202000560000000000005381
:1006F000797374656D20496E666F20004641110064
:100700000000004C434420436F6C6F722020200097
:10071000537108710ACC324C434420424C20546936
:100720006D65200053A108720ACC32505752204107
:1007300075746F204F666600531109730ACC324CF2
:100740004544204175746F204F66660053710974EB
:100750000ACC3242756C62204D6F64652020200007
:1007600053E1096F0ACC3243616D657261204650D6
:100770005320200053110A620ACC3243616D657226
:1007800061204D616B65200053C10A700ACC324470
:100790006576204D6F6465204C45440053410B79CC
:1007A0000ACC32446576656C6F706D656E7420009E
:1007B0004D710B0000000000202020202020202070
:1007C00020202000560000000000005245545552E1
:1007D0004E000068683A6D6D3A7373003020666FA2
:1007E0007220696E662E006D6D3A73732E7300531E
:1007F000544152540054696D652D6C6170736520CD
:10080000200001250C48445220542D6C6170736502
:10081000200003350C4844522050686F746F20202C
:10082000200002430C42756C622D72616D702020B5
:10083000200005540C0020202020202020202020F3
:10084000200000000053746F707320626574776538
:10085000656E206578706F73757265730053696E8D
:100860006365207374617274004F5054494F4E5346
:100870000057686974652020202020202000006235
:100880000C526564202020202020202020000162BE
:100890000C002020202020202020202020000000EC
:1008A000003130205365636F6E6473202000017245
:1008B0000C3330205365636F6E6473202000037225
:1008C0000C31204D696E7574652020202000067261
:1008D0000C32204D696E75746573202020000C72F7
:1008E0000C35204D696E75746573202020001E72D2
:1008F0000C3130204D696E757465732020003C7298
:100900000C0020202020202020202020200000007B
:100910000031204D696E757465202020200006840A
:100920000C32204D696E75746573202020000C8494
:100930000C35204D696E75746573202020001E846F
:100940000C3130204D696E757465732020003C8435
:100950000C3330204D696E75746573202000B484AB
:100960000C0020202020202020202020200000001B
:10097000003130205365636F6E6473202000019650
:100980000C3330205365636F6E6473202000039630
:100990000C31204D696E757465202020200006966C
:1009A0000C32204D696E75746573202020000C9602
:1009B0000C35204D696E75746573202020001E96DD
:1009C0000C3130204D696E757465732020003C96A3
:1009D0000C002020202020202020202020000000AB
:1009E000005374616E64617264202020200000A8AE
:1009F0000C4D6F6D2E20546F67676C65200001BB36
:100A00000C0020202020202020202020200000007A
:100A1000003120465053202020202020200065CE89
:100A20000C3220465053202020202020200033CE9E
:100A30000C3320465053202020202020200022CE9E
:100A40000C342046505320202020202020001ACE95
:100A50000C3520465053202020202020200015CE89
:100A60000C3620465053202020202020200011CE7C
:100A70000C372046505320202020202020000FCE6D
:100A80000C382046505320202020202020000DCE5E
:100A90000C313020465053202020202020000BCE47
:100AA0000C3132204650532020202020200009CE37
:100AB0000C002020202020202020202020000000CA
:100AC000004F746865722020202020202000FEE066
:100AD0000C43616E6F6E202020202020200000F546
:100AE0000C4E696B6F6E202020202020200001F525
:100AF0000C4D696E6F6C746120202020200003F57E
:100B00000C4F6C796D70757320202020200004F547
:100B10000C50656E7461782020202020200005F59F
:100B20000C536F6E7920202020202020200002F519
:100B30000C00202020202020202020202000000049
:100B4000004F666620202020202020202000000169
:100B50000D4F6E20772F42756C622020200001140B
:100B60000D00202020202020202020202000000018
:100B7000005368757474657220546573740046027E
:100B80000E00001D0153687574746572204C616716
:100B90002000464B0D00001D01495220546573741E
:100BA000202020202000469C0E00001D01342048FB
:100BB0006F7572204C696768740046C63500001D69
:100BC0000153797320537461747573202000463B80
:100BD00012000000004261747465727920202020A8
:100BE000200046620C000000004C69676874204DCC
:100BF00065746572200046881000000000506F7711
:100C00006572204F66662020200046B11500000066
:100C1000000020202020202020202020200056001E
:100C2000000000000042617369632054696D656CC7
:100C300061707365004844522054696D656C617041
:100C400073650053696E676C652048445220496D96
:100C50006167650052616D70206578706F737572A1
:100C600065004261636B6C6967687420636F6C6FC9
:100C700072004261636B6C69676874206F6E2074E8
:100C8000696D65004175746F20707772206F6666BC
:100C90002074696D65004C4544206175746F206F48
:100CA00066662074696D6500486F6C6473207368B4
:100CB000757474657220646F776E0050726573731B
:100CC000206F6E207072657373206F6666004672C7
:100CD000616D657320706572205365636F6E64008B
:100CE00043686F6F7365206966206E6F74206C694E
:100CF000737465640043616D657261206D616B653D
:100D0000004C4544206F666620647572696E6720EA
:100D10007573650053687574746572206C696768D3
:100D20007473204C4544000402040507064D4149F4
:100D30004E204D454E5500041E05051E00041F158E
:100D4000150A00040E11111100041F11110E0004E8
:100D50001F15151100041F05050100040E11151DB6
:100D600000041F04041F0003111F110000040811D8
:100D70000F0100041F040A1100041F1010100005C9
:100D80001F0204021F041F02041F00040E11110E93
:100D900000041F09090600040E11191E00041F0992
:100DA00009160004121515090003011F01000004B3
:100DB0000F10100F00030F100F0000051F0804088C
:100DC0001F041B04041B0003031C0300000419156B
:100DD000151300030E150E000003121F1000000370
:100DE00019151200000311150A00000307041F0063
:100DF00000031715090000031E151D000003190547
:100E0000030000030A150A00000317150F00000075
:100E100000000000000000002F0000000007000795
:100E20000000147F147F1400242A7F2A12006264B9
:100E30000813230036495522500000050300000026
:100E4000001C224100000041221C000014083E0842
:100E5000140008083E0808000000A0600000080810
:100E6000080808000060600000002010080402006C
:100E70003E5149453E0000427F40000042615149D9
:100E800046002141454B31001814127F10002745C0
:100E9000454539003C4A49493000017109050300C4
:100EA000364949493600064949291E0000363600B0
:100EB00000000056360000000814224100001414FF
:100EC0001414140000412214080002015109060004
:100ED000324959513E007C1211127C007F49494928
:100EE00036003E41414122007F4141221C007F49A2
:100EF000494941007F09090901003E4149497A00F9
:100F00007F0808087F0000417F4100002040413FEA
:100F100001007F08142241007F40404040007F02D2
:100F20000C027F007F0408107F003E4141413E00DB
:100F30007F09090906003E4151215E007F091929F8
:100F4000460046494949310001017F0101003F4007
:100F500040403F001F2040201F003F4038403F00DE
:100F600063140814630007087008070061514945BD
:100F70004300007F41410000552A552A5500004199
:100F8000417F000004020102040040404040400054
:100F90000001020400002054545478007F48444467
:100FA0003800384444442000384444487F003854D2
:100FB00054541800087E0901020018A4A4A47C005F
:100FC0007F080404780000447D4000004080847D58
:100FD00000007F102844000000417F4000007C0496
:100FE000180478007C08040478003844444438002D
:100FF000FC242424180018242418FC007C08040471
:101000000800485454542000043F444020003C4011
:1010100040207C001C2040201C003C4030403C0014
:101020004428102844001CA0A0A07C004464544C18
:10103000440000060909060080C0E0E060E0E0C06E
:101040008000000000000070FFFF0100000000FFB2
:10105000FFFE0000000000000F1F3C383038381F32
:101060000F0300000000000000000080E0E000002E
:10107000000000000000000000030303FFFF000069
:101080000000000000000000003838383F3F3838CA
:101090003800000000000000C0C0E06060E0E0C078
:1010A000800000000000000001000080C0E0F93F67
:1010B0001F000000000000003C3E3F3F3B39383835
:1010C0003838000000000000C0E0E06060E0E0C0F0
:1010D000C0000000000000000100003030387DEF4B
:1010E000CF000000000000001C38383030383C1FB2
:1010F0000F010000000000000000000080C0E0E0E0
:1011000000000000000000E0F0F8DECFC7C1FFFFE4
:10111000C0C00000000000000000000000003F3FD1
:101120000000000000000000E0E0E0E0E0E0E0E0BF
:10113000E0E00000000000003F3F3F38383070F032
:10114000E0000000000000001C38383030383C1F40
:101150000F010000000000000080C0C0E06060E0FF
:10116000E0000000000000E0FEFF3739181838F0FA
:10117000F0C00000000000000F1F1C383030381F86
:101180000F07000000000000E0E0E0E0E0E0E0E049
:10119000E0E000000000000000000080E0F87E1F9A
:1011A000070100000000000000383E1F070100009A
:1011B000000000000000000080C0E0E06060E0C0CF
:1011C000C000000000000000CFFF7F38307070FFCB
:1011D000EFC70000000000030F1F3C383030381FFD
:1011E0001F0F00000000000080C0E0E060E0E0C0F1
:1011F000800000000000000C3F7FF1E0C0C0E1FF74
:10120000FFFE0000000000000038303038381E0FAC
:1012100007000000000000000000000000000000C7
:1012200000000000000000000000000000000000BE
:10123000000000000000003C3C3C000000000000FA
:10124000000000000000000000000000000000009E
:101250000000000000000000004040404040FEFE52
:1012600040404040400000000000000000000F0F20
:10127000000000000000000000000000000000006E
:1012800000000000000000004040404040400000DE
:10129000000000000000000000000000000000004E
:1012A00000000000000000001A4C11241FBECFEF08
:1012B000D0E2DEBFCDBF16E0A0E0B1E0EEE6F4EA9A
:1012C00000E00BBF02C007900D92A63DB107D9F711
:1012D0001AE0A6EDB6E001C01D92A33FB107E1F709
:1012E00012E1CAEAD2E100E006C022970109FE013C
:1012F0000BBF0E94C94EC83AD10780E00807A9F782
:101300000E94A44A0C9435520C9400008091070A64
:101310009091080A059708F03FC08091070A9091C4
:10132000080A892B31F481E090E09093080A8093B9
:10133000070AE091070AF091080AA091070AB09104
:10134000080AAA0FBB1FAF50B64F8D919C91805FCA
:10135000914FEE0FFF1FED50F64F91838083E09188
:10136000070AF091080AA091070AB091080AAA0F8B
:10137000BB1FA152B64F8D919C91EE0FFF1FEF51F5
:10138000F64F918380838091070A9091080A019615
:101390009093080A8093070A87E897E00E94021D4D
:1013A00081E00895CF93DF931F92CDB7DEB7462F2C
:1013B000662341F06091110A85EC99E049830E940F
:1013C000232C498161E371E087E897E00E9485184A
:1013D000882331F087E897E00E94021D81E001C078
:1013E00080E00F90DF91CF910895813021F487E85C
:1013F00097E00E94021D81E00895462F611110922E
:10140000100A6AE371E087E897E00E948518882354
:1014100031F087E897E00E94021D81E0089580E0A6
:1014200008952F923F924F925F926F927F928F9288
:101430009F92AF92BF92CF92DF92EF92FF920F9363
:101440001F93CF93DF9300D01F92CDB7DEB7782ED6
:1014500081E0611101C080E095E0791206C09091B1
:101460003C0A9923A9F0915010C0E6E07E1210C00A
:1014700090913C0A492F50E020913D0A30E02150E4
:1014800031094217530724F49F5F90933C0A03C02D
:10149000882309F4A2C08BEC97E00E940A2A80916D
:1014A0003C0A833020F0682E6A946A9401C0612C53
:1014B00010923D0A1B821A8254E4452EE62CF12C30
:1014C0005701F4E0AF0EB11C69E0362E5A808A81D4
:1014D0009B81489E6001499ED00C1124C601875F04
:1014E0009F4F0E94A15181508E3FF0F553E000E0E4
:1014F00010E0252C23948A809B809FEF891A990AFB
:10150000261440F1A814B9042CF1C8018C0D9D1DBE
:10151000875F9F4F59830E94A151982F9154598101
:101520009A3108F080E240913D0A4E19439D402DCA
:101530001124485F282F652F8BEC97E059830E9478
:10154000D92490913D0A80913C0A5981981302C098
:1015500050923E0A0F5F1F4F5A5F5B3489F68091AD
:101560003D0A8F5F80933D0AEA81FB813196FB83C0
:10157000EA83789709F0AACF80913C0A861949E05E
:10158000849F402D1124042F015F495F21E562E013
:101590008BEC97E00E94BE2662E471E087E897E05A
:1015A0000E9449174DE451E062E571E087E897E059
:1015B0000E947F1708E220E043E060E08BEC97E0B8
:1015C0000E943F2623E543E063E58BEC97E00E9411
:1015D0003F268BEC97E00E943E2AF1E07F1651F106
:1015E00083E0781639F192E0791619F0E4E07E1282
:1015F00023C060913E0A85EC99E00E94232C41E0D3
:1016000069E571E087E897E00E94851880ED97E032
:1016100028EC30E0F9013197F1F70197D9F787E825
:1016200097E00E94021D60E087E897E00E94621840
:1016300082E003C081E001C080E00F900F900F9026
:10164000DF91CF911F910F91FF90EF90DF90CF909E
:10165000BF90AF909F908F907F906F905F904F90D2
:101660003F902F9008958091070A9091080A029761
:1016700048F08091070A9091080A01979093080A10
:101680008093070A87E897E00E94021D60E087E8E0
:1016900097E00E94621881E00895CF93DF931F9234
:1016A000CDB7DEB7462F662341F06091110A85EC75
:1016B00099E049830E94DA2B498167E471E087E869
:1016C00097E00E948518882331F087E897E00E9410
:1016D000021D81E001C080E00F90DF91CF9108955D
:1016E000CF93DF931F92CDB7DEB7462F662339F035
:1016F00060E085EC99E049830E94DA2B498167E438
:1017000071E087E897E00E948518882331F087E828
:1017100097E00E94021D81E001C080E00F90DF9100
:10172000CF910895CF93C82F611107C090919F0A60
:1017300080912D0A981709F46EC090919F0A90939A
:101740002D0A992379F18BEC97E00E940A2A20E672
:1017500031E047E063E08BEC97E00E946A252EE6DB
:1017600031E04FE063E08BEC97E00E946A252EE6C3
:1017700031E047E163E08BEC97E00E946A252EE6BA
:1017800031E04FE163E08BEC97E00E946A256CE763
:1017900071E087E897E00E9449174BEC56E068E853
:1017A00071E02EC08BEC97E00E940A2A2FE831E00E
:1017B00047E063E08BEC97E00E946A252DE931E079
:1017C0004FE063E08BEC97E00E946A252BEA31E062
:1017D00047E163E08BEC97E00E946A252EE631E05A
:1017E0004FE163E08BEC97E00E946A2569EB71E0C2
:1017F00087E897E00E9449174BEC56E062E571E0FC
:1018000087E897E00E947F178BEC97E00E943E2AC2
:1018100081E080931A0ACC2339F080919F0A8111CC
:1018200005C010921A0A02C080E001C081E0CF9189
:101830000895CF93C82F6623B1F18BEC97E00E94F7
:101840000A2A25EC31E047E063E08BEC97E00E9448
:101850006A2523ED31E04FE063E08BEC97E00E94D6
:101860006A2521EE31E047E163E08BEC97E00E94CE
:101870006A252FEE31E04FE163E08BEC97E00E94A8
:101880006A256DEF71E087E897E00E9449174BECFD
:1018900056E068E871E087E897E00E947F178BECDC
:1018A00097E00E943E2A81E0C11101C080E0CF9103
:1018B0000895662319F0823019F480E00C94190C15
:1018C00081E00895FF920F931F93CF93DF93F82E3B
:1018D0000E940216EC010E948115082FC45FD140BE
:1018E00084E28C9F90018D9F300D1124C90161E924
:1018F00070E00E947F4E162F643228F0013009F408
:1019000078C0643211F4023009F414E28BEC97E0F1
:101910000E940A2A023029F0002331F0C5E0D2E00B
:1019200005C0CEE0D2E002C0C6E1D2E0BE018BEC41
:1019300097E00E943424002349F0869569E2681BF1
:101940009E014FE18BEC97E00E94BD240FE02CE359
:101950004FE064E18BEC97E00E943F260BE124E12D
:1019600040E164E18BEC97E00E943F262CE34BE1E1
:1019700065E18BEC97E00E943F2603E12CE340E118
:101980006CE38BEC97E00E943F260AE12CE347E1F1
:101990006CE38BEC97E00E943F2607E12DE343E1E7
:1019A0006DE38BEC97E00E943F26C0E06C2F6A5EEF
:1019B00009E1262F41E18BEC97E00E943F26CF5FA3
:1019C0001C17A0F760E272E087E897E00E944917D1
:1019D0004BEC56E068E871E087E897E00E947F17DB
:1019E0008BEC97E00E943E2A81E0F81621F080E01F
:1019F00002C013E28BCFDF91CF911F910F91FF9027
:101A00000895EF920F93CF93C82F6623D1F08BECFC
:101A100097E00E940A2A2FE232E042E161E08BEC7B
:101A200097E00E946A2566E372E087E897E00E94EB
:101A3000491748E851E06CE372E087E897E00E94BC
:101A40007F170AE123E542E164E28BEC97E00E9414
:101A5000E62683E797E00E943015E2E5EE2E06E4E5
:101A60009B0142E163E58BEC97E00E940E278BEC33
:101A700097E00E943E2AC13029F483E797E00E9454
:101A8000A31402C0C23011F080E001C081E0CF9108
:101A90000F91EF9008958F929F92AF92BF92EF9225
:101AA0000F93CF93DF93C82F6623B1F08BEC97E0B1
:101AB0000E940A2A61E472E087E897E00E944917D1
:101AC00042E552E06AE572E087E897E00E947F17FE
:101AD0008BEC97E00E943E2A8C2F8150823008F0D8
:101AE00083C006E220E542E16AE08BEC97E00E94C9
:101AF000E62621E632E042E16AE08BEC97E00E94C4
:101B00006A25479A3F9A3C98449A86988E9A469AB4
:101B10003E9A389A409A3D98459A28EE33E048EC30
:101B200050E0FA013197F1F721503109D1F7C23075
:101B300031F0479883E797E00E94A3141EC04698AF
:101B400080E197E228EC30E0F9013197F1F7019755
:101B5000D9F7EFCF83E797E00E941215683E7340F4
:101B60008105910550F083E797E00E941215EB0183
:101B700084EF91E028EC30E003C03599EBCFF3CF50
:101B8000F9013197F1F70197D9F7479A469A83E718
:101B900097E00E94A31425C083E797E00E941215E6
:101BA000693E734081059105E0F083E797E00E946C
:101BB00012154B015C01FCE4EF2E05E59E0142E1AC
:101BC00068E38BEC97E00E940E2794014CE168E3F8
:101BD0008BEC97E00E940E278BEC97E00E943E2A48
:101BE00005C0359BD9CFE1CFC33011F080E001C0F3
:101BF00081E0DF91CF910F91EF90BF90AF909F90D8
:101C00008F9008950F93CF93C82F6623D1F0109231
:101C10002A0A10922B0A8BEC97E00E940A2A69E6A6
:101C200072E087E897E00E94491746E752E06BE7C9
:101C300072E087E897E00E947F178BEC97E00E94A4
:101C40003E2AC130D9F480912A0A8130B1F1C09383
:101C50002A0A0AE128E342E164E18BEC97E00E9462
:101C6000E62620E832E042E164E18BEC97E00E9456
:101C70006A2585EC99E00E94012B2DC0C230D9F471
:101C800080912A0A8230C9F0C0932A0A0AE128E327
:101C900042E164E18BEC97E00E94E62627E832E01F
:101CA00042E164E18BEC97E00E946A2585EC99E0C3
:101CB0000E942B2B10C0CC2391F010922A0A0AE12B
:101CC00028E342E164E18BEC97E00E94E62685EC94
:101CD00099E00E946E2B8BEC97E00E943E2A85ECE7
:101CE00099E00E94CD2B90912B0A882371F09111DD
:101CF0001CC081E080932B0A2EE832E04CE166E0C4
:101D00008BEC97E00E94BD240CC0913071F41092CE
:101D10002B0A04E221E54CE166E08BEC97E00E949F
:101D2000E6268BEC97E00E943E2A81E0C33009F062
:101D300080E0CF910F910895CF93C82F6623B1F023
:101D40008BEC97E00E940A2A6EE972E087E897E040
:101D50000E94491746EA52E06EEA72E087E897E08F
:101D60000E947F178BEC97E00E943E2AC13029F435
:101D70008EE197E00E94722309C0C23029F48EE1FF
:101D800097E00E94252302C0C33011F080E001C01B
:101D900081E0CF9108950F93CF93C82F062F66232C
:101DA00031F085EC99E00E945F2C80932F0A26EB9E
:101DB00032E040E35AE06C2F87E897E00E9456211A
:101DC000C82F823019F510923B0A60E37AE085EC67
:101DD00099E00E94D44E60912F0A85EC99E00E9410
:101DE000DA2B41E067E471E087E897E00E9485180C
:101DF00020ED37E048EC50E0FA013197F1F721503F
:101E00003109D1F787E897E00E94021D8C2FCF910E
:101E10000F910895462F611180932E0A80912E0A0A
:101E20008230A1F46EEB72E087E897E00E9485189B
:101E300080E49FE128EC30E0F9013197F1F7019758
:101E4000D9F785EC99E00E947B2C13C087E897E0D6
:101E50000E94001C60E087E897E00E94621863E33C
:101E600074E087E897E00E94211D8BEC97E00E94C8
:101E70003E2A81E00895A89588E10FB6F8948093F2
:101E80006000109260000FBE2FE088E190E00FB676
:101E9000F894A895809360000FBE209360006C9822
:101EA000749A0E948115811102C0649935C00E9404
:101EB00042150E94D63283E797E00E9439148BECDA
:101EC00097E00E94B92A8BEC97E090938807809363
:101ED000870781E697E090938A078093890783B705
:101EE000817F846083BF83B7816083BF6FEC73E0C1
:101EF00087E897E00E94211D8BEC97E00E943E2A24
:101F00000E94804A0E94E4448FE197E00E946C3274
:101F10008FE197E00C9416328BEC97E00E94B92A7F
:101F20000E94B6338CEC92E00E949A3388E10FB69F
:101F3000F89480936000109260000FBE0E94B1156B
:101F4000B6CFEF920F931F93CF93DF93182F662393
:101F500059F10E946515EC018BEC97E00E940A2A6A
:101F600023E033E042E161E08BEC97E00E946A25D8
:101F70000CE4E02E05E59E0142E167E38BEC97E07F
:101F80000E940E276DE073E087E897E00E944917F2
:101F90004BEC56E068E871E087E897E00E947F1715
:101FA0008BEC97E00E943E2A81E0113009F080E03E
:101FB000DF91CF911F910F91EF9008951F93CF93D1
:101FC000DF939C01FB018A30910520F4205D208382
:101FD00011829AC04AE0642F0E94734E2436310564
:101FE00090F4592FC901851B9109505D51836AE016
:101FF00070E00E947F4E862F642F0E94734E905D8A
:102000009083128281C0192FC901811B9109CAE0F6
:10201000D0E0BE010E947F4E283E83E03807C0F426
:102020009B01105D1283862F642F0E94734E592FDF
:10203000C901851B9109505D5183BE010E947F4EED
:10204000862F642F0E94734E905D908313825CC034
:102050002031374230F59B01105D1383862F642FAA
:102060000E94734E192FC901811B9109BE010E9464
:102070007F4E9B01105D1283862F642F0E94734E4A
:10208000592FC901851B9109505D5183BE010E94E2
:102090007F4E862F642F0E94734E905D9083148232
:1020A00033C09B01105D1483862F642F0E94734EF2
:1020B000192FC901811B9109BE010E947F4E9B010E
:1020C000105D1383862F642F0E94734E192FC90150
:1020D000811B9109BE010E947F4E9B01105D1283FE
:1020E000862F642F0E94734E592FC901851B9109B9
:1020F000505D5183BE010E947F4E862F642F0E9447
:10210000734E905D90831582DF91CF911F9108955A
:102110000F931F93CF93DF9300D000D000D0CDB7A3
:10212000DEB7182F662341F060E08BEC97E00E9449
:10213000AB2A80E00E94511580912C0A811187C042
:102140008BEC97E00E940A2A64E173E087E897E04D
:102150000E944917123031F481E080932C0A40E24A
:1021600053E002C044E253E068E871E087E897E09A
:102170000E947F1780E00E94BA16BE016F5F7F4FFA
:102180000E94DE0FBE016F5F7F4F8BEC97E00E94D5
:10219000342400E5602F681B9E012F5F3F4F4EE007
:1021A0008BEC97E00E94BD242AE233E04EE063E02E
:1021B0008BEC97E00E94BD2481E00E94BA16BE011C
:1021C0006F5F7F4F0E94DE0FBE016F5F7F4F8BEC12
:1021D00097E00E943424602F681B9E012F5F3F4FC1
:1021E00044E18BEC97E00E94BD2423E333E044E11B
:1021F00063E08BEC97E00E94BD2482E00E94BA1657
:10220000BE016F5F7F4F0E94DE0FBE016F5F7F4F89
:102210008BEC97E00E943424602F681B9E012F5F97
:102220003F4F4AE18BEC97E00E94BD242CE333E062
:102230004AE163E08BEC97E00E94BD248BEC97E0D1
:102240000E943E2AE0E2FEE43197F1F705C0123029
:1022500019F410922C0A09C0113039F46FEF8BEC8D
:1022600097E00E94AB2A81E001C080E026960FB67D
:10227000F894DEBF0FBECDBFDF91CF911F910F91BC
:1022800008952F923F924F925F926F927F928F921A
:102290009F92AF92BF92CF92DF92EF92FF920F93F5
:1022A0001F93CF93DF93CDB7DEB728970FB6F8947F
:1022B000DEBF0FBECDBF082F662309F4BDC08BEC77
:1022C00097E00E940A2A8FE197E00E94AC31282E05
:1022D000312C6FE473E08BEC97E00E94342460E5CE
:1022E000681B2FE433E048E08BEC97E00E94BD24AC
:1022F00025E533E048E063E08BEC97E00E94BD24E5
:1023000082E02816310418F025E433E002C02AE404
:1023100033E0B9018BEC97E02F8338870E94342497
:1023200060E5681B2F8138854EE08BEC97E00E94BA
:10233000BD242CE533E04EE063E08BEC97E00E9497
:10234000BD2425E633E044E163E08BEC97E00E9496
:10235000BD248DE5C82E85E0D82E83E3E82EFF242A
:10236000F39410E09AE0892E912CA12CB12CC70196
:10237000B601A50194010E94A74E2B013C01862FB6
:10238000805D89831A82BE016F5F7F4F8BEC97E07F
:102390000E943424180F1F5F60E5611B9E012F5FB0
:1023A0003F4F44E18BEC97E00E94BD24C701B6018A
:1023B0006419750986099709A50194010E94A74E21
:1023C00069017A01211531054105510581F682E047
:1023D00028163104F8F0BE016F5F7F4FC1010E94E3
:1023E000DE0FBE016F5F7F4F8BEC97E00E943424BD
:1023F00060E5681B9E012F5F3F4F40E28BEC97E04A
:102400000E94BD242FE633E040E263E08BEC97E0CE
:102410000E94BD246EE773E087E897E00E944917A9
:102420004BEC56E068E871E087E897E00E947F1780
:102430008BEC97E00E943E2A81E0013019F00330D6
:1024400009F080E028960FB6F894DEBF0FBECDBF2E
:10245000DF91CF911F910F91FF90EF90DF90CF9080
:10246000BF90AF909F908F907F906F905F904F90B4
:102470003F902F900895EF92FF920F931F93CF9369
:10248000DF9300D000D000D0CDB7DEB7E82E8BECC4
:1024900097E00E940A2A0E948115823029F0882341
:1024A00031F005E012E005C00EE012E002C006E1E6
:1024B00012E0B8018BEC97E00E94342420E5F22E64
:1024C0006F2D681B980148E08BEC97E00E94BD24BB
:1024D0002AE833E048E063E08BEC97E00E94BD24FB
:1024E0000E940D16BE016F5F7F4F90E00E94DE0FCD
:1024F000BE016F5F7F4F8BEC97E00E9434246F2DFD
:10250000681B9E012F5F3F4F4EE08BEC97E00E94CF
:10251000BD242FE833E04EE063E08BEC97E00E94AF
:10252000BD240E946515BE016F5F7F4F0E94DE0FC4
:10253000BE016F5F7F4F8BEC97E00E9434246F2DBC
:10254000681B9E012F5F3F4F44E18BEC97E00E9498
:10255000BD2423E033E044E163E08BEC97E00E948C
:10256000BD24BE016F5F7F4F809177079091780700
:102570000E94DE0FBE016F5F7F4F8BEC97E00E94E1
:1025800034246F2D681B9E012F5F3F4F4AE18BEC77
:1025900097E00E94BD2428E933E04AE163E08BEC38
:1025A00097E00E94BD24BE016F5F7F4F80917B0743
:1025B00090917C070E94DE0FBE016F5F7F4F8BEC16
:1025C00097E00E9434246F2D681B9E012F5F3F4FC0
:1025D00040E28BEC97E00E94BD2421EA33E040E228
:1025E00063E08BEC97E00E94BD246BEA73E087E820
:1025F00097E00E9449174BEC56E068E871E087E8E5
:1026000097E00E947F178BEC97E00E943E2AE0E261
:10261000FEE43197F1F781E0E81629F093E0E9163E
:1026200019F080E001C081E026960FB6F894DEBF75
:102630000FBECDBFDF91CF911F910F91FF90EF9013
:1026400008951F920F920FB60F9211240BB60F929E
:102650001BBE2F933F934F935F936F937F938F9303
:102660009F93AF93BF93EF93FF9383E797E00E940D
:10267000641481E697E00E948813FF91EF91BF9167
:10268000AF919F918F917F916F915F914F913F910A
:102690002F910F900BBE0F900FBE0F901F901895AB
:1026A000CF93DF93DC0120E030E041E050E01D9269
:1026B000FC01E20FF31F16821486F901E95DF24F67
:1026C000E491223078F47DB1EA0102C0CC0FDD1F25
:1026D000EA95E2F76C2F609567236DB96EB16C2BAC
:1026E0006EB90EC07AB1EA0102C0CC0FDD1FEA95C7
:1026F000E2F76C2F609567236AB96BB16C2B6BB9ED
:102700002F5F3F4F2630310591F6DF91CF9108952D
:10271000DF92EF92FF920F931F93CF93DF937C0191
:102720008C01C0E0D0E0DD24D394FE01E95DF24FDE
:10273000E491C23010F48CB101C089B190E002C0C4
:1027400095958795EA95E2F780958170D801A9F073
:102750008C918F30F0F48F5FF80180838B30C8F05C
:10276000F701EC0FFD1F8681811113C0D486D6823C
:1027700083E797E00E94A9140CC08C91882349F04C
:10278000F701EC0FFD1F148681508C93833008F401
:10279000168221960F5F1F4FC630D10531F6DF91AB
:1027A000CF911F910F91FF90EF90DF900895FC0162
:1027B00086E01192158213868150D9F70895CF9340
:1027C000DF93EC0183E797E00E943615882319F028
:1027D000CE010E94D71320E030E0822FFE01E20FED
:1027E000F31F9485992311F08F5F06C02F5F3F4F31
:1027F0002630310591F780E0DF91CF910895CF9396
:10280000DF93EC0183E797E00E943615882319F0E7
:10281000CE010E94D71320E030E0822FFE01E20FAC
:10282000F31F9485992319F014868F5F06C02F5FDC
:102830003F4F2630310589F780E0DF91CF91089531
:102840000F931F93CF93DF931F92CDB7DEB78C0109
:1028500001C0A895C80169830E94FF13698186138E
:10286000F8CF862F0F90DF91CF911F910F91089590
:102870000895FC0192E09093B000A1EBB0E01C92AF
:102880008C9184608C938AE78093B3001092B60099
:1028900090937000128A81E08287108211821282E6
:1028A00013821482158216821782118610867894FC
:1028B00008951092B0001092B1001092B3001092DF
:1028C000B600109270000895FC01808591850196F4
:1028D0009187808740815181628173814F5F5F4F13
:1028E0006F4F7F4F4083518362837383883E934051
:1028F000E8F01186108644815581668177814F5FAB
:102900005F4F6F4F7F4F4483558366837783868500
:102910009785019697878687848595850196958703
:102920008487808991890196918B808B0895FC0121
:1029300010821182128213821482158216821782EB
:10294000118610860895FC01108211821282138272
:102950000895CF93DF93EC011F861E861D861C868B
:102960006B89662329F08BEC97E00E94AB2A1B8AC7
:10297000DF91CF910895CF93DF93EC018A85811188
:1029800003C01F861E8606C08B85811103C0CE0141
:102990000E94A9148A858B87882399F08091730AF5
:1029A0002AE0829FC00111242E853F852817390710
:1029B00040F00E94B115CE010E94A91481E08A8BDB
:1029C00018C08B89811115C08091720A2AE0829FFC
:1029D000C00111242C853D852817390750F08BEC58
:1029E00097E00E94FC2A8B8B60E08BEC97E00E94C2
:1029F000AB2A0E945A15882381F08091740A2AE03C
:102A0000829FC0011124288939892817390738F095
:102A100080E0DF91CF910C945115198A188ADF91CB
:102A2000CF910895FC016081718182819381089525
:102A30000F931F93FC012481358146815781A8EEB5
:102A4000B3E00E94584E8B019C0180859185080F50
:102A5000191F211D311DB801C9011F910F91089542
:102A6000FC0164817581868197810895FC018289CA
:102A7000128A08958BEC97E00E94B92A8BEC97E0BC
:102A80000C943E2A3B9A43980B9A1398269A2E9AB6
:102A9000279A2F9A6B98739A6F9A849A8C98779842
:102AA0000895269A882319F02E9881E008952E9A89
:102AB00080E00895269B07C085B186FB882780F9B2
:102AC00091E08927089580E00895CF93DF9300D0A7
:102AD000CDB7DEB78091E90A9091EA0A9E012F5F97
:102AE0003F4F009719F4235F3A4002C0281B390B6F
:102AF0003A83298389819A810F900F90DF91CF913A
:102B000008950F98179AE0E2FEE4CF010197F1F7DC
:102B100080B117983197F1F7079905C08095881F04
:102B20008827881F089582E00895CF9387E897E06B
:102B30000E94001CC1E081E697E00E94FF138130F3
:102B400029F487E897E0CF910C94021D0E9481152B
:102B50008823B9F3A8956C2F80E00E94620CC0E036
:102B6000EACF0E948115811108C08091E000816048
:102B70008093E000F894439AFFCF0C94951595EA62
:102B800090937A008F3010F0885013C040B321E04A
:102B900030E0082E01C0220F0A94EAF7922F909598
:102BA000942390BB90917E00922B90937E0088306E
:102BB00058F7806480937C0080917A0080648093D1
:102BC0007A0044E660E070E0CB0120917A0024FFB7
:102BD000FCCF20917A00206120937A002091780028
:102BE00030917900620F731F811D911D415069F76B
:102BF00010927A0024E630E040E050E00E94A74EB8
:102C0000C9010895819A899880E29EE40197F1F7BD
:102C100082E00E94BF15819808951F93CF93DF93A0
:102C200000D000D000D0CDB7DEB70E9402169E8340
:102C30008D830E948115182F42E050E0811145C01C
:102C400063E070E0CE0101960E9491512D813E819A
:102C500089819A812817390740F442E050E063E007
:102C600070E0CE0105960E94A95142E050E061E07B
:102C700070E0CE0103960E9491518B819C81019658
:102C800011F41C821B822D813E818B819C818217D5
:102C9000930740F442E050E061E070E0CE01059619
:102CA0000E94A95149815A812D813E81241B350BF7
:102CB00064E6629FC001639F900D11246B817C814B
:102CC000641B750B0E947F4E4AC067E070E0CE0126
:102CD00001960E9491514D815E8129813A8142176E
:102CE000530740F442E050E063E070E0CE01059607
:102CF0000E94A95142E050E065E070E0CE010396E9
:102D00000E9491514D815E812B813C8124173507B2
:102D100040F442E050E061E070E0CE0105960E9490
:102D2000A95149815A812D813E81241B350B64E6CE
:102D3000629FC001639F900D11246B817C81641B95
:102D4000750B0E947F4E113031F46436710538F0F6
:102D500063E670E004C0123011F464E670E0862F80
:102D600026960FB6F894DEBF0FBECDBFDF91CF9190
:102D70001F9108950F931F93CF93DF93D82F80E077
:102D80000E9451158BEC97E00E94FC2AC82F60E04E
:102D90008BEC97E00E94AB2ACC2351F024EF31E07A
:102DA00048EC50E0FA013197F1F721503109D1F7A1
:102DB00091B1987F91B992B1987F92B991B18D2FCD
:102DC000D33008F082E021E030E001C0220F8A9584
:102DD000EAF7892F822B81B982B1D22FD0958D232A
:102DE00082B944EF51E0A8ECB0E0FD013197F1F772
:102DF00041505109D1F780E00E94BF158C0131B1DB
:102E00003D2331B98BEC97E00E94FC2A8C1728F403
:102E10006C2F8BEC97E00E94AB2AC801DF91CF9119
:102E20001F910F910895CF93DF93EC0180E00E94F2
:102E3000BA169983888381E00E94BA169B838A839D
:102E400082E00E94BA169D838C83DF91CF91089512
:102E5000E0EEF0E08081816080830E94813B8BEC1A
:102E600097E00E948F2A83E797E00E945914F89414
:102E700088E10FB6F89480936000109260000FBE56
:102E8000E0E0F0EF0995FC01168A178A108E118E8A
:102E90000895EF92FF920F931F93CF93DF93EC016E
:102EA0007B01888199810E943424182F169505E0B2
:102EB00023E540E060E0888199810E94E62603E0F6
:102EC00023E541E060E0888199810E94BE26212FA0
:102ED000265D68E2611B05E040E0888199810E94DF
:102EE000E62669E2611B970140E088819981DF91C4
:102EF000CF911F910F91FF90EF900C94BD24CF9232
:102F0000DF92EF92FF920F93CF93DF93EC016B016F
:102F10007A010FE223E549E260E0888199810E940D
:102F2000E62696014AE262E0888199810E94BD24EA
:102F3000B701888199810E94342463E5681B970159
:102F40004AE2888199810E94BD2423E549E260E03C
:102F5000888199810E94BE26DF91CF910F91FF90C9
:102F6000EF90DF90CF9008959B0190E080E0F90111
:102F7000729665917491FB01309719F05081552339
:102F800019F0491731F09F5F8F5F2C5E3F4F8431FE
:102F900071F708959B0180E090E0F90172966591C8
:102FA0007491FB01941751F0309711F05081511139
:102FB0008F5F9F5F2C5E3F4F943179F70895CF93D9
:102FC000DF93EB01FC012389222369F130E02150DA
:102FD0003109F901EE0FFF1FE20FF31FE80FF91F90
:102FE000848125813681F4E18F9F200D311D1124CC
:102FF000DB0180E090E0F901E80FF91FE491ED9327
:1030000001968C309105B9F78BE090E0FE01E80F56
:10301000F91F2081203211F011820AC001978130FE
:103020009105A1F705C06DE27DE0CE010E94CD4E75
:10303000CE01DF91CF910895DF92EF92FF920F932F
:103040001F93CF93DF93EC01162FF42EE22ED02E98
:103050006E894F89288D098D842F862B822B802B9A
:1030600021F0888199810E94BE261E8BFF8AE88EFE
:10307000D98E0D2D2E2D4F2D612F888199810E9483
:10308000BE26DF91CF911F910F91FF90EF90DF90BF
:1030900008950F93CF93DF93EC016E894F89288DAC
:1030A000098D842F862B822B802B21F0888199819A
:1030B0000E94BE261E8A1F8A188E198EDF91CF911C
:1030C0000F9108950F931F93CF93DF93EC01162F69
:1030D0008A8D681730F0CE010E9449188FEF8C8BD3
:1030E0000FC049E0649F402D11248D89481B042F97
:1030F000015F495F21E561E0CE010E941C181C8B35
:10310000DF91CF911F910F910895EF92FF920F934E
:103110001F93CF93DF931F92CDB7DEB77C01162F9D
:10312000372F442309F452C0A62FB72FFD01019079
:103130000020E9F73197EA1BFB0B26E02E9FC00128
:103140002F9F900D112496958795AC0160E070E05B
:1031500040934D0A50934E0A60934F0A7093500A61
:10316000282F255D67E2681B08E14CE0F7018081AC
:10317000918139830E94E62690914D0A292F265D80
:1031800068E2691B07E14DE0F701808191810E94AF
:103190008F2669E290914D0A691B212F39814FE0FA
:1031A000F701808191810E946A25F70180819181D8
:1031B0000E943E2A83E797E00E94181560934D0A0B
:1031C00070934E0A80934F0A9093500A83E797E0DA
:1031D0000E94181500914D0A10914E0A20914F0A35
:1031E0003091500A601B710B820B930B643F71404E
:1031F0008105910530F4F701828193810E94FF13CC
:10320000811181E00F90DF91CF911F910F91FF907D
:10321000EF9008957F928F929F92AF92BF92CF923C
:10322000DF92EF92FF920F931F93CF93DF93EC0106
:10323000F62E5A014901702E1092410ACC2009F451
:103240002FC1FA01C080D180888199810E940A2A09
:1032500005E023E542E060E0888199810E94BE2676
:103260000EE121E046E060E0888199810E94BE265F
:1032700023E546E062E5888199810E94BE26A72D5C
:10328000B12FFD0101900020E9F73197EA1BFB0BFC
:10329000E093420A6AEF6E9F602D1124605B272D38
:1032A000312F40E2888199810E946A25F4010190C2
:1032B0000020E9F73197E819F909E093420A26E07E
:1032C000E29FF0011124F595E7958AE28E1B809329
:1032D000430A07E223E54FE160E0888199810E947B
:1032E000BE2646EB53E062E571E0CE010E947F17F7
:1032F0006091430A9091420A292F220F290F220F31
:10330000260F05E042E0888199810E94BE26940143
:1033100040E06091430A888199810E946A2580E09B
:10332000E82FF0E0EB5BF54F10828F5F8530C0F344
:1033300046E4E41243C0E8E5F2E0C601BF010E94A2
:103340007F4E8C01C81AD90A2AE030E0B9010E94E8
:10335000934E8093450AA801481B590BCA01B90135
:103360000E94934E8B01CB01B9010E94934E809332
:10337000460AA801481B590BCA01B9010E94934E85
:103380006093470AC601BF010E947F4ECB01BF0177
:103390000E947F4EFC01B9010E94934E8093480A1F
:1033A000AF01481B590BCA01B9010E94934E6093AB
:1033B0004A0A70934B0A6093490A6DC054E5E512BE
:1033C00046C0ECE3F0E0C601BF010E947F4E8C01D5
:1033D000C601801B910BBF010E947F4E6B012AE04A
:1033E00030E0C801B9010E94934E8093450AA801BC
:1033F000481B590BCA01B9010E94934E6093460ABB
:10340000C601BF010E947F4E8C01C81AD90AB901BA
:103410000E94934E8093470AA801481B590BCA018A
:10342000B9010E94934E6093480AC601BF010E94F1
:103430007F4ECB01BF010E947F4E90934B0A809339
:103440004A0AB9010E94934E8093490A24C0909081
:103450004A0A40914B0AE0E00AE010E013C0C601BE
:10346000B8010E947F4E9C01982E432FC601821BFB
:10347000930BB8010E947F4E6B01F0E0EB5BF54FC0
:103480002083E82D8E2E8394C114D10441F79092AD
:103490004A0A40934B0A85E08093420A1092440AFC
:1034A0008F2D8150823008F4F6C00EE121E548E00E
:1034B00063E0888199810E94E6261092430A10EF0A
:1034C00012C0E62FF0E0EB5BF54F2081205D619F9D
:1034D000602D11246C5B45E00E948F258091430A8A
:1034E0008F5F8093430A6091430A2091420A88814A
:1034F0009981621730F356E4E51213C00EE022E220
:103500004CE061E20E948F2606E122E244E161E2A2
:10351000888199810E948F260AE122E448E161E4D2
:103520001DC0E4E5EE121EC00EE022E34CE061E3B4
:103530000E948F2606E122E344E161E388819981BC
:103540000E948F260EE022E14CE061E188819981A2
:103550000E948F2606E122E144E161E188819981A0
:103560000E948F268091440A25E030E0281B310913
:103570002295207F60EF869F602D11246D5B0CE10A
:1035800048E0888199810E94BE268091440AF6E431
:10359000EF1203C0823049F006C024E5E21203C0F6
:1035A00080FF05C002C0843011F485E001C089E0CD
:1035B00080934C0A888199810E943E2AFF2009F459
:1035C000F5C044E0F4121DC08091440A25E030E0CB
:1035D000281B31092295207F60EF869F602D1124E2
:1035E0006D5B0CE148E0888199810E94BE26809144
:1035F000440A811102C08091420A81508093440A9A
:10360000D5C053E0F51225C08091440A25E030E092
:10361000281B31092295207F60EF869F602D1124A1
:103620006D5B0CE148E0888199810E94BE26409143
:10363000440A242F30E08091420A90E00197281735
:10364000390724F44F5F4093440AB0C01092440AF3
:10365000ADC086E0F8120DC0E091440AF0E0EB5BEB
:10366000F54F8081882311F0815011C080914C0A60
:103670000EC095E0F9129AC0E091440AF0E0EB5BCD
:10368000F54F808190914C0A891718F48F5F8083E1
:103690008DC010828BC06091490A5091460AE6E4C1
:1036A000EE1223C08091470AFAE05F9F8001112447
:1036B00024E6829F000D111D11248091450A080FF8
:1036C000111D8091480A90E04AE0649F800D911D91
:1036D000112448E552E0849F9001859F300D949F0E
:1036E000300D1124020F131F47C08091480A94E542
:1036F000E91222C00091450A10E0EAE05E9F000D49
:10370000111D112440E15EE0649F9001659F300D22
:103710001124020F131F2091470A30E0FAE08F9F17
:10372000200D311D11244CE3429FC001439F900D99
:103730001124080F191F20C04AE090E02AE0629F80
:10374000800D911D1124489F9001499F300D112437
:103750008091470A280F311D429FC001439F900D61
:103760001124850F911D489F8001499F100D112440
:103770008091450A080F111D42E0F41214C041E087
:1037800067E471E0CE010E94851888E893E128EC97
:1037900030E0F9013197F1F70197D9F7F50111837D
:1037A000008382E001C081E08093410A8091410A58
:1037B000DF91CF911F910F91FF90EF90DF90CF900D
:1037C000BF90AF909F908F907F900895CF93DF939D
:1037D000FC012389253088F42F5F238B30E02150B2
:1037E0003109E901CC0FDD1FC20FD31FC80FD91F4C
:1037F0007E836D830E94B4178C83DF91CF910895EF
:10380000FC01638D748D44890C94E61BEF92FF924A
:103810000F931F93CF93DF93EC014C898A8D481748
:1038200008F0ABC00B8D1C8DB801CE010E94B417FF
:1038300094E1899F70011124B8016E0D7F1DFB0179
:103840003D9624912E8F2D3491F4CE010E94001CC0
:10385000EB8DFC8DEE0DFF1D3E96859194918B8F27
:103860009C8F60E0CE010E94621881E085C0263402
:1038700049F4625F7F4FFB01859194918DA39EA3D4
:1038800084E07AC0253419F0203509F048C080E082
:1038900090E0382FFB01E80FF91FE491DE01A80F3B
:1038A000B91F9B96EC93E03229F001968A3091057E
:1038B00081F73AE0DE01A30FB11D9B961C92FB013C
:1038C000709685919491009791F0FC0130E0CE01C3
:1038D0008E1B9F0B4491DC01AE0FBF1FD6964C93FD
:1038E000442331F03F5F31963D30A1F701C030E015
:1038F000DE01A30FB11DD6961C92203511F483E092
:1039000001C082E08D8FFB013B96E491EE8F625FF8
:103910007F4FFB01859194918F8F98A32EC0233503
:1039200061F580E090E0282FFB01E80FF91FE4919A
:10393000DE01A80FB91F9B96EC93E03229F00196A7
:103940008B30910581F72BE0FE01E20FF11D13A6EC
:10395000FB017296859194918FA398A7FB017096B5
:103960008591949189A39AA3625F7F4FFB01859112
:1039700094918BA39CA385E08D8FDF91CF911F91B4
:103980000F91FF90EF900895FC018389882389F0BF
:103990008150838B90E0DC01AA0FBB1FA80FB91FD9
:1039A000AE0FBF1FFD01349614966C917181828118
:1039B00008956481758186810895FC015589448943
:1039C0004330A8F0242F30E0828D90E00197281733
:1039D000390731F489E0489F402D1124475105C033
:1039E00089E0489F402D11244251458B01C0158A22
:1039F0008589811105C081E0511103C080E00895DF
:103A000081E008950F931F93CF93DF93EC018B898F
:103A1000882381F0CE010E94C41C462F072F182F47
:103A2000B801CE010E94CA178C8B0B8F1C8FCE0160
:103A30000E94DD1C81E08D8FDF91CF911F910F914E
:103A400008955F926F927F928F929F92AF92BF92F2
:103A5000CF92DF92EF92FF920F931F93CF93DF935A
:103A6000CDB7DEB7A4970FB6F894DEBF0FBECDBFBB
:103A70006C01DC015C967C936E935B970E94491805
:103A8000F601808191810E940A2AC6010E94DD1CF4
:103A9000D6015D961C925D975A961C92A12CB12C72
:103AA000512C712C6CE0862E912C79E0672EF6015A
:103AB000438D548D9A012A0D3B1DF9017296659133
:103AC0007491DB01109721F08C91882309F4BFC019
:103AD000F9013D96A491F601A68F4A0D5B1DFA01EE
:103AE0003B961491A53411F0A03529F5225F3F4F84
:103AF000F90185919491BC01A03549F442E050E070
:103B0000CE0182960E949151BE016E5D7F4FDB0116
:103B10002D913C91F601428D469D402D11248589C1
:103B2000481B485F52E5E52E012F60E580819181B9
:103B30000E940E27582ED6015E968C915E97833593
:103B400009F053C01A3209F050C05B962D913C9198
:103B50005C972A0D3B1DF9013E9605911491205F5B
:103B60003F4FF90125913491D901F60130A3278FF8
:103B70009801205C3E4FF8018491803341F4D601D6
:103B80005A968C915A978F5F5A968C9360C0F80121
:103B90003D96E491F0E08D919C911197E817F9071B
:103BA000E9F432E0E12CF12CF801EE0DFF1D249137
:103BB000F601428D469D402D11248589481B485FA2
:103BC000632F808191813CA30E94D924FFEFEF1ADB
:103BD000FF0A3CA13A5F3A3439F7D1CF005F1F4F5B
:103BE0000217130709F0C7CFCACF32E000E010E098
:103BF0007401E518F108D6015E968C91853411F0B8
:103C0000803519F40E151F05E4F4D6015B96ED918D
:103C1000FC915C97EA0DFB1DE00FF11F24915A9671
:103C20004C915A97469D402D112455968C9155974D
:103C3000481B485F632F8D919C913CA30E94D9241F
:103C40003CA10F5F1F4F3A5F3A34A9F698CFB4E119
:103C5000AB0EB11CD6015B96ED91FC915C97EA0D21
:103C6000FB1DE491EE2349F07394B0E9AB16B1E08B
:103C7000BB0609F01CCF34E1732E7394F6016489FE
:103C8000C6010E946218F4E17F9E80011124D601D2
:103C90005B966D917C915C97600F711F6F5F7F4F9A
:103CA000FB018491803229F0CE0101960E94CD4E15
:103CB00006C0BE016F5F7F4FC6010E94DF17BE01C5
:103CC0006F5F7F4FC6010E944917D6015B968D91A9
:103CD0009C915C97800F911FFC013D9624919A96D0
:103CE0001C921E929997223419F0263409F034C0A0
:103CF0004096FC0185919491BC01CE0148962CA37D
:103D00000E94CD4ED6015B96ED91FC915C97E00F41
:103D1000F11F729685919491BC01CE010E960E947E
:103D2000CD4EAE01425F5F4FBE01685E7F4FC60160
:103D30000E947F172CA1263479F4D6015B96ED9171
:103D4000FC915C97E00FF11F3E96859194919996B6
:103D50008C9399979A969C93A4960FB6F894DEBF8D
:103D60000FBECDBFDF91CF911F910F91FF90EF90CC
:103D7000DF90CF90BF90AF909F908F907F906F908B
:103D80005F900895CF93DF93EC016C89662319F05F
:103D900061500E946218CE010E94DD1C882329F028
:103DA0006B8D7C8DCE010E94211D88819981DF91D0
:103DB000CF910C943E2ACF93DF93EC016C89262F90
:103DC00030E08A8D90E001972817390724F46F5F5F
:103DD000CE010E946218CE010E94DD1C882329F0CA
:103DE0006B8D7C8DCE010E94211D88819981DF9190
:103DF000CF910C943E2A6F927F929F92AF92BF9286
:103E0000CF92DF92EF92FF920F931F93CF93DF93A6
:103E10001F92CDB7DEB73C01F62E5A016901E110C1
:103E200004C025E0F212A0C097C0DC018D919C91E6
:103E30000E940A2AB801C3010E94491746EB53E0C9
:103E400062E571E0C3010E947F1708E127E44CE0BE
:103E500062E0F301808191810E948F2609E128E4CC
:103E60004BE061E0D3018D919C910E948F2601E18E
:103E700022E541E16AE4F301808191810E943F26BD
:103E800000E122E540E16AE4D3018D919C910E941A
:103E90003F260FE021E54FE06BE4F3018081918143
:103EA0000E943F260EE020E54EE06CE4D3018D91A8
:103EB0009C910E943F260DE02FE44DE06DE4F3015C
:103EC000808191810E943F2603E122E543E16AE47B
:103ED000D3018D919C910E943F2604E122E544E1AB
:103EE0006AE4F301808191810E943F2605E121E58A
:103EF00045E16BE4D3018D919C910E943F2606E140
:103F000020E546E16CE4F301808191810E943F2627
:103F100007E12FE447E16DE4D3018D919C910E946C
:103F20003F261092510A90E080E008C03D96E4914F
:103F3000D5012C912E1301C0982F8F5FF601B0E1AF
:103F40008B9FE00DF11D112424912111EFCF90934F
:103F5000510A8093520A65CF8091510A8823A9F0B3
:103F600081508093510A11C0E6E0FE1287C0409153
:103F7000510A242F30E08091520A90E001972817CF
:103F800039071CF44F5F4093510A07E125E44DE0E7
:103F900063E0D3018D919C910E94E62634E000E01D
:103FA00010E08091510AF601B0E18B9FE00DF11D08
:103FB0001124E00FF11F24914FE0632FF301808162
:103FC000918139830E94D9240F5F1F4F39813A5F55
:103FD000363439F703E223E54EE160E0D3018D91F9
:103FE0009C910E94E6268091510AF601B0E18B9FD8
:103FF000E00DF11D11243E96859194918C01912C38
:10400000E12C07C0692D6E0D4EE10E945424980EDC
:10401000E394F801EE0DF11D2491F301808191816B
:104020002111F0CF0E943E2AF1E0FF1619F123E0A2
:10403000F21601F182E0F8121FC08091510A90E15E
:10404000899FC00CD11C1124F6013D96E491D50145
:10405000EC9341E067E471E0C3010E94851888E8B1
:1040600093E128EC30E0F9013197F1F70197D9F7A6
:1040700082E007C081E005C080E003C0E11085CF89
:10408000D3CF0F90DF91CF911F910F91FF90EF90C1
:10409000DF90CF90BF90AF909F907F906F900895EA
:1040A000AF92BF92CF92EF92FF920F931F93CF9355
:1040B000DF9300D0CDB7DEB75C01DC0112968D91A5
:1040C0009C9113970E94FF13F82EF501858D8111A5
:1040D0000DC08F2D8150823048F421A532A52115C5
:1040E000310521F036A325A384E0858FD5015D96A7
:1040F0008C9181111CC0B5E0FB1204C0C5010E9467
:10410000C21EC2C0E6E0FE1204C0C5010E94DB1E52
:10411000BBC0F4E0FF1204C0C5010E94061CB4C07D
:1041200083E0F812B1C0C5010E94021DADC081300C
:1041300081F480931E01D5015B966D917C915C9713
:10414000C5010E94211DF501808191810E943E2AB6
:104150009BC0823009F402C08630A1F485010A5C5C
:104160001F4F9501255D3F4FD5015F964D915C91A5
:104170009097C0901E015E96EC906F2DC5010E9435
:104180000A197BC0853021F58501055D1F4FD501DA
:1041900093962D913C91949791964D915C91929725
:1041A000E0901E016F2DC5010E94FB1E10921E01A2
:1041B000882309F469C0823009F063C0D50197965D
:1041C000ED91FC919897309709F45BC0099559C01F
:1041D000833009F047C080911E01882359F0D50132
:1041E0005F966D917C91909742E050E08FE39AE06A
:1041F0000E94915185010A5C1F4F9501255D3F4F3B
:10420000C0901E01F501E68C4FE35AE06F2DC50109
:104210000E940A1910921E018823B1F18230E9F43C
:10422000D5015F966D917C91909742E050E0CE0170
:1042300001960E94915129813A8180913F0A909183
:10424000400A2817390749F0F501678D70A142E04F
:1042500050E08FE39AE00E94A95181E0D5015D967C
:104260008C9312C0843081F4D5019596ED91FC9128
:10427000969760911E018F2D099510921E0188233B
:1042800019F081E0F501858FD5015D968C91811142
:10429000F12C8F2D0F900F90DF91CF911F910F91E7
:1042A000FF90EF90CF90BF90AF9008958F929F9224
:1042B000BF92CF92DF92EF92FF920F931F93CF9313
:1042C000DF931F92CDB7DEB74C01162F7A0169013B
:1042D000B02E002311F1FC01808191810E940A2AF5
:1042E000B601C4010E94491746EB53E062E571E054
:1042F000C4010E947F1708E121E54CE061E0F40170
:10430000808191810E948F2609E122E54BE060E0E7
:10431000F401808191810E948F26133041F48091B5
:10432000530A882311F0815009C08AE007C0143075
:1043300059F48091530A8A3020F48F5F8093530A96
:104340002CC01092530A29C0163089F48091530A68
:10435000F701E80FF11D80818B3510F080E4808338
:104360008081813410F0815014C08AE512C015306C
:1043700091F48091530AF701E80FF11D8081813497
:1043800010F48BE5808380818B3510F48F5F01C042
:1043900081E4808302C0BB20B1F107E12FE44DE04E
:1043A00062E0F401808191810E94E626BE2C6701C3
:1043B00033E0FC2CFB18F60121916F01822F815410
:1043C0008A3108F020E24FE0632FF401808191816F
:1043D00039830E94D9248091530A3981F8120BC085
:1043E000232F2A5F06E14EE0632FF4018081918143
:1043F0000E94BE263981395F3035D9F6F4018081BB
:1044000091810E943E2A113021F0123021F482E085
:1044100003C081E001C080E00F90DF91CF911F9138
:104420000F91FF90EF90DF90CF90BF909F908F9073
:104430000895279A2F9A0895F89484EF91E0BA018D
:104440000E94934E882777FD8095982F0E94354DC6
:104450004B015C012BEA3AEA4AE250E40E94E94D42
:10446000EB01182F092F98017D2F832F922F0E9487
:10447000074D762E20E030E040E85FE3F8016C2F36
:104480007D2F8F2F9E2F0E949B4C87FFCFC07724BC
:104490007394CCC020E030E04FE753E4F8016C2F78
:1044A0007D2F8F2F902F0E94E54D18160CF04EC0D7
:1044B00020E030E04AE754E4C501B4010E949F4C7B
:1044C000362E472E582E692E20E030E04AEF54E475
:1044D0000E94E94D6B017C0120E030E040E85FE3A1
:1044E0007D2D9F2D0E949B4C87FD2AC020E03FEF31
:1044F0004FE757E46C2D7D2D8E2D9F2D0E94E54DAD
:104500001816BCF420E030E040E251E4632D742D35
:10451000852D962D0E94E94D0E94074D06C088EC1E
:1045200090E00197F1F76150710961157105B9F7D4
:1045300010C06C2D7D2D8E2D9F2D0E94074D02C029
:1045400061E070E0CB010197F1F703C0872D8A95F8
:10455000F1F72F9A20E030E040E85FE3F8016C2F9C
:104560007D2F8F2F902F0E949B4C87FD5CC020E0F9
:1045700030E04FE753E4F8016C2F7D2F8F2F902F01
:104580000E94E54D18160CF04EC020E030E04AE7DE
:1045900054E4C501B4010E949F4C362E472E582E7C
:1045A000692E20E030E04AEF54E40E94E94D6B01AF
:1045B0007C0120E030E040E85FE37D2D9F2D0E94EC
:1045C0009B4C87FD2AC020E03FEF4FE757E46C2D5E
:1045D0007D2D8E2D9F2D0E94E54D1816BCF420E0F8
:1045E00030E040E251E4632D742D852D962D0E941C
:1045F000E94D0E94074D06C088EC90E00197F1F765
:104600006150710961157105B9F710C06C2D7D2DD0
:104610008E2D9F2D0E94074D02C061E070E0CB01FE
:104620000197F1F703C0872D8A95F1F72F9820E0C5
:1046300030E040E85FE3F8016C2F7D2F8F2F902F43
:104640000E949B4C87FD82CF25CFFC012081211148
:1046500022C0F89420E130E058E22F98452F4A9587
:10466000F1F72F9A452F4A95F1F721503109A9F713
:10467000E4E4F9E33197F1F720E130E058E22F98D4
:10468000452F4A95F1F72F9A452F4A95F1F721507A
:104690003109A9F77894FC012081213029F448E2FE
:1046A00050E060ED77E006C0253031F446E250E09E
:1046B00068EC72E30E941C22243029F448E250E0A6
:1046C0006CE073E2F7CF233029F446E250E066EA6B
:1046D0007EE0F0CF223029F448E250E060E179E05A
:1046E000E9CF0895FC012081211122C0F89420E136
:1046F00030E058E22F98452F4A95F1F72F9A452F31
:104700004A95F1F721503109A9F7E0EEF9E2319726
:10471000F1F720E130E058E22F98452F4A95F1F764
:104720002F9A452F4A95F1F721503109A9F778942E
:10473000FC012081233029F446E250E066EA7EE065
:1047400006C0223031F448E250E060E179E00E9496
:104750001C220895FC012081243031F448E250E00D
:1047600068E273E20E941C220895FC01208124303B
:1047700031F448E250E068E273E20E941C2208959E
:104780008D982D98089508956435D8F44033C8F471
:10479000E42FF0E023E0F595E7952A95E1F726E090
:1047A000629FE00DF11D1124E80FF91F477081E0B1
:1047B00090E0042E01C0880F0A94EAF79081982BAC
:1047C000908308956435E0F44033D0F4E42FF0E0B2
:1047D00033E0F595E7953A95E1F726E0629FE00D25
:1047E000F11D1124E80FF91F477081E090E0042EBD
:1047F00001C0880F0A94EAF780959081892380830D
:104800000895E42FF0E053E0F595E7955A95E1F728
:1048100026E0629FE00DF11D1124E80FF91F808151
:1048200090E0477002C0959587954A95E2F78170B0
:1048300008950F931F93CF93DF93EC01162F042F4E
:104840000E940124402F612F882339F0CE01DF918F
:10485000CF911F910F910C94E223CE01DF91CF9164
:104860001F910F910C94C423DB0180E019C0E0324A
:1048700011F48E5F15C0EE3299F09E2F90539A304E
:1048800010F48D5F0DC0EB3508F0E052E15496E076
:10489000E99FF0011124E95CF24FE4918E0F8F5FE4
:1048A000ED91E111E4CF08956F927F928F929F92E4
:1048B000AF92BF92CF92DF92EF92FF920F931F932E
:1048C000CF93DF936C01862E742E203209F443C0FF
:1048D0002E3209F442C0822F80538A3010F42651C0
:1048E00006C02B3508F0205221542B35B0F586E058
:1048F000289F90011124F901E95CF24F949000E0A7
:1049000010E068E3A62E6DE0B62EA20EB31E1EC008
:10491000F501E00FF11FE490C0E0D0E0F12C682E2B
:10492000680C97010C2E02C0359527950A94E2F782
:1049300020FF06C04C2F470D662DC6010E94C423E0
:104940002196C530D10569F70F5F1F4F802F0915DC
:10495000F8F2892D03C082E001C080E0DF91CF91A1
:104960001F910F91FF90EF90DF90CF90BF90AF908D
:104970009F908F907F906F900895EF92FF920F938A
:104980001F93CF93DF938C01F62EE42EE90107C02D
:104990004E2D6F2DC8010E945424F80EF3942991D6
:1049A0002111F6CFDF91CF911F910F91FF90EF90E2
:1049B00008957F928F929F92AF92BF92CF92DF9293
:1049C000EF92FF920F931F93CF93DF935C01962E8C
:1049D000842E205286E0289F70011124C0E0D0E090
:1049E0008FE09EE0E80EF91EF701EC0FFD1FC4906A
:1049F00000E010E0D12C7C2E790CC601002E02C004
:104A0000959587950A94E2F780FF06C0482D400FE0
:104A1000672DC5010E94C4230F5F1F4F0830110589
:104A200061F72196C630D105F9F6DF91CF911F913C
:104A30000F91FF90EF90DF90CF90BF90AF909F903D
:104A40008F907F9008958F929F92AF92CF92DF9236
:104A5000EF92FF921F93CF93DF936C01162FA42E3A
:104A6000E9012A30310590F02436310510F41A5F3F
:104A70000DC0283E83E0380710F4145F07C02031D2
:104A800087E2380710F41E5E01C0185E7AE0872EB8
:104A9000912CCE01B4010E947F4E7C01282F205D15
:104AA0004A2D612FC6010E94D924CE018E199F097B
:104AB000B4010E947F4EEB011650209751F7DF9111
:104AC000CF911F91FF90EF90DF90CF90AF909F908C
:104AD0008F900895CF92DF92FF920F931F93CF9301
:104AE000DF931F92CDB7DEB78C01562FF42E6901EC
:104AF00008C04F2D652FC80159830E94D9245981C0
:104B00005A5FF60121916F012111F3CF0F90DF91D0
:104B1000CF911F910F91FF90DF90CF9008952F922A
:104B20003F924F925F926F927F928F929F92AF923D
:104B3000BF92CF92DF92EF92FF920F931F93CF938A
:104B4000DF931F92CDB7DEB73C01562E342F2E32A5
:104B500031F02B3231F02D3231F02F7005C02AE0C8
:104B600003C02BE001C02CE083E0289F50011124FA
:104B7000E4E0AA0CBB1CEA95E1F7E12CF12C2EC075
:104B8000F601E20DF31D849000E010E0912C422C20
:104B9000450CC401002E02C0959587950A94E2F752
:104BA00080FF08C0432F400F642DC30139830E944A
:104BB000C42339810F5F1F4F0830110551F79FEF54
:104BC000291A390AE0E12E163104D1F6385FF0E1F6
:104BD000EF0EF11C80E3E816F10451F06701CA0CF6
:104BE000DB1C212C312CE7E3F0E1CE0EDF1EC8CF19
:104BF0000F90DF91CF911F910F91FF90EF90DF9079
:104C0000CF90BF90AF909F908F907F906F905F906C
:104C10004F903F902F900895CF92DF92FF920F9385
:104C20001F93CF93DF931F92CDB7DEB78C01562F22
:104C3000F42E690108C04F2D652FC80159830E94C9
:104C40008F255981505FF60121916F012111F3CF1A
:104C50000F90DF91CF911F910F91FF90DF90CF9038
:104C60000895222339F0213019F02F3F39F404C080
:104C70000C94C4230C94E2230C9419240895AF924D
:104C8000BF92CF92DF92EF92FF920F931F93CF9339
:104C9000DF93EC01F62EE42E122F161B041BBB240F
:104CA000B394111101C0B12CCC24C394011101C0E3
:104CB000C12C4E2D6F2DCE010E94C423101798F0E9
:104CC000D12ED694A12C0CC0D00ED11610F0D11A32
:104CD000EC0CFB0C4E2D6F2DCE010E94C423A3942F
:104CE000A112F2CF11C0D02ED694A12CD10ED01685
:104CF00010F0D01AFB0CEC0C4E2D6F2DCE010E9443
:104D0000C423A394A012F2CFDF91CF911F910F91F2
:104D1000FF90EF90DF90CF90BF90AF900895DF921B
:104D2000EF92FF920F931F93CF93DF93EC01F62E38
:104D3000D42EE22E102F042F0E943F26012F2E2D5D
:104D40004D2D6E2DCE010E943F262F2D4D2D6F2D06
:104D5000CE010E943F262E2D412F6F2DCE010E94A5
:104D60003F26DF91CF911F910F91FF90EF90DF9041
:104D7000089581E0611101C080E00895CF92DF9233
:104D8000EF92FF920F931F93CF93DF931F92CDB7B4
:104D9000DEB76C01E42EF62E0BC0412F6F2DC6013D
:104DA00029830E9419241F5F29810117B0F7F3940A
:104DB0002F1510F01E2DF9CF0F90DF91CF911F917D
:104DC0000F91FF90EF90DF90CF900895CF92DF92F8
:104DD000EF92FF920F931F93CF93DF931F92CDB764
:104DE000DEB76C01E42EF62E0BC0412F6F2DC601ED
:104DF00029830E94E2231F5F29810117B0F7F394F2
:104E00002F1510F01E2DF9CF0F90DF91CF911F912C
:104E10000F91FF90EF90DF90CF9008954F925F92A7
:104E20006F927F928F929F92AF92BF92CF92DF92BA
:104E3000EF92FF920F931F93CF93DF931F92CDB703
:104E4000DEB72C01762E642E690182E5E81202C0DD
:104E5000EAEF07C02A303105A8F02436310518F4EE
:104E6000E6E07E0E0FC0283EF3E03F0710F48CE032
:104E700008C02031E7E23E0718F4F2E17F0E02C0DD
:104E800088E1780E0535F9F430E00AE010E0C6015B
:104E9000B8010E947F4E7C01282F205D462D672D92
:104EA000C20139830E94D924C6018E199F09B80115
:104EB0000E947F4E6B01EAEF7E0E39813F5F6115E4
:104EC000710529F727C1043509F08DC00CE3E02EE8
:104ED000F12CC601B7010E947F4E5C01C6018A1900
:104EE0009B09B7010E947F4E4B010AE010E0C5010B
:104EF000B8010E947F4E6C01282F205D462D672D42
:104F0000C2010E94D924C5018C199D09B8010E94D3
:104F10007F4E262F205D672D6650462DC2010E94D0
:104F2000D924672D6C502AE3462DC2010E94D92452
:104F3000C401B7010E947F4E6C01C4018C199D0908
:104F4000B7010E947F4E5B01C601B8010E947F4EEF
:104F50007C01282F205D672D6251462DC2010E94E1
:104F6000D924372D3851C6018E199F09B8010E94E6
:104F70007F4E262F611102C013E001C014E0205DB6
:104F8000462D632FC2010E94D924672D6E512AE35A
:104F9000462DC2010E94D924372D3452C5016CE33D
:104FA00070E00E947F4E6AE070E00E947F4E8111A7
:104FB00016E0282F205D462D632FC2010E94D924C0
:104FC000672D6A52062D095F87E090E0811B282F2C
:104FD000220F280F220F260F462DC2010E94E6261F
:104FE00037E0311B97C0063409F093C028E532E062
:104FF000C601B9010E947F4E7C01C6018E199F092E
:10500000B9010E947F4E5B010AE010E0C701B801C0
:105010000E947F4E6C01282F205D462D672DC20116
:105020000E94D924672D66502EE2462DC2010E94AF
:10503000D924C7018C199D09B8010E947F4E7B01BC
:10504000CB01B8010E947F4E6C01282F205D672D97
:105050006C50462DC2010E94D924372D3251C70110
:105060008C199D09B8010E947F4E262F611103C043
:1050700012E0D12E02C0B3E0DB2E205D462D632F5F
:10508000C2010E94D924672D68512AE3462DC2012E
:105090000E94D924372D3E51C50168E572E00E9477
:1050A0007F4E8C016AE070E00E947F4E7C01282FC9
:1050B000882311F0A5E0DA2E205D462D632FC20172
:1050C0000E94D924372D3452C8018E199F096AE0F5
:1050D00070E00E947F4E262F662311F0F6E0DF2E4F
:1050E000205D462D632FC2010E94D924672D6A528C
:1050F000062D095F87E090E08D19282F220F280FD9
:10510000220F260F462DC2010E94E62637E03D19E8
:1051100001C030E0832F0F90DF91CF911F910F914D
:10512000FF90EF90DF90CF90BF90AF909F908F90C7
:105130007F906F905F904F9008952F923F924F9283
:105140005F926F927F928F929F92AF92BF92CF9217
:10515000DF92EF92FF920F931F93CF93DF9300D0D4
:1051600000D01F92CDB7DEB7282E592F362EF90169
:105170008491B9016E5F7F4F7D836C83319624915A
:10518000311002C0442391F030E0590193E0B5940E
:10519000A7949A95E1F7742F412C982F930D99833A
:1051A0004901840E911C682E712C5DC0843561F715
:1051B000203351F7222D392F66E019C0FA014F5FD5
:1051C0005F4FE491D901A80FB91FEC930696883F71
:1051D000E1E09E0799F78C819D818C5A9F4F9D83BA
:1051E0008C8361502F5F3F4F662309F445C04C818B
:1051F0005D8180E090E0E2CFF7019FEFE91AF90AC4
:10520000C49000E010E0D12C472F400F242F30E055
:1052100082169306BCF09601002E02C035952795A4
:105220000A94E2F7652D822D952F5B837A8320FF08
:1052300005C00E94C4235B817A8104C00E94E223DE
:105240007A815B810F5F1F4F08301105E9F6539497
:10525000E9815E12D1CF8C819D81860D971D9D8342
:105260008C834394785F242D30E02A153B0524F489
:10527000532CEC80FD80ECCF0F900F900F900F908F
:105280000F90DF91CF911F910F91FF90EF90DF90E2
:10529000CF90BF90AF909F908F907F906F905F90D6
:1052A0004F903F902F9008955F926F927F928F92D0
:1052B0009F92AF92BF92CF92DF92EF92FF920F93A5
:1052C0001F93CF93DF93EC01F62E042FE22ED62E00
:1052D000D21A6D2D0E94C423B02EBE184B2D6F2DF7
:1052E000CE010E94C423CE2CCF0C402F6C2DCE01BA
:1052F0000E94C423AE2CA00E4A2D6F2DCE010E9419
:10530000C42311E001C0182F5E2C511A8A2C811A77
:10531000712E7F0C482D672DCE010E94C4236B2C6B
:10532000610E9F2C911A462D692DCE010E94C42337
:10533000462D672DCE010E94C423482D692DCE0134
:105340000E94C423812E800E7C2C711A482D672D5B
:10535000CE010E94C423602E611A9D2C910E462D11
:10536000692DCE010E94C423462D672DCE010E94D7
:10537000C423482D692DCE010E94C423812F8F5F45
:10538000511608F6DF91CF911F910F91FF90EF908A
:10539000DF90CF90BF90AF909F908F907F906F9055
:1053A0005F9008958F929F92AF92BF92CF92DF92BB
:1053B000EF92FF92862E912CA12CB12CA0E2B0E8A6
:1053C000A50194010E94584E6B017C0180E4C82223
:1053D00084E8D82288E0E822FF24A2E0B8E00E9416
:1053E000584E6071717282709927C62AD72AE82AAE
:1053F000F92AA701960161E071E081E090E00E9446
:10540000634EFF90EF90DF90CF90BF90AF909F9052
:105410008F9008959C0146E00EC0F901E80FF91F36
:1054200010820696883F51E09507B9F741502F5FEB
:105430003F4F442319F080E090E0EFCF0895289883
:10544000411102C0169801C0169A6EBD0DB407FE38
:10545000FDCF289A08951F93CF93DF93EC01162F69
:10546000642F606440E00E941F2A612F606840E062
:10547000CE01DF91CF911F910C941F2ACF92DF9222
:10548000EF92FF920F931F93CF93DF93D82EC92EE5
:1054900040E060E00E942B2ACD2DDC2D7E0186E0CD
:1054A000E80EF11C13C0FE01E00FF11F41E0608126
:1054B0008D2D9C2D0E941F2A0A5F1F4F083F81E0FF
:1054C000180789F72196CE15DF0519F000E010E0E6
:1054D000EACFDF91CF911F910F91FF90EF90DF9076
:1054E000CF9008950F931F93CF93DF93EC0140E08B
:1054F0006CE00E941F2A40E060E8CE010E941F2A53
:1055000008EF11E041E060E0CE010E941F2A015047
:105510001109C1F7DF91CF911F910F91089528983C
:105520002A98299871988D98169815980895613041
:1055300039F4FC01E750FE4F60838D982D9A089551
:105540006F3F11F40C94C023FC01E750FE4F108212
:105550008D9A2D980895FC01E850FE4F60836623D4
:1055600031F0FC01E750FE4F60810C94972A0C94B7
:10557000C023CF93DF93EC01209A229A219A699A53
:10558000859A259A0E9A0D9A719AFC01E750FE4F62
:1055900060810E94972A8AE18A95F1F7159882E046
:1055A0008A95F1F7159A81E58CBD40E061E2CE0164
:1055B0000E941F2A40E060ECCE010E941F2A40E0BA
:1055C00066E0CE010E941F2A40E063E1CE010E9406
:1055D0001F2A40E060E2CE010E941F2ACE010E94F5
:1055E000722A40E06CE0CE010E941F2A6FEFCE01CC
:1055F000DF91CF910C94AB2A88509E4FFC018081A3
:105600000895CF93DF93EC018091790A882319F0F4
:1056100080E00E945115FE01E05BFF4F8081811107
:105620000CC0C15BDF4F8881882321F08091540A30
:10563000811107C01092540A0BC0479A469A4698A7
:1056400007C01092540A8EE197E00E942523F2CF02
:10565000DF91CF910895CF93DF93EC018091790A88
:10566000882319F081E00E945115FE01E05BFF4F95
:105670008081811111C0C15BDF4F8881882321F0B7
:1056800081E08093540A02C01092540A8EE197E0A0
:10569000DF91CF910C94252380916F0A811103C073
:1056A0004698479818C08130B1F49091540A9111EE
:1056B00012C0469847988093540A84EF91E028ECF2
:1056C00030E0F9013197F1F70197D9F7CE01DF9179
:1056D000CF910C94012BDF91CF910895CF93DF935D
:1056E000EC018091790A882319F080E00E9451151D
:1056F000FE01E05BFF4F808181110BC0C15BDF4F7A
:105700008881882309F43EC08091540A81113DC0EC
:1057100039C080916F0A811115C0479A469A469AFE
:1057200084EF91E028EC30E0F9013197F1F701972F
:10573000D9F7C05BDF4F349B03C081E088832AC068
:10574000188228C0813031F58091540A813011F5DA
:10575000479A469A469A84EF91E028EC30E0F901A6
:105760003197F1F70197D9F7FE01E05BFF4F349BCA
:1057700003C081E0808301C010821092540ACE01E0
:105780000E942B2B1092540A05C08EE197E00E94D4
:105790002523F8CFDF91CF910895FC01E05BFF4F07
:1057A000469B06C0349B03C081E0808301C0108209
:1057B000808108951F93CF93DF93EC01162F84E42B
:1057C000689FB0011124675F7F4F44E450E0CE0131
:1057D0000E94A951C45BDF4F1883DF91CF911F91C5
:1057E0000895FC0184E4808385E4818386E48283D8
:1057F00081E4838385E584838CE4858384E58683E3
:10580000178285E090E0958784878AE090E097870B
:10581000868784E190E0918B808B83E090E0938B8E
:10582000828B81E090E0958B848B978B868B918F18
:10583000808FDF01AE5BBF4F11969C938E9360E02B
:10584000CF010C94DA2B1F93CF93DF93EC01162F2B
:1058500084E4689FB0011124675F7F4F44E450E007
:10586000CE010E949151C45BDF4F1883DF91CF912D
:105870001F910895CF93DF93EC0189E090E00E949F
:10588000A1518F3F19F4CE010E94F12B60E0CE01AF
:105890000E94232C469A3E9A479A3F9A3C98449AF3
:1058A00086988E9AC05BDF4F349B03C081E088836B
:1058B00001C018821092540ADF91CF9108951F936E
:1058C000CF93DF93C1E0D0E014E41C9FC0011D9F83
:1058D000900D1124875F9F4F0E94A1518F3F31F09F
:1058E0002196C931D10589F78FEF01C08C2FDF9147
:1058F000CF911F910895855B9F4F21E0FC0120838C
:1059000008952F923F924F925F926F927F928F9263
:105910009F92AF92BF92CF92DF92EF92FF920F933E
:105920001F93CF93DF93CDB7DEB764970FB6F8948C
:10593000DEBF0FBECDBF1C01469B09C0FC01E05B72
:10594000FF4F349B03C081E0808301C01082F101CE
:10595000E55BFF4F8081811108C08091560A882342
:1059600009F4D5C321E0298701C019868091560A20
:10597000811118C081E08093560A1092570A83E77C
:1059800097E00E94A3141092580A1092590A469A5E
:105990003E9A479A3F9A3C98449A86988E9A469A9D
:1059A000479A469A8091570A811154C080911F01ED
:1059B000882371F08091790A882331F08BEB93E092
:1059C0000E943C380E943E388091570A80931F0104
:1059D00060917307709174078091750790917607B5
:1059E00028EE33E040E050E00E94A74ED1011C9623
:1059F000CD90DC901D97E12CF12CC216D306E40665
:105A0000F506A0F483E797E00E94A31483E797E0EC
:105A10000E94971410925A0A10925B0A10925C0A24
:105A200010925D0A82E08093570A14C0F1018485C8
:105A3000958589019A010F5F1F4F2F4F3F4FAC0192
:105A400060E070E0041715072607370718F0C1015A
:105A50000E94012B8091570A823009F03DC080914D
:105A60001F01823071F08091790A882331F08CEC2B
:105A700093E00E943C380E943E388091570A809300
:105A80001F01D10156968D919C915797892B09F052
:105A900042C354968D919C91559782FD3CC341C35E
:105AA000F9013197F1F70197D9F7C1010E946E2BE7
:105AB00084EF91E028EC30E0F9013197F1F701979C
:105AC000D9F7F10180899189029718F4C1010E94E8
:105AD000012B84E08093570A8091570A813009F0A6
