:100000000C94630A0C948D0A0C948D0A0C948D0A3E
:100010000C948D0A0C948D0A0C948D0A0C948D0A04
:100020000C948D0A0C948D0A0C94DE420C948D0A6B
:100030000C948D0A0C94710B0C948D0A0C948D0AFF
:100040000C948D0A0C948D0A0C948D0A0C948D0AD4
:100050000C948D0A0C948D0A0C948D0A0C948D0AC4
:100060000C948D0A0C948D0A0C948D0A0C948D0AB4
:100070000C948D0A0C948D0A0C948D0A0C948D0AA4
:100080000C948D0A0C948D0A0C948D0A0C948D0A94
:100090000C94554B0C948D0A1201100102000008BB
:1000A000EB03442001000102DC0109023E000201D1
:1000B00000C0320904000001020201000524001002
:1000C0000104240206052406000107058203080036
:1000D000FF09040100020A000000070504021000E5
:1000E0000107058302100001040309041C034500F5
:1000F0006C0069006A006100680020005000610027
:1001000072006B006500720000001E03540069005D
:100110006D0065006C0061007000730065002B00CD
:1001200020004300440043000000436F6D6D616E8A
:1001300064204572726F7220282553292E0D0A20E3
:100140002D2D204572726F7220436F6465202564E7
:100150000D0A005472616E73616374696F6E20469C
:1001600061696C00526573706F6E736520436F64D4
:100170006520213D204F4B00446F6E652E0D0A0017
:100180004572726F7220360D0A00436C6F73696E90
:10019000672053657373696F6E2E2E2E0D0A00450E
:1001A00072726F7220340D0A004F70656E696E674F
:1001B0002053657373696F6E2E2E2E0D0A004572E3
:1001C000726F7220320D0A00202020446576696328
:1001D000652056657273696F6E3A2025730D0A0D9E
:1001E0000A002020204D6F64656C3A2025730D0AAB
:1001F000002020204D616E756661637475726572B2
:100200003A2025730D0A004572726F7220310D0A73
:10021000004572726F722031320D0A004572726FA2
:100220007220390D0A004368616E67696E6720505D
:10023000726F70657274792E2E2E0D0A00457272DF
:100240006F7220380D0A0054616B696E6720706907
:1002500063747572652E2E2E0D0A00446576204556
:100260006E756D204572726F720D0A202D2D20451E
:1002700072726F7220436F64652025640D0A202D11
:100280002D20537562204572726F7220436F646532
:100290002025640D0A202D2D20496E205374617491
:1002A000652025640D0A00486F7374204D6F6465E6
:1002B000204572726F720D0A202D2D204572726FCB
:1002C0007220436F64652025640D0A005374696CC5
:1002D0006C20496D616765204465766963652045DA
:1002E0006E756D6572617465642E0D0A00436F6EE4
:1002F00074726F6C204572726F722028536574207F
:10030000436F6E66696775726174696F6E292E0D31
:100310000A202D2D204572726F7220436F64653A5A
:100320002025640D0A00202D2D204572726F722049
:10033000436F64653A2025640D0A00496E76616C4E
:100340006964204465766963652E0D0A00436F6E0B
:1003500074726F6C204572726F722028476574202A
:10036000436F6E66696775726174696F6E292E0DD1
:100370000A0047657474696E6720436F6E6669672B
:1003800020446174612E0D0A000D0A44657669638C
:100390006520556E61747461636865642E0D0A0092
:1003A0004465766963652041747461636865642E91
:1003B0000D0A0052657472696576696E672044653E
:1003C0007669636520496E666F2E2E2E0D0A0053E6
:1003D000746F702054696D6572202000460F0C0008
:1003E000005708416464204B65796672616D650051
:1003F000469F0B0000040844656C204B65796672CB
:10040000616D650046450D00000508566965772059
:1004100044657461696C7300462412000000004C4E
:100420006F61642053617665642E2E0046220C00B5
:1004300000B603536176652041732E2E20202000E4
:10044000465F0D00000000536176652020202020CB
:1004500020202000469D0D00000C08536176652089
:1004600044656661756C740046B70D00000000526B
:1004700065766572742020202020200046ED0B0058
:1004800000B603004F5054494F4E53002020200027
:1004900046070CFB04020553696D706C65205469B6
:1004A0006D6572004D03050000B60354696D656CFF
:1004B00061707365202020004D53050000B7034391
:1004C0006F6E6E6563742020202020004DBB0600F7
:1004D00000000053657474696E677320202020004B
:1004E0004DF70600000000002020202020202020C2
:1004F00020202000560000000000005245545552B4
:100500004E000044656C617920202020202054009A
:10051000455108D307000050686F746F7320202086
:1005200020205500455508DC070000476170202059
:100530002020202020204600455308E7070108001E
:1005400020202020202020202020200046C70E022E
:1005500005EF074D6F6465202020202020202A0011
:1005600053F5072008000044656C617920202020A5
:1005700020205400451808D30700004672616D65BD
:100580007320202020205500451A08DC07B80349B5
:100590006E7472766C20202020204600451C08E7EF
:1005A00007000848445220457870277320205500E2
:1005B000451E08E7070208536875747465722020A9
:1005C00020204600452208E7070208536875747426
:1005D0006572202020204600452208E707B903481D
:1005E00044522045562B2F2D2020550045240845E8
:1005F00008020842756C622031202020202046002D
:10060000452608E70703082A4B657920202020208B
:1006100020205400453A085D08030842756C6220AA
:100620003220202020204600452808E70703082A1A
:100630004B6579202020202020205400453C085D77
:1006400008070842756C62203320202020204600D5
:10065000452A08E70707082A4B6579202020202033
:1006600020205400453E085D08080842756C622051
:100670003420202020204600452C08E70708082ABF
:100680004B65792020202020202054004540085D23
:1006900008090842756C6220352020202020460081
:1006A000452E08E7070908002020202020202020D0
:1006B0002020200046D00D6908EF07426C75657454
:1006C0006F6F74682020200046880E0000C50A5510
:1006D00053422020202020202020200046020E000F
:1006E00000000000202020202020202020202000AA
:1006F0005600000000000053797374656D20496E48
:10070000666F200046830F000000004C43442043E6
:100710006F6C6F7220202000537108500BED394C24
:10072000434420424C2054696D65200053A1085178
:100730000BED39505752204175746F204F6666009B
:10074000531109520BED394C4544204175746F200B
:100750004F666600537109530BED3942756C622088
:100760004D6F64652020200053E1094E0BED3943A5
:10077000616D6572612046505320200053110A417B
:100780000BED3943616D657261204D616B65200031
:1007900053C10A4F0BED39446576204D6F646520D7
:1007A0004C45440053410B580BED39446576656C5C
:1007B0006F706D656E7420004D710B0000000000BD
:1007C0002020202020202020202020005600000073
:1007D00000000068683A6D6D3A7373003020666FF0
:1007E0007220696E662E006D6D3A73732E7300531E
:1007F000544152540054696D652D6C6170736520CD
:10080000200001250C48445220542D6C6170736502
:10081000200003350C4844522050686F746F20202C
:10082000200002430C42756C622D72616D702020B5
:10083000200005540C0020202020202020202020F3
:10084000200000000053746F707320626574776538
:10085000656E206578706F73757265730053696E8D
:100860006365207374617274004F5054494F4E5346
:100870000057686974652020202020202000006235
:100880000C526564202020202020202020000162BE
:100890000C002020202020202020202020000000EC
:1008A000003130205365636F6E6473202000017245
:1008B0000C3330205365636F6E6473202000037225
:1008C0000C31204D696E7574652020202000067261
:1008D0000C32204D696E75746573202020000C72F7
:1008E0000C35204D696E75746573202020001E72D2
:1008F0000C3130204D696E757465732020003C7298
:100900000C0020202020202020202020200000007B
:100910000031204D696E757465202020200006840A
:100920000C32204D696E75746573202020000C8494
:100930000C35204D696E75746573202020001E846F
:100940000C3130204D696E757465732020003C8435
:100950000C3330204D696E75746573202000B484AB
:100960000C0020202020202020202020200000001B
:10097000003130205365636F6E6473202000019650
:100980000C3330205365636F6E6473202000039630
:100990000C31204D696E757465202020200006966C
:1009A0000C32204D696E75746573202020000C9602
:1009B0000C35204D696E75746573202020001E96DD
:1009C0000C3130204D696E757465732020003C96A3
:1009D0000C002020202020202020202020000000AB
:1009E000005374616E64617264202020200000A8AE
:1009F0000C4D6F6D2E20546F67676C65200001BB36
:100A00000C0020202020202020202020200000007A
:100A1000003120465053202020202020200065CE89
:100A20000C3220465053202020202020200033CE9E
:100A30000C3320465053202020202020200022CE9E
:100A40000C342046505320202020202020001ACE95
:100A50000C3520465053202020202020200015CE89
:100A60000C3620465053202020202020200011CE7C
:100A70000C372046505320202020202020000FCE6D
:100A80000C382046505320202020202020000DCE5E
:100A90000C313020465053202020202020000BCE47
:100AA0000C3132204650532020202020200009CE37
:100AB0000C002020202020202020202020000000CA
:100AC000004F746865722020202020202000FEE066
:100AD0000C43616E6F6E202020202020200000F546
:100AE0000C4E696B6F6E202020202020200001F525
:100AF0000C4D696E6F6C746120202020200003F57E
:100B00000C4F6C796D70757320202020200004F547
:100B10000C50656E7461782020202020200005F59F
:100B20000C536F6E7920202020202020200002F519
:100B30000C00202020202020202020202000000049
:100B4000004F666620202020202020202000000169
:100B50000D4F6E20772F42756C622020200001140B
:100B60000D00202020202020202020202000000018
:100B7000005368757474657220546573740046235D
:100B8000130000B60353687574746572204C616776
:100B900020004672120000B6034952205465737457
:100BA00020202020200046BD130000B6033420483A
:100BB0006F7572204C696768740046FF3A0000B692
:100BC0000353797320537461747573202000467049
:100BD00010000000004261747465727920202020AA
:100BE0002000463C11000000004C69676874204DED
:100BF00065746572200046CF0E00000000506F77CC
:100C00006572204F66662020200046F8190000001B
:100C1000000020202020202020202020200056001E
:100C2000000000000042617369632054696D656CC7
:100C300061707365004844522054696D656C617041
:100C400073650053696E676C652048445220496D96
:100C50006167650052616D70206578706F737572A1
:100C600065004261636B6C6967687420636F6C6FC9
:100C700072004261636B6C69676874206F6E2074E8
:100C8000696D65004175746F20707772206F6666BC
:100C90002074696D65004C4544206175746F206F48
:100CA00066662074696D6500486F6C6473207368B4
:100CB000757474657220646F776E0050726573731B
:100CC000206F6E207072657373206F6666004672C7
:100CD000616D657320706572205365636F6E64008B
:100CE00043686F6F7365206966206E6F74206C694E
:100CF000737465640043616D657261206D616B653D
:100D0000004C4544206F666620647572696E6720EA
:100D10007573650053687574746572206C696768D3
:100D20007473204C4544000402040507064D4149F4
:100D30004E204D454E550000000000000000000010
:100D40002F000000000700070000147F147F14002C
:100D5000242A7F2A12006264081323003649552290
:100D60005000000503000000001C2241000000416B
:100D7000221C000014083E08140008083E08080061
:100D80000000A0600000080808080800006060007B
:100D900000002010080402003E5149453E00004278
:100DA0007F4000004261514946002141454B3100DE
:100DB0001814127F10002745454539003C4A49491F
:100DC00030000171090503003649494936000649DA
:100DD00049291E000036360000000056360000008B
:100DE00008142241000014141414140000412214A9
:100DF0000800020151090600324959513E007C1297
:100E000011127C007F49494936003E414141220090
:100E10007F4141221C007F49494941007F0909095E
:100E200001003E4149497A007F0808087F000041DF
:100E30007F4100002040413F01007F081422410013
:100E40007F40404040007F020C027F007F0408107A
:100E50007F003E4141413E007F09090906003E41B5
:100E600051215E007F091929460046494949310050
:100E700001017F0101003F4040403F001F20402012
:100E80001F003F4038403F00631408146300070808
:100E900070080700615149454300007F414100004F
:100EA000552A552A55000041417F000004020102E5
:100EB0000400404040404000000102040000205473
:100EC000545478007F484444380038444444200057
:100ED000384444487F00385454541800087E0901AF
:100EE000020018A4A4A47C007F0804047800004435
:100EF0007D4000004080847D00007F102844000079
:100F000000417F4000007C04180478007C08040441
:100F10007800384444443800FC2424241800182461
:100F20002418FC007C080404080048545454200091
:100F3000043F444020003C4040207C001C204020D6
:100F40001C003C4030403C004428102844001CA0B9
:100F5000A0A07C004464544C440000060909060328
:100F60000000000000025E00000000040600060011
:100F70000006143E143E1406242A7E2A120644203B
:100F800010084406344A54205003040200000003B1
:100F90003C4200000003423C000000055438385435
:100FA000000410381000000340200000000410105E
:100FB0001000000240000000000640201008040558
:100FC0003C524A3C0004447E4000000564524A44BE
:100FD0000005424A4A3400051E107C1000054E4AA6
:100FE0004A3200053C4A4A32000502720A060005F0
:100FF000344A4A3400050C52523C000224000000DE
:1010000000034024000000041028440000042828A5
:101010002800000444281000000504520A040006B9
:101020003804344438057C12127C00057E4A4A3468
:1010300000053C42422400057E42423C00057E4AB7
:101040004A4200057E0A0A0200053C42523400056D
:101050007E08087E00027E000000000420403E0062
:1010600000067E08142240057E40404000067E04B3
:1010700008047E067E0408107E053C42423C0005C2
:101080007E12120C00053C42225C00057E12324C9E
:101090000005244A5224000602027E0202053E4058
:1010A000403E00060E3040300E063E4020403E06D8
:1010B00042241824420606087008060562524A4671
:1010C00000037E4200000006040810204003427E18
:1010D00000000004040204000005404040400006F7
:1010E0002054545478067F484444380638444444D5
:1010F0002006384444487F06385454541806087E65
:101100000901020618A4A4A47C067F08040478063A
:1011100000447D4000064080847D00067F10284406
:10112000000600417F4000067C04180478067C0815
:1011300004047806384444443806FC242424180661
:1011400018242418FC067C08040408064854545447
:101150002006043F444020063C4040207C061C20E2
:1011600040201C063C4030403C06442810284406E1
:101170001CA0A0A07C064464544C440080C0E0E065
:1011800060E0E0C08000000000000070FFFF010090
:10119000000000FFFFFE0000000000000F1F3C38B1
:1011A0003038381F0F0300000000000000000080EE
:1011B000E0E0000000000000000000000003030366
:1011C000FFFF000000000000000000000038383879
:1011D0003F3F38383800000000000000C0C0E06029
:1011E00060E0E0C08000000000000000010000801E
:1011F000C0E0F93F1F000000000000003C3E3F3F00
:101200003B3938383838000000000000C0E0E060AA
:1012100060E0E0C0C00000000000000001000030FD
:1012200030387DEFCF000000000000001C3838305F
:1012300030383C1F0F0100000000000000000000DB
:1012400080C0E0E000000000000000E0F0F8DECF29
:10125000C7C1FFFFC0C00000000000000000000088
:1012600000003F3F0000000000000000E0E0E0E080
:10127000E0E0E0E0E0E00000000000003F3F3F3839
:10128000383070F0E0000000000000001C383830FA
:1012900030383C1F0F010000000000000080C0C07B
:1012A000E06060E0E0000000000000E0FEFF373991
:1012B000181838F0F0C00000000000000F1F1C38A4
:1012C0003030381F0F07000000000000E0E0E0E0D1
:1012D000E0E0E0E0E0E0000000000000000000804E
:1012E000E0F87E1F070100000000000000383E1FEC
:1012F00007010000000000000000000080C0E0E0E6
:101300006060E0C0C000000000000000CFFF7F3838
:10131000307070FFEFC70000000000030F1F3C3863
:101320003030381F1F0F00000000000080C0E0E0D8
:1013300060E0E0C0800000000000000C3F7FF1E0B2
:10134000C0C0E1FFFFFE00000000000000383030A8
:1013500038381E0F070000000000000000000000E9
:10136000000000000000000000000000000000007D
:1013700000000000000000000000003C3C3C0000B9
:10138000000000000000000000000000000000005D
:10139000000000000000000000000000004040408D
:1013A0004040FEFE40404040400000000000000081
:1013B00000000F0F0000000000000000000000000F
:1013C000000000000000000000000000404040401D
:1013D000404000000000000000000000000000008D
:1013E0000000000000000000000000041E05051EB3
:1013F00000041F15150A00040E11111100041F111D
:10140000110E00041F15151100041F05050100042D
:101410000E11151D00041F04041F0003111F1100ED
:10142000000408110F0100041F040A1100041F101A
:10143000101000051F0204021F041F02041F0004F5
:101440000E11110E00041F09090600040E11191EC9
:1014500000041F0909160004121515090003011FD5
:10146000010000040F10100F00030F100F00000503
:101470001F0804081F041B04041B0003031C0300B3
:1014800000041915151300030E150E000003121F9A
:101490001000000319151200000311150A000003C3
:1014A00007041F0000031715090000031E151D0087
:1014B00000031905030000030A150A0000031715AD
:1014C0000F000000550B11241FBECFEFD0E2DEBF8E
:1014D000CDBF17E0A0E0B1E0E8E2FEEA00E00BBF1C
:1014E00002C007900D92A43BB107D9F71BE0A4EB13
:1014F000B7E001C01D92A23DB107E1F714E1C6ECCF
:10150000D4E104C02297FE010E94B653C43CD10727
:10151000C9F70E9450140C9412570C9400009C01BF
:10152000FB018A30910520F4805D8083118208954B
:1015300084369105B0F46AE00E945F53905D918318
:101540009053A901491B5109CA016AE070E00E9449
:101550006B53862F6AE00E945F53905D90831282E6
:10156000089553E0883E950728F56AE00E945F538E
:10157000492FC901841B91096AE070E00E946B53F6
:101580009B01405D4283862F6AE00E945F53905D1D
:1015900091839053A901491B5109CA016AE070E087
:1015A0000E946B53862F6AE00E945F53905D908388
:1015B0001382089557E280319507A0F56AE00E94F2
:1015C0005F53492FC901841B91096AE070E00E94B2
:1015D0006B539B01405D4383862F6AE00E945F53FB
:1015E000492FC901841B91096AE070E00E946B5386
:1015F0009B01405D4283862F6AE00E945F53905DAD
:1016000091839053A901491B5109CA016AE070E016
:101610000E946B53862F6AE00E945F53905D908317
:10162000148208956AE00E945F53492FC901841B08
:1016300091096AE070E00E946B539B01405D448316
:10164000862F6AE00E945F53492FC901841B9109CC
:101650006AE070E00E946B539B01405D4383862FDC
:101660006AE00E945F53492FC901841B91096AE017
:1016700070E00E946B539B01405D4283862F6AE0BD
:101680000E945F53905D91839053A901491B5109BA
:10169000CA016AE070E00E946B53862F6AE00E94E4
:1016A0005F53905D9083158208958CE098E00E94CE
:1016B000FD3181E698E00E94662A8BE59AE00E945F
:1016C0000A1A8FE99AE00E94E31683EB9AE00E94DF
:1016D000FD1585EC9AE00E940B3887E09BE00C94A6
:1016E000A9251F920F920FB60F920BB60F921124DD
:1016F0002F933F934F935F936F937F938F939F931A
:10170000AF93BF93EF93FF938FE99AE00E9418176E
:1017100083EB9AE00E949F16FF91EF91BF91AF91EA
:101720009F918F917F916F915F914F913F912F91F9
:101730000F900BBE0F900FBE0F901F9018958091C9
:101740004E0890914F08059708F041C080914E08CF
:1017500090914F08892B31F481E090E090934F08ED
:1017600080934E08A0914E08B0914F08E0914E082A
:10177000F0914F08EE0FFF1FE85CF74F80819181D9
:10178000805F914FAA0FBB1FA65CB74F11969C9329
:101790008E93A0914E08B0914F08E0914E08F091C1
:1017A0004F08EE0FFF1FEA5DF74F80819181AA0F6E
:1017B000BB1FA85DB74F11969C938E9380914E08E6
:1017C00090914F08019690934F0880934E088BE5B7
:1017D0009AE00E94C11A81E008951F93162F662394
:1017E00031F0609158088CE098E00E949E318BE5C2
:1017F0009AE06AE271E0412F0E94401C882329F0A0
:101800008BE59AE00E94C11A81E01F910895813012
:1018100021F48BE59AE00E94C11A81E00895462FD9
:10182000662311F0109257088BE59AE063E371E0AC
:101830000E94401C882329F08BE59AE00E94C11A7F
:1018400081E008952F923F924F925F926F927F9224
:101850008F929F92AF92BF92CF92DF92EF92FF92C0
:101860000F931F93CF93DF93782E611161E085E092
:10187000781641F48091090B8823B1F08150809350
:10188000090B15C086E0781679F44091090B242FD6
:1018900030E080910A0B90E001972817390724F473
:1018A0004F5F4093090B03C0662309F4ABC081E688
:1018B00098E00E947C308091090B833010F4AA24B8
:1018C00003C01EEFA12EA80E10920A0BEE24FF24D7
:1018D000B1E0CB2ED12CA4E42A2E312C8A2C9924D1
:1018E000F4E04F2E512C480C591C6E2CE29CE00168
:1018F000E39CD00DF29CD00D1124CE01875F9F4F49
:101900000E947F5681508E3FE0F500E010E0E3E05A
:10191000BE2ECA1450F14C145D043CF1C8018C0F6A
:101920009D1F875F9F4F0E947F56282F81548A31C9
:1019300008F020E280910A0B90E088199909AC0127
:1019400073E0440F551F7A95E1F7480F591F485F20
:1019500081E698E06B2D0E949A2B90910A0B809162
:10196000090B981711F46092080B0F5F1F4F86E068
:10197000B80E8BE4B81669F680910A0B8F5F8093DE
:101980000A0B0894E11CF11C0894C11CD11C88E1CD
:10199000E816F10409F0A9CF8091090B90E08A19AB
:1019A0009109AC0163E0440F551F6A95E1F7480FB8
:1019B000042F015F81E698E062E0495F21E50E9423
:1019C000502D8BE59AE06BE371E00E9476208BE569
:1019D0009AE066E471E04DE451E00E94F61C81E675
:1019E00098E060E043E020E008E20E94D92C81E624
:1019F00098E063E543E023E50E94D92C81E698E076
:101A00000E94AD3081E0781661F183E0781649F1EB
:101A100082E0781629F084E0781611F080E022C088
:101A20008CE098E06091080B0E949E318BE59AE073
:101A300062E571E041E00E94401C80ED97E028ECF7
:101A400030E0F9013197F1F70197D9F78BE59AE08A
:101A50000E94C11A8BE59AE060E00E945B1B82E065
:101A600001C081E0DF91CF911F910F91FF90EF9026
:101A7000DF90CF90BF90AF909F908F907F906F90AE
:101A80005F904F903F902F90089580914E089091D5
:101A90004F08029748F080914E0890914F080197A7
:101AA00090934F0880934E088BE59AE00E94C11AEC
:101AB0008BE59AE060E00E945B1B81E008950F9344
:101AC0001F93182F062F662331F08CE098E00E94B8
:101AD0007D3180930B0B8BE59AE0612F4CE05BE04E
:101AE00029E531E00E94B220182F823011F51092C2
:101AF000170B8CE098E06CE07BE00E94C1538CE017
:101B000098E060910B0B0E94B5318BE59AE061E69D
:101B100071E041E00E94401C80ED97E028EC30E04D
:101B2000F9013197F1F70197D9F78BE59AE00E9417
:101B3000C11A812F1F910F9108951F93162F6623AD
:101B400031F0609158088CE098E00E94B5318BE547
:101B50009AE061E671E0412F0E94401C882329F041
:101B60008BE59AE00E94C11A81E01F9108951F93AE
:101B7000162F662329F08CE098E060E00E94B531D2
:101B80008BE59AE061E671E0412F0E94401C8823BA
:101B900029F08BE59AE00E94C11A81E01F91089517
:101BA000462F662311F08093180B8091180B82301A
:101BB000A1F48BE59AE067E671E00E94401C80E4A6
:101BC0009FE128EC30E0F9013197F1F70197D9F75F
:101BD0008CE098E00E94773113C08BE59AE00E9478
:101BE000631A8BE59AE060E00E945B1B8BE59AE04C
:101BF0006FEC73E00E94BA2281E698E00E94AD305B
:101C000081E008951F93182F662339F490917E0B7D
:101C10008091190B981709F46EC080917E0B809308
:101C2000190B882379F181E698E00E947C3081E6E7
:101C300098E063E047E025E731E00E94252C81E64B
:101C400098E063E04FE023E831E00E94252C81E634
:101C500098E063E047E123E831E00E94252C81E62B
:101C600098E063E04FE123E831E00E94252C8BE50A
:101C70009AE061E971E00E9476208BE59AE06DE9D7
:101C800071E02EC081E698E00E947C3081E698E009
:101C900063E047E025EA31E00E94252C81E698E0E8
:101CA00063E04FE023EB31E00E94252C81E698E0D1
:101CB00063E047E121EC31E00E94252C81E698E0C9
:101CC00063E04FE123E831E00E94252C8BE59AE0A8
:101CD0006FEC71E00E9476208BE59AE066E471E09B
:101CE00044EA51E00E94F61C81E698E00E94AD3083
:101CF00081E080930B08112311F480E007C08091EC
:101D00007E0B882311F410920B0881E01F91089537
:101D10001F93182F6623B1F181E698E00E947C3072
:101D200081E698E063E047E02BED31E00E94252C4E
:101D300081E698E063E04FE029EE31E00E94252C37
:101D400081E698E063E047E127EF31E00E94252C2F
:101D500081E698E063E04FE125E032E00E94252C27
:101D60008BE59AE063E172E00E9476208BE59AE0D1
:101D70006DE971E044EA51E00E94F61C81E698E0CA
:101D80000E94AD30812F111181E01F9108956623CB
:101D900029F0823011F081E0089580E0B9CFEF9210
:101DA000FF920F931F93DF93CF9300D000D000D00A
:101DB000CDB7DEB7E82E662341F081E698E060E01B
:101DC0000E94173180E00E94091880911A0B882325
:101DD00009F07BC081E698E00E947C308BE59AE0B8
:101DE0006BE172E00E94762082E0E81651F481E017
:101DF00080931A0B8BE59AE06DE971E047E252E0BF
:101E000006C08BE59AE06DE971E04BE252E00E947A
:101E1000F61C80E00E9473198E010F5F1F4FB801FE
:101E20007EDB81E698E0B8010E94FC2A90E5F92E5D
:101E30006F2D681B81E698E04EE098010E947E2B92
:101E400081E698E063E04EE021E332E00E947E2BE1
:101E500081E00E947319B80162DB81E698E0B80165
:101E60000E94FC2A6F2D681B81E698E044E19801EE
:101E70000E947E2B81E698E063E044E12AE332E0B1
:101E80000E947E2B82E00E947319B80148DB81E634
:101E900098E0B8010E94FC2AF81A81E698E06F2DBC
:101EA0004AE198010E947E2B81E698E063E04AE1D6
:101EB00023E432E00E947E2B81E698E00E94AD3060
:101EC00080E29EE40197F1F706C082E0E81619F47B
:101ED00010921A0B03C081E0E81611F080E006C0F2
:101EE00081E698E06FEF0E94173181E026960FB6E9
:101EF000F894DEBF0FBECDBFCF91DF911F910F9140
:101F0000FF90EF9008955F926F927F928F929F92D1
:101F1000AF92BF92CF92DF92EF92FF920F931F93F7
:101F2000DF93CF9300D000D000D0CDB7DEB7882E9E
:101F3000662309F4B7C081E698E00E947C3085EC06
:101F40009AE00E94A238682E772481E698E06CE43B
:101F500072E00E94FC2A60E5681B81E698E048E098
:101F60002CE432E00E947E2B81E698E063E048E0BA
:101F700022E532E00E947E2B82E06816710418F0A0
:101F800009E512E002C00EE512E081E698E0B80132
:101F90000E94FC2A60E5681B81E698E04EE098010B
:101FA0000E947E2B81E698E063E04EE023E632E07B
:101FB0000E947E2B81E698E063E044E12CE632E06B
:101FC0000E947E2B00E04DE5C42E45E0D42E43E375
:101FD000E42E41E0F42E5E010894A11CB11C30E512
:101FE000532EC701B6012AE030E040E050E00E94E5
:101FF0009253162F105D198310531A8281E698E0D0
:10200000B5010E94FC2A080F0F5F20E5922E652D76
:10201000601B81E698E044E195010E947E2BC11A85
:10202000D108E108F108C701B6012AE030E040E03C
:1020300050E00E949253C901DA016C017D01C11484
:10204000D104E104F10469F692E069167104C0F06C
:10205000C301B50164DA81E698E0B5010E94FC2A6B
:10206000981A81E698E0692D40E295010E947E2B46
:1020700081E698E063E040E226E732E00E947E2BB2
:102080008BE59AE065E872E00E9476208BE59AE0A5
:102090006DE971E044EA51E00E94F61C81E698E0A7
:1020A0000E94AD3081E0881629F080E093E0891627
:1020B00009F481E026960FB6F894DEBF0FBECDBFBF
:1020C000CF91DF911F910F91FF90EF90DF90CF9014
:1020D000BF90AF909F908F907F906F905F9008958A
:1020E000EF92FF920F931F93DF93CF9300D000D016
:1020F00000D0CDB7DEB7E82E81E698E00E947C30B4
:10210000B9D7813019F401E912E009C0823019F41D
:102110000AE912E004C0882311F402EA12E081E621
:1021200098E0B8010E94FC2A50E5F52E6F2D681B3F
:1021300081E698E048E098010E947E2B81E698E0D5
:1021400063E048E02CEA32E00E947E2B0E94BD183A
:1021500090E08E010F5F1F4FB801E1D981E698E052
:10216000B8010E94FC2A6F2D681B81E698E04EE0C2
:1021700098010E947E2B81E698E063E04EE021EB1F
:1021800032E00E947E2B5AD7B801C9D981E698E087
:10219000B8010E94FC2A6F2D681B81E698E044E19B
:1021A00098010E947E2B81E698E063E044E12AEBEF
:1021B00032E00E947E2B8091A30A9091A40AB8017C
:1021C000AED981E698E0B8010E94FC2A6F2D681B09
:1021D00081E698E04AE198010E947E2B81E698E032
:1021E00063E04AE124EC32E00E947E2B8091A70A52
:1021F0009091A80AB80193D981E698E0B8010E94AD
:10220000FC2AF81A81E698E06F2D40E298010E94BE
:102210007E2B81E698E063E040E22DEC32E00E9404
:102220007E2B8BE59AE067ED72E00E9476208BE5CD
:102230009AE06DE971E044EA51E00E94F61C81E603
:1022400098E00E94AD3080E29EE40197F1F781E0D2
:10225000E81629F080E093E0E91609F481E026967B
:102260000FB6F894DEBF0FBECDBFCF91DF911F91A7
:102270000F91FF90EF900895DF92EF92FF920F93EE
:102280001F93CF93DF93D82E54D78C01F3D6F82E1B
:10229000045F114084E290E09C01029FC001039F13
:1022A000900D129F900D112461E970E00E946B5314
:1022B000E62E33E2361730F481E0F81619F473E2B3
:1022C000E72E08C094E29E1518F022E0F21611F4F1
:1022D00064E2E62E81E698E00E947C3031E0F3165D
:1022E00019F4C1E9D2E00AC082E0F81619F4CAE98B
:1022F000D2E004C0FF2011F4C2EAD2E081E698E007
:10230000BE010E94FC2AFF2049F0869569E2681B05
:1023100081E698E04FE19E010E947E2B81E698E0E5
:1023200064E14FE02CE30FE00E94D92C81E698E0B5
:1023300064E140E124E10BE10E94D92C81E698E0C0
:1023400065E14BE12CE30E94D92C81E698E06CE337
:1023500040E12CE303E10E94D92C81E698E06CE394
:1023600047E12CE30AE10E94D92C81E698E06DE375
:1023700043E12DE307E10E94D92C10E0212F2A5ED2
:1023800081E698E0622F41E109E10E94D92C1F5FAC
:10239000E116A0F78BE59AE062EE72E00E947620EB
:1023A0008BE59AE06DE971E044EA51E00E94F61C89
:1023B00081E698E00E94AD3080E091E0D91609F402
:1023C00081E0DF91CF911F910F91FF90EF90DF900F
:1023D0000895EF92FF920F931F93F82E662351F109
:1023E0002DD68C0181E698E00E947C3081E698E051
:1023F00061E042E12AEB32E00E94252C81E698E080
:1024000067E342E1980105E5ECE4EE2E0E94922D8F
:102410008BE59AE061EF72E00E9476208BE59AE00E
:102420006DE971E044EA51E00E94F61C81E698E013
:102430000E94AD3080E091E0F91609F481E01F912F
:102440000F91FF90EF900895EF92FF920F931F93DB
:10245000F82E6623D1F081E698E00E947C3081E678
:1024600098E061E042E128EF32E00E94252C8BE504
:102470009AE06FEF72E00E9476208BE59AE065E0CB
:1024800073E04DE951E00E94F61C81E698E064E2B9
:1024900042E123E50AE10E94712D8FE99AE030D5EF
:1024A0008B019C0181E698E063E542E1980106E436
:1024B000F2E5EF2E0E94922D81E698E00E94AD3069
:1024C00081E0F81629F48FE99AE0F0D480E005C0A5
:1024D00080E092E0F91609F481E01F910F91FF90DE
:1024E000EF9008959F92AF92BF92CF92DF92EF92BA
:1024F000FF920F931F93982E6623C1F010921B0B2F
:1025000081E698E00E947C308BE59AE06AE073E017
:102510000E9476208BE59AE06BE173E042E253E0A3
:102520000E94F61C81E698E00E94AD30892D815012
:10253000823008F079C081E698E06AE042E120E567
:1025400006E20E94712D81E698E06AE042E12AE20B
:1025500033E00E94252C479A3F9A3C98449A8698EB
:102560008E9A469A3E9A389A409A3D98459A88EEB5
:1025700093E028EC30E0F9013197F1F70197D9F7B2
:1025800022E0921651F4469880E197E228EC30E080
:10259000F9013197F1F70197D9F747988FE99AE058
:1025A00085D408C08FE99AE087D4685E7340804084
:1025B000904010F43599F6CF8FE99AE07DD47B01F5
:1025C0008C0184EF91E028EC30E0F9013197F1F7CC
:1025D0000197D9F7479A469A8FE99AE067D408C0DD
:1025E0008FE99AE069D4695E73408040904010F4AE
:1025F000359BF6CF8FE99AE05FD45B016C0181E6F1
:1026000098E068E342E1970105E5ACE4EA2E0E9418
:10261000922D81E698E068E34CE195010E94922DAD
:1026200081E698E00E94AD3080E093E0991609F4CD
:1026300081E01F910F91FF90EF90DF90CF90BF90BE
:10264000AF909F9008950F931F93182F6623D1F09A
:1026500010921D0B10921C0B81E698E00E947C30BA
:102660008BE59AE062E373E00E9476208BE59AE0C6
:102670006FE373E044E453E00E94F61C81E698E0C7
:102680000E94AD301130D9F480911D0B8130B1F131
:1026900010931D0B81E698E064E142E128E30AE132
:1026A0000E94712D81E698E064E142E129E433E083
:1026B0000E94252C8CE098E00E9445322DC01230FB
:1026C000D9F480911D0B8230C9F010931D0B81E667
:1026D00098E064E142E128E30AE10E94712D81E67D
:1026E00098E064E142E120E533E00E94252C8CE093
:1026F00098E00E946E3210C0112391F010921D0BD1
:1027000081E698E064E142E128E30AE10E94712D4C
:102710008CE098E00E94AE3281E698E00E94AD30F5
:102720008CE098E00E94673190911C0B882371F037
:102730009923E1F481E080931C0B81E698E066E048
:102740004CE127E533E00E947E2B0CC0913071F400
:1027500010921C0B81E698E066E04CE121E504E272
:102760000E94712D81E698E00E94AD3080E0133028
:1027700009F481E01F910F9108951F93182F66238C
:10278000B1F081E698E00E947C308BE59AE067E644
:1027900073E00E9476208BE59AE06FE673E047E7EE
:1027A00053E00E94F61C81E698E00E94AD301130A3
:1027B00029F487E09BE00E940D2806C0123031F416
:1027C00087E09BE00E94982680E004C080E0133000
:1027D00009F481E01F9108950F931F93A89588E154
:1027E0000FB6F89480936000109260000FBE2FE047
:1027F00088E190E00FB6F894A895809360000FBE32
:10280000209360006C98749A35D48823A9F4649B53
:1028100013C081E698E00E9427310E94903A8FE72A
:1028200093E00E945B3A88E10FB6F89480936000D1
:10283000109260000FBEDCD5DDD30E94AC398FE969
:102840009AE0C2D201E618E0C8010E942731109335
:102850005C0A00935B0A83EB9AE090935E0A809394
:102860005D0A83B7817F846083BF83B7816083BF44
:102870008BE59AE067E974E00E94BA22C8010E94E1
:10288000AD300E94F6500E944B4B85EC9AE00E94BE
:10289000573985EC9AE00E9406391F910F910895EF
:1028A000CF92DF92EF92FF921F9396DF80E090E04D
:1028B0000E947F568F3F41F0882331F083EB9AE0EE
:1028C00005D2843009F059C10E94AB3C882329F01D
:1028D00080E090E061E00E94905629E288E190E07B
:1028E0000FB6F894A895809360000FBE2093600007
:1028F000FFCF7ED581E090E090934F0880934E0803
:10290000A895639B05C080910B08882309F43AC100
:10291000779938C18091E00081608093E0000E9447
:10292000F9416F9A849A8C9A779A0E94CD4F0EC083
:1029300080910B08882351F4779B08C00E94854F33
:102940006F9A849A8C9877980E94F650779B03C070
:102950000E94E44F02C00E9411518091570890E0FC
:10296000882309F491E09093B6038091500890E099
:10297000882309F491E09093B70380912008909107
:10298000210881708093B8038091200890912108DC
:1029900082708093020880910208882311F090E0F1
:1029A00006C08091030890E0882309F491E0909399
:1029B000B9038091200890912108847080930308C6
:1029C00080910308882311F420E008C080914E080C
:1029D00090914F0820E0059708F421E02093040827
:1029E00080910308882311F420E008C080914E08EC
:1029F00090914F0820E0029708F021E0209305080D
:102A000080914E0890914F08029710F480E004C026
:102A100080910308811181E08093070880914E081E
:102A200090914F08039710F480E004C08091030850
:102A3000811181E08093080880914E0890914F08A1
:102A4000049710F480E004C080910308811181E0B4
:102A50008093090880914E0890914F08059710F4D3
:102A600080E004C080910308811181E080930A080E
:102A700080911A0890911B08029710F480E004C01E
:102A80008091B803811181E08093000880915508FE
:102A90009091560820E0029708F021E02093010869
:102AA0000E94CC50882309F43FC00E94CF5084324A
:102AB00011F449D339C0863569F5BDE5CB2EB5E0B3
:102AC000DB2EB3E3EB2EB1E0FB2EC701B6012AE00B
:102AD00030E040E050E00E949253162F862F805D38
:102AE0000E94CF3EC11AD108E108F108C701B60122
:102AF0002AE030E040E050E00E949253C901DA0140
:102B00006C017D01C114D104E104F104F1F60E94CD
:102B1000323E0AC0843521F485E40E94CF3E04C0D1
:102B20008C3411F40E94A13A8BE59AE00E94A6240D
:102B3000182F8CE098E00E940D33123039F472D2D5
:102B4000882311F080E001C081E063D28091B60358
:102B5000882361F08091B703882341F08CE098E0EE
:102B60000E946731882311F481E001C080E08093E6
:102B7000A90A8FE99AE0EDD1C3CE7CD2882309F46B
:102B8000B9CEB7CE639BE2CED3CEDC0140E050E0BD
:102B900061E070E01C9216961C9216971C961C928F
:102BA0001C97FA01E95DF24F8491423080F43DB107
:102BB000FB0102C0EE0FFF1F8A95E2F7CF012E2F17
:102BC000209523232DB92EB1822B8EB90FC03AB197
:102BD000FB0102C0EE0FFF1F8A95E2F7CF012E2FF7
:102BE000209523232AB92BB1822B8BB94F5F5F4FDE
:102BF00011964630510571F60895DC0140E050E031
:102C000061E070E01C9216961C9216971C961C921E
:102C10001C97FA01E95DF24F8491423080F43DB196
:102C2000FB0102C0EE0FFF1F8A95E2F7CF012E2FA6
:102C3000209523232DB92EB1822B8EB90FC03AB126
:102C4000FB0102C0EE0FFF1F8A95E2F7CF012E2F86
:102C5000209523232AB92BB1822B8BB94F5F5F4F6D
:102C600011964630510571F60895FC0180E01082FE
:102C7000168214868F5F31968630C9F708950F93B8
:102C80001F93182F092F8FE99AE040D1882361F014
:102C9000812F902F9C01F90180E01082168214860A
:102CA0008F5F31968630C9F7812F902F9C01F901F3
:102CB00090E084859F5F882311F0892F04C03196AE
:102CC0009630B9F780E01F910F910895CF93DF936D
:102CD000EC018FE99AE01AD1882349F0FE0180E0E7
:102CE0001082168214868F5F31968630C9F7DE0116
:102CF000E0E0F0E09E2F1C968C911C97882331F029
:102D0000EC0FFD1F1486892F8F5F06C03196119638
:102D1000E630F10579F780E0DF91CF9108951F93B8
:102D2000CF93DF93EC01162F01C0A895CE01CEDF23
:102D30008117D9F7812FDF91CF911F910895FF92CD
:102D40000F931F93CF93DF93EC0100E010E0FF247B
:102D5000F394F801E95DF24F2491023010F48CB144
:102D600001C089B190E002C0959587952A95E2F758
:102D700081708F259881882381F09F30B8F4892F46
:102D80008F5F88838B3090F08E81882379F4FC8666
:102D9000FE828FE99AE0CBD009C0992339F01C86D6
:102DA000892F81508883833008F41E820F5F1F4F64
:102DB00021960630110569F6DF91CF911F910F9191
:102DC000FF90089508950895DC0192E09093B0007B
:102DD000E1EBF0E010828081846080838AE7809359
:102DE000B3001092B6009093700052961C925297C6
:102DF00081E01A968C931A971D921D921D921C9237
:102E0000139714961D921D921D921C921797199656
:102E10001C921E921897789408951092B000109208
:102E2000B1001092B3001092B60010927000089595
:102E3000FC01208531852F5F3F4F318720878081BE
:102E40009181A281B3810196A11DB11D80839183DF
:102E5000A283B383285E3340E0F01186108684811C
:102E60009581A681B7810196A11DB11D84839583AB
:102E7000A683B783868597850196978786878485FD
:102E80009585019695878487808991890196918B94
:102E9000808B0895FC0110821182128213821482A9
:102EA000158216821782118610860895FC01108201
:102EB0001182128213820895FC01608171818281E6
:102EC000938108950F931F938C01FC016481758198
:102ED0008681978128EE33E040E050E00E94405325
:102EE0009B01AC01F80180859185A0E0B0E0280F3E
:102EF000391F4A1F5B1FB901CA011F910F91089525
:102F0000FC0164817581868197810895FC01828925
:102F1000128A08950F931F9301E618E0C8010E94DA
:102F20002731C8010E94AD301F910F910895CF93B2
:102F3000DF93EC011F861E861D861C866B89662327
:102F400029F081E698E00E9417311B8ADF91CF912A
:102F50000895CF93DF93EC018A85882319F41F86A7
:102F60001E8605C08B85882311F4CE01E0DF8A859B
:102F70008B87882389F08091520B2AE0829FC001C1
:102F800011242E853F852817390730F031D2CE0124
:102F9000CEDF81E08A8B18C08B898823A9F48091C9
:102FA000510B2AE0829FC00111242C853D852817F2
:102FB000390750F081E698E00E9462318B8B81E600
:102FC00098E060E00E9417312DD0882371F0809145
:102FD000530B2AE0829FC0011124288939892817C0
:102FE000390728F080E015D002C0198A188ADF91CD
:102FF000CF9108953B9A43980B9A1398269A2E9A4C
:10300000279A2F9A6B98739A6F9A849A8C987798CC
:103010000895269A882319F02E9881E008952E9A13
:1030200080E00895269902C080E0089585B18295D8
:10303000869586958370809581700895DF93CF93F0
:1030400000D0CDB7DEB72091C80B3091C90BCE01AF
:1030500001962115310519F4825D9B4002C0821B47
:10306000930B9A83898389819A810F900F90CF91D6
:10307000DF9108950F98179A80E29EE4FC01319742
:10308000F1F720B117980197F1F7079B02C082E092
:103090000895822F8095881F8827881F0895482FBC
:1030A00085EA80937A004F30A0F430B381E090E05D
:1030B000042E02C0880F991F0A94E2F7282F20954A
:1030C000232320BB20917E00822B80937E004830FA
:1030D00008F04850406440937C0080917A008064FE
:1030E00080937A0060E020E030E040E050E08091A2
:1030F0007A0084FFFCCF80917A00806180937A000F
:103100008091780090917900A0E0B0E0280F391FFD
:103110004A1F5B1F6F5F643651F710927A00CA0135
:10312000B90124E630E040E050E00E949253C9012A
:103130000895819A899880E29EE40197F1F782E0F0
:10314000AEDF81980895E0EEF0E0808181608083B9
:103150000E94F94181E698E00E94FC308FE99AE0F4
:103160005CDEF89488E10FB6F894809360001092CA
:1031700060000FBEE0E0F0EF09951F93DF93CF935F
:1031800000D000D000D0CDB7DEB7D3DF9A838983DB
:1031900071DF182FCE010596112309F04BC065E0B1
:1031A00070E042E050E00E946F5629813A818D81A3
:1031B0009E812817390740F4CE01019665E070E042
:1031C00042E050E00E948756CE01039667E070E02F
:1031D00042E050E00E946F568B819C818F5F9F4F31
:1031E00011F41C821B8229813A818B819C81821778
:1031F000930740F4CE01019667E070E042E050E0B2
:103200000E9487568D819E8129813A81281B390B26
:103210006B817C81681B790B84E690E0AC01249F74
:10322000C001259F900D349F900D11240E946B5377
:10323000862F4FC061E070E042E050E00E946F5680
:1032400029813A818D819E812817390740F4CE016A
:10325000019665E070E042E050E00E948756CE01A2
:10326000039663E070E042E050E00E946F562981CF
:103270003A818B819C818217930740F4CE0101969D
:1032800067E070E042E050E00E9487568D819E81A9
:1032900029813A81281B390B6B817C81681B790B52
:1032A00084E690E0AC01249FC001259F900D349FDF
:1032B000900D11240E946B53CB01113031F4643610
:1032C000710538F083E690E004C0123011F484E612
:1032D00090E026960FB6F894DEBF0FBECDBFCF911B
:1032E000DF911F910895EF92FF920F931F93182F74
:1032F00080E08FDE81E698E00E946231E82E81E670
:1033000098E060E00E941731EE2049F084EF91E0F0
:1033100028EC30E0F9013197F1F70197D9F781B145
:10332000887F81B982B1887F82B931B1212F133072
:1033300008F022E081E090E002C0880F991F2A95F2
:10334000E2F7382B31B922B1182F1095212322B979
:1033500084EF91E028EC30E0F9013197F1F7019723
:10336000D9F780E09CDE082FF92E81B1182311B91E
:1033700081E698E00E9462318E1528F481E698E09B
:103380006E2D0E941731802F9F2D1F910F91FF905E
:10339000EF9008950F931F938C0180E0A4DFF80154
:1033A0009183808381E09FDFF8019383828382E0B1
:1033B0009ADFF801958384831F910F9108951F93DD
:1033C0008BE59AE080D011E083EB9AE07FDC8130DE
:1033D00051F050DE882339F0A89580E0612F0E94DB
:1033E0003C1110E0F1CF8BE59AE0CBD01F9108950E
:1033F00041DE882341F48091E00081608093E00009
:10340000F894439AFFCFDBCFFC01168A178A108EFF
:10341000118E0895FC01168A178A108E118E089558
:103420009B0190E050E0F9017296A591B49110973C
:1034300019F08C91882319F0451731F05F5F9F5F79
:103440002C5E3F4F943179F7892F08959B0190E0CE
:1034500050E0F9017296A591B491491751F0109777
:1034600011F08C9181115F5F9F5F2C5E3F4F943113
:1034700081F7852F08950F931F93CF93DF93EC016E
:103480008B898530D8F48F5F8B8B90E00197FC019E
:10349000EE0FFF1FE80FF91FEC0FFD1F768365830A
:1034A0000B8910E001501040CE01BADFF801EE0F99
:1034B000FF1FE00FF11FEC0FFD1F8483DF91CF9101
:1034C0001F910F910895FC01638D748D4489D3CFB2
:1034D000DF93CF9300D00F92CDB7DEB7DC015396C8
:1034E0008C9153978823C9F0815053968C935397AE
:1034F00090E0FC01EE0FFF1FE80FF91FEA0FFB1F22
:10350000DE011196349683E001900D928150E1F72F
:1035100069817A818B8190E000C00F900F900F90AD
:10352000CF91DF910895FC01658984898330F8F09B
:10353000482F50E0828D282F30E0C90101974817AD
:10354000590751F4C901A3E0880F991FAA95E1F723
:10355000820F931F805209C0CA0173E0880F991F20
:103560007A95E1F7840F951F8251858B01C0158AEA
:103570008589882311F081E00895862F611181E00B
:103580000895EF92FF920F931F93DF93CF9300D094
:103590000F92CDB7DEB77C01FC0183898823F1F05F
:1035A0008150838B90E0FC01EE0FFF1FE80FF91FA5
:1035B000EE0DFF1DDE011196349683E001900D9211
:1035C0008150E1F70A811B81C701B80149813EDFC3
:1035D000F701848B148F038FC701A5DF81E0F7010A
:1035E000858F0F900F900F90CF91DF911F910F91CA
:1035F000FF90EF9008950F93CF93DF93EC016E89C6
:10360000EF89788D098D402F50E0872F90E0482B6F
:10361000592B8E2F90E0262F30E0822B932B482BB6
:10362000592B452B31F0888199814E2F272F0E94ED
:10363000502D1E8A1F8A188E198EDF91CF910F91FF
:103640000895DF92EF92FF920F931F93CF93DF9332
:10365000EC01162FF42EE22ED02E6E89EF89788D94
:10366000098D402F50E0872F90E0482B592B8E2F4B
:1036700090E0262F30E0822B932B482B592B452BA3
:1036800031F0888199814E2F272F0E94502D1E8B5B
:10369000FF8AE88ED98E88819981612F4F2D2E2D3A
:1036A0000D2D0E94502DDF91CF911F910F91FF9012
:1036B000EF90DF9008950F931F93CF93DF93EC016A
:1036C000162F8A8D681728F0CE0195DF8FEF8C8B2F
:1036D0000EC049E0649FA00111248D89481B042F6E
:1036E000015FCE0161E0495F21E5ABDF1C8BDF911B
:1036F000CF911F910F9108950F931F93CF93DF9355
:10370000EC014C898A8D481708F0B5C06B8D7C8D13
:10371000CE0186DE94E1899F80011124EB8DFC8D22
:10372000E00FF11F3D9684913D978E8F8D3481F48B
:10373000CE01C9DEEB8DFC8DE00FF11F3E96859129
:1037400094919C8F8B8FCE0160E0B5DF81E092C0B9
:10375000863439F43E96859194919EA38DA384E09E
:1037600089C0853429F4DE019B9680E090E004C096
:10377000803509F04CC0F7CF282FEB8DFC8DE00F82
:10378000F11FE80FF91FE491EC93E03231F02F5F65
:10379000019611968A30910579F7FE01E20FF11D2D
:1037A00013A6EB8DFC8DE00FF11F7096459154919F
:1037B0004115510511F420E012C0DE01D69680E0DB
:1037C00090E0282FFC01E40FF51FE491EC93EE2329
:1037D00031F02F5F019611968D30910591F7FE0122
:1037E000E20FF11D16AA8E8D803511F483E001C021
:1037F00082E08D8FEB8DFC8DE00FF11F3B96849165
:103800008E8F33968591949198A38F8F34C0833592
:1038100009F031C0DE019B9680E090E0282FEB8D0F
:10382000FC8DE00FF11FE80FF91FE491EC93E032FB
:1038300031F02F5F019611968B30910579F7FE01DB
:10384000E20FF11D13A62B8D3C8D200F311FF901C6
:1038500072968591949198A78FA3F901709685919E
:1038600094919AA389A3F9013E96859194919CA382
:103870008BA385E08D8FDF91CF911F910F910895DC
:10388000EF92FF920F931F93CF93DF93EC01F62EED
:10389000E72E442309F448C0A62FB72FFD0101905D
:1038A0000020E9F73197EA1BFB0B8F01000F111F76
:1038B0000E0F1F1F1F7720E030E00093210B1093A5
:1038C000220B2093230B3093240B67E2601B055DD2
:1038D000888199814CE0202F08E10E94712D209170
:1038E000210B68E2621B265D888199814DE007E12A
:1038F0000E94262D69E28091210B681B88819981A5
:103900004FE02F2D3E2D0E94252C888199810E9409
:10391000AD308FE99AE0D6DA6093210B7093220BD9
:103920008093230B9093240B8FE99AE0CBDA2091BC
:10393000210B3091220B4091230B5091240B621BE1
:10394000730B840B950B645F71408040904020F4B2
:103950008A819B81BBD9811181E0DF91CF911F9139
:103960000F91FF90EF900895CF93DF93DC01EB016F
:1039700053968C915397882381F190E00197FC0135
:10398000EE0FFF1FE80FF91FEA0FFB1F848124E1F0
:10399000829FC001112425813681280F391F80E0C4
:1039A00090E0F901E80FF91FE491DE01A80FB91FBB
:1039B000EC9301968C309105A1F72BE030E0FE01ED
:1039C000E20FF31F8081803211F011820BC0215071
:1039D00030402130310599F705C0CB016DE27DE023
:1039E0000E94BA53CE01DF91CF910895AF92BF925A
:1039F000CF92DF92EF92FF920F931F937C016B01A6
:103A00005A01FC018081918160E049E223E50FE2E7
:103A10000E94712DF7018081918162E04AE2960156
:103A20000E947E2BF70100811181C801B5010E941F
:103A3000FC2A63E5681BC8014AE295010E947E2BBF
:103A4000F7018081918160E049E223E50FE20E9465
:103A5000502D1F910F91FF90EF90DF90CF90BF906E
:103A6000AF9008956F927F928F929F92AF92BF9284
:103A7000CF92DF92EF92FF920F931F93CF93DF933A
:103A8000EC01A62E3A01922E832EB02EDE2C10923F
:103A90002E0BCC2009F440C1FA01E080F18088812E
:103AA00099810E947C308881998160E042E023E521
:103AB00005E00E94502D8881998160E046E021E078
:103AC0000EE10E94502D8881998162E546E023E550
:103AD0000E94502DAB2DB12FFD0101900020E9F780
:103AE0003197EA1BFB0BE0932B0B8AEF9FEFE89FCC
:103AF000E02D1124E05B888199816E2F40E22B2D0F
:103B0000312F0E94252CA92DB82DFD0101900020F8
:103B1000E9F73197EA1BFB0BE0932B0B16E0E19FD3
:103B2000F0011124F595E7958AE28E1B80932A0B0C
:103B30008881998160E04FE123E507E20E94502DE2
:103B4000CE016AEB73E041EC53E050DF60912A0B49
:103B500080912B0B819FC0011124262F280F888173
:103B6000998142E005E00E94502D88819981609101
:103B70002A0B40E0292D382D0E94252C80E006C01C
:103B8000E82FF0E0EB5DF44F10828F5F8530C0F3DB
:103B9000F6E4DF1609F048C0C70168E572E00E944C
:103BA0006B53FC016AE070E00E947F538093250B09
:103BB0009F01281B3109C9016AE070E00E947F5310
:103BC0009B01CB016AE070E00E947F538093260B3B
:103BD000A901481B5109CA016AE070E00E947F53A5
:103BE0006093270BC7018E1B9F0B68E572E00E9454
:103BF0006B53CB0168E572E00E946B539C016AE055
:103C000070E00E947F538093280BB901681B7109F3
:103C1000CB016AE070E00E947F5360932C0B70939D
:103C20002D0B6093290B73C074E5D71609F04CC0B7
:103C3000C7016CE370E00E946B539C01C701821BBB
:103C4000930B6CE370E00E946B53FB01C9016AE0C7
:103C500070E00E947F538093250BA901481B5109F6
:103C6000CA016AE070E00E947F536093260BCF0187
:103C70006CE370E00E946B539C016AE070E00E946C
:103C80007F538093270BB901681B7109CB016AE050
:103C900070E00E947F536093280BCF01821B930B2F
:103CA0006CE370E00E946B53CB016CE370E00E9408
:103CB0006B5380932C0B90932D0B6AE070E00E9465
:103CC0007F538093290B23C0C0902C0B00912D0BA8
:103CD00010E016C0C7016AE070E00E946B539C01BF
:103CE000C82E092FC701821B930B6AE070E00E9467
:103CF0006B537B01E12FF0E0EB5DF44F20831F5FFE
:103D0000E114F10439F7C0922C0B00932D0B85E0E0
:103D100080932B0B10922F0B8A2D8150823008F448
:103D200021C18881998163E048E021E50EE10E948C
:103D3000712D10922A0B19C0F0E0BF01A4E0660FAC
:103D4000771FAA95E1F7709561957F4F6C5BEB5DEE
:103D5000F44F2081205D8881998145E00E94402CAC
:103D600080912A0B8F5F80932A0BE0912A0B809120
:103D70002B0BE81708F376E4D716B9F488819981FC
:103D800061E24CE022E20EE00E94262D88819981BA
:103D900061E244E122E206E10E94262D88819981B8
:103DA00061E448E122E40AE121C084E5D81601F586
:103DB0008881998161E34CE022E30EE00E94262D88
:103DC0008881998161E344E122E306E10E94262D86
:103DD0008881998161E14CE022E10EE00E94262D6C
:103DE0008881998161E144E122E106E10E94262D6A
:103DF00080912F0B90E0BC0154E0660F771F5A951D
:103E0000E1F7709561957F4F6D5B25E030E0281BF1
:103E1000390B44E0220F331F4A95E1F788819981DD
:103E200048E00CE10E94502D96E4D91629F48091C7
:103E30002F0B823049F40AC080912F0BE4E5DE1687
:103E400019F480FF05C002C0843011F485E001C080
:103E500089E08093300B888199810E94AD30AA203F
:103E600009F433C1F4E0AF1631F580912F0B90E0E7
:103E7000BC0124E0660F771F2A95E1F770956195E4
:103E80007F4F6D5B25E030E0281B390B84E0220F6B
:103E9000331F8A95E1F78881998148E00CE10E94FF
:103EA000502D80912F0B882311F480912B0B815082
:103EB00080932F0B0AC123E0A21671F580912F0B7E
:103EC00090E0BC0104E0660F771F0A95E1F770955A
:103ED00061957F4F6D5B25E030E0281B390B14E0C6
:103EE000220F331F1A95E1F78881998148E00CE190
:103EF0000E94502D40912F0B242F30E080912B0BEE
:103F000090E001972817390724F44F5F40932F0B57
:103F1000DCC010922F0BD9C036E0A31679F4809143
:103F20002F0BE82FF0E0EB5DF44F8081882311F038
:103F3000815002C08091300B8083C7C045E0A41639
:103F400009F0C3C080912F0BE82FF0E0EB5DF44F38
:103F500090818091300B981718F49F5F9083B5C0C3
:103F60001082B3C056E4D51631F59091270B84E644
:103F7000989F800111248091260B2AE0829FC00126
:103F80001124080F191F8091250B080F111D809116
:103F9000290B829FC00111242091280B820F911DB3
:103FA00028E532E0BC01629FC001639F900D729FC3
:103FB000900D11242FC074E5D71679F58091260B4A
:103FC0004AE0849F800111248091250B080F111D68
:103FD0008091290B90E020E13EE0FC01E29FC001CE
:103FE000E39F900DF29F900D1124080F191F8091EF
:103FF000280B849FC00111242091270B820F911D53
:104000002CE330E0AC01429FC001439F900D529FD2
:10401000900D1124080F191F3BC08091290B90E0CF
:104020009C01B3E0220F331FBA95E1F7880F991F67
:10403000280F391F8091280B280F311DC901F3E08B
:10404000880F991FFA95E1F7220F331F820F931FF4
:104050002091270B820F911D9C0173E0220F331FCB
:104060007A95E1F7880F991F280F391F8091260B49
:10407000280F311D890153E0000F111F5A95E1F7F8
:10408000220F331F020F131F8091250B080F111DE4
:1040900052E0A516A9F4CE0166EC73E041E0F0DB36
:1040A00088E893E128EC30E0F9013197F1F70197C6
:1040B000D9F7F3011183008382E080932E0B05C0B2
:1040C000F1E0AF1611F4A0922E0B80912E0BDF9130
:1040D000CF911F910F91FF90EF90DF90CF90BF9005
:1040E000AF909F908F907F906F900895CF92DF92C6
:1040F000EF92FF920F931F937C016B01FC01808173
:1041000091810E94FC2A182F1695F70180819181D8
:1041100060E040E023E505E00E94712DF701808119
:10412000918160E041E023E503E00E94502D68E2C8
:10413000611B212F265DF7018081918140E005E020
:104140000E94712D69E2611BF7018081918140E03D
:1041500096010E947E2B1F910F91FF90EF90DF90B0
:10416000CF900895AF92BF92CF92DF92EF92FF92DD
:104170000F931F93CF93DF937C01B62E6A01E90161
:10418000102F002301F1FC01808191810E947C307D
:10419000C701BE01ABDFC7016AEB73E041EC53E03E
:1041A00025DCF7018081918161E04CE021E508E1A7
:1041B0000E94262DF7018081918160E04BE022E58D
:1041C00009E10E94262DF3E0BF1641F480911E0BF9
:1041D000882311F081500AC08AE008C084E0B81634
:1041E00059F480911E0B8A3020F48F5F80931E0B50
:1041F0002EC010921E0B2BC096E0B91689F4809148
:104200001E0BF601E80FF11D80818B3510F080E464
:1042100080838081813410F0815015C08AE513C0FD
:10422000E5E0BE1691F480911E0BF601E80FF11D3A
:104230008081813410F48BE5808380818B3510F48C
:104240008F5F01C081E4808302C01123A1F1F701D7
:104250008081918162E04DE02FE407E10E94712DA1
:10426000AC2CC601EC0113E0CE018A19082F28817D
:10427000822F81548A3108F020E2F70180819181F8
:10428000612F4FE00E949A2B80911E0B081751F46A
:10429000212F2A5FF70180819181612F4EE006E195
:1042A0000E94502D2196195F1035F1F6F70180819B
:1042B00091810E94AD30F1E0BF1611F481E006C09B
:1042C00082E0B81611F080E001C082E0DF91CF916A
:1042D0001F910F91FF90EF90DF90CF90BF90AF9024
:1042E00008958F929F92BF92CF92DF92EF92FF92AA
:1042F0000F931F93CF93DF93EC01B62E4A01690110
:10430000EE2009F48CC0888199810E947C30CE0116
:10431000B801ECDECE016AEB73E041EC53E066DB02
:104320008881998162E04CE027E408E10E94262D13
:104330008881998161E04BE028E409E10E94262D03
:10434000888199816AE441E122E501E10E94D92C4A
:10435000888199816AE440E122E500E10E94D92C3C
:10436000888199816BE44FE021E50FE00E94D92C10
:10437000888199816CE44EE020E50EE00E94D92C02
:10438000888199816DE44DE02FE40DE00E94D92CE5
:10439000888199816AE443E122E503E10E94D92CF6
:1043A000888199816AE444E122E504E10E94D92CE4
:1043B000888199816BE445E121E505E10E94D92CD2
:1043C000888199816CE446E120E506E10E94D92CC0
:1043D000888199816DE447E12FE407E10E94D92C9F
:1043E0001092200B10921F0B30E020E008C03D9689
:1043F0009491F4018081891709F4322F2F5FE22F05
:10440000F0E044E0EE0FFF1F4A95E1F7EC0DFD1DD3
:104410008491882361F73093200B20931F0BF5E0E4
:10442000BF1641F48091200B8823C9F081508093FE
:10443000200B15C086E0B81679F44091200B242F8C
:1044400030E080911F0B90E00197281739073CF46A
:104450004F5F4093200B03C0EE2009F451C08881C8
:10446000998163E04DE025E407E10E94712D00E0B1
:1044700010E094E0E92EE091200BF0E084E0EE0FF4
:10448000FF1F8A95E1F7EC0DFD1DE00FF11FE49190
:10449000888199816E2D4FE02E2F0E949A2B0F5FFD
:1044A0001F4F96E0E90EE6E4EE1629F78881998120
:1044B00060E04EE123E503E20E94712D8091200B24
:1044C000E82FF0E004E0EE0FFF1F0A95E1F7EC0D96
:1044D000FD1D3E96E590F49010E000E007C0602FCF
:1044E000610F4EE10E941E2B080F1F5FF701E10FC5
:1044F000F11D249188819981222389F70E94AD3092
:10450000F1E0BF1651F183E0B81639F192E0B91627
:1045100011F080E023C08091200B90E014E0880F20
:10452000991F1A95E1F7C80ED91EEDE0F0E0CE0E06
:10453000DF1EF6018491F4018083CE0166EC73E006
:1045400041E09ED988E893E128EC30E0F901319709
:10455000F1F70197D9F782E001C081E0DF91CF91B7
:104560001F910F91FF90EF90DF90CF90BF909F90A1
:104570008F9008952F923F924F925F926F927F9209
:104580008F929F92AF92BF92CF92DF92EF92FF9263
:104590000F931F93DF93CF93CDB7DEB7A3970FB6DB
:1045A000F894DEBF0FBECDBF6C01DC015C967C933E
:1045B0006E935B9720D8F601808191810E947C30B8
:1045C000C6010E94931AD6015D961C925D975A9679
:1045D0001C92772488249924B8E05B2EA9E06A2EE7
:1045E0001E010894211C311CF601238D348D280DE9
:1045F000391DC9014296FC01A591B491109721F093
:104600008C91882309F4CEC0235F3F4FF901849138
:10461000D6015E968C935E975B96ED91FC915C97CC
:10462000E80DF91D3B9614913B97853411F08035C8
:1046300001F53E96A591B491803539F4C101BD01D3
:1046400042E050E00E946F56D101F6018589452D68
:10465000481B828D869DC0011124480F2D913C91ED
:104660008081918160E5012FF2E5EF2E0E94922D6D
:10467000482ED6015E968C915E97833509F056C020
:104680001A3209F053C05B968D919C915C97880D0E
:10469000991D9C01225F3F4FF9014591549140962D
:1046A000FC01A591B491F601B0A3A78F8A01405CEB
:1046B0005E4FF8018491803309F46DC0035F1F4F92
:1046C000F80184910D50104090E02D913C9111978C
:1046D0008217930721F5EE24FF24E2E0BE2EF801B5
:1046E000EE0DFF1DE491D60155968C915597452D01
:1046F000481B5A968C915A97869DC0011124480FE9
:104700008D919C916B2D2E2F0E949A2B0894E11C69
:10471000F11CB6E0BB0EEAE4BE1609F73CC0005F30
:104720001F4F0417150709F0C4CF35C000E010E093
:1047300072E0F72E6CE0A62EB12CA418B108D601B9
:104740005E968C91853411F0803519F40A151B059D
:10475000DCF4D6015B96ED91FC915C97E80DF91DB8
:10476000E00FF11FE49155968C915597452D481B0C
:104770005A968C915A97869DC0011124480F8D91AD
:104780009C916F2D2E2FD6D70F5F1F4FB6E0FB0EDB
:10479000EAE4FE16A1F6D6015A968C915A978F5FDD
:1047A0005A968C93E4E1F0E08E0E9F1ED6015B9644
:1047B000ED91FC915C97E80DF91DE491EE2329F051
:1047C0007394B4E17B1609F00FCFC601F60164893A
:1047D0000E945B1B739484E1789E50011124D601E2
:1047E0005B96ED91FC915C97EA0DFB1D31968491EF
:1047F000BE01695E7F4F803229F0CB01BF010E946C
:10480000BA5302C0C601B0D8C601BE01695E7F4F6F
:104810006DDCD6015B96ED91FC915C97EA0DFB1D7A
:104820003D9694909A961C921E929997B2E49B168C
:1048300021F0E6E49E1609F037C0D6015B96ED91B3
:10484000FC915C97EA0DFB1D70966591749153E0A5
:10485000E52EF12CEC0EFD1EC7010E94BA53D601C5
:104860005B96ED91FC915C97EA0DFB1D729665914C
:1048700074918E01035F1F4FC8010E94BA53C60195
:10488000B701A801B3D8B6E49B1671F4D6015B96C4
:10489000ED91FC915C97EA0DFB1D3E9685919491FC
:1048A0009A969C938E939997A3960FB6F894DEBF31
:1048B0000FBECDBFCF91DF911F910F91FF90EF9071
:1048C000DF90CF90BF90AF909F908F907F906F9030
:1048D0005F904F903F902F900895CF93DF93EC011E
:1048E0006C89662319F061500E945B1BCE010E9407
:1048F000931A882321F06B8D7C8DCE013BDE88815D
:1049000099810E94AD30DF91CF910895CF93DF93CD
:10491000EC016C89262F30E08A8D90E001972817F2
:10492000390724F46F5FCE010E945B1BCE010E9409
:10493000931A882321F06B8D7C8DCE011BDE88813C
:1049400099810E94AD30DF91CF910895AF92BF92CF
:10495000CF92EF92FF920F931F93DF93CF9300D0EC
:10496000CDB7DEB75C01DC0112968D919C91139757
:104970000E946616F82EF501858D882361F48F2D2F
:104980008150823040F481A592A5009721F096A332
:1049900085A384E0858FD5015D968C918823D9F419
:1049A000B5E0FB1619F4C50198DFBEC0E6E0FE16BF
:1049B00019F4C501ABDFB8C0F4E0FF1621F4C5015E
:1049C0000E947C1BB1C083E0F81609F0ADC0C501A0
:1049D0000E94C11AA9C0813079F48093CC03D5011B
:1049E0005B966D917C915C97C501C4DDF50180817A
:1049F00091810E94AD3098C0823011F0863099F4D8
:104A0000D5015F964D915C9190979501255D3F4F43
:104A100085010A5C1F4FC5016F2D5E96EC90C0901A
:104A2000CC0320D87AC0853019F5D50191964D91E7
:104A30005C91929793962D913C9194978501055D99
:104A40001F4FC5016F2DE090CC034BDC1092CC03BF
:104A5000882309F469C0823009F063C0D5019796B4
:104A6000ED91FC919897309709F45BC0099559C076
:104A7000833009F047C08091CC03882359F0D501D9
:104A80005F966D917C91909781E39BE042E050E0CE
:104A90000E946F569501255D3F4F85010A5C1F4FAF
:104AA000C5016F2D41E35BE0F501E68CC090CC03BE
:104AB0000E94321D1092CC038823B1F18230E9F4B8
:104AC000D5015F966D917C919097CE01019642E061
:104AD00050E00E946F5629813A818091310B90916C
:104AE000320B2817390749F0F501678D70A181E372
:104AF0009BE042E050E00E94875681E0D5015D9640
:104B00008C9312C0843081F4D5019596ED91FC917F
:104B100096978F2D6091CC0309951092CC03882332
:104B200019F081E0F501858FD5015D968C91811199
:104B3000FF248F2D0F900F90CF91DF911F910F9138
:104B4000FF90EF90CF90BF90AF900895279A2F9A43
:104B50000895279A2F9A08952F923F924F925F922D
:104B60006F927F928F929F92AF92BF92CF92DF927D
:104B7000EF92FF920F931F93DF93CF930F92CDB7D6
:104B8000DEB7F89484EF91E0BA010E947F53882742
:104B900077FD8095982F0E9429521B012C012BEA4A
:104BA0003AEA4AE250E40E94DD523B014C010E9485
:104BB000FB516983B1C0C401B30120E030E04FE78D
:104BC00053E40E94D952181614F0898145C0C201DD
:104BD000B10120E030E04AE754E40E9493515B01C8
:104BE0006C0120E030E04AEF54E40E94DD527B018A
:104BF0008C0120E030E040E85FE30E948F51882381
:104C00001CF461E070E023C0C801B70120E03FEF71
:104C10004FE757E40E94D9521816ACF4C601B5010B
:104C200020E030E040E251E40E94DD520E94FB515E
:104C300006C088EC90E00197F1F761507040611573
:104C40007105B9F70BC0C801B7010E94FB51CB0138
:104C50000197F1F703C081E08A95F1F72F9AC4011B
:104C6000B30120E030E040E85FE30E948F5187FD10
:104C700050C0C401B30120E030E04FE753E40E948C
:104C8000D952181614F0898145C0C201B10120E043
:104C900030E04AE754E40E9493515B016C0120E04C
:104CA00030E04AEF54E40E94DD527B018C0120E0A9
:104CB00030E040E85FE30E948F5188231CF461E0FC
:104CC00070E023C0C801B70120E03FEF4FE757E491
:104CD0000E94D9521816ACF4C601B50120E030E0AC
:104CE00040E251E40E94DD520E94FB5106C088EC74
:104CF00090E00197F1F76150704061157105B9F7C7
:104D00000BC0C801B7010E94FB51CB010197F1F71D
:104D100003C081E08A95F1F72F98C401B30120E028
:104D200030E040E85FE30E948F5187FD94CF43CF8E
:104D30004F925F926F927F928F929F92AF92BF92AB
:104D4000CF92DF92EF92FF920F931F93DF93CF9357
:104D5000CDB7DEB7C555D0400FB6F894DEBF0FBE55
:104D6000CDBF7C01FC018081882329F5F89480E087
:104D700090E038E22F98232F2A95F1F72F9A232FCE
:104D80002A95F1F7019680319105A1F784E499E322
:104D90000197F1F780E090E038E22F98232F2A95D1
:104DA000F1F72F9A232F2A95F1F70196803191057B
:104DB000A1F7789426C0813021F5C70160ED77E036
:104DC00048E250E0C9DE8CE699ED0197F1F7C701A2
:104DD00066E871E048E250E0BFDE88E59CE00197BC
:104DE000F1F7C7016AE971E048E250E0B5DE88EF0B
:104DF0009BE10197F1F7C70160E971E048E250E0FB
:104E0000ABDEF70180818530F1F4C70168EC72E315
:104E100046E250E0A1DE80E797E10197F1F700E07C
:104E200010E0F0EDCF2EF7E0DF2EC70168EE73E063
:104E300046E250E091DEC6010197F1F70F5F1F4F88
:104E40000730110591F7F7018081843009F03EC0E9
:104E5000DE015596E7E7F4E080E201900D92815083
:104E6000E1F7C7016CE073E248E250E075DE80E4F0
:104E700092E20197F1F7C70160E772E048E250E083
:104E80006BDE8E010B5E1F4FE5E38E2E912C8C0E98
:104E90009D1E70E8A72E7CE0B72E60EDC62E63E065
:104EA000D62E11C0F8018081882311F4C60101C0FB
:104EB000C5010197F1F7C70168E572E048E250E0EB
:104EC0004BDE0F5F1F4F0815190561F7F701808151
:104ED000833009F03EC0DE01D596E6E5F4E081E2DC
:104EE00001900D928150E1F7C70166EA7EE046E24B
:104EF00050E032DE84EC9EE00197F1F78E010B5C0E
:104F00001F4F51E2C52ED12CC00ED11E4CE2842E73
:104F10004BE0942E3EECA32E33E0B32E17C0F801E5
:104F20008081882341F4C70168EC71E046E250E0DB
:104F300013DEC50107C0C70168EC71E046E250E02E
:104F40000BDEC4010197F1F70F5F1F4F0C151D0514
:104F500031F7F7018081823009F047C0DE011196F8
:104F6000E2E4F4E084E101900D928150E1F7CC2479
:104F7000DD2424E1A22E25E0B22E2E010894411C4E
:104F8000511C95E1692E712C6C0E7D1E80E2882EDD
:104F90008EE4982EC70160E179E048E250E0DCDD64
:104FA000C5010197F1F7820113C0F80180818823C0
:104FB00021F4C7016FE372E003C0C70167E974E041
:104FC00048E250E0C9DDC5010197F1F70F5F1F4FBF
:104FD0000615170551F7C4010197F1F70894C11C94
:104FE000D11CF3E0CF16D104A9F6CB5ADF4F0FB690
:104FF000F894DEBF0FBECDBFCF91DF911F910F910F
:10500000FF90EF90DF90CF90BF90AF909F908F90E8
:105010007F906F905F904F9008954F925F926F9244
:105020007F928F929F92AF92BF92CF92DF92EF9238
:10503000FF920F931F93DF93CF93CDB7DEB7E59722
:105040000FB6F894DEBF0FBECDBF7C01FC0180819E
:10505000882329F5F89480E090E038E22F98232FF8
:105060002A95F1F72F9A232F2A95F1F7019680318F
:105070009105A1F780EE99E20197F1F780E090E0C9
:1050800038E22F98232F2A95F1F72F9A232F2A956C
:10509000F1F7019680319105A1F7789441C08330F2
:1050A00009F03EC0DE015596E1E2F4E081E20190B4
:1050B0000D928150E1F7C70166EA7EE046E250E0DA
:1050C0004BDD84EC9EE00197F1F78E010B5E1F4FE4
:1050D00026E3822E912C8C0E9D1E9CE2A92E9BE035
:1050E000B92E8EECC82E83E0D82E17C0F80180812F
:1050F000882341F4C70168EC71E046E250E02CDD02
:10510000C60107C0C70168EC71E046E250E024DD4B
:10511000C5010197F1F70F5F1F4F0815190531F70A
:10512000F7018081823009F047C0DE011196EDE081
:10513000F4E084E101900D928150E1F7CC24DD246C
:1051400014E1A12E15E0B12E2E010894411C511C32
:10515000B5E16B2E712C6C0E7D1EA0E28A2EAEE4A2
:105160009A2EC70160E179E048E250E0F5DCC50124
:105170000197F1F7820113C0F8018081882321F49F
:10518000C7016FE372E003C0C70167E974E048E25A
:1051900050E0E2DCC5010197F1F70F5F1F4F0615E4
:1051A000170551F7C4010197F1F70894C11CD11CF0
:1051B000F3E0CF16D104A9F6E5960FB6F894DEBF5A
:1051C0000FBECDBFCF91DF911F910F91FF90EF9058
:1051D000DF90CF90BF90AF909F908F907F906F9017
:1051E0005F904F9008956F927F928F929F92AF92AF
:1051F000BF92CF92DF92EF92FF920F931F93DF93B4
:10520000CF93CDB7DEB7A0970FB6F894DEBF0FBE31
:10521000CDBF7C01762E672EFC018081843009F0A1
:1052200086C0DE011196EDEEF3E080E201900D9272
:105230008150E1F7C70168E273E248E250E08CDC9C
:1052400088E293E20197F1F7C70164EF71E048E269
:1052500050E082DC8E010F5F1F4F71E2872E912C90
:105260008C0E9D1E68EBA62E6BE0B62E58EEC52E5A
:1052700053E0D52E11C0F8018081882311F4C601B6
:1052800001C0C5010197F1F7C70164EF71E048E281
:1052900050E062DC0F5F1F4F0815190561F780E9C8
:1052A00091E028EC30E0F9013197F1F70197D9F757
:1052B000872D962D9C012536310510F024E630E02F
:1052C00084E390E0AC01249FC001259F900D349FA2
:1052D000900D112464E670E00E946B536B010894FA
:1052E000C11CD11C01E010E040EA842E4FE0942E56
:1052F00038ECA32EB12C18C0C70168E273E248E273
:1053000050E02ADCC4010197F1F7C70164EF71E0B6
:1053100048E250E021DC80EC93E0F5013197F1F7B1
:105320000197D9F70F5F1F4F0C151D0528F3A096A5
:105330000FB6F894DEBF0FBECDBFCF91DF911F91A6
:105340000F91FF90EF90DF90CF90BF90AF909F9024
:105350008F907F906F9008956F927F928F929F921F
:10536000AF92BF92CF92DF92EF92FF920F931F9373
:10537000DF93CF93CDB7DEB7A0970FB6F894DEBF1B
:105380000FBECDBF7C01762E672EFC01808184305C
:1053900009F086C0DE011196EDECF3E080E20190A9
:1053A0000D928150E1F7C70168E273E248E250E0F4
:1053B000D3DB88E293E20197F1F7C70164EF71E074
:1053C00048E250E0C9DB8E010F5F1F4F81E2882E5B
:1053D000912C8C0E9D1EB8EBAB2EBBE0BB2EA8EE25
:1053E000CA2EA3E0DA2E11C0F8018081882311F4BF
:1053F000C60101C0C5010197F1F7C70164EF71E073
:1054000048E250E0A9DB0F5F1F4F0815190561F74F
:1054100080E991E028EC30E0F9013197F1F701974C
:10542000D9F7872D962D9C012536310510F024E6FD
:1054300030E086E490E0AC01249FC001259F900DF0
:10544000349F900D112464E670E00E946B536B0151
:105450000894C11CD11C01E010E0F0EA8F2EFFE09F
:105460009F2EE8ECAE2EB12C18C0C70168E273E2A3
:1054700048E250E071DBC4010197F1F7C70164EF26
:1054800071E048E250E068DB80EC93E0F501319791
:10549000F1F70197D9F70F5F1F4F0C151D0528F382
:1054A000A0960FB6F894DEBF0FBECDBFCF91DF91AF
:1054B0001F910F91FF90EF90DF90CF90BF90AF9032
:1054C0009F908F907F906F90089508950895DC01CC
:1054D000643518F5403308F5862F90E0242F30E02E
:1054E000A90173E0559547957A95E1F7FC01EE0F18
:1054F000FF1FE80FF91FEE0FFF1FE40FF51FEA0F64
:10550000FB1F2770307081E090E002C0880F991F68
:105510002A95E2F72081282B20830895DC01643549
:1055200020F5403310F5862F90E0242F30E0A901BC
:1055300073E0559547957A95E1F7FC01EE0FFF1F53
:10554000E80FF91FEE0FFF1FE40FF51FEA0FFB1F17
:105550002770307081E090E002C0880F991F2A9573
:10556000E2F780952081822380830895DC01742FE7
:10557000242F30E0A90183E0559547958A95E1F7FE
:10558000862F90E0FC01EE0FFF1FE80FF91FEE0FD2
:10559000FF1FE40FF51FEA0FFB1F808190E02770CB
:1055A000307002C0959587952A95E2F780FF03C079
:1055B000CD01472FB3CFCD01472F89CF50E09A01BE
:1055C000B3E035952795BA95E1F770E0FB01EE0F52
:1055D000FF1FE60FF71FEE0FFF1FE20FF31FE80F8D
:1055E000F91F808190E04770507002C095958795B3
:1055F0004A95E2F781700895DB0120E036E019C09A
:10560000903211F42E5F14C09E3291F0892F805396
:105610008A3010F42D5F0CC09B3508F090529154E5
:10562000939FF0011124E551FC4EE4912F5F2E0F62
:1056300011969C91992321F7822F08957F928F9242
:105640009F92AF92BF92CF92DF92EF92FF920F9311
:105650001F93CF93DF934C01762EA42E203211F4AA
:1056600082E03EC02E3209F43AC0822F80538A3045
:1056700010F4265106C02B3508F0205221542B354A
:1056800070F586E0289FC0011124FC01E551FC4E15
:10569000B4908C0104511C4EFF241DC0F80184916C
:1056A000C0E0D0E0C82EDD24EF2CE70CC6010C2EA4
:1056B00002C0959587950A94E2F780FF05C04A2DB0
:1056C0004C0FC4016E2D03DF2196C530D10571F753
:1056D000F3940F5F1F4FFB1408F38B2D01C080E084
:1056E000DF91CF911F910F91FF90EF90DF90CF90BE
:1056F000BF90AF909F908F907F900895EF92FF9210
:105700000F931F93CF93DF937C01162F042FE90192
:1057100007C0C701612F402F91DF8F5F180F2196BF
:1057200028812223B1F7DF91CF911F910F91FF9034
:10573000EF9008958F929F92AF92BF92CF92DF9297
:10574000EF92FF920F931F93CF93DF934C01D62ECE
:10575000C42E205286E0289F900111248901095C03
:10576000124F8DE3A82E8DE0B82EA20EB31EF801C5
:105770008491C0E0D0E0E82EFF24C7010C2E02C0C7
:10578000959587950A94E2F780FF05C04C2D4C0F44
:10579000C4016D2D9CDE2196C830D10571F70F5FD5
:1057A0001F4FD3940A151B0511F7DF91CF911F915D
:1057B0000F91FF90EF90DF90CF90BF90AF909F90B0
:1057C0008F900895CF92DF92EF92FF920F931F93E5
:1057D000CF93DF936C01F62EE42EE9012A303105D8
:1057E00090F086E0F80E2436310568F0F80E83E07C
:1057F000283E380740F086E0F80E87E2203138076F
:1058000010F086E0F80ECE016AE070E00E946B5363
:105810008C01282F205DC6016F2D4E2D8BDFCE0110
:10582000801B910B6AE070E00E946B53EB018AEFE2
:10583000F80E6115710539F7DF91CF911F910F9126
:10584000FF90EF90DF90CF900895EF92FF920F932B
:105850001F93CF93DF937C01162F042FE90106C01D
:10586000C701612F402F66DF1A5F2196288122230E
:10587000B9F7DF91CF911F910F91FF90EF900895AD
:105880003F924F925F926F927F928F929F92AF92D0
:10589000BF92CF92DF92EF92FF920F931F93CF931D
:1058A000DF932C01362E642E2E3211F42AE009C02B
:1058B0002B3211F42BE005C02D3211F42CE001C085
:1058C0002F7083E0289FC001112434E0880F991FB6
:1058D0003A95E1F72BE7C22E21E1D22EC80ED91E50
:1058E0005C018BEA91E1A80EB91E2BC0F7018491EF
:1058F000C0E0D0E0882E9924732C700EC4010C2EC9
:1059000002C0959587950A94E2F780FF05C0462D61
:105910004C0FC201672DDBDD2196C830D10571F730
:105920000F5F1F4F0894E11CF11C00311105F1F6C7
:10593000F8E06F0E80E190E0C80ED91ECA14DB04B7
:1059400021F0760100E010E0D1CFDF91CF911F91DF
:105950000F91FF90EF90DF90CF90BF90AF909F900E
:105960008F907F906F905F904F903F900895EF924F
:10597000FF920F931F93CF93DF937C01162F042F79
:10598000E90106C0C701612F402F7ADF105F219621
:1059900028812223B9F7DF91CF911F910F91FF90BA
:1059A000EF900895222319F0213011F490CDB6CD57
:1059B0000895AF92BF92CF92DF92EF92FF920F9332
:1059C0001F93CF93DF93EC01C62ED42EF22EF61A3E
:1059D000041BAF2CFF2011F0AA24A394B02E0023A7
:1059E00011F0BB24B394CE016C2D4D2D70DDF0165B
:1059F00090F01F2D1695EE240BC0100F1F1510F000
:105A00001F19DB0CCA0CCE016C2D4D2D60DDE3940B
:105A1000EF1498F310C0102F1695EE241F0D1017D9
:105A200010F0101BCA0CDB0CCE016C2D4D2D4FDD80
:105A3000E394E01698F3DF91CF911F910F91FF90BF
:105A4000EF90DF90CF90BF90AF900895BF92CF922C
:105A5000DF92EF92FF920F931F937C01D62E142FAB
:105A6000C22EB02E012FA5DFC7016C2D412F2C2D8A
:105A70000B2D9FDFC7016D2D412F2D2D9ADFC70103
:105A80006D2D4B2D2C2D95DF1F910F91FF90EF90D9
:105A9000DF90CF90BF900895611161E0862F089547
:105AA000DF92EF92FF920F931F93CF93DF93EC015E
:105AB000D42EE22EF02E062F08C0CE01602F412FEB
:105AC00055DD1F5FF116C8F70F5FE01610F01D2DB2
:105AD000F9CFDF91CF911F910F91FF90EF90DF9061
