:100000000C945D090C948C090C948C090C948C094B
:100010000C948C090C948C090C948C090C948C090C
:100020000C948C090C948C090C94923F0C948C09C0
:100030000C948C090C946A140C948C090C948C0903
:100040000C948C090C948C090C948C090C948C09DC
:100050000C948C090C948C090C948C090C948C09CC
:100060000C948C090C948C090C948C090C948C09BC
:100070000C948C090C948C090C948C090C948C09AC
:100080000C948C090C948C090C948C090C948C099C
:100090000C9417480C948C091E03540069006D00E1
:1000A00065006C0061007000730065002B0020008B
:1000B00043004400430000001C0345006C0069003D
:1000C0006A006100680020005000610072006B004F
:1000D0006500720000000403090409023E000201E9
:1000E00000C03209040000010202010005240010D2
:1000F0000104240206052406000107058203080006
:10010000FF09040100020A000000070504021000B4
:10011000010705830210000112011001020000080E
:10012000EB03442001000102DC0152657472696531
:1001300076696E672044657669636520496E666FEF
:100140002E2E2E0D0A004465766963652041747475
:1001500061636865642E0D0A000D0A446576696363
:100160006520556E61747461636865642E0D0A00C4
:1001700047657474696E6720436F6E6669672044D3
:100180006174612E0D0A00436F6E74726F6C2045AE
:1001900072726F72202847657420436F6E666967BC
:1001A00075726174696F6E292E0D0A00496E766151
:1001B0006C6964204465766963652E0D0A00202D04
:1001C0002D204572726F7220436F64653A2025645A
:1001D0000D0A00436F6E74726F6C204572726F72FD
:1001E000202853657420436F6E6669677572617469
:1001F000696F6E292E0D0A202D2D204572726F72A7
:1002000020436F64653A2025640D0A005374696CBD
:100210006C20496D6167652044657669636520459A
:100220006E756D6572617465642E0D0A00486F739A
:1002300074204D6F6465204572726F720D0A202D17
:100240002D204572726F7220436F64652025640D06
:100250000A0044657620456E756D204572726F7296
:100260000D0A202D2D204572726F7220436F646538
:100270002025640D0A202D2D2053756220457272B1
:100280006F7220436F64652025640D0A202D2D2098
:10029000496E2053746174652025640D0A00546111
:1002A0006B696E6720706963747572652E2E2E0DF2
:1002B0000A004572726F7220380D0A004368616E41
:1002C00067696E672050726F70657274792E2E2E7A
:1002D0000D0A004572726F7220390D0A0045727264
:1002E0006F722031320D0A004572726F7220310D2B
:1002F0000A002020204D616E756661637475726519
:10030000723A2025730D0A002020204D6F64656C21
:100310003A2025730D0A0020202044657669636524
:100320002056657273696F6E3A2025730D0A0D0AA7
:10033000004572726F7220320D0A004F70656E694F
:100340006E672053657373696F6E2E2E2E0D0A0033
:100350004572726F7220340D0A00436C6F73696EC0
:10036000672053657373696F6E2E2E2E0D0A00453C
:1003700072726F7220360D0A00446F6E652E0D0A80
:1003800000436F6D6D616E64204572726F7220283C
:100390002553292E0D0A202D2D204572726F7220B3
:1003A000436F64652025640D0A00526573706F6E9B
:1003B000736520436F646520213D204F4B005472CC
:1003C000616E73616374696F6E204661696C00547D
:1003D0007269676765722020202020004D0F05009C
:1003E000001D0154696D656C6170736520202000EB
:1003F0004D4B0500001C01436F6E6E656374202039
:10040000202020004DB3060000000053657474697D
:100410006E677320202020004DEF06000000005082
:100420006F776572204F66662020200046FA16001E
:10043000000000002020202020202020202020005C
:100440005600000000000053746F702054696D6501
:100450007220200046050A0000720B416464204BA4
:1004600065796672616D6500468E090000820B44F5
:10047000656C204B65796672616D650046320B00D4
:1004800000810B566965772044657461696C73005F
:1004900046580C000000004C6F6164205361766583
:1004A000642E2E0046190A00001D01536176652056
:1004B00041732E2E2020200046A70E00000000537E
:1004C000617665202020202020202000464C0B0053
:1004D000001C0B536176652044656661756C740081
:1004E000466F0B0000000052657665727420202074
:1004F0002020200046DA0900001D01004F50544919
:100500004F4E53002020200046FD09CB07D2074361
:1005100061626C652052656D6F74650046580D0010
:10052000001D0149522052656D6F74652020200026
:1005300046780E00001D01002020202020202020D1
:1005400020202000560000000000004D6F64652050
:100550002020202020202A0053D307300B00004405
:10056000656C6179202020202020540045280B2331
:100570000800004672616D65732020202020550020
:10058000452A0B2C081B01496E7472766C202020C2
:1005900020204600452C0B3708860B484452204546
:1005A0007870277320205500452E0B3708840B5395
:1005B00068757474657220202020460045320B3720
:1005C00008840B53687574746572202020204600DF
:1005D00045320B37081A014844522045562B2F2D1F
:1005E0002020550045340B3F08840B42756C622077
:1005F000312020202020460045360B3708830B2A67
:100600004B6579202020202020205400454A0B579C
:1006100008830B42756C6220322020202020460087
:1006200045380B3708830B2A4B6579202020202082
:1006300020205400454C0B57087F0B42756C6220FC
:100640003320202020204600453A0B37087F0B2A14
:100650004B6579202020202020205400454E0B5748
:10066000087E0B42756C622034202020202046003A
:10067000453C0B37087E0B2A4B6579202020202033
:100680002020540045500B57087D0B42756C6220AA
:100690003520202020204600453E0B37087D0B00EA
:1006A00020202020202020202020200046E60E634D
:1006B000086B08426C7565746F6F746820202000A9
:1006C00046180C0000750855534220202020202099
:1006D0002020200046910B00000000002020202058
:1006E0002020202020202000560000000000005381
:1006F000797374656D20496E666F200046A91100FC
:100700000000004C434420436F6C6F722020200097
:10071000537108D40B62364C434420424C20546938
:100720006D65200053A108D50B6236505752204109
:1007300075746F204F666600531109D60B62364CF4
:100740004544204175746F204F666600537109D788
:100750000B623642756C62204D6F6465202020006C
:1007600053E109D20B623643616D657261204650D8
:100770005320200053110AC50B623643616D657228
:1007800061204D616B65200053C10AD30B62364472
:100790006576204D6F6465204C45440053510BDC59
:1007A0000B6236446576656C6F706D656E74200003
:1007B0004D810B0000000000202020202020202060
:1007C00020202000560000000000005245545552E1
:1007D0004E000054696D652D6C61707365202000BA
:1007E00001350C48445220542D6C61707365200013
:1007F00003450C4844522050686F746F202020003D
:1008000002530C42756C622D72616D7020202000C5
:1008100005640C0020202020202020202020200003
:1008200000000068683A6D6D3A7373003020666F9F
:100830007220696E662E006D6D3A73732E730053CD
:10084000746F7073206265747765656E206578706B
:100850006F73757265730053696E6365207374619D
:100860007274004F5054494F4E53005354415254E8
:100870000057686974652020202020202000007225
:100880000C526564202020202020202020000172AE
:100890000C002020202020202020202020000000EC
:1008A000003130205365636F6E6473202000018235
:1008B0000C3330205365636F6E6473202000038215
:1008C0000C31204D696E7574652020202000068251
:1008D0000C32204D696E75746573202020000C82E7
:1008E0000C35204D696E75746573202020001E82C2
:1008F0000C3130204D696E757465732020003C8288
:100900000C0020202020202020202020200000007B
:100910000031204D696E75746520202020000694FA
:100920000C32204D696E75746573202020000C9484
:100930000C35204D696E75746573202020001E945F
:100940000C3130204D696E757465732020003C9425
:100950000C3330204D696E75746573202000B4949B
:100960000C0020202020202020202020200000001B
:10097000003130205365636F6E647320200001A640
:100980000C3330205365636F6E647320200003A620
:100990000C31204D696E757465202020200006A65C
:1009A0000C32204D696E75746573202020000CA6F2
:1009B0000C35204D696E75746573202020001EA6CD
:1009C0000C3130204D696E757465732020003CA693
:1009D0000C002020202020202020202020000000AB
:1009E000005374616E64617264202020200000B89E
:1009F0000C4D6F6D2E20546F67676C65200001CB26
:100A00000C0020202020202020202020200000007A
:100A1000003120465053202020202020200065DE79
:100A20000C3220465053202020202020200033DE8E
:100A30000C3320465053202020202020200022DE8E
:100A40000C342046505320202020202020001ADE85
:100A50000C3520465053202020202020200015DE79
:100A60000C3620465053202020202020200011DE6C
:100A70000C372046505320202020202020000FDE5D
:100A80000C382046505320202020202020000DDE4E
:100A90000C313020465053202020202020000BDE37
:100AA0000C3132204650532020202020200009DE27
:100AB0000C002020202020202020202020000000CA
:100AC000004F746865722020202020202000FEF056
:100AD0000C43616E6F6E2020202020202000000536
:100AE0000D4E696B6F6E2020202020202000010514
:100AF0000D4D696E6F6C746120202020200003056D
:100B00000D4F6C796D707573202020202000040536
:100B10000D50656E7461782020202020200005058E
:100B20000D536F6E79202020202020202000020508
:100B30000D50616E61736F6E6963202020000605A1
:100B40000D00202020202020202020202000000038
:100B5000004F666620202020202020202000001149
:100B60000D4F6E20772F42756C62202020000124EB
:100B70000D00202020202020202020202000000008
:100B8000005368757474657220546573740046DE92
:100B90000D00001D0153687574746572204C616707
:100BA000200046A10C00001D0149522054657374B9
:100BB00020202020200046780E00001D013420480F
:100BC0006F7572204C696768740046563900001DC5
:100BD0000153797320537461747573202000468625
:100BE0001300000000426174746572792020202097
:100BF000200046D20F000000004C69676874204D49
:100C000065746572200046F01000000000506F7798
:100C10006572204F66662020200046FA160000000C
:100C2000000020202020202020202020200056000E
:100C3000000000000042617369632054696D656CB7
:100C400061707365004844522054696D656C617031
:100C500073650053696E676C652048445220496D86
:100C60006167650052616D70206578706F73757291
:100C700065004261636B6C6967687420636F6C6FB9
:100C800072004261636B6C69676874206F6E2074D8
:100C9000696D65004175746F20707772206F6666AC
:100CA0002074696D65004C4544206175746F206F38
:100CB00066662074696D6500486F6C6473207368A4
:100CC000757474657220646F776E0050726573730B
:100CD000206F6E207072657373206F6666004672B7
:100CE000616D657320706572205365636F6E64007B
:100CF00043686F6F7365206966206E6F74206C693E
:100D0000737465640043616D657261206D616B652C
:100D1000004C4544206F666620647572696E6720DA
:100D20007573650053687574746572206C696768C3
:100D30007473204C4544000402040507064D4149E4
:100D40004E204D454E5500041E05051E00041F157E
:100D5000150A00040E11111100041F11110E0004D8
:100D60001F15151100041F05050100040E11151DA6
:100D700000041F04041F0003111F110000040811C8
:100D80000F0100041F040A1100041F1010100005B9
:100D90001F0204021F041F02041F00040E11110E83
:100DA00000041F09090600040E11191E00041F0982
:100DB00009160004121515090003011F01000004A3
:100DC0000F10100F00030F100F0000051F0804087C
:100DD0001F041B04041B0003031C0300000419155B
:100DE000151300030E150E000003121F1000000360
:100DF00019151200000311150A00000307041F0053
:100E000000031715090000031E151D000003190536
:100E1000030000030A150A00000317150F00000065
:100E200000000000000000002F0000000007000785
:100E30000000147F147F1400242A7F2A12006264A9
:100E40000813230036495522500000050300000016
:100E5000001C224100000041221C000014083E0832
:100E6000140008083E0808000000A0600000080800
:100E7000080808000060600000002010080402005C
:100E80003E5149453E0000427F40000042615149C9
:100E900046002141454B31001814127F10002745B0
:100EA000454539003C4A49493000017109050300B4
:100EB000364949493600064949291E0000363600A0
:100EC00000000056360000000814224100001414EF
:100ED00014141400004122140800020151090600F4
:100EE000324959513E007C1211127C007F49494918
:100EF00036003E41414122007F4141221C007F4992
:100F0000494941007F09090901003E4149497A00E8
:100F10007F0808087F0000417F4100002040413FDA
:100F200001007F08142241007F40404040007F02C2
:100F30000C027F007F0408107F003E4141413E00CB
:100F40007F09090906003E4151215E007F091929E8
:100F5000460046494949310001017F0101003F40F7
:100F600040403F001F2040201F003F4038403F00CE
:100F700063140814630007087008070061514945AD
:100F80004300007F41410000552A552A5500004189
:100F9000417F000004020102040040404040400044
:100FA0000001020400002054545478007F48444457
:100FB0003800384444442000384444487F003854C2
:100FC00054541800087E0901020018A4A4A47C004F
:100FD0007F080404780000447D4000004080847D48
:100FE00000007F102844000000417F4000007C0486
:100FF000180478007C08040478003844444438001D
:10100000FC242424180018242418FC007C08040460
:101010000800485454542000043F444020003C4001
:1010200040207C001C2040201C003C4030403C0004
:101030004428102844001CA0A0A07C004464544C08
:10104000440000060909060080C0E0E060E0E0C05E
:101050008000000000000070FFFF0100000000FFA2
:10106000FFFE0000000000000F1F3C383038381F22
:101070000F0300000000000000000080E0E000001E
:10108000000000000000000000030303FFFF000059
:101090000000000000000000003838383F3F3838BA
:1010A0003800000000000000C0C0E06060E0E0C068
:1010B000800000000000000001000080C0E0F93F57
:1010C0001F000000000000003C3E3F3F3B39383825
:1010D0003838000000000000C0E0E06060E0E0C0E0
:1010E000C0000000000000000100003030387DEF3B
:1010F000CF000000000000001C38383030383C1FA2
:101100000F010000000000000000000080C0E0E0CF
:1011100000000000000000E0F0F8DECFC7C1FFFFD4
:10112000C0C00000000000000000000000003F3FC1
:101130000000000000000000E0E0E0E0E0E0E0E0AF
:10114000E0E00000000000003F3F3F38383070F022
:10115000E0000000000000001C38383030383C1F30
:101160000F010000000000000080C0C0E06060E0EF
:10117000E0000000000000E0FEFF3739181838F0EA
:10118000F0C00000000000000F1F1C383030381F76
:101190000F07000000000000E0E0E0E0E0E0E0E039
:1011A000E0E000000000000000000080E0F87E1F8A
:1011B000070100000000000000383E1F070100008A
:1011C000000000000000000080C0E0E06060E0C0BF
:1011D000C000000000000000CFFF7F38307070FFBB
:1011E000EFC70000000000030F1F3C383030381FED
:1011F0001F0F00000000000080C0E0E060E0E0C0E1
:10120000800000000000000C3F7FF1E0C0C0E1FF63
:10121000FFFE0000000000000038303038381E0F9C
:1012200007000000000000000000000000000000B7
:1012300000000000000000000000000000000000AE
:10124000000000000000003C3C3C000000000000EA
:10125000000000000000000000000000000000008E
:101260000000000000000000004040404040FEFE42
:1012700040404040400000000000000000000F0F10
:10128000000000000000000000000000000000005E
:1012900000000000000000004040404040400000CE
:1012A000000000000000000000000000000000003E
:1012B0000000000000000000434F11241FBECFEFCC
:1012C000D0E2DEBFCDBF18E0A0E0B1E0E0E5FAEA91
:1012D00000E00BBF02C007900D92AC32B107D9F706
:1012E0001CE0ACE2B8E001C01D92A635B107E1F701
:1012F00012E1CAEBD2E100E006C022970109FE012B
:101300000BBF0E94BA51C83BD10780E00807A9F77C
:101310000E94CD4D0C9426550C94000080915E0BDC
:1013200090915F0B059708F03FC080915E0B909104
:101330005F0B892B31F481E090E090935F0B8093F9
:101340005E0BE0915E0BF0915F0BA0915E0BB09194
:101350005F0BAA0FBB1FA85BB44F8D919C91805F60
:10136000914FEE0FFF1FE65BF44F91838083E09176
:101370005E0BF0915F0BA0915E0BB0915F0BAA0F1B
:10138000BB1FAA5CB44F8D919C91EE0FFF1FE85CD0
:10139000F44F9183808380915E0B90915F0B019657
:1013A00090935F0B80935E0B8DED98E00E94611E21
:1013B00081E00895CF93DF931F92CDB7DEB7462F1C
:1013C000662341F06091730B8CE19BE049830E949E
:1013D000AE2F498163E072E08DED98E00E94D7194D
:1013E000882331F08DED98E00E94611E81E001C0FC
:1013F00080E00F90DF91CF910895813021F48DED41
:1014000098E00E94611E81E00895462F61111092BC
:10141000720B6CE072E08DED98E00E94D719882382
:1014200031F08DED98E00E94611E81E0089580E02A
:1014300008952F923F925F926F927F928F929F9228
:10144000AF92BF92CF92DF92EF92FF920F931F93D2
:10145000CF93DF9300D000D0CDB7DEB7182F853003
:1014600031F480919E0B8823A1F081500FC086300B
:1014700081F480919E0B482F50E020919F0B30E02B
:10148000215031094217530724F48F5F80939E0B3C
:1014900003C0662309F4A1C082E299E00E948F2D67
:1014A00080919E0B833020F0682E6A946A9401C06C
:1014B000612C10929F0B1C821B8254E4752EE62C2B
:1014C000F12CC70104969A83898369E0362E5B80EC
:1014D000EB81FC817E9E60017F9ED00C1124C601B1
:1014E000875F9F4F0E94925481508E3FE8F503E042
:1014F000A12CB12C252C23948B809C80FFEF8F1A7C
:101500009F0A261430F189819A81881599050CF17A
:10151000C5018C0D9D1D875F9F4F0E949254982F8F
:1015200091549A3108F080E240919F0B4E19439DEF
:10153000402D1124485F282F602F82E299E00E94FD
:101540005E2890919F0B80919E0B981302C0509241
:10155000A00B9FEFA91AB90A0A5F0B3491F680918C
:101560009F0B8F5F80939F0BEB81FC813196FC83F7
:10157000EB83789709F0ABCF80919E0B861949E0F9
:10158000849F402D1124042F015F495F21E562E013
:1015900082E299E00E94432A64E172E08DED98E0D6
:1015A0000E9493184FE152E064E272E08DED98E002
:1015B0000E94C91808E220E043E060E082E299E07E
:1015C0000E94C42923E543E063E582E299E00E949A
:1015D000C42982E299E00E94C32D123059F018F418
:1015E000113049F505C0133019F0143021F502C04F
:1015F00081E022C06091A00B8CE19BE00E94AE2FA5
:1016000041E06BE272E08DED98E00E94D71980ED29
:1016100097E028EC30E0F9013197F1F70197D9F71D
:101620008DED98E00E94611E60E08DED98E00E94D3
:10163000B41982E001C080E00F900F900F900F90DE
:10164000DF91CF911F910F91FF90EF90DF90CF909E
:10165000BF90AF909F908F907F906F905F903F90E2
:101660002F90089580915E0B90915F0B029748F048
:1016700080915E0B90915F0B019790935F0B80932D
:101680005E0B8DED98E00E94611E60E08DED98E0AC
:101690000E94B41981E00895CF93DF931F92CDB7D4
:1016A000DEB7462F662341F06091730B8CE19BE01F
:1016B00049830E94652F498169E172E08DED98E0D0
:1016C0000E94D719882331F08DED98E00E94611EA9
:1016D00081E001C080E00F90DF91CF910895CF931A
:1016E000DF931F92CDB7DEB7462F662339F060E057
:1016F0008CE19BE049830E94652F498169E172E09A
:101700008DED98E00E94D719882331F08DED98E097
:101710000E94611E81E001C080E00F90DF91CF91B7
:101720000895CF93C82F611107C09091020C80914A
:101730008F0B981709F46EC09091020C90938F0B49
:10174000992379F182E299E00E948F2D22E332E021
:1017500047E063E082E299E00E94EF2820E432E073
:101760004FE063E082E299E00E94EF2820E432E05B
:1017700047E163E082E299E00E94EF2820E432E052
:101780004FE163E082E299E00E94EF286EE472E0AC
:101790008DED98E00E94931841E258E06AE572E00E
:1017A0002EC082E299E00E948F2D21E632E047E0D0
:1017B00063E082E299E00E94EF282FE632E04FE0FA
:1017C00063E082E299E00E94EF282DE732E047E1F2
:1017D00063E082E299E00E94EF2820E432E04FE1EA
:1017E00063E082E299E00E94EF286BE872E08DED01
:1017F00098E00E94931841E258E064E272E08DEDB7
:1018000098E00E94C91882E299E00E94C32D81E00D
:1018100080937B0BCC2339F08091020C811105C0A1
:1018200010927B0B02C080E001C081E0CF9108954F
:10183000CF93C82F6623B1F182E299E00E948F2DE9
:1018400027E932E047E063E082E299E00E94EF2876
:1018500025EA32E04FE063E082E299E00E94EF285F
:1018600023EB32E047E163E082E299E00E94EF2857
:1018700021EC32E04FE163E082E299E00E94EF2840
:101880006FEC72E08DED98E00E94931841E258E011
:101890006AE572E08DED98E00E94C91882E299E055
:1018A0000E94C32D81E0C11101C080E0CF91089555
:1018B000EF920F93CF93C82F6623D1F082E299E085
:1018C0000E948F2D27ED32E042E161E082E299E053
:1018D0000E94EF286EED72E08DED98E00E94931863
:1018E0004AE552E064EE72E08DED98E00E94C9187E
:1018F0000AE123E542E164E282E299E00E946B2A78
:1019000089EC98E00E947916E2E5EE2E06E49B0150
:1019100042E163E582E299E00E94932A82E299E043
:101920000E94C32DC13021F0C23031F481E005C0E6
:1019300089EC98E00E94EC1580E0CF910F91EF9038
:1019400008958F929F92AF92BF92EF920F93CF9391
:10195000DF93C82F6623B1F082E299E00E948F2DB9
:1019600069EE72E08DED98E00E9493184AEF52E024
:1019700062E073E08DED98E00E94C91882E299E080
:101980000E94C32D8C2F8150823008F083C006E264
:1019900020E542E16AE082E299E00E946B2A29E0B8
:1019A00033E042E16AE082E299E00E94EF28479A40
:1019B0003F9A3C98449A86988E9A469A3E9A389ACC
:1019C000409A3D98459A28EE33E048EC50E0FA0101
:1019D0003197F1F721503109D1F7C23031F04798F2
:1019E00089EC98E00E94EC151EC0469880E197E2D1
:1019F00028EC30E0F9013197F1F70197D9F7EFCFF3
:101A000089EC98E00E945B16683E73408105910561
:101A100050F089EC98E00E945B16EB0184EF91E0B6
:101A200028EC30E003C03599EBCFF3CFF9013197C3
:101A3000F1F70197D9F7479A469A89EC98E00E9406
:101A4000EC1525C089EC98E00E945B16693E734056
:101A500081059105E0F089EC98E00E945B164B014E
:101A60005C01FCE4EF2E05E59E0142E168E382E2C1
:101A700099E00E94932A94014CE168E382E299E0A4
:101A80000E94932A82E299E00E94C32D05C0359BF3
:101A9000D9CFE1CFC33011F080E001C081E0DF9108
:101AA000CF910F91EF90BF90AF909F908F9008953E
:101AB0000F93CF93C82F6623E1F010928D0B82E233
:101AC00099E00E948F2D61E173E08DED98E00E9416
:101AD00093184FE153E065E273E08DED98E00E94CA
:101AE000C91882E299E00E94C32D8CE19BE00E941C
:101AF000AD2EC13071F580918D0B8130B9F0C0935E
:101B00008D0B0AE12AE442E168E082E299E00E945A
:101B10006B2A2AE233E042E168E082E299E00E9427
:101B2000EF288CE19BE00E94C22E0EC010928D0B1C
:101B30000AE12AE442E168E082E299E00E946B2A2D
:101B40008CE19BE00E94002F82E299E00E94C32D6D
:101B500031C0C23099F480918D0B813089F01092A0
:101B60008D0B0AE12AE442E168E082E299E00E94FA
:101B70006B2A8CE19BE00E94352FE6CFCC23D1F07D
:101B800010928D0B0AE12AE442E168E082E299E0DA
:101B90000E946B2A8CE19BE00E94AD2E82E299E0CC
:101BA0000E94C32DC33031F48CE19BE00E94862E4D
:101BB00081E001C080E0CF910F9108950F93CF9302
:101BC000C82F6623D1F010928B0B10928C0B82E2FF
:101BD00099E00E948F2D66E373E08DED98E00E94FE
:101BE000931843E453E068E473E08DED98E00E94BD
:101BF000C91882E299E00E94C32DC130D9F48091C6
:101C00008B0B8130B1F1C0938B0B0AE128E342E1E9
:101C100064E182E299E00E946B2A2DE433E042E124
:101C200064E182E299E00E94EF288CE19BE00E944F
:101C3000AD2E2DC0C230D9F480918B0B8230C9F00B
:101C4000C0938B0B0AE128E342E164E182E299E070
:101C50000E946B2A24E533E042E164E182E299E0EC
:101C60000E94EF288CE19BE00E94B82E10C0CC238C
:101C700091F010928B0B0AE128E342E164E182E2E9
:101C800099E00E946B2A8CE19BE00E94862E82E202
:101C900099E00E94C32D8CE19BE00E94582F909107
:101CA0008C0B882371F091111CC081E080938C0B08
:101CB0002BE533E04CE166E082E299E00E944228A5
:101CC0000CC0913071F410928C0B04E221E54CE1D0
:101CD00066E082E299E00E946B2A82E299E00E942B
:101CE000C32D81E0C33009F080E0CF910F910895BA
:101CF000CF93C82F6623B1F082E299E00E948F2D26
:101D00006BE673E08DED98E00E94931845E753E091
:101D10006DE773E08DED98E00E94C91882E299E0CA
:101D20000E94C32DC23061F0C33019F0C13061F49C
:101D300002C081E00AC084E798E00E941C2504C02C
:101D400084E798E00E94BE2380E0CF9108950F932E
:101D5000CF93C82F062F662331F08CE19BE00E94C1
:101D6000EC2F8093910B25E833E042E95BE06C2F88
:101D70008DED98E00E94C622C82F823019F510928E
:101D80009D0B62E97BE08CE19BE00E94C551609174
:101D9000910B8CE19BE00E94652F41E069E172E0CC
:101DA0008DED98E00E94D71920ED37E048EC50E027
:101DB000FA013197F1F721503109D1F78DED98E013
:101DC0000E94611E8C2FCF910F910895462F6111B3
:101DD0008093900B8091900B8230D9F46DE873E082
:101DE0008DED98E00E94D71980E49FE128EC30E067
:101DF000F9013197F1F70197D9F78CE19BE00E9447
:101E0000083063EA72E18DED98E00E94661983E084
:101E100008958DED98E00E945B1D60E08DED98E0E7
:101E20000E94B41967E474E08DED98E00E94801E72
:101E300082E299E00E94C32D81E00895A89588E18F
:101E40000FB6F89480936000109260000FBE2FE0F0
:101E500088E190E00FB6F894A895809360000FBEDB
:101E6000209360006C98749A0E94CA16811102C077
:101E7000649935C00E948B160E946C3689EC98E0FC
:101E80000E94821582E299E00E943E2E82E299E051
:101E90009093DE088093DD0887EB98E09093E0084C
:101EA0008093DF0883B7817F846083BF83B78160BD
:101EB00083BF6FEC73E08DED98E00E94801E82E29C
:101EC00099E00E94C32D0E94A94D0E940D4885E70C
:101ED00098E00E94023685E798E00C94AC3582E2E7
:101EE00099E00E943E2E0E943D378BE993E00E94CC
:101EF000083788E10FB6F894809360001092600074
:101F00000FBE0E94FA16B6CFEF920F931F93CF9396
:101F1000DF93182F662359F10E94AE16EC0182E27E
:101F200099E00E948F2D22ED33E042E161E082E2F0
:101F300099E00E94EF280CE4E02E05E59E0142E1C5
:101F400067E382E299E00E94932A6CED73E08DEDE5
:101F500098E00E94931841E258E06AE572E08DED46
:101F600098E00E94C91882E299E00E94C32D81E0A6
:101F7000113009F080E0DF91CF911F910F91EF9028
:101F800008950E94CA16833048F4E82FF0E0EE0F5F
:101F9000FF1FEF5CFE4F2081318102C023EE33E052
:101FA000C9010895FF920F931F93CF93DF93F82EEB
:101FB0000E944B17EC010E94CA16482FC45FD14003
:101FC00084E28C9F90018D9F300D1124C90161E93D
:101FD00070E00E947051162F643228F0413009F4ED
:101FE00072C0643211F4423009F414E282E299E0E2
:101FF0000E948F2D0E94C10FEC01BC0182E299E08A
:102000000E94B927082F0E94CA16882349F0069516
:1020100069E2601B9E014FE182E299E00E94422842
:102020000FE02CE34FE064E182E299E00E94C429D2
:102030000BE124E140E164E182E299E00E94C429DD
:102040002CE34BE165E182E299E00E94C42903E1BF
:102050002CE340E16CE382E299E00E94C4290AE1AA
:102060002CE347E16CE382E299E00E94C42907E196
:102070002DE343E16DE382E299E00E94C429C0E0D0
:102080006C2F6A5E09E1262F41E182E299E00E940D
:10209000C429CF5F1C17A0F769EE73E08DED98E0BF
:1020A0000E94931841E258E06AE572E08DED98E0F5
:1020B0000E94C91882E299E00E94C32D81E0F816BF
:1020C00021F080E002C013E291CFDF91CF911F9108
:1020D0000F91FF900895EF92FF920F931F93CF936C
:1020E000DF9300D000D000D0CDB7DEB79C01FB015C
:1020F000009721F480E38083118265C060E177E27C
:102100000E9470517B0180EF98ED689F8001699F6C
:10211000100D789F100D1124020F131FC80168EED7
:1021200073E00E947051AB0188E19CEF689F9001C1
:10213000699F300D789F300D1124200F311FC90188
:1021400064E670E00E947051162F84E6689F2019A3
:1021500031091124C9016AE070E00E9470511E82A9
:102160008E2D805D8983405D4A83105D1B83862FA1
:10217000805D8C83AAE06A9F201931091124205DBB
:102180002D83DE01119620E08D918033A9F417C0D4
:1021900081E090E08C0F9D1F830F911DDC018C91DD
:1021A000DA018D93AD013F5F832F821B353080F3C1
:1021B000E80FF11D108207C0AF01322FF5CF2F5F5E
:1021C0002530D1F3E1CF26960FB6F894DEBF0FBECF
:1021D000CDBFDF91CF911F910F91FF90EF900895A8
:1021E0000F931F93CF93DF9300D000D000D0CDB7D3
:1021F000DEB7182F662341F060E082E299E00E948A
:10220000302E80E00E949A1680918E0B811187C03B
:1022100082E299E00E948F2D68EF73E08DED98E0E7
:102220000E949318123031F481E080938E0B44E0C9
:1022300054E002C048E054E06AE572E08DED98E0B9
:102240000E94C91880E00E940318BE016F5F7F4F93
:102250000E946B10BE016F5F7F4F82E299E00E9487
:10226000B92700E5602F681B9E012F5F3F4F4EE0AE
:1022700082E299E00E9442282EE034E04EE063E0E2
:1022800082E299E00E94422881E00E940318BE0188
:102290006F5F7F4F0E946B10BE016F5F7F4F82E2C6
:1022A00099E00E94B927602F681B9E012F5F3F4F66
:1022B00044E182E299E00E94422827E134E044E1CF
:1022C00063E082E299E00E94422882E00E940318C3
:1022D000BE016F5F7F4F0E946B10BE016F5F7F4F2B
:1022E00082E299E00E94B927602F681B9E012F5F50
:1022F0003F4F4AE182E299E00E94422820E234E026
:102300004AE163E082E299E00E94422882E299E099
:102310000E94C32DE0E2FEE43197F1F705C01230D0
:1023200019F410928E0B09C0113039F46FEF82E26C
:1023300099E00E94302E81E001C080E026960FB621
:10234000F894DEBF0FBECDBFDF91CF911F910F91EB
:1023500008952F923F924F925F926F927F928F9249
:102360009F92AF92BF92CF92DF92EF92FF920F9324
:102370001F93CF93DF93CDB7DEB728970FB6F894AE
:10238000DEBF0FBECDBF082F662309F4BDC082E2B9
:1023900099E00E948F2D85E798E00E944235282E13
:1023A000312C63E374E082E299E00E94B92760E592
:1023B000681B23E334E048E082E299E00E9442286F
:1023C00029E334E048E063E082E299E00E94422899
:1023D00082E02816310418F029E234E002C02EE22F
:1023E00034E0B90182E299E02F8338870E94B9274F
:1023F00060E5681B2F8138854EE082E299E00E94FB
:10240000422820E434E04EE063E082E299E00E945A
:10241000422829E434E044E163E082E299E00E944A
:1024200042289DE5C92E95E0D92E93E3E92EFF249D
:10243000F39410E02AE0822E912CA12CB12CC7013C
:10244000B601A50194010E9498512B013C01862FF1
:10245000805D89831A82BE016F5F7F4F82E299E0BF
:102460000E94B927180F1F5F60E5611B9E012F5F57
:102470003F4F44E182E299E00E944228C701B60141
:102480006419750986099709A50194010E9498515C
:1024900069017A01211531054105510581F682E076
:1024A00028163104F8F0BE016F5F7F4FC1010E9412
:1024B0006B10BE016F5F7F4F82E299E00E94B927E7
:1024C00060E5681B9E012F5F3F4F40E282E299E08A
:1024D0000E94422823E534E040E263E082E299E092
:1024E0000E94422862E674E08DED98E00E94931805
:1024F00041E258E06AE572E08DED98E00E94C9186B
:1025000082E299E00E94C32D81E0013019F003308E
:1025100009F080E028960FB6F894DEBF0FBECDBF5D
:10252000DF91CF911F910F91FF90EF90DF90CF90AF
:10253000BF90AF909F908F907F906F905F904F90E3
:102540003F902F9008950F931F93CF93DF9300D068
:1025500000D000D0CDB7DEB7082F82E299E00E940C
:102560008F2DBE016F5F7F4F80916C0B90916D0B33
:102570000E946B10BE016F5F7F4F82E299E00E9464
:10258000B92710E5612F681B9E012F5F3F4F48E080
:1025900082E299E00E9442282EE634E048E063E0BF
:1025A00082E299E00E944228BE016F5F7F4F8091D6
:1025B0006E0B90916F0B0E946B10BE016F5F7F4F8F
:1025C00082E299E00E94B927612F681B9E012F5F6C
:1025D0003F4F4EE082E299E00E94422826E734E035
:1025E0004EE063E082E299E00E944228BE016F5F04
:1025F0007F4F8091700B9091710B0E946B10BE0108
:102600006F5F7F4F82E299E00E94B927612F681BBC
:102610009E012F5F3F4F44E182E299E00E944228F1
:1026200022E834E044E163E082E299E00E9442283B
:1026300060E67BE082E299E00E94B927612F681B87
:1026400020E63BE04AE182E299E00E9442282EE83F
:1026500034E04AE163E082E299E00E9442280E946D
:102660005617BE016F5F7F4F90E00E946B10BE0156
:102670006F5F7F4F82E299E00E94B927612F681B4C
:102680009E012F5F3F4F40E282E299E00E94422884
:1026900026E934E040E263E082E299E00E944228C9
:1026A00065EA74E08DED98E00E9493184DEA54E0DD
:1026B00061E278E08DED98E00E94C91882E299E02D
:1026C0000E94C32DE0E2FEE43197F1F78091720B96
:1026D000882371F0023071F48DED98E00E945B1D4B
:1026E00065E07AE08DED98E00E94661983E003C012
:1026F00081E001C080E026960FB6F894DEBF0FBEE1
:10270000CDBFDF91CF911F910F910895EF92FF926E
:102710000F931F93CF93DF9300D000D000D0CDB79D
:10272000DEB7E82E82E299E00E948F2D0E94C10F51
:102730008C01BC0182E299E00E94B92730E5F32EBA
:102740006F2D681B980148E082E299E00E944228C0
:1027500022EB34E048E063E082E299E00E94422804
:102760000E945617BE016F5F7F4F90E00E946B1072
:10277000BE016F5F7F4F82E299E00E94B9276F2D03
:10278000681B9E012F5F3F4F4EE082E299E00E945E
:10279000422827EB34E04EE063E082E299E00E94B9
:1027A00042280E94AE16BE016F5F7F4F0E946B10E1
:1027B000BE016F5F7F4F82E299E00E94B9276F2DC3
:1027C000681B9E012F5F3F4F44E182E299E00E9427
:1027D000422822ED33E044E163E082E299E00E9486
:1027E0004228BE016F5F7F4F8091CD089091CE0847
:1027F0000E946B10BE016F5F7F4F82E299E00E94E2
:10280000B9276F2D681B9E012F5F3F4F4AE182E27F
:1028100099E00E94422820EC34E04AE163E082E241
:1028200099E00E944228BE016F5F7F4F8091D108DE
:102830009091D2080E946B10BE016F5F7F4F82E2C1
:1028400099E00E94B9276F2D681B9E012F5F3F4FB3
:1028500040E282E299E00E94422829EC34E040E222
:1028600063E082E299E00E94422863ED74E08DED1E
:1028700098E00E94931841E258E06AE572E08DED1D
:1028800098E00E94C91882E299E00E94C32DE0E21C
:10289000FEE43197F1F781E0E81629F093E0E916BC
:1028A00019F080E001C081E026960FB6F894DEBFF3
:1028B0000FBECDBFDF91CF911F910F91FF90EF9091
:1028C0000895662319F0823019F480E00C94180CF6
:1028D00081E008951F920F920FB60F9211240BB64C
:1028E0000F921BBE2F933F934F935F936F937F93F2
:1028F0008F939F93AF93BF93EF93FF9389EC98E0EF
:102900000E94AD1587EB98E00E94D114FF91EF91E2
:10291000BF91AF919F918F917F916F915F914F91F7
:102920003F912F910F900BBE0F900FBE0F901F90F5
:102930001895CF93DF93DC0120E030E041E050E0D8
:102940001D92FC01E20FF31F16821486F901E95C67
:10295000F24FE491223078F47DB1EA0102C0CC0F4D
:10296000DD1FEA95E2F76C2F609567236DB96EB1B4
:102970006C2B6EB90EC07AB1EA0102C0CC0FDD1F1C
:10298000EA95E2F76C2F609567236AB96BB16C2BFF
:102990006BB92F5F3F4F2630310591F6DF91CF9114
:1029A0000895DF92EF92FF920F931F93CF93DF93DF
:1029B0007C018C01C0E0D0E0DD24D394FE01E95C11
:1029C000F24FE491C23010F48CB101C089B190E0B3
:1029D00002C095958795EA95E2F780958170D801B8
:1029E000A9F08C918F30F0F48F5FF80180838B30E9
:1029F000C8F0F701EC0FFD1F8681811113C0D4864A
:102A0000D68289EC98E00E94F2150CC08C91882344
:102A100049F0F701EC0FFD1F148681508C93833031
:102A200008F4168221960F5F1F4FC630D10531F68C
:102A3000DF91CF911F910F91FF90EF90DF9008955C
:102A4000FC0186E01192158213868150D9F7089512
:102A5000CF93DF93EC0189EC98E00E947F168823E6
:102A600019F0CE010E94201520E030E0822FFE01F7
:102A7000E20FF31F9485992311F08F5F06C02F5F3B
:102A80003F4F2630310591F780E0DF91CF910895D7
:102A9000CF93DF93EC0189EC98E00E947F168823A6
:102AA00019F0CE010E94201520E030E0822FFE01B7
:102AB000E20FF31F9485992319F014868F5F06C0E7
:102AC0002F5F3F4F2630310589F780E0DF91CF91AE
:102AD00008950F931F93CF93DF931F92CDB7DEB767
:102AE0008C0101C0A895C80169830E9448156981BD
:102AF0008613F8CF862F0F90DF91CF911F910F9102
:102B000008950895FC0192E09093B000A1EBB0E02D
:102B10001C928C9184608C938AE78093B30010920E
:102B2000B60090937000128A81E082871082118231
:102B300012821382148215821682178211861086E1
:102B4000789408951092B0001092B1001092B300E2
:102B50001092B600109270000895FC018085918556
:102B600001969187808740815181628173814F5F97
:102B70005F4F6F4F7F4F4083518362837383883EE3
:102B80009340E8F0118610864481558166817781F3
:102B90004F5F5F4F6F4F7F4F4483558366837783CB
:102BA0008685978501969787868784859585019682
:102BB00095878487808991890196918B808B089570
:102BC000FC011082118212821382148215821682F5
:102BD0001782118610860895FC01108211821282DC
:102BE00013820895CF93DF93EC011F861E861D8606
:102BF0001C866B89662329F082E299E00E94302EC0
:102C00001B8ADF91CF910895CF93DF93EC018A85E2
:102C1000811103C01F861E8606C08B85811103C0EB
:102C2000CE010E94F2158A858B87882399F08091C6
:102C3000D60B2AE0829FC00111242E853F852817DC
:102C4000390740F00E94FA16CE010E94F21581E089
:102C50008A8B18C08B89811115C08091D50B2AE011
:102C6000829FC00111242C853D852817390750F01B
:102C700082E299E00E94812E8B8B60E082E299E0F3
:102C80000E94302E0E94A316882381F08091D70BDA
:102C90002AE0829FC0011124288939892817390721
:102CA00038F080E0DF91CF910C949A16198A188A37
:102CB000DF91CF910895FC016081718182819381C0
:102CC00008950F931F93FC0124813581468157811C
:102CD000A8EEB3E00E9455518B019C01808591853F
:102CE000080F191F211D311DB801C9011F910F9136
:102CF0000895FC0164817581868197810895FC01A6
:102D00008289128A089582E299E00E943E2E82E230
:102D100099E00C94C32D3B9A43980B9A1398269AEA
:102D20002E9A279A2F9A6B98739A6F9A849A8C98F6
:102D300077980895269A882319F02E9881E00895AF
:102D40002E9A80E00895269B07C085B186FB8827D0
:102D500080F991E08927089580E00895CF93DF936B
:102D600000D0CDB7DEB780914C0C90914D0C9E01F8
:102D70002F5F3F4F009719F426553C4002C0281B97
:102D8000390B3A83298389819A810F900F90DF91C3
:102D9000CF9108950F98179AE0E2FEE4CF010197D2
:102DA000F1F780B117983197F1F7079905C0809531
:102DB000881F8827881F089582E00895CF938DED9E
:102DC00098E00E945B1DC1E087EB98E00E944815E7
:102DD000813029F48DED98E0CF910C94611E0E9412
:102DE000CA168823B9F3A8956C2F80E00E94D20FF1
:102DF000C0E0EACF0E94CA16811108C08091E000AD
:102E000081608093E000F894439AFFCF0C94DE1623
:102E100095EA90937A008F3010F0885013C040B339
:102E200021E030E0082E01C0220F0A94EAF7922F29
:102E30009095942390BB90917E00922B90937E006E
:102E4000883058F7806480937C0080917A00806499
:102E500080937A0044E660E070E0CB0120917A0034
:102E600024FFFCCF20917A00206120937A002091EA
:102E7000780030917900620F731F811D911D4150C0
:102E800069F710927A0024E630E040E050E00E94BA
:102E90009851C9010895819A899880E29EE401972A
:102EA000F1F782E00E940817819808951F93CF934D
:102EB000DF9300D000D000D0CDB7DEB70E944B1713
:102EC0009E838D830E94CA16182F42E050E0811124
:102ED00045C063E070E0CE0101960E9482542D81CE
:102EE0003E8189819A812817390740F442E050E0F9
:102EF00063E070E0CE0105960E949A5442E050E0F3
:102F000061E070E0CE0103960E9482548B819C8127
:102F1000019611F41C821B822D813E818B819C8144
:102F20008217930740F442E050E061E070E0CE0188
:102F300005960E949A5449815A812D813E81241B15
:102F4000350B64E6629FC001639F900D11246B8175
:102F50007C81641B750B0E9470514AC067E070E071
:102F6000CE0101960E9482544D815E8129813A8171
:102F70004217530740F442E050E063E070E0CE01B6
:102F800005960E949A5442E050E065E070E0CE0160
:102F900003960E9482544D815E812B813C812417CF
:102FA000350740F442E050E061E070E0CE01059664
:102FB0000E949A5449815A812D813E81241B350BF0
:102FC00064E6629FC001639F900D11246B817C8138
:102FD000641B750B0E947051113031F46436710519
:102FE00038F063E670E004C0123011F464E670E07B
:102FF000862F26960FB6F894DEBF0FBECDBFDF91A9
:10300000CF911F9108950F931F93CF93DF93D82FE4
:1030100080E00E949A1682E299E00E94812EC82FD9
:1030200060E082E299E00E94302ECC2351F024EF40
:1030300031E048EC50E0FA013197F1F721503109C5
:10304000D1F791B1987F91B992B1987F92B991B12E
:103050008D2FD33008F082E021E030E001C0220F54
:103060008A95EAF7892F822B81B982B1D22FD09528
:103070008D2382B944EF51E0A8ECB0E0FD01319717
:10308000F1F741505109D1F780E00E9408178C01F7
:1030900031B13D2331B982E299E00E94812E8C1733
:1030A00028F46C2F82E299E00E94302EC801DF9153
:1030B000CF911F910F910895CF93DF93EC0180E0A2
:1030C0000E9403189983888381E00E9403189B83E0
:1030D0008A8382E00E9403189D838C83DF91CF91C5
:1030E0000895E0EEF0E08081816080830E94AA3E36
:1030F00082E299E00E94142E89EC98E00E94A215C9
:10310000F89488E10FB6F894809360001092600004
:103110000FBEE0E0F0EF0995FC01168A178A108EC9
:10312000118E168E0895EF92FF920F931F93CF93F7
:10313000DF93EC017B01888199810E94B927182FC8
:10314000169505E023E540E060E0888199810E94C2
:103150006B2A03E023E541E060E0888199810E94C9
:10316000432A212F265D68E2611B05E040E088814B
:1031700099810E946B2A69E2611B970140E0888176
:103180009981DF91CF911F910F91FF90EF900C9457
:103190004228CF92DF92EF92FF920F93CF93DF936B
:1031A000EC016B017A010FE223E549E260E08881DE
:1031B00099810E946B2A96014AE262E08881998196
:1031C0000E944228B701888199810E94B92763E54E
:1031D000681B97014AE2888199810E94422823E571
:1031E00049E260E0888199810E94432ADF91CF9172
:1031F0000F91FF90EF90DF90CF9008959B0190E0AA
:1032000080E0F901729665917491FB01309719F095
:103210005081552319F0491731F09F5F8F5F2C5E65
:103220003F4F843171F708959B0180E090E0F901F0
:10323000729665917491FB01941751F0309711F0DB
:10324000508151118F5F9F5F2C5E3F4F943179F712
:103250000895CF93DF93EB01FC012389222369F1C9
:1032600030E021503109F901EE0FFF1FE20FF31F8B
:10327000E80FF91F848125813681F4E18F9F200DAD
:10328000311D1124DB0180E090E0F901E80FF91F06
:10329000E491ED9301968C309105B9F78BE090E0C5
:1032A000FE01E80FF91F2081203211F011820AC0BF
:1032B000019781309105A1F705C06DE37DE0CE0156
:1032C0000E94BE51CE01DF91CF910895FC0177A3FA
:1032D00066A3089521E0FC01268F0895DF92EF9206
:1032E000FF920F931F93CF93DF93EC01162FF42ED1
:1032F000E22ED02E6E894F89288D098D842F862B42
:10330000822B802B21F0888199810E94432A1E8B79
:10331000FF8AE88ED98E0D2D2E2D4F2D612F88819D
:1033200099810E94432ADF91CF911F910F91FF90C5
:10333000EF90DF9008950F93CF93DF93EC016E89A8
:103340004F89288D098D842F862B822B802B21F08D
:10335000888199810E94432A1E8A1F8A188E198E9D
:10336000DF91CF910F9108950F931F93CF93DF9328
:10337000EC01162F8A8D681730F0CE010E949B1940
:103380008FEF8C8B0FC049E0649F402D11248D89F5
:10339000481B042F015F495F21E561E0CE010E94D7
:1033A0006E191C8BDF91CF911F910F910895EF92B1
:1033B000FF920F931F93CF93DF931F92CDB7DEB78A
:1033C0007C01162F372F442309F452C0A62FB72FA4
:1033D000FD0101900020E9F73197EA1BFB0B26E085
:1033E0002E9FC0012F9F900D112496958795AC01BB
:1033F00060E070E04093AF0B5093B00B6093B10B63
:103400007093B20B282F255D67E2681B08E14CE042
:10341000F7018081918139830E946B2A9091AF0BD3
:10342000292F265D68E2691B07E14DE0F7018081E5
:1034300091810E94142A69E29091AF0B691B212FA0
:1034400039814FE0F701808191810E94EF28F701D7
:10345000808191810E94C32D89EC98E00E946116C1
:103460006093AF0B7093B00B8093B10B9093B20B42
:1034700089EC98E00E9461160091AF0B1091B00B9F
:103480002091B10B3091B20B601B710B820B930B2F
:10349000643F71408105910530F4F7018281938189
:1034A0000E944815811181E00F90DF91CF911F910B
:1034B0000F91FF90EF9008957F928F929F92AF921D
:1034C000BF92CF92DF92EF92FF920F931F93CF9311
:1034D000DF93EC01F62E5A014901702E1092A30BD6
:1034E000CC2009F430C1FA01C080D1808881998153
:1034F0000E948F2D05E023E542E060E088819981FC
:103500000E94432A0EE121E046E060E08881998133
:103510000E94432A23E546E062E5888199810E9462
:10352000432AA72DB12FFD0101900020E9F7319723
:10353000EA1BFB0BE093A40B6AEF6E9F602D112436
:10354000605B272D312F40E2888199810E94EF280E
:10355000F40101900020E9F73197E819F909E093A7
:10356000A40B26E0E29FF0011124F595E7958AE28D
:103570008E1B8093A50B07E223E54FE160E0888175
:1035800099810E94432A49EF54E064E272E0CE013F
:103590000E94C9186091A50B9091A40B292F220FAE
:1035A000290F220F260F05E042E0888199810E94B1
:1035B000432A940140E06091A50B888199810E9483
:1035C000EF2880E0E82FF0E0E955F44F10828F5F9C
:1035D0008530C0F346E4E41621F054E5E5128AC0D4
:1035E00043C0E8E5F2E0C601BF010E9470518C01C2
:1035F000C81AD90A2AE030E0B9010E9484518093A8
:10360000A70BA801481B590BCA01B9010E9484519C
:103610008B01CB01B9010E9484518093A80BA801B2
:10362000481B590BCA01B9010E9484516093A90B30
:10363000C601BF010E947051CB01BF010E947051B1
:10364000FC01B9010E9484518093AA0BAF01481B71
:10365000590BCA01B9010E9484516093AC0B70935D
:10366000AD0B6093AB0B6AC0ECE3F0E0C601BF01A9
:103670000E9470518C01C601801B910BBF010E94FA
:1036800070516B012AE030E0C801B9010E948451F9
:103690008093A70BA801481B590BCA01B9010E94CE
:1036A00084516093A80BC601BF010E9470518C0128
:1036B000C81AD90AB9010E9484518093A90BA801A4
:1036C000481B590BCA01B9010E9484516093AA0B8F
:1036D000C601BF010E947051CB01BF010E94705111
:1036E0009093AD0B8093AC0BB9010E9484518093F1
:1036F000AB0B24C09090AC0B4091AD0BE0E00AE026
:1037000010E013C0C601B8010E9470519C01982EB0
:10371000432FC601821B930BB8010E9470516B01AD
:10372000F0E0E955F44F2083E82D8E2E8394C114E8
:10373000D10441F79092AC0B4093AD0B85E08093A0
:10374000A40B1092A60B8F2D8150823008F4FDC07F
:103750000EE121E548E063E0888199810E946B2AAF
:103760001092A50B10EF12C0E62FF0E0E955F44FD0
:103770002081205D619F602D11246C5B45E00E94DB
:1037800014298091A50B8F5F8093A50B6091A50BE9
:103790002091A40B88819981621730F356E4E516D5
:1037A00021F0E4E5EE1232C013C00EE022E24CE05C
:1037B00061E20E94142A06E122E244E161E288818A
:1037C00099810E94142A0AE122E448E161E41AC0C6
:1037D0000EE022E34CE061E30E94142A06E122E3BA
:1037E00044E161E3888199810E94142A0EE022E17C
:1037F0004CE061E1888199810E94142A06E122E16E
:1038000044E161E1888199810E94142A8091A60B8C
:1038100025E030E0281B31092295207F60EF869F4C
:10382000602D11246D5B0CE148E0888199810E9434
:10383000432A8091A60BF6E4EF1621F024E5E2126C
:1038400007C003C0823031F003C080FF08C002C04F
:10385000843011F485E001C089E08093AE0B88814B
:1038600099810E94C32DFF2009F4FBC044E0F416A7
:1038700071F04F1520F053E0F512F3C025C085E03C
:10388000F81609F453C096E0F912EBC042C08091DB
:10389000A60B25E030E0281B31092295207F60EF40
:1038A000869F602D11246D5B0CE148E08881998131
:1038B0000E94432A8091A60B811102C08091A40B23
:1038C00081508093A60BCDC08091A60B25E030E0FF
:1038D000281B31092295207F60EF869F602D1124DF
:1038E0006D5B0CE148E0888199810E94432A4091F8
:1038F000A60B242F30E08091A40B90E001972817AD
:10390000390724F44F5F4093A60BABC01092A60B6F
:10391000A8C0E091A60BF0E0E955F44F8081882320
:1039200011F081500EC08091AE0B0BC0E091A60B40
:10393000F0E0E955F44F80819091AE0B891718F4AF
:103940008F5F80838EC010828CC06091AB0B5091D2
:10395000A80BE6E4EE1631F08091AA0BF4E5EF1225
:1039600046C023C08091A90B2AE0529F80011124F8
:1039700044E6849F000D111D11248091A70B080FB0
:10398000111D8091AA0B90E05AE0659F800D911D5A
:10399000112448E552E0849F9001859F300D949F4B
:1039A000300D1124020F131F42C00091A70B10E02D
:1039B0009AE0599F000D111D112440E15EE0649FC3
:1039C0009001659F300D1124020F131F2091A90B48
:1039D00030E0EAE08E9F200D311D11244CE3429F20
:1039E000C001439F900D1124080F191F20C04AE009
:1039F00090E0FAE06F9F800D911D1124489F900187
:103A0000499F300D11248091A90B280F311D429F31
:103A1000C001439F900D1124850F911D489F800187
:103A2000499F100D11248091A70B080F111D22E052
:103A3000F21214C041E069E172E0CE010E94D71990
:103A400088E893E128EC30E0F9013197F1F701972C
:103A5000D9F7F5011183008382E001C081E08093F2
:103A6000A30B8091A30BDF91CF911F910F91FF903A
:103A7000EF90DF90CF90BF90AF909F908F907F900E
:103A80000895CF93DF93FC012389253088F42F5FBD
:103A9000238B30E021503109E901CC0FDD1FC20F2B
:103AA000D31FC80FD91F7E836D830E94FE188C839D
:103AB000DF91CF910895FC01638D748D44890C943E
:103AC000411DEF92FF920F931F93CF93DF93EC0171
:103AD0004C898A8D481708F0AFC00B8D1C8DB8013A
:103AE000CE010E94FE1894E1899F70011124B80153
:103AF0006E0D7F1DFB013D9624912F8F2D3469F0B3
:103B000030F4253429F1263409F096C018C0203548
:103B1000F9F0233509F090C063C0CE010E945B1D0F
:103B2000EB8DFC8DEE0DFF1D3E96859194918B8F54
:103B30009C8F60E0CE010E94B41981E07CC0625F7E
:103B40007F4FFB01859194918EA39FA384E073C066
:103B500080E090E0382FFB01E80FF91FE491DE01CF
:103B6000A80FB91F9C96EC93E03229F001968A3099
:103B7000910581F73AE0DE01A30FB11D9C961C92DE
:103B8000FB01709685919491009791F0FC0130E0D3
:103B9000CE018E1B9F0B4491DC01AE0FBF1FD79649
:103BA0004C93442331F03F5F31963D30A1F701C083
:103BB00030E0DE01A30FB11DD7961C92203511F421
:103BC00083E001C082E08D8FFB013B96E491EF8F93
:103BD000625F7F4FFB018591949188A399A32CC0CC
:103BE00080E090E0282FFB01E80FF91FE491DE014F
:103BF000A80FB91F9C96EC93E03229F001968B3008
:103C0000910581F72BE0FE01E20FF11D14A6FB01E7
:103C100072968591949188A799A7FB0170968591DA
:103C200094918AA39BA3625F7F4FFB01859194913E
:103C30008CA39DA385E08D8FDF91CF911F910F9174
:103C4000FF90EF900895FC018389882389F08150CB
:103C5000838B90E0DC01AA0FBB1FA80FB91FAE0F2A
:103C6000BF1FFD01349614966C9171818281089575
:103C70006481758186810895FC01558944894330AA
:103C8000A8F0242F30E0828D90E0019728173907A3
:103C900031F489E0489F402D1124475105C089E047
:103CA000489F402D11244251458B01C0158A8589BA
:103CB000811105C081E0511103C080E0089581E0C9
:103CC00008950F931F93CF93DF93EC018B89882383
:103CD00081F0CE010E94231E462F072F182FB80116
:103CE000CE010E9414198C8B0B8F1C8FCE010E9469
:103CF0003C1E81E08D8FDF91CF911F910F91089530
:103D00005F926F927F928F929F92AF92BF92CF926B
:103D1000DF92EF92FF920F931F93CF93DF93CDB774
:103D2000DEB7A4970FB6F894DEBF0FBECDBF6C010F
:103D3000DC015C967C936E935B970E949B19F60165
:103D4000808191810E948F2DC6010E943C1ED60168
:103D50005D961C925D975A961C92A12CB12C512C09
:103D6000712C6CE0862E912C79E0672EF601438D44
:103D7000548D9A012A0D3B1DF9017296659174913B
:103D8000DB01109721F08C91882309F4BFC0F90161
:103D90003D96A491F601A78F4A0D5B1DFA013B9653
:103DA0001491A53411F0A03529F5225F3F4FF90198
:103DB00085919491BC01A03549F442E050E0CE01D8
:103DC00082960E948254BE016E5D7F4FDB012D9171
:103DD0003C91F601428D469D402D11248589481B5A
:103DE000485F52E5E52E012F60E5808191810E94B8
:103DF000932A582ED6015F968C915F97833509F0F0
:103E000053C01A3209F050C05B962D913C915C97DB
:103E10002A0D3B1DF9013E9605911491205F3F4FFD
:103E2000F90125913491D901F60131A320A398011C
:103E3000205C3E4FF8018491803341F4D6015A96BC
:103E40008C915A978F5F5A968C9360C0F8013D967B
:103E5000E491F0E08D919C911197E817F907E9F44E
:103E600032E0E12CF12CF801EE0DFF1D2491F6015A
:103E7000428D469D402D11248589481B485F632F44
:103E8000808191813CA30E945E28FFEFEF1AFF0A18
:103E90003CA13A5F3A3439F7D1CF005F1F4F021788
:103EA000130709F0C7CFCACF32E000E010E0740179
:103EB000E518F108D6015F968C91853411F08035B4
:103EC00019F40E151F05E4F4D6015B96ED91FC91F3
:103ED0005C97EA0DFB1DE00FF11F24915A964C915F
:103EE0005A97469D402D112455968C915597481B05
:103EF000485F632F8D919C913CA30E945E283CA15A
:103F00000F5F1F4F3A5F3A34A9F698CFB4E1AB0E7A
:103F1000B11CD6015B96ED91FC915C97EA0DFB1DFF
:103F2000E491EE2349F07394B0E9AB16B1E0BB061F
:103F300009F01CCF34E1732E7394F6016489C60135
:103F40000E94B419F4E17F9E80011124D6015B9692
:103F50006D917C915C97600F711F6F5F7F4FFB01CC
:103F60008491803229F0CE0101960E94BE5106C094
:103F7000BE016F5F7F4FC6010E942919BE016F5FAE
:103F80007F4FC6010E949318D6015B968D919C913C
:103F90005C97800F911FFC013D9624919B961C928B
:103FA0001E929A97223419F0263409F034C04096B4
:103FB000FC0185919491BC01CE0148962CA30E94EE
:103FC000BE51D6015B96ED91FC915C97E00FF11F1D
:103FD000729685919491BC01CE010E960E94BE51BD
:103FE000AE01425F5F4FBE01685E7F4FC6010E9417
:103FF000C9182CA1263479F4D6015B96ED91FC9179
:104000005C97E00FF11F3E96859194919A968C9360
:104010009A979B969C93A4960FB6F894DEBF0FBE1A
:10402000CDBFDF91CF911F910F91FF90EF90DF9067
:10403000CF90BF90AF909F908F907F906F905F9048
:104040000895CF93DF93EC016C89662319F06150DA
:104050000E94B419CE010E943C1E882329F06B8D6A
:104060007C8DCE010E94801E88819981DF91CF9145
:104070000C94C32DCF93DF93EC016C89262F30E095
:104080008A8D90E001972817390724F46F5FCE01DD
:104090000E94B419CE010E943C1E882329F06B8D2A
:1040A0007C8DCE010E94801E88819981DF91CF9105
:1040B0000C94C32D6F927F929F92AF92BF92CF923A
:1040C000DF92EF92FF920F931F93CF93DF931F9294
:1040D000CDB7DEB73C01F62E5A016901E11008C0E8
:1040E00025E0F21609F49BC086E0F81227C19FC0B4
:1040F000DC018D919C910E948F2DB801C3010E941B
:10410000931849EF54E064E272E0C3010E94C918B9
:1041100008E127E44CE062E0F301808191810E9494
:10412000142A09E128E44BE061E0D3018D919C91D0
:104130000E94142A01E122E541E16AE4F301808151
:1041400091810E94C42900E122E540E16AE4D301A3
:104150008D919C910E94C4290FE021E54FE06BE412
:10416000F301808191810E94C4290EE020E54EE098
:104170006CE4D3018D919C910E94C4290DE02FE441
:104180004DE06DE4F301808191810E94C42903E137
:1041900022E543E16AE4D3018D919C910E94C429F8
:1041A00004E122E544E16AE4F301808191810E9407
:1041B000C42905E121E545E16BE4D3018D919C9192
:1041C0000E94C42906E120E546E16CE4F301808108
:1041D00091810E94C42907E12FE447E16DE4D301F6
:1041E0008D919C910E94C4291092B30B90E080E0C5
:1041F00008C03D96E491D5012C912E1301C0982F53
:104200008F5FF601B0E18B9FE00DF11D1124249129
:104210002111EFCF9093B30B8093B40B61CF8091BA
:10422000B30B882391F081508093B30B0EC0409163
:10423000B30B242F30E08091B40B90E00197281746
:1042400039071CF44F5F4093B30B07E125E44DE0C1
:1042500063E0F301808191810E946B2A34E000E0E9
:1042600010E08091B30BF60120E1829FE00DF11D7B
:104270001124E00FF11F24914FE0632FD3018D91A2
:104280009C9139830E945E280F5F1F4F39813A5FEE
:10429000363439F703E223E54EE160E0F301808133
:1042A00091810E946B2A8091B30BF60120E1829FDD
:1042B000E00DF11D11243E96859194918C01912C75
:1042C000E12C07C0692D6E0D4EE10E94D927980E92
:1042D000E394F801EE0DF11D2491D3018D919C9191
:1042E0002111F0CF0E94C32DB2E0FB1641F0E3E0B4
:1042F000FE1619F0F1E0FF121FC081E022C080918C
:10430000B30B20E1829FC00CD11C1124F6013D9615
:10431000E491D501EC9341E069E172E0C3010E94B0
:10432000D71988E893E128EC30E0F9013197F1F7EB
:104330000197D9F782E005C080E003C0E11085CF86
:10434000D3CF0F90DF91CF911F910F91FF90EF90FE
:10435000DF90CF90BF90AF909F907F906F90089527
:10436000AF92BF92CF92EF92FF920F931F93CF9392
:10437000DF9300D0CDB7DEB75C01DC0112968D91E2
:104380009C9113970E944815F82EF501858D811197
:104390000DC08F2D8150823048F422A533A5211500
:1043A000310521F037A326A384E0858FD5015E96E1
:1043B0009C91992319F081E080931E01F501858D70
:1043C000833009F477C020F4813079F1D8F509C041
:1043D000853009F450C008F4B1C0863009F0C2C07D
:1043E00031C0992311F081E0858FB4E0FB16A9F06C
:1043F000BF1520F0E3E0FE12B5C013C0F5E0FF16D4
:1044000021F086E0F812AEC004C0C5010E94212050
:10441000A9C0C5010E943A20A5C0C5010E94611D26
:10442000A1C0C5010E94611E9DC080931E01638DC5
:10443000748DC5010E94801EF501808191810E94CA
:10444000C32D90C08501095C1F4F9501245D3F4F2E
:10445000D50190964D915C919197C0901E015F9609
:10446000EC906F2DC5010E945C1A10921E018823EA
:1044700009F478C074C08501045D1F4F24A135A1E3
:1044800042A153A1E0901E016F2DC5010E945A2048
:1044900010921E01882309F465C0823009F05FC0C4
:1044A000D5019896ED91FC919997309709F457C0F2
:1044B000099555C080911E01882341F060A171A12A
:1044C00042E050E081EA9BE00E9482548501095C51
:1044D0001F4F9501245D3F4FC0901E01F501E78CF1
:1044E00041EA5BE06F2DC5010E945C1A10921E012B
:1044F0008823C1F18230E9F4D50190966D917C91C9
:10450000919742E050E0CE0101960E9482542981A9
:104510003A818091A10B9091A20B2817390749F09D
:10452000F50160A171A142E050E081EA9BE00E94A8
:104530009A5481E0D5015D968C9314C006A0F7A132
:10454000E02D60911E018F2D099510921E01882388
:1045500049F0833021F481E080931E0103C081E0A3
:10456000F501858FD5015D968C918111F12CF501B6
:10457000168E8F2D0F900F90DF91CF911F910F917D
:10458000FF90EF90CF90BF90AF9008958F929F9241
:10459000BF92CF92DF92EF92FF920F931F93CF9330
:1045A000DF931F92CDB7DEB74C01162F7A01690158
:1045B000B02E002311F1FC01808191810E948F2D8A
:1045C000B601C4010E94931849EF54E064E272E01E
:1045D000C4010E94C91808E121E54CE061E0F40142
:1045E000808191810E94142A09E122E54BE060E07C
:1045F000F401808191810E94142A143099F018F4FA
:104600001330E1F505C0153039F11630B9F513C096
:104610008091B50B882311F0815001C08AE080930E
:10462000B50B2EC08091B50B8A3010F48F5FF7CF99
:104630001092B50B25C08091B50BF701E80FF11D65
:1046400080818B3510F080E480838081813410F08C
:10465000815012C08AE510C08091B50BF701E80FB8
:10466000F11D8081813410F48BE5808380818B354E
:1046700010F48F5F01C081E4808302C0BB20B1F1E0
:1046800007E12FE44DE062E0F401808191810E9416
:104690006B2ABE2C670133E0FC2CFB18F60121913C
:1046A0006F01822F81548A3108F020E24FE0632F9E
:1046B000F4018081918139830E945E288091B50B3D
:1046C0003981F8120BC0232F2A5F06E14EE0632FD9
:1046D000F401808191810E94432A3981395F30350C
:1046E000D9F6F401808191810E94C32D11501230BE
:1046F00030F4E12FF0E0E95CFE4F808101C080E002
:104700000F90DF91CF911F910F91FF90EF90DF906D
:10471000CF90BF909F908F900895279A2F9A0895D9
:10472000CB01F89469E170E00E94705180E090E064
:1047300030E22F98232F2A95F1F72F9A232F2A95CD
:10474000F1F7019668177907A0F778940895CB01DF
:104750006AE170E00E94705180E090E032E2F894EB
:104760002F98232F2A95F1F72F9A232F2A95F1F7C7
:10477000789401966817790790F708954F925F92A1
:104780006F927F928F929F92AF92BF92CF92DF9261
:10479000EF92FF920F931F93CF93DF93CDB7DEB7C6
:1047A000A1970FB6F894DEBF0FBECDBF8C01FC0100
:1047B0008081882331F0F8018081813009F044C084
:1047C00023C080E190E038E2F8942F98232F2A95B7
:1047D000F1F72F9A232F2A95F1F778940197A1F7F3
:1047E00084E499E30197F1F780E190E038E2F894EE
:1047F0002F98232F2A95F1F72F9A232F2A95F1F737
:1048000078940197A1F7D7CF60ED77E0C8010E94B7
:1048100090238CE699ED0197F1F766E871E0C80105
:104820000E94902388E59CE00197F1F76AE971E026
:10483000C8010E94902388EF9BE10197F1F760E99E
:1048400071E0C8010E949023F8018081853031F029
:10485000F8018081843009F058C01DC068EC72E313
:10486000C8010E94A72380E797E10197F1F7B7E01D
:10487000EB2EF12C80EDC82E87E0D82E68EE73E089
:10488000C8010E94A723C6010197F1F7F1E0EF1AD2
:10489000F108A1F7DDCF80E2E9E3F1E0DE01119656
:1048A00001900D928A95E1F76CE073E2C8010E94D5
:1048B000902380E492E20197F1F760E772E0C8018B
:1048C0000E949023EE24E394F12CEC0EFD1E6E0169
:1048D00081E2C80ED11CF0E8AF2EFCE0BF2EA0EDA7
:1048E0008A2EA3E09A2EF70181917F01811102C0E7
:1048F000C40101C0C5010197F1F768E572E0C80184
:104900000E949023EC14FD0471F7F801808183303C
:10491000C1F581E2E9E5F1E0DE01119601900D9229
:104920008A95E1F766EA7EE0C8010E94A72384EC3D
:104930009EE00197F1F7EE24E394F12CEC0EFD1EBE
:104940006E01F2E2CF0ED11C6CE2A62E6BE0B62E09
:104950007EEC872E73E0972EF70181917F0168EC42
:1049600071E0811105C0C8010E94A723C40104C0E1
:10497000C8010E94A723C5010197F1F7EC14FD04BB
:1049800059F7F8018081823009F03FC024E1EAE75D
:10499000F1E0CE010196DC0101900D922A95E1F73C
:1049A00023E0C22ED12C34E1A32E35E0B32E582EB5
:1049B000492E3E01F5E16F0E711C40E2842E4EE45B
:1049C000942E60E179E0C8010E949023C50101970F
:1049D000F1F7E52CF42CF70181917F01811103C0DF
:1049E0006FE372E002C067E974E0C8010E9490239F
:1049F000C5010197F1F7E614F70469F7C4010197BF
:104A0000F1F7F1E0CF1AD108E1F6A1960FB6F894CC
:104A1000DEBF0FBECDBFDF91CF911F910F91FF90F1
:104A2000EF90DF90CF90BF90AF909F908F907F904E
:104A30006F905F904F9008955F926F927F928F92E8
:104A40009F92AF92BF92CF92DF92EF92FF920F931D
:104A50001F93CF93DF93CDB7DEB7A1970FB6F8942E
:104A6000DEBF0FBECDBF8C01FC018081811120C053
:104A7000F89480E190E038E22F98232F2A95F1F7FF
:104A80002F9A232F2A95F1F70197B1F780EE99E23B
:104A90000197F1F780E190E038E22F98232F2A95D3
:104AA000F1F72F9A232F2A95F1F70197B1F7789410
:104AB000F80180818330C1F581E2EEE8F1E0DE01AA
:104AC000119601900D928A95E1F766EA7EE0C801A1
:104AD0000E94A72384EC9EE00197F1F7EE24E39473
:104AE000F12CEC0EFD1E6E01F2E2CF0ED11C6CE239
:104AF000A62E6BE0B62E7EEC872E73E0972EF70184
:104B000081917F0168EC71E0811105C0C8010E94AC
:104B1000A723C40104C0C8010E94A723C5010197AF
:104B2000F1F7EC14FD0459F7F8018081823009F0A7
:104B30003CC024E1EFEAF1E0CE010196DC010190F6
:104B40000D922A95E1F723E0722E34E1C32E35E071
:104B5000D32E682E592E4E01F5E18F0E911C40E2A6
:104B6000A42E4EE4B42E60E179E0C8010E949023A7
:104B7000C6010197F1F7E62CF52CF70181917F0131
:104B8000811103C06FE372E002C067E974E0C801FD
:104B90000E949023C6010197F1F7E814F90469F720
:104BA000C5010197F1F77A94F1F6A1960FB6F89442
:104BB000DEBF0FBECDBFDF91CF911F910F91FF9050
:104BC000EF90DF90CF90BF90AF909F908F907F90AD
:104BD0006F905F9008956F927F928F929F92AF92A5
:104BE000BF92CF92DF92EF92FF920F931F93CF93DA
:104BF000DF93CDB7DEB7A0970FB6F894DEBF0FBE38
:104C0000CDBF8C013B01FC018081843009F07BC069
:104C100080E2E3ECF1E0DE01119601900D928A95BD
:104C2000E1F768E273E2C8010E94902388E293E210
:104C30000197F1F764EF71E0C8010E949023EE2420
:104C4000E394F12CEC0EFD1E6E01F1E2CF0ED11CAF
:104C5000B8EBAB2EBBE0BB2E88EE882E83E0982EFF
:104C6000F70181917F01811102C0C40101C0C5011A
:104C70000197F1F764EF71E0C8010E949023EC14F2
:104C8000FD0471F780E991E028EC30E0F9013197FB
:104C9000F1F70197D9F793012536310510F024E695
:104CA00030E044E3429FC001439F900D112464E62D
:104CB00070E00E9470517B01FFEFEF1AFF0A992408
:104CC0009394E0EACE2EEFE0DE2EF8ECAF2EB12C7E
:104CD00015C068E273E2C8010E949023C6010197E3
:104CE000F1F764EF71E0C8010E94902380EC93E03B
:104CF000F5013197F1F70197D9F79394892D90E059
:104D00008E159F0530F3A0960FB6F894DEBF0FBE48
:104D1000CDBFDF91CF911F910F91FF90EF90DF906A
:104D2000CF90BF90AF909F908F907F906F9008959D
:104D30006F927F928F929F92AF92BF92CF92DF92AB
:104D4000EF92FF920F931F93CF93DF93CDB7DEB710
:104D5000A0970FB6F894DEBF0FBECDBF8C013B010C
:104D6000FC018081843009F07BC080E2E3EEF1E059
:104D7000DE01119601900D928A95E1F768E273E2E7
:104D8000C8010E94902388E293E20197F1F764EF53
:104D900071E0C8010E949023EE24E394F12CEC0E04
:104DA000FD1E6E01F1E2CF0ED11C48EBA42E4BE0AC
:104DB000B42E58EE852E53E0952EF70181917F0198
:104DC000811102C0C40101C0C5010197F1F764EF70
:104DD00071E0C8010E949023EC14FD0471F780E992
:104DE00091E028EC30E0F9013197F1F70197D9F71C
:104DF00093012536310510F024E630E046E4429F69
:104E0000C001439F900D112464E670E00E94705130
:104E10007B01FFEFEF1AFF0A9924939490EAC92EC1
:104E20009FE0D92E28ECA22EB12C15C068E273E2C7
:104E3000C8010E949023C6010197F1F764EF71E069
:104E4000C8010E94902380EC93E0F5013197F1F7BF
:104E50000197D9F79394892D90E08E159F0530F333
:104E6000A0960FB6F894DEBF0FBECDBFDF91CF91F5
:104E70001F910F91FF90EF90DF90CF90BF90AF9078
:104E80009F908F907F906F9008958D982D980895A2
:104E900008956435D8F44033C8F4E42FF0E023E0FB
:104EA000F595E7952A95E1F726E0629FE00DF11D63
:104EB0001124E80FF91F477081E090E0042E01C033
:104EC000880F0A94EAF79081982B908308956435AF
:104ED000E0F44033D0F4E42FF0E033E0F595E795CB
:104EE0003A95E1F726E0629FE00DF11D1124E80FED
:104EF000F91F477081E090E0042E01C0880F0A94EA
:104F0000EAF780959081892380830895E42FF0E06B
:104F100053E0F595E7955A95E1F726E0629FE00D9D
:104F2000F11D1124E80FF91F808190E0477002C045
:104F3000959587954A95E2F7817008950F931F9391
:104F4000CF93DF93EC01162F042F0E948627402F6A
:104F5000612F882339F0CE01DF91CF911F910F91FE
:104F60000C946727CE01DF91CF911F910F910C9484
:104F70004927DB0180E019C0E03211F48E5F15C0D3
:104F8000EE3299F09E2F90539A3010F48D5F0DC041
:104F9000EB3508F0E052E15496E0E99FF00111246E
:104FA000E95BF24FE4918E0F8F5FED91E111E4CF59
:104FB00008956F927F928F929F92AF92BF92CF92FD
:104FC000DF92EF92FF920F931F93CF93DF936C01C9
:104FD000862E742E203209F443C02E3209F442C0CA
:104FE000822F80538A3010F4265106C02B3508F0EA
:104FF000205221542B35B0F586E0289F90011124D2
:10500000F901E95BF24F949000E010E068E4A62E0D
:105010006DE0B62EA20EB31E1EC0F501E00FF11F0B
:10502000E490C0E0D0E0F12C682E680C97010C2EC3
:1050300002C0359527950A94E2F720FF06C04C2F51
:10504000470D662DC6010E9449272196C530D1051E
:1050500069F70F5F1F4F802F0915F8F2892D03C0E4
:1050600082E001C080E0DF91CF911F910F91FF900E
:10507000EF90DF90CF90BF90AF909F908F907F90F8
:105080006F900895EF92FF920F931F93CF93DF934A
:105090008C01F62EE42EE90107C04E2D6F2DC801BC
:1050A0000E94D927F80EF39429912111F6CFDF91B0
:1050B000CF911F910F91FF90EF9008957F928F9263
:1050C0009F92AF92BF92CF92DF92EF92FF920F9397
:1050D0001F93CF93DF935C01962E842E205286E09F
:1050E000289F70011124C0E0D0E08FE19EE0E80E1F
:1050F000F91EF701EC0FFD1FC49000E010E0D12C69
:105100007C2E790CC601002E02C0959587950A94D5
:10511000E2F780FF06C0482D400F672DC5010E94B1
:1051200049270F5F1F4F0830110561F72196C630E0
:10513000D105F9F6DF91CF911F910F91FF90EF907C
:10514000DF90CF90BF90AF909F908F907F90089509
:105150008F929F92AF92CF92DF92EF92FF921F9326
:10516000CF93DF936C01162FA42EE9012A3031056D
:1051700090F02436310510F41A5F0DC0283E83E00C
:10518000380710F4145F07C0203187E2380710F4A5
:105190001E5E01C0185E7AE0872E912CCE01B4010C
:1051A0000E9470517C01282F205D4A2D612FC6017D
:1051B0000E945E28CE018E199F09B4010E94705191
:1051C000EB011650209751F7DF91CF911F91FF907F
:1051D000EF90DF90CF90AF909F908F900895CF92F7
:1051E000DF92FF920F931F93CF93DF931F92CDB760
:1051F000DEB78C01562FF42E690108C04F2D652FA4
:10520000C80159830E945E2859815A5FF601219195
:105210006F012111F3CF0F90DF91CF911F910F916B
:10522000FF90DF90CF9008952F923F924F925F9220
:105230006F927F928F929F92AF92BF92CF92DF92A6
:10524000EF92FF920F931F93CF93DF931F92CDB7EF
:10525000DEB73C01562E342F2E3231F02B3231F096
:105260002D3231F02F7005C02AE003C02BE001C0C1
:105270002CE083E0289F50011124E4E0AA0CBB1C21
:10528000EA95E1F7E12CF12C2EC0F601E20DF31DB9
:10529000849000E010E0912C422C450CC401002EBB
:1052A00002C0959587950A94E2F780FF08C0432FC6
:1052B000400F642DC30139830E94492739810F5F54
:1052C0001F4F0830110551F79FEF291A390AE0E105
:1052D0002E163104D1F6385FF0E1EF0EF11C80E3B9
:1052E000E816F10451F06701CA0CDB1C212C312CAB
:1052F000E7E4F0E1CE0EDF1EC8CF0F90DF91CF9133
:105300001F910F91FF90EF90DF90CF90BF90AF90E3
:105310009F908F907F906F905F904F903F902F90D5
:105320000895CF92DF92FF920F931F93CF93DF9355
:105330001F92CDB7DEB78C01562FF42E690108C03D
:105340004F2D652FC80159830E9414295981505F40
:10535000F60121916F012111F3CF0F90DF91CF91D1
:105360001F910F91FF90DF90CF900895222339F085
:10537000213019F02F3F39F404C00C9449270C94C4
:1053800067270C949E270895AF92BF92CF92DF9229
:10539000EF92FF920F931F93CF93DF93EC01F62EC2
:1053A000E42E122F161B041BBB24B394111101C051
:1053B000B12CCC24C394011101C0C12C4E2D6F2DF2
:1053C000CE010E944927101798F0D12ED694A12C17
:1053D0000CC0D00ED11610F0D11AEC0CFB0C4E2DD7
:1053E0006F2DCE010E944927A394A112F2CF11C0C4
:1053F000D02ED694A12CD10ED01610F0D01AFB0CC2
:10540000EC0C4E2D6F2DCE010E944927A394A012C3
:10541000F2CFDF91CF911F910F91FF90EF90DF902E
:10542000CF90BF90AF900895DF92EF92FF920F93CD
:105430001F93CF93DF93EC01F62ED42EE22E102F84
:10544000042F0E94C429012F2E2D4D2D6E2DCE012B
:105450000E94C4292F2D4D2D6F2DCE010E94C429ED
:105460002E2D412F6F2DCE010E94C429DF91CF91A7
:105470001F910F91FF90EF90DF90089581E06111EF
:1054800001C080E00895CF92DF92EF92FF920F93D8
:105490001F93CF93DF931F92CDB7DEB76C01E42E3D
:1054A000F62E0BC0412F6F2DC60129830E949E2727
:1054B0001F5F29810117B0F7F3942F1510F01E2DEF
:1054C000F9CF0F90DF91CF911F910F91FF90EF9047
:1054D000DF90CF900895CF92DF92EF92FF920F93DB
:1054E0001F93CF93DF931F92CDB7DEB76C01E42EED
:1054F000F62E0BC0412F6F2DC60129830E9467270E
:105500001F5F29810117B0F7F3942F1510F01E2D9E
:10551000F9CF0F90DF91CF911F910F91FF90EF90F6
:10552000DF90CF9008954F925F926F927F928F920B
:105530009F92AF92BF92CF92DF92EF92FF920F9322
:105540001F93CF93DF931F92CDB7DEB72C01762E3A
:10555000642E690182E5E81202C0EAEF07C02A3032
:105560003105A8F02436310518F4E6E07E0E0FC0B0
:10557000283EF3E03F0710F48CE008C02031E7E25A
:105580003E0718F4F2E17F0E02C088E1780E043580
:1055900029F1053521F0063409F040C1ACC030E0F6
:1055A0000AE010E0C601B8010E9470517C01282F6A
:1055B000205D462D672DC20139830E945E28C601F9
:1055C0008E199F09B8010E9470516B01EAEF7E0E9F
:1055D00039813F5F6115710529F721C10CE3E02E88
:1055E000F12CC601B7010E9470515C01C6018A19F5
:1055F0009B09B7010E9470514B010AE010E0C50100
:10560000B8010E9470516C01282F205D462D672D36
:10561000C2010E945E28C5018C199D09B8010E9433
:105620007051262F205D672D6650462DC2010E94C5
:105630005E28672D6C502AE3462DC2010E945E2829
:10564000C401B7010E9470516C01C4018C199D09FD
:10565000B7010E9470515B01C601B8010E947051F0
:105660007C01282F205D672D6251462DC2010E94CA
:105670005E28372D3851C6018E199F09B8010E9446
:105680007051262F611102C013E001C014E0205DAB
:10569000462D632FC2010E945E28672D6E512AE3BA
:1056A000462DC2010E945E28372D3452C5016CE39D
:1056B00070E00E9470516AE070E00E9470518111A8
:1056C00016E0282F205D462D632FC2010E945E2820
:1056D000672D6A52062D095F87E090E0811B282F15
:1056E000220F280F220F260F462DC2010E946B2A7F
:1056F00037E0311B94C028E532E0C601B9010E94B1
:1057000070517C01C6018E199F09B9010E94705128
:105710005B010AE010E0C701B8010E9470516C0102
:10572000282F205D462D672DC2010E945E28672D1F
:1057300066502EE2462DC2010E945E28C7018C19D8
:105740009D09B8010E9470517B01CB01B8010E94F4
:1057500070516C01282F205D672D6C50462DC201C1
:105760000E945E28372D3251C7018C199D09B8015E
:105770000E947051262F611103C012E0D12E02C089
:10578000B3E0DB2E205D462D632FC2010E945E2810
:10579000672D68512AE3462DC2010E945E28372DED
:1057A0003E51C50168E572E00E9470518C016AE0CB
:1057B00070E00E9470517C01282F882311F0A5E031
:1057C000DA2E205D462D632FC2010E945E28372D00
:1057D0003452C8018E199F096AE070E00E9470512E
:1057E000262F662311F0F6E0DF2E205D462D632F75
:1057F000C2010E945E28672D6A52062D095F87E06C
:1058000090E08D19282F220F280F220F260F462DEA
:10581000C2010E946B2A37E03D1901C030E0832F9E
:105820000F90DF91CF911F910F91FF90EF90DF903C
:10583000CF90BF90AF909F908F907F906F905F9030
:105840004F9008952F923F924F925F926F927F9266
:105850008F929F92AF92BF92CF92DF92EF92FF9280
:105860000F931F93CF93DF9300D000D01F92CDB73B
:10587000DEB7282E592F362EF9018491B9016E5FBB
:105880007F4F7D836C8331962491311002C0442375
:1058900091F030E0590193E0B594A7949A95E1F71F
:1058A000742F412C982F930D99834901840E911CDC
:1058B000682E712C5DC0843561F7203351F7222D9D
:1058C000392F66E019C0FA014F5F5F4FE491D901AB
:1058D000A80FB91FEC930696883FE1E09E0799F761
:1058E0008C819D818C5A9F4F9D838C8361502F5F4B
:1058F0003F4F662309F445C04C815D8180E090E014
:10590000E2CFF7019FEFE91AF90AC49000E010E036
:10591000D12C472F400F242F30E082169306BCF085
:105920009601002E02C0359527950A94E2F7652D61
:10593000822D952F5B837A8320FF05C00E94492723
:105940005B817A8104C00E9467277A815B810F5F47
:105950001F4F08301105E9F65394E9815E12D1CF4B
:105960008C819D81860D971D9D838C834394785FE8
:10597000242D30E02A153B0524F4532CEC80FD80C7
:10598000ECCF0F900F900F900F900F90DF91CF9171
:105990001F910F91FF90EF90DF90CF90BF90AF904D
:1059A0009F908F907F906F905F904F903F902F903F
:1059B00008955F926F927F928F929F92AF92BF9263
:1059C000CF92DF92EF92FF920F931F93CF93DF93CB
:1059D000EC01F62E042FE22ED62ED21A6D2D0E9447
:1059E0004927B02EBE184B2D6F2DCE010E9449279E
:1059F000CE2CCF0C402F6C2DCE010E944927AE2C0F
:105A0000A00E4A2D6F2DCE010E94492711E001C042
:105A1000182F5E2C511A8A2C811A712E7F0C482D5A
:105A2000672DCE010E9449276B2C610E9F2C911A85
:105A3000462D692DCE010E944927462D672DCE01A6
:105A40000E944927482D692DCE010E944927812EA9
:105A5000800E7C2C711A482D672DCE010E9449279B
:105A6000602E611A9D2C910E462D692DCE010E944B
:105A70004927462D672DCE010E944927482D692DC3
:105A8000CE010E944927812F8F5F511608F6DF91C2
:105A9000CF911F910F91FF90EF90DF90CF90BF902B
:105AA000AF909F908F907F906F905F9008958F92AE
:105AB0009F92AF92BF92CF92DF92EF92FF92862E8B
:105AC000912CA12CB12CA0E2B0E8A50194010E9478
:105AD00055516B017C0180E4C82284E8D82288E01B
