:100000000C9453090C9482090C9482090C94820973
:100010000C9482090C9482090C9482090C94820934
:100020000C9482090C9482090C94883F0C948209E8
:100030000C9482090C9460140C9482090C9482092B
:100040000C9482090C9482090C9482090C94820904
:100050000C9482090C9482090C9482090C948209F4
:100060000C9482090C9482090C9482090C948209E4
:100070000C9482090C9482090C9482090C948209D4
:100080000C9482090C9482090C9482090C948209C4
:100090000C940D480C9482091E03540069006D00F5
:1000A00065006C0061007000730065002B0020008B
:1000B00043004400430000001C0345006C0069003D
:1000C0006A006100680020005000610072006B004F
:1000D0006500720000000403090409023E000201E9
:1000E00000C03209040000010202010005240010D2
:1000F0000104240206052406000107058203080006
:10010000FF09040100020A000000070504021000B4
:10011000010705830210000112011001020000080E
:10012000EB03442001000102DC0152657472696531
:1001300076696E672044657669636520496E666FEF
:100140002E2E2E0D0A004465766963652041747475
:1001500061636865642E0D0A000D0A446576696363
:100160006520556E61747461636865642E0D0A00C4
:1001700047657474696E6720436F6E6669672044D3
:100180006174612E0D0A00436F6E74726F6C2045AE
:1001900072726F72202847657420436F6E666967BC
:1001A00075726174696F6E292E0D0A00496E766151
:1001B0006C6964204465766963652E0D0A00202D04
:1001C0002D204572726F7220436F64653A2025645A
:1001D0000D0A00436F6E74726F6C204572726F72FD
:1001E000202853657420436F6E6669677572617469
:1001F000696F6E292E0D0A202D2D204572726F72A7
:1002000020436F64653A2025640D0A005374696CBD
:100210006C20496D6167652044657669636520459A
:100220006E756D6572617465642E0D0A00486F739A
:1002300074204D6F6465204572726F720D0A202D17
:100240002D204572726F7220436F64652025640D06
:100250000A0044657620456E756D204572726F7296
:100260000D0A202D2D204572726F7220436F646538
:100270002025640D0A202D2D2053756220457272B1
:100280006F7220436F64652025640D0A202D2D2098
:10029000496E2053746174652025640D0A00546111
:1002A0006B696E6720706963747572652E2E2E0DF2
:1002B0000A004572726F7220380D0A004368616E41
:1002C00067696E672050726F70657274792E2E2E7A
:1002D0000D0A004572726F7220390D0A0045727264
:1002E0006F722031320D0A004572726F7220310D2B
:1002F0000A002020204D616E756661637475726519
:10030000723A2025730D0A002020204D6F64656C21
:100310003A2025730D0A0020202044657669636524
:100320002056657273696F6E3A2025730D0A0D0AA7
:10033000004572726F7220320D0A004F70656E694F
:100340006E672053657373696F6E2E2E2E0D0A0033
:100350004572726F7220340D0A00436C6F73696EC0
:10036000672053657373696F6E2E2E2E0D0A00453C
:1003700072726F7220360D0A00446F6E652E0D0A80
:1003800000436F6D6D616E64204572726F7220283C
:100390002553292E0D0A202D2D204572726F7220B3
:1003A000436F64652025640D0A00526573706F6E9B
:1003B000736520436F646520213D204F4B005472CC
:1003C000616E73616374696F6E204661696C00547D
:1003D0007269676765722020202020004DFB0400B1
:1003E000001D0154696D656C6170736520202000EB
:1003F0004D370500001C01436F6E6E65637420204D
:10040000202020004D9F0600000000536574746991
:100410006E677320202020004DDB060000000000E6
:100420002020202020202020202020005600000016
:1004300000000053746F702054696D6572202000B5
:1004400046FB090000720B416464204B65796672BB
:10045000616D65004684090000820B44656C204B89
:1004600065796672616D650046280B0000810B5648
:100470006965772044657461696C7300464E0C00B1
:100480000000004C6F61642053617665642E2E007D
:10049000460F0A00001D01536176652041732E2E20
:1004A00020202000469D0E0000000053617665204C
:1004B000202020202020200046420B00001C0B534F
:1004C0006176652044656661756C740046650B0055
:1004D00000000052657665727420202020202000E4
:1004E00046D00900001D01004F5054494F4E5300A3
:1004F0002020200046F309B707BE074361626C6500
:100500002052656D6F746500464E0D00001D014957
:10051000522052656D6F746520202000466E0E00DB
:10052000001D01002020202020202020202020004D
:10053000560000000000004D6F6465202020202040
:1005400020202A0053BF07300B000044656C6179FE
:10055000202020202020540045280B0F08000046B2
:1005600072616D657320202020205500452A0B18EC
:10057000081B01496E7472766C20202020204600F2
:10058000452C0B2308860B4844522045787027736E
:1005900020205500452E0B2308840B536875747476
:1005A000657220202020460045320B2308840B531F
:1005B00068757474657220202020460045320B2334
:1005C000081A014844522045562B2F2D2020550053
:1005D00045340B2B08840B42756C6220312020209F
:1005E0002020460045360B2308830B2A4B657920D3
:1005F0002020202020205400454A0B4308830B4232
:10060000756C6220322020202020460045380B23C4
:1006100008830B2A4B6579202020202020205400BD
:10062000454C0B43087F0B42756C62203320202021
:1006300020204600453A0B23087F0B2A4B65792082
:100640002020202020205400454E0B43087E0B42E2
:10065000756C62203420202020204600453C0B236E
:10066000087E0B2A4B657920202020202020540072
:1006700045500B43087D0B42756C622035202020CD
:1006800020204600453E0B23087D0B002020202023
:10069000202020202020200046DC0E4F0857084252
:1006A0006C7565746F6F746820202000460E0C0016
:1006B00000750855534220202020202020202000B3
:1006C00046870B0000000000202020202020202052
:1006D000202020005600000000000053797374654C
:1006E0006D20496E666F2000469F11000000004C8F
:1006F000434420436F6C6F7220202000535D08D468
:100700000B58364C434420424C2054696D65200000
:10071000538D08D50B5836505752204175746F20B1
:100720004F66660053FD08D60B58364C45442041B1
:1007300075746F204F666600535D09D70B583642BB
:10074000756C62204D6F64652020200053CD09D266
:100750000B583643616D657261204650532020006E
:1007600053FD09C50B583643616D657261204D61BB
:100770006B65200053AD0AD30B5836446576204D87
:100780006F6465204C454400533D0BDC0B583644E8
:100790006576656C6F706D656E7420004D6D0B0035
:1007A00000000000202020202020202020202000E9
:1007B0005600000000000052455455524E000054AF
:1007C000696D652D6C6170736520200001210C48F6
:1007D000445220542D6C61707365200003310C4825
:1007E00044522050686F746F20202000023F0C425A
:1007F000756C622D72616D702020200005500C0018
:100800002020202020202020202020000000006820
:10081000683A6D6D3A7373003020666F7220696EAE
:10082000662E006D6D3A73732E730053746F707380
:10083000206265747765656E206578706F73757278
:1008400065730053696E6365207374617274004F41
:100850005054494F4E530053544152540057686905
:1008600074652020202020202000005E0C5265644A
:1008700020202020202020202000015E0C002020AD
:1008800020202020202020202000000000313020C7
:100890005365636F6E6473202000016E0C3330204B
:1008A0005365636F6E6473202000036E0C31204D1E
:1008B000696E7574652020202000066E0C32204D74
:1008C000696E75746573202020000C6E0C35204D08
:1008D000696E75746573202020001E6E0C31302007
:1008E0004D696E757465732020003C6E0C002020ED
:1008F0002020202020202020200000000031204D3A
:10090000696E757465202020200006800C32204D11
:10091000696E75746573202020000C800C35204DA5
:10092000696E75746573202020001E800C313020A4
:100930004D696E757465732020003C800C33302047
:100940004D696E75746573202000B4800C00202002
:1009500020202020202020202000000000313020F6
:100960005365636F6E647320200001920C33302056
:100970005365636F6E647320200003920C31204D29
:10098000696E757465202020200006920C32204D7F
:10099000696E75746573202020000C920C35204D13
:1009A000696E75746573202020001E920C31302012
:1009B0004D696E757465732020003C920C002020F8
:1009C00020202020202020202000000000537461DF
:1009D0006E64617264202020200000A40C4D6F6DB5
:1009E0002E20546F67676C65200001B70C00202033
:1009F0002020202020202020200000000031204640
:100A00005053202020202020200065CA0C32204690
:100A10005053202020202020200033CA0C332046B1
:100A20005053202020202020200022CA0C342046B1
:100A3000505320202020202020001ACA0C352046A8
:100A40005053202020202020200015CA0C3620469C
:100A50005053202020202020200011CA0C3720468F
:100A6000505320202020202020000FCA0C38204680
:100A7000505320202020202020000DCA0C3130208F
:100A8000465053202020202020000BCA0C31322059
:100A90004650532020202020200009CA0C0020208E
:100AA000202020202020202020000000004F7468FB
:100AB00065722020202020202000FEDC0C43616E87
:100AC0006F6E202020202020200000F10C4E696B4A
:100AD0006F6E202020202020200001F10C4D696E37
:100AE0006F6C746120202020200003F10C4F6C7982
:100AF0006D70757320202020200004F10C50656E6D
:100B00007461782020202020200005F10C536F6EA6
:100B10007920202020202020200002F10C50616E3E
:100B200061736F6E69632020200006F10C002020A5
:100B3000202020202020202020000000004F66667A
:100B40002020202020202020200000FD0C4F6E209F
:100B5000772F42756C622020200001100D002020AC
:100B60002020202020202020200000000053687535
:100B70007474657220546573740046D40D00001DB2
:100B80000153687574746572204C61672000469744
:100B90000C00001D01495220546573742020202050
:100BA0002000466E0E00001D013420486F75722033
:100BB0004C6967687400464C3900001D0153797315
:100BC00020537461747573202000467C130000006C
:100BD000004261747465727920202020200046C88C
:100BE0000F000000004C69676874204D65746572E1
:100BF000200046E61000000000506F776572204F1D
:100C000066662020200046F016000000000020202C
:100C1000202020202020202020005600000000005E
:100C20000042617369632054696D656C617073651E
:100C3000004844522054696D656C617073650053BF
:100C4000696E676C652048445220496D6167650094
:100C500052616D70206578706F73757265004261C6
:100C6000636B6C6967687420636F6C6F72004261BC
:100C7000636B6C69676874206F6E2074696D6500C2
:100C80004175746F20707772206F66662074696D8D
:100C900065004C4544206175746F206F6666207452
:100CA000696D6500486F6C64732073687574746552
:100CB0007220646F776E005072657373206F6E20C0
:100CC0007072657373206F6666004672616D65733E
:100CD00020706572205365636F6E640043686F6FA8
:100CE0007365206966206E6F74206C697374656427
:100CF0000043616D657261206D616B65004C454418
:100D0000206F666620647572696E67207573650072
:100D100053687574746572206C6967687473204CCD
:100D20004544000402040507064D41494E204D4547
:100D30004E5500041E05051E00041F15150A00046B
:100D40000E11111100041F11110E00041F151511B1
:100D500000041F05050100040E11151D00041F04E9
:100D6000041F0003111F1100000408110F010004EB
:100D70001F040A1100041F10101000051F020402B6
:100D80001F041F02041F00040E11110E00041F098E
:100D9000090600040E11191E00041F09091600049B
:100DA000121515090003011F010000040F10100F98
:100DB00000030F100F0000051F0804081F041B0488
:100DC000041B0003031C0300000419151513000382
:100DD0000E150E000003121F10000003191512005B
:100DE000000311150A00000307041F000003171574
:100DF000090000031E151D00000319050300000370
:100E00000A150A00000317150F000000000000007B
:100E1000000000002F000000000700070000147F02
:100E2000147F1400242A7F2A12006264081323000E
:100E3000364955225000000503000000001C2241E5
:100E400000000041221C000014083E08140008089D
:100E50003E0808000000A06000000808080808001C
:100E60000060600000002010080402003E51494567
:100E70003E0000427F40000042615149460021414E
:100E8000454B31001814127F1000274545453900A5
:100E90003C4A494930000171090503003649494976
:100EA0003600064949291E0000363600000000566B
:100EB0003600000008142241000014141414140019
:100EC000004122140800020151090600324959511B
:100ED0003E007C1211127C007F49494936003E4198
:100EE000414122007F4141221C007F494949410084
:100EF0007F09090901003E4149497A007F08080835
:100F00007F0000417F4100002040413F01007F08F9
:100F1000142241007F40404040007F020C027F00CD
:100F20007F0408107F003E4141413E007F090909CE
:100F300006003E4151215E007F09192946004649BD
:100F40004949310001017F0101003F4040403F001D
:100F50001F2040201F003F4038403F00631408140A
:100F60006300070870080700615149454300007F8E
:100F700041410000552A552A55000041417F00009B
:100F8000040201020400404040404000000102040D
:100F900000002054545478007F48444438003844BA
:100FA00044442000384444487F00385454541800C6
:100FB000087E0901020018A4A4A47C007F08040490
:100FC000780000447D4000004080847D00007F1058
:100FD0002844000000417F4000007C041804780091
:100FE0007C0804047800384444443800FC24242459
:100FF000180018242418FC007C0804040800485435
:1010000054542000043F444020003C4040207C00D9
:101010001C2040201C003C4030403C00442810284C
:1010200044001CA0A0A07C004464544C4400000672
:101030000909060080C0E0E060E0E0C08000000038
:1010400000000070FFFF0100000000FFFFFE000035
:10105000000000000F1F3C383038381F0F0300001D
:101060000000000000000080E0E000000000000040
:101070000000000000030303FFFF00000000000069
:1010800000000000003838383F3F38383800000092
:1010900000000000C0C0E06060E0E0C08000000030
:1010A0000000000001000080C0E0F93F1F000000C8
:1010B000000000003C3E3F3F3B39383838380000E4
:1010C00000000000C0E0E06060E0E0C0C0000000A0
:1010D000000000000100003030387DEFCF0000003C
:1010E000000000001C38383030383C1F0F01000071
:1010F000000000000000000080C0E0E000000000F0
:10110000000000E0F0F8DECFC7C1FFFFC0C0000064
:10111000000000000000000000003F3F0000000051
:1011200000000000E0E0E0E0E0E0E0E0E0E00000FF
:10113000000000003F3F3F38383070F0E000000012
:10114000000000001C38383030383C1F0F01000010
:10115000000000000080C0C0E06060E0E00000002F
:10116000000000E0FEFF3739181838F0F0C000002A
:10117000000000000F1F1C383030381F0F07000020
:1011800000000000E0E0E0E0E0E0E0E0E0E000009F
:101190000000000000000080E0F87E1F0701000052
:1011A0000000000000383E1F0701000000000000A2
:1011B0000000000080C0E0E06060E0C0C00000000F
:1011C00000000000CFFF7F38307070FFEFC70000D5
:1011D000000000030F1F3C383030381F1F0F000085
:1011E0000000000080C0E0E060E0E0C0800000009F
:1011F0000000000C3F7FF1E0C0C0E1FFFFFE0000F7
:10120000000000000038303038381E0F07000000A2
:1012100000000000000000000000000000000000CE
:1012200000000000000000000000000000000000BE
:101230000000003C3C3C00000000000000000000FA
:10124000000000000000000000000000000000009E
:1012500000000000004040404040FEFE4040404052
:10126000400000000000000000000F0F0000000020
:10127000000000000000000000000000000000006E
:1012800000000000404040404040000000000000DE
:10129000000000000000000000000000000000004E
:1012A00000000000394F11241FBECFEFD0E2DEBF97
:1012B000CDBF18E0A0E0B1E0ECE3FAEA00E00BBF3C
:1012C00002C007900D92AC32B107D9F71CE0ACE236
:1012D000B8E001C01D92A635B107E1F712E1C6EAF8
:1012E000D2E100E006C022970109FE010BBF0E9477
:1012F000B051C43AD10780E00807A9F70E94C34D56
:101300000C941C550C94000080915E0B90915F0B27
:10131000059708F03FC080915E0B90915F0B892B81
:1013200031F481E090E090935F0B80935E0BE0914D
:101330005E0BF0915F0BA0915E0BB0915F0BAA0F5B
:10134000BB1FA85BB44F8D919C91805F914FEE0FB6
:10135000FF1FE65BF44F91838083E0915E0BF09179
:101360005F0BA0915E0BB0915F0BAA0FBB1FAA5C35
:10137000B44F8D919C91EE0FFF1FE85CF44F918369
:10138000808380915E0B90915F0B019690935F0B31
:1013900080935E0B8DED98E00E94571E81E00895CA
:1013A000CF93DF931F92CDB7DEB7462F662341F070
:1013B0006091730B8CE19BE049830E94A42F4981CB
:1013C00063E072E08DED98E00E94CD19882331F042
:1013D0008DED98E00E94571E81E001C080E00F90E3
:1013E000DF91CF910895813021F48DED98E00E9436
:1013F000571E81E00895462F61111092720B6CE028
:1014000072E08DED98E00E94CD19882331F08DEDCA
:1014100098E00E94571E81E0089580E008952F9281
:101420003F925F926F927F928F929F92AF92BF9204
:10143000CF92DF92EF92FF920F931F93CF93DF93A0
:1014400000D000D0CDB7DEB7182F853031F48091B1
:101450009E0B8823A1F081500FC0863081F48091CB
:101460009E0B482F50E020919F0B30E02150310916
:101470004217530724F48F5F80939E0B03C06623AB
:1014800009F4A1C082E299E00E94852D80919E0B13
:10149000833020F0682E6A946A9401C0612C109207
:1014A0009F0B1C821B8254E4752EE62CF12CC70185
:1014B00004969A83898369E0362E5B80EB81FC81F8
:1014C0007E9E60017F9ED00C1124C601875F9F4FD6
:1014D0000E94885481508E3FE8F503E0A12CB12C86
:1014E000252C23948B809C80FFEF8F1A9F0A261453
:1014F00030F189819A81881599050CF1C5018C0D0F
:101500009D1D875F9F4F0E948854982F91549A3158
:1015100008F080E240919F0B4E19439D402D11240D
:10152000485F282F602F82E299E00E945428909112
:101530009F0B80919E0B981302C05092A00B9FEFBF
:10154000A91AB90A0A5F0B3491F680919F0B8F5F3D
:1015500080939F0BEB81FC813196FC83EB83789722
:1015600009F0ABCF80919E0B861949E0849F402DF6
:101570001124042F015F495F21E562E082E299E0D6
:101580000E94392A64E172E08DED98E00E9489188A
:101590004FE152E064E272E08DED98E00E94BF18E6
:1015A00008E220E043E060E082E299E00E94BA298C
:1015B00023E543E063E582E299E00E94BA2982E2F2
:1015C00099E00E94B92D123059F018F4113049F504
:1015D00005C0133019F0143021F502C081E022C09B
:1015E0006091A00B8CE19BE00E94A42F41E06BE294
:1015F00072E08DED98E00E94CD1980ED97E028EC27
:1016000030E0F9013197F1F70197D9F78DED98E0C6
:101610000E94571E60E08DED98E00E94AA1982E0BA
:1016200001C080E00F900F900F900F90DF91CF914D
:101630001F910F91FF90EF90DF90CF90BF90AF90F0
:101640009F908F907F906F905F903F902F90089524
:1016500080915E0B90915F0B029748F080915E0B3A
:1016600090915F0B019790935F0B80935E0B8DEDD4
:1016700098E00E94571E60E08DED98E00E94AA1944
:1016800081E00895CF93DF931F92CDB7DEB7462F49
:10169000662341F06091730B8CE19BE049830E94CB
:1016A0005B2F498169E172E08DED98E00E94CD19D0
:1016B000882331F08DED98E00E94571E81E001C033
:1016C00080E00F90DF91CF910895CF93DF931F9229
:1016D000CDB7DEB7462F662339F060E08CE19BE0A2
:1016E00049830E945B2F498169E172E08DED98E0AA
:1016F0000E94CD19882331F08DED98E00E94571E8D
:1017000081E001C080E00F90DF91CF910895CF93E9
:10171000C82F611107C09091020C80918F0B981710
:1017200009F46EC09091020C90938F0B992379F17C
:1017300082E299E00E94852D22E332E047E063E0F7
:1017400082E299E00E94E52820E432E04FE063E085
:1017500082E299E00E94E52820E432E047E163E07C
:1017600082E299E00E94E52820E432E04FE163E064
:1017700082E299E00E94E5286EE472E08DED98E047
:101780000E94891841E258E06AE572E02EC082E2C8
:1017900099E00E94852D21E632E047E063E082E295
:1017A00099E00E94E5282FE632E04FE063E082E214
:1017B00099E00E94E5282DE732E047E163E082E20C
:1017C00099E00E94E52820E432E04FE163E082E204
:1017D00099E00E94E5286BE872E08DED98E00E94A8
:1017E000891841E258E064E272E08DED98E00E94D1
:1017F000BF1882E299E00E94B92D81E080937B0BB3
:10180000CC2339F08091020C811105C010927B0B22
:1018100002C080E001C081E0CF910895CF93C82F2E
:101820006623B1F182E299E00E94852D27E932E03A
:1018300047E063E082E299E00E94E52825EA32E091
:101840004FE063E082E299E00E94E52823EB32E07A
:1018500047E163E082E299E00E94E52821EC32E072
:101860004FE163E082E299E00E94E5286FEC72E0CC
:101870008DED98E00E94891841E258E06AE572E037
:101880008DED98E00E94BF1882E299E00E94B92D88
:1018900081E0C11101C080E0CF910895EF920F93D4
:1018A000CF93C82F6623D1F082E299E00E94852D64
:1018B00027ED32E042E161E082E299E00E94E52812
:1018C0006EED72E08DED98E00E9489184AE552E0D5
:1018D00064EE72E08DED98E00E94BF180AE123E506
:1018E00042E164E282E299E00E94612A89EC98E098
:1018F0000E946F16E2E5EE2E06E49B0142E163E5ED
:1019000082E299E00E94892A82E299E00E94B92D40
:10191000C13021F0C23031F481E005C089EC98E09B
:101920000E94E21580E0CF910F91EF9008958F9281
:101930009F92AF92BF92EF920F93CF93DF93C82FF6
:101940006623B1F082E299E00E94852D69EE72E093
:101950008DED98E00E9489184AEF52E062E073E052
:101960008DED98E00E94BF1882E299E00E94B92DA7
:101970008C2F8150823008F083C006E220E542E1DE
:101980006AE082E299E00E94612A29E033E042E1C4
:101990006AE082E299E00E94E528479A3F9A3C98E3
:1019A000449A86988E9A469A3E9A389A409A3D98DA
:1019B000459A28EE33E048EC50E0FA013197F1F710
:1019C00021503109D1F7C23031F0479889EC98E0C5
:1019D0000E94E2151EC0469880E197E228EC30E0B4
:1019E000F9013197F1F70197D9F7EFCF89EC98E03A
:1019F0000E945116683E73408105910550F089ECB4
:101A000098E00E945116EB0184EF91E028EC30E061
:101A100003C03599EBCFF3CFF9013197F1F7019777
:101A2000D9F7479A469A89EC98E00E94E21525C0BA
:101A300089EC98E00E945116693E7340810591053A
:101A4000E0F089EC98E00E9451164B015C01FCE447
:101A5000EF2E05E59E0142E168E382E299E00E94F3
:101A6000892A94014CE168E382E299E00E94892A84
:101A700082E299E00E94B92D05C0359BD9CFE1CF14
:101A8000C33011F080E001C081E0DF91CF910F9170
:101A9000EF90BF90AF909F908F9008950F93CF934A
:101AA000C82F6623E1F010928D0B82E299E00E942C
:101AB000852D61E173E08DED98E00E9489184FE17A
:101AC00053E065E273E08DED98E00E94BF1882E27A
:101AD00099E00E94B92D8CE19BE00E94A32EC130B9
:101AE00071F580918D0B8130B9F0C0938D0B0AE1B7
:101AF0002AE442E168E082E299E00E94612A2AE257
:101B000033E042E168E082E299E00E94E5288CE15E
:101B10009BE00E94B82E0EC010928D0B0AE12AE4C1
:101B200042E168E082E299E00E94612A8CE19BE058
:101B30000E94F62E82E299E00E94B92D31C0C23097
:101B400099F480918D0B813089F010928D0B0AE110
:101B50002AE442E168E082E299E00E94612A8CE195
:101B60009BE00E942B2FE6CFCC23D1F010928D0B5F
:101B70000AE12AE442E168E082E299E00E94612AF7
:101B80008CE19BE00E94A32E82E299E00E94B92D95
:101B9000C33031F48CE19BE00E947C2E81E001C0D7
:101BA00080E0CF910F9108950F93CF93C82F6623B4
:101BB000D1F010928B0B10928C0B82E299E00E9474
:101BC000852D66E373E08DED98E00E94891843E46B
:101BD00053E068E473E08DED98E00E94BF1882E264
:101BE00099E00E94B92DC130D9F480918B0B8130DE
:101BF000B1F1C0938B0B0AE128E342E164E182E298
:101C000099E00E94612A2DE433E042E164E182E23E
:101C100099E00E94E5288CE19BE00E94A32E2DC054
:101C2000C230D9F480918B0B8230C9F0C0938B0BFA
:101C30000AE128E342E164E182E299E00E94612A3C
:101C400024E533E042E164E182E299E00E94E52884
:101C50008CE19BE00E94AE2E10C0CC2391F010923C
:101C60008B0B0AE128E342E164E182E299E00E9401
:101C7000612A8CE19BE00E947C2E82E299E00E9426
:101C8000B92D8CE19BE00E944E2F90918C0B882304
:101C900071F091111CC081E080938C0B2BE533E037
:101CA0004CE166E082E299E00E9438280CC0913055
:101CB00071F410928C0B04E221E54CE166E082E2C3
:101CC00099E00E94612A82E299E00E94B92D81E0A8
:101CD000C33009F080E0CF910F910895CF93C82FC2
:101CE0006623B1F082E299E00E94852D6BE673E0F5
:101CF0008DED98E00E94891845E753E06DE773E0A9
:101D00008DED98E00E94BF1882E299E00E94B92D03
:101D1000C23061F0C33019F0C13061F402C081E01B
:101D20000AC084E798E00E94122504C084E798E086
:101D30000E94B42380E0CF9108950F93CF93C82FD2
:101D4000062F662331F08CE19BE00E94E22F809306
:101D5000910B25E833E042E95BE06C2F8DED98E0D4
:101D60000E94BC22C82F823019F510929D0B62E9A7
:101D70007BE08CE19BE00E94BB516091910B8CE178
:101D80009BE00E945B2F41E069E172E08DED98E0FD
:101D90000E94CD1920ED37E048EC50E0FA01319770
:101DA000F1F721503109D1F78DED98E00E94571ECF
:101DB0008C2FCF910F910895462F61118093900B36
:101DC0008091900B8230D9F46DE873E08DED98E04E
:101DD0000E94CD1980E49FE128EC30E0F9013197B1
:101DE000F1F70197D9F78CE19BE00E94FE2F69E99A
:101DF00072E18DED98E00E945C1983E008958DED0D
:101E000098E00E94511D60E08DED98E00E94AA19B3
:101E100063E374E08DED98E00E94761E82E299E023
:101E20000E94B92D81E00895A89588E10FB6F89435
:101E300080936000109260000FBE2FE088E190E078
:101E40000FB6F894A895809360000FBE20936000B1
:101E50006C98749A0E94C016811102C0649935C0B2
:101E60000E9481160E94623689EC98E00E947815E3
:101E700082E299E00E94342E82E299E09093DE089B
:101E80008093DD0887EB98E09093E0088093DF086B
:101E900083B7817F846083BF83B7816083BF6FEC2A
:101EA00073E08DED98E00E94761E82E299E00E9438
:101EB000B92D0E949F4D0E94034885E798E00E943B
:101EC000F83585E798E00C94A23582E299E00E940B
:101ED000342E0E9433378BE993E00E94FE3688E16E
:101EE0000FB6F89480936000109260000FBE0E94BD
:101EF000F016B6CFEF920F931F93CF93DF93182F67
:101F0000662359F10E94A416EC0182E299E00E9436
:101F1000852D22ED33E042E161E082E299E00E940A
:101F2000E5280CE4E02E05E59E0142E167E382E24C
:101F300099E00E94892A6CED73E08DED98E00E9493
:101F4000891841E258E06AE572E08DED98E00E9460
:101F5000BF1882E299E00E94B92D81E0113009F0AA
:101F600080E0DF91CF911F910F91EF9008950E9433
:101F7000C016833048F4E82FF0E0EE0FFF1FEF5C4F
:101F8000FE4F2081318102C023EE33E0C901089564
:101F9000FF920F931F93CF93DF93F82E0E94411768
:101FA000EC010E94C016482FC45FD14084E28C9F90
:101FB00090018D9F300D1124C90161E970E00E94EC
:101FC0006651162F643228F0413009F472C0643231
:101FD00011F4423009F414E282E299E00E94852D66
:101FE0000E94B70FEC01BC0182E299E00E94AF278A
:101FF000082F0E94C016882349F0069569E2601BED
:102000009E014FE182E299E00E9438280FE02CE324
:102010004FE064E182E299E00E94BA290BE124E1F9
:1020200040E164E182E299E00E94BA292CE34BE1AD
:1020300065E182E299E00E94BA2903E12CE340E1E4
:102040006CE382E299E00E94BA290AE12CE347E1BD
:102050006CE382E299E00E94BA2907E12DE343E1B3
:102060006DE382E299E00E94BA29C0E06C2F6A5EBB
:1020700009E1262F41E182E299E00E94BA29CF5F6F
:102080001C17A0F769EE73E08DED98E00E948918A7
:1020900041E258E06AE572E08DED98E00E94BF18D9
:1020A00082E299E00E94B92D81E0F81621F080E0EB
:1020B00002C013E291CFDF91CF911F910F91FF905A
:1020C0000895EF92FF920F931F93CF93DF9300D069
:1020D00000D000D0CDB7DEB79C01FB01009721F402
:1020E00080E38083118265C060E177E20E946651DF
:1020F0007B0180EF98ED689F8001699F100D789FAC
:10210000100D1124020F131FC80168EE73E00E9426
:102110006651AB0188E19CEF689F9001699F300D8B
:10212000789F300D1124200F311FC90164E670E043
:102130000E946651162F84E6689F201931091124E8
:10214000C9016AE070E00E9466511E828E2D805D9A
:102150008983405D4A83105D1B83862F805D8C835D
:10216000AAE06A9F201931091124205D2D83DE0128
:10217000119620E08D918033A9F417C081E090E0A2
:102180008C0F9D1F830F911DDC018C91DA018D93C3
:10219000AD013F5F832F821B353080F3E80FF11DC7
:1021A000108207C0AF01322FF5CF2F5F2530D1F35A
:1021B000E1CF26960FB6F894DEBF0FBECDBFDF91FC
:1021C000CF911F910F91FF90EF9008950F931F9360
:1021D000CF93DF9300D000D000D0CDB7DEB7182F5B
:1021E000662341F060E082E299E00E94262E80E0C2
:1021F0000E94901680918E0B811187C082E299E037
:102200000E94852D68EF73E08DED98E00E9489189B
:10221000123031F481E080938E0B44E054E002C030
:1022200048E054E06AE572E08DED98E00E94BF1846
:1022300080E00E94F917BE016F5F7F4F0E9461101E
:10224000BE016F5F7F4F82E299E00E94AF2700E5F9
:10225000602F681B9E012F5F3F4F4EE082E299E0A6
:102260000E9438282EE034E04EE063E082E299E0FC
:102270000E94382881E00E94F917BE016F5F7F4FEE
:102280000E946110BE016F5F7F4F82E299E00E9461
:10229000AF27602F681B9E012F5F3F4F44E182E212
:1022A00099E00E94382827E134E044E163E082E2CB
:1022B00099E00E94382882E00E94F917BE016F5F02
:1022C0007F4F0E946110BE016F5F7F4F82E299E0F5
:1022D0000E94AF27602F681B9E012F5F3F4F4AE18E
:1022E00082E299E00E94382820E234E04AE163E08B
:1022F00082E299E00E94382882E299E00E94B92D9A
:10230000E0E2FEE43197F1F705C0123019F41092C3
:102310008E0B09C0113039F46FEF82E299E00E9410
:10232000262E81E001C080E026960FB6F894DEBF2D
:102330000FBECDBFDF91CF911F910F9108952F92C6
:102340003F924F925F926F927F928F929F92AF9245
:10235000BF92CF92DF92EF92FF920F931F93CF9392
:10236000DF93CDB7DEB728970FB6F894DEBF0FBE68
:10237000CDBF082F662309F4BDC082E299E00E9418
:10238000852D85E798E00E943835282E312C63E3AF
:1023900074E082E299E00E94AF2760E5681B23E3C6
:1023A00034E048E082E299E00E94382829E334E0F2
:1023B00048E063E082E299E00E94382882E0281633
:1023C000310418F029E234E002C02EE234E0B90111
:1023D00082E299E02F8338870E94AF2760E5681B6F
:1023E0002F8138854EE082E299E00E94382820E46F
:1023F00034E04EE063E082E299E00E94382829E46C
:1024000034E044E163E082E299E00E9438289DE5EF
:10241000C92E95E0D92E93E3E92EFF24F39410E022
:102420002AE0822E912CA12CB12CC701B601A50166
:1024300094010E948E512B013C01862F805D89837F
:102440001A82BE016F5F7F4F82E299E00E94AF2740
:10245000180F1F5F60E5611B9E012F5F3F4F44E136
:1024600082E299E00E943828C701B6016419750913
:1024700086099709A50194010E948E5169017A018C
:10248000211531054105510581F682E028163104F8
:10249000F8F0BE016F5F7F4FC1010E946110BE0165
:1024A0006F5F7F4F82E299E00E94AF2760E5681B73
:1024B0009E012F5F3F4F40E282E299E00E94382860
:1024C00023E534E040E263E082E299E00E943828AC
:1024D00062E674E08DED98E00E94891841E258E0D0
:1024E0006AE572E08DED98E00E94BF1882E299E003
:1024F0000E94B92D81E0013019F0033009F080E02D
:1025000028960FB6F894DEBF0FBECDBFDF91CF91F6
:102510001F910F91FF90EF90DF90CF90BF90AF9001
:102520009F908F907F906F905F904F903F902F90F3
:1025300008950F931F93CF93DF9300D000D000D066
:10254000CDB7DEB7082F82E299E00E94852DBE014B
:102550006F5F7F4F80916C0B90916D0B0E946110AB
:10256000BE016F5F7F4F82E299E00E94AF2710E5C6
:10257000612F681B9E012F5F3F4F48E082E299E088
:102580000E9438282EE634E048E063E082E299E0D9
:102590000E943828BE016F5F7F4F80916E0B909133
:1025A0006F0B0E946110BE016F5F7F4F82E299E066
:1025B0000E94AF27612F681B9E012F5F3F4F4EE0A7
:1025C00082E299E00E94382826E734E04EE063E09A
:1025D00082E299E00E943828BE016F5F7F4F8091B0
:1025E000700B9091710B0E946110BE016F5F7F4F65
:1025F00082E299E00E94AF27612F681B9E012F5F46
:102600003F4F44E182E299E00E94382822E834E01A
:1026100044E163E082E299E00E94382860E67BE0D2
:1026200082E299E00E94AF27612F681B20E63BE021
:102630004AE182E299E00E9438282EE834E04AE13B
:1026400063E082E299E00E9438280E944C17BE01A4
:102650006F5F7F4F90E00E946110BE016F5F7F4F00
:1026600082E299E00E94AF27612F681B9E012F5FD5
:102670003F4F40E282E299E00E94382826E934E0A8
:1026800040E263E082E299E00E94382865EA74E063
:102690008DED98E00E9489184DEA54E061E278E0FF
:1026A0008DED98E00E94BF1882E299E00E94B92D5A
:1026B000E0E2FEE43197F1F78091720B882371F02C
:1026C000023071F48DED98E00E94511D6BEF79E0BE
:1026D0008DED98E00E945C1983E003C081E001C0A9
:1026E00080E026960FB6F894DEBF0FBECDBFDF9117
:1026F000CF911F910F910895EF92FF920F931F9327
:10270000CF93DF9300D000D000D0CDB7DEB7E82E56
:1027100082E299E00E94852D0E94B70F8C01BC01D6
:1027200082E299E00E94AF2730E5F32E6F2D681BFF
:10273000980148E082E299E00E94382822EB34E0D8
:1027400048E063E082E299E00E9438280E944C173A
:10275000BE016F5F7F4F90E00E946110BE016F5F0E
:102760007F4F82E299E00E94AF276F2D681B9E0188
:102770002F5F3F4F4EE082E299E00E94382827EB1E
:1027800034E04EE063E082E299E00E9438280E9443
:10279000A416BE016F5F7F4F0E946110BE016F5F84
:1027A0007F4F82E299E00E94AF276F2D681B9E0148
:1027B0002F5F3F4F44E182E299E00E94382822EDEA
:1027C00033E044E163E082E299E00E943828BE01F0
:1027D0006F5F7F4F8091CD089091CE080E9461106D
:1027E000BE016F5F7F4F82E299E00E94AF276F2D9D
:1027F000681B9E012F5F3F4F4AE182E299E00E94F1
:10280000382820EC34E04AE163E082E299E00E945B
:102810003828BE016F5F7F4F8091D1089091D20818
:102820000E946110BE016F5F7F4F82E299E00E94BB
:10283000AF276F2D681B9E012F5F3F4F40E282E262
:1028400099E00E94382829EC34E040E263E082E21B
:1028500099E00E94382863ED74E08DED98E00E94C5
:10286000891841E258E06AE572E08DED98E00E9437
:10287000BF1882E299E00E94B92DE0E2FEE43197B0
:10288000F1F781E0E81629F093E0E91619F080E00D
:1028900001C081E026960FB6F894DEBF0FBECDBF13
:1028A000DF91CF911F910F91FF90EF9008956623D4
:1028B00019F0823019F480E00C940E0C81E0089538
:1028C0001F920F920FB60F9211240BB60F921BBEE0
:1028D0002F933F934F935F936F937F938F939F9328
:1028E000AF93BF93EF93FF9389EC98E00E94A315F9
:1028F00087EB98E00E94C714FF91EF91BF91AF91D1
:102900009F918F917F916F915F914F913F912F9107
:102910000F900BBE0F900FBE0F901F901895CF9386
:10292000DF93DC0120E030E041E050E01D92FC014B
:10293000E20FF31F16821486F901ED5DF24FE49168
:10294000223078F47DB1EA0102C0CC0FDD1FEA9598
:10295000E2F76C2F609567236DB96EB16C2B6EB981
:102960000EC07AB1EA0102C0CC0FDD1FEA95E2F792
:102970006C2F609567236AB96BB16C2B6BB92F5FB5
:102980003F4F2630310591F6DF91CF910895DF92C8
:10299000EF92FF920F931F93CF93DF937C018C01F3
:1029A000C0E0D0E0DD24D394FE01ED5DF24FE49170
:1029B000C23010F48CB101C089B190E002C095958D
:1029C0008795EA95E2F780958170D801A9F08C91FE
:1029D0008F30F0F48F5FF80180838B30C8F0F701FF
:1029E000EC0FFD1F8681811113C0D486D68289EC3D
:1029F00098E00E94E8150CC08C91882349F0F701FB
:102A0000EC0FFD1F148681508C93833008F41682DE
:102A100021960F5F1F4FC630D10531F6DF91CF9160
:102A20001F910F91FF90EF90DF900895FC0186E0D9
:102A30001192158213868150D9F70895CF93DF93B1
:102A4000EC0189EC98E00E947516882319F0CE01FC
:102A50000E94161520E030E0822FFE01E20FF31FE6
:102A60009485992311F08F5F06C02F5F3F4F26306A
:102A7000310591F780E0DF91CF910895CF93DF93F7
:102A8000EC0189EC98E00E947516882319F0CE01BC
:102A90000E94161520E030E0822FFE01E20FF31FA6
:102AA0009485992319F014868F5F06C02F5F3F4FDE
:102AB0002630310589F780E0DF91CF9108950F939B
:102AC0001F93CF93DF931F92CDB7DEB78C0101C068
:102AD000A895C80169830E943E1569818613F8CFC5
:102AE000862F0F90DF91CF911F910F910895089538
:102AF000FC0192E09093B000A1EBB0E01C928C91AD
:102B000084608C938AE78093B3001092B600909310
:102B10007000128A81E082871082118212821382F1
:102B20001482158216821782118610867894089571
:102B30001092B0001092B1001092B3001092B60043
:102B4000109270000895FC0180859185019691870F
:102B5000808740815181628173814F5F5F4F6F4FEA
:102B60007F4F4083518362837383883E9340E8F0B4
:102B70001186108644815581668177814F5F5F4F52
:102B80006F4F7F4F44835583668377838685978510
:102B90000196978786878485958501969587848792
:102BA000808991890196918B808B0895FC01108218
:102BB0001182128213821482158216821782118664
:102BC00010860895FC0110821182128213820895EA
:102BD000CF93DF93EC011F861E861D861C866B89B2
:102BE000662329F082E299E00E94262E1B8ADF915B
:102BF000CF910895CF93DF93EC018A85811103C0B3
:102C00001F861E8606C08B85811103C0CE010E94DF
:102C1000E8158A858B87882399F08091D60B2AE066
:102C2000829FC00111242E853F852817390740F067
:102C30000E94F016CE010E94E81581E08A8B18C030
:102C40008B89811115C08091D50B2AE0829FC0012C
:102C500011242C853D852817390750F082E299E030
:102C60000E94772E8B8B60E082E299E00E94262EF4
:102C70000E949916882381F08091D70B2AE0829FC9
:102C8000C0011124288939892817390738F080E0D4
:102C9000DF91CF910C949016198A188ADF91CF9109
:102CA0000895FC01608171818281938108950F9361
:102CB0001F93FC012481358146815781A8EEB3E042
:102CC0000E944B518B019C0180859185080F191F33
:102CD000211D311DB801C9011F910F910895FC01FB
:102CE00064817581868197810895FC018289128AA9
:102CF000089582E299E00E94342E82E299E00C94D9
:102D0000B92D3B9A43980B9A1398269A2E9A279A94
:102D10002F9A6B98739A6F9A849A8C9877980895E3
:102D2000269A882319F02E9881E008952E9A80E043
:102D30000895269B07C085B186FB882780F991E01E
:102D40008927089580E00895CF93DF9300D0CDB711
:102D5000DEB780914C0C90914D0C9E012F5F3F4F40
:102D6000009719F426553C4002C0281B390B3A83C2
:102D7000298389819A810F900F90DF91CF910895D7
:102D80000F98179AE0E2FEE4CF010197F1F780B1C6
:102D900017983197F1F7079905C08095881F882704
:102DA000881F089582E00895CF938DED98E00E94EA
:102DB000511DC1E087EB98E00E943E15813029F457
:102DC0008DED98E0CF910C94571E0E94C016882379
:102DD000B9F3A8956C2F80E00E94C80FC0E0EACF3D
:102DE0000E94C016811108C08091E000816080932C
:102DF000E000F894439AFFCF0C94D41695EA909390
:102E00007A008F3010F0885013C040B321E030E0DA
:102E1000082E01C0220F0A94EAF7922F909594236E
:102E200090BB90917E00922B90937E00883058F753
:102E3000806480937C0080917A00806480937A0023
:102E400044E660E070E0CB0120917A0024FFFCCFE3
:102E500020917A00206120937A00209178003091AF
:102E60007900620F731F811D911D415069F7109207
:102E70007A0024E630E040E050E00E948E51C90123
:102E80000895819A899880E29EE40197F1F782E0A3
:102E90000E94FE16819808951F93CF93DF9300D070
:102EA00000D000D0CDB7DEB70E9441179E838D833E
:102EB0000E94C016182F42E050E0811145C063E027
:102EC00070E0CE0101960E9478542D813E81898167
:102ED0009A812817390740F442E050E063E070E03F
:102EE000CE0105960E94905442E050E061E070E00F
:102EF000CE0103960E9478548B819C81019611F437
:102F00001C821B822D813E818B819C8182179307BD
:102F100040F442E050E061E070E0CE0105960E948E
:102F2000905449815A812D813E81241B350B64E6E2
:102F3000629FC001639F900D11246B817C81641B93
:102F4000750B0E9466514AC067E070E0CE010196A1
:102F50000E9478544D815E8129813A81421753073E
:102F600040F442E050E063E070E0CE0105960E943C
:102F7000905442E050E065E070E0CE0103960E947C
:102F800078544D815E812B813C812417350740F4B4
:102F900042E050E061E070E0CE0105960E9490545E
:102FA00049815A812D813E81241B350B64E6629F45
:102FB000C001639F900D11246B817C81641B750B94
:102FC0000E946651113031F46436710538F063E6C1
:102FD00070E004C0123011F464E670E0862F26968B
:102FE0000FB6F894DEBF0FBECDBFDF91CF911F911A
:102FF00008950F931F93CF93DF93D82F80E00E9403
:10300000901682E299E00E94772EC82F60E082E25B
:1030100099E00E94262ECC2351F024EF31E048ECB9
:1030200050E0FA013197F1F721503109D1F791B110
:10303000987F91B992B1987F92B991B18D2FD33089
:1030400008F082E021E030E001C0220F8A95EAF723
:10305000892F822B81B982B1D22FD0958D2382B94D
:1030600044EF51E0A8ECB0E0FD013197F1F7415099
:103070005109D1F780E00E94FE168C0131B13D2349
:1030800031B982E299E00E94772E8C1728F46C2FD8
:1030900082E299E00E94262EC801DF91CF911F9114
:1030A0000F910895CF93DF93EC0180E00E94F91710
:1030B0009983888381E00E94F9179B838A8382E049
:1030C0000E94F9179D838C83DF91CF910895E0EEE4
:1030D000F0E08081816080830E94A03E82E299E0DE
:1030E0000E940A2E89EC98E00E949815F89488E1D5
:1030F0000FB6F89480936000109260000FBEE0E07D
:10310000F0EF0995FC01168A178A108E118E168E23
:103110000895EF92FF920F931F93CF93DF93EC01EB
:103120007B01888199810E94AF27182F169505E0B1
:1031300023E540E060E0888199810E94612A03E0F4
:1031400023E541E060E0888199810E94392A212F9E
:10315000265D68E2611B05E040E0888199810E945C
:10316000612A69E2611B970140E088819981DF91C2
:10317000CF911F910F91FF90EF900C943828CF9230
:10318000DF92EF92FF920F93CF93DF93EC016B01ED
:103190007A010FE223E549E260E0888199810E948B
:1031A000612A96014AE262E0888199810E9438286A
:1031B000B701888199810E94AF2763E5681B970159
:1031C0004AE2888199810E94382823E549E260E03B
:1031D000888199810E94392ADF91CF910F91FF90C8
:1031E000EF90DF90CF9008959B0190E080E0F9018F
:1031F000729665917491FB01309719F050815523B7
:1032000019F0491731F09F5F8F5F2C5E3F4F84317B
:1032100071F708959B0180E090E0F9017296659145
:103220007491FB01941751F0309711F050815111B6
:103230008F5F9F5F2C5E3F4F943179F70895CF9356
:10324000DF93EB01FC012389222369F130E0215057
:103250003109F901EE0FFF1FE20FF31FE80FF91F0D
:10326000848125813681F4E18F9F200D311D112449
:10327000DB0180E090E0F901E80FF91FE491ED93A4
:1032800001968C309105B9F78BE090E0FE01E80FD4
:10329000F91F2081203211F011820AC0019781307C
:1032A0009105A1F705C069E27DE0CE010E94B4510D
:1032B000CE01DF91CF910895FC0177A366A3089515
:1032C00021E0FC01268F0895DF92EF92FF920F9389
:1032D0001F93CF93DF93EC01162FF42EE22ED02E06
:1032E0006E894F89288D098D842F862B822B802B08
:1032F00021F0888199810E94392A1E8BFF8AE88EED
:10330000D98E0D2D2E2D4F2D612F888199810E94F0
:10331000392ADF91CF911F910F91FF90EF90DF90AD
:1033200008950F93CF93DF93EC016E894F89288D19
:10333000098D842F862B822B802B21F08881998107
:103340000E94392A1E8A1F8A188E198EDF91CF910A
:103350000F9108950F931F93CF93DF93EC01162FD6
:103360008A8D681730F0CE010E9491198FEF8C8BF7
:103370000FC049E0649F402D11248D89481B042F04
:10338000015F495F21E561E0CE010E9464191C8B59
:10339000DF91CF911F910F910895EF92FF920F93BC
:1033A0001F93CF93DF931F92CDB7DEB77C01162F0B
:1033B000372F442309F452C0A62FB72FFD010190E7
:1033C0000020E9F73197EA1BFB0B26E02E9FC00196
:1033D0002F9F900D112496958795AC0160E070E0C9
:1033E0004093AF0B5093B00B6093B10B7093B20B43
:1033F000282F255D67E2681B08E14CE0F70180811A
:10340000918139830E94612A9091AF0B292F265D0B
:1034100068E2691B07E14DE0F701808191810E941C
:103420000A2A69E29091AF0B691B212F39814FE085
:10343000F701808191810E94E528F70180819181C7
:103440000E94B92D89EC98E00E9457166093AF0B4B
:103450007093B00B8093B10B9093B20B89EC98E012
:103460000E9457160091AF0B1091B00B2091B10B39
:103470003091B20B601B710B820B930B643F714058
:103480008105910530F4F701828193810E943E15F8
:10349000811181E00F90DF91CF911F910F91FF90EB
:1034A000EF9008957F928F929F92AF92BF92CF92AA
:1034B000DF92EF92FF920F931F93CF93DF93EC0174
:1034C000F62E5A014901702E1092A30BCC2009F45C
:1034D00030C1FA01C080D180888199810E94852DF8
:1034E00005E023E542E060E0888199810E94392A65
:1034F0000EE121E046E060E0888199810E94392A4E
:1035000023E546E062E5888199810E94392AA72D4A
:10351000B12FFD0101900020E9F73197EA1BFB0B69
:10352000E093A40B6AEF6E9F602D1124605B272D42
:10353000312F40E2888199810E94E528F4010190B1
:103540000020E9F73197E819F909E093A40B26E088
:10355000E29FF0011124F595E7958AE28E1B809396
:10356000A50B07E223E54FE160E0888199810E9485
:10357000392A49EF54E064E272E0CE010E94BF189C
:103580006091A50B9091A40B292F220F290F220FD8
:10359000260F05E042E0888199810E94392A940132
:1035A00040E06091A50B888199810E94E52880E028
:1035B000E82FF0E0E955F44F10828F5F8530C0F3BB
:1035C00046E4E41621F054E5E5128AC043C0E8E57C
:1035D000F2E0C601BF010E9466518C01C81AD90AE7
:1035E0002AE030E0B9010E947A518093A70BA8012C
:1035F000481B590BCA01B9010E947A518B01CB01BA
:10360000B9010E947A518093A80BA801481B590B5D
:10361000CA01B9010E947A516093A90BC601BF018A
:103620000E946651CB01BF010E946651FC01B901A5
:103630000E947A518093AA0BAF01481B590BCA0113
:10364000B9010E947A516093AC0B7093AD0B6093FB
:10365000AB0B6AC0ECE3F0E0C601BF010E9466510B
:103660008C01C601801B910BBF010E9466516B014A
:103670002AE030E0C801B9010E947A518093A70B7B
:10368000A801481B590BCA01B9010E947A516093E5
:10369000A80BC601BF010E9466518C01C81AD90A45
:1036A000B9010E947A518093A90BA801481B590BBC
:1036B000CA01B9010E947A516093AA0BC601BF01E9
:1036C0000E946651CB01BF010E9466519093AD0BE1
:1036D0008093AC0BB9010E947A518093AB0B24C04C
:1036E0009090AC0B4091AD0BE0E00AE010E013C00D
:1036F000C601B8010E9466519C01982E432FC60155
:10370000821B930BB8010E9466516B01F0E0E955F2
:10371000F44F2083E82D8E2E8394C114D10441F7F9
:103720009092AC0B4093AD0B85E08093A40B10926C
:10373000A60B8F2D8150823008F4FDC00EE121E5EB
:1037400048E063E0888199810E94612A1092A50B6C
:1037500010EF12C0E62FF0E0E955F44F2081205D14
:10376000619F602D11246C5B45E00E940A298091C5
:10377000A50B8F5F8093A50B6091A50B2091A40BE7
:1037800088819981621730F356E4E51621F0E4E56B
:10379000EE1232C013C00EE022E24CE061E20E9461
:1037A0000A2A06E122E244E161E2888199810E94CD
:1037B0000A2A0AE122E448E161E41AC00EE022E3A9
:1037C0004CE061E30E940A2A06E122E344E161E35E
:1037D000888199810E940A2A0EE022E14CE061E191
:1037E000888199810E940A2A06E122E144E161E18F
:1037F000888199810E940A2A8091A60B25E030E0F9
:10380000281B31092295207F60EF869F602D1124AF
:103810006D5B0CE148E0888199810E94392A809192
:10382000A60BF6E4EF1621F024E5E21207C003C070
:10383000823031F003C080FF08C002C0843011F430
:1038400085E001C089E08093AE0B888199810E9458
:10385000B92DFF2009F4FBC044E0F41671F04F15B8
:1038600020F053E0F512F3C025C085E0F81609F406
:1038700053C096E0F912EBC042C08091A60B25E040
:1038800030E0281B31092295207F60EF869F602D54
:1038900011246D5B0CE148E0888199810E94392AEE
:1038A0008091A60B811102C08091A40B815080935E
:1038B000A60BCDC08091A60B25E030E0281B310976
:1038C0002295207F60EF869F602D11246D5B0CE1B7
:1038D00048E0888199810E94392A4091A60B242FC3
:1038E00030E08091A40B90E001972817390724F469
:1038F0004F5F4093A60BABC01092A60BA8C0E091FF
:10390000A60BF0E0E955F44F8081882311F0815037
:103910000EC08091AE0B0BC0E091A60BF0E0E95514
:10392000F44F80819091AE0B891718F48F5F8083DC
:103930008EC010828CC06091AB0B5091A80BE6E456
:10394000EE1631F08091AA0BF4E5EF1246C023C0C9
:103950008091A90B2AE0529F8001112444E6849FA4
:10396000000D111D11248091A70B080F111D8091CE
:10397000AA0B90E05AE0659F800D911D112448E547
:1039800052E0849F9001859F300D949F300D11244B
:10399000020F131F42C00091A70B10E09AE0599F3D
:1039A000000D111D112440E15EE0649F9001659FB0
:1039B000300D1124020F131F2091A90B30E0EAE013
:1039C0008E9F200D311D11244CE3429FC001439F67
:1039D000900D1124080F191F20C04AE090E0FAE072
:1039E0006F9F800D911D1124489F9001499F300DBC
:1039F00011248091A90B280F311D429FC001439FC4
:103A0000900D1124850F911D489F8001499F100D35
:103A100011248091A70B080F111D22E0F21214C08F
:103A200041E069E172E0CE010E94CD1988E893E19E
:103A300028EC30E0F9013197F1F70197D9F7F5015A
:103A40001183008382E001C081E08093A30B809109
:103A5000A30BDF91CF911F910F91FF90EF90DF901B
:103A6000CF90BF90AF909F908F907F900895CF930D
:103A7000DF93FC012389253088F42F5F238B30E00E
:103A800021503109E901CC0FDD1FC20FD31FC80F30
:103A9000D91F7E836D830E94F4188C83DF91CF91B0
:103AA0000895FC01638D748D44890C94371DEF9249
:103AB000FF920F931F93CF93DF93EC014C898A8D74
:103AC000481708F0AFC00B8D1C8DB801CE010E94C5
:103AD000F41894E1899F70011124B8016E0D7F1DC7
:103AE000FB013D9624912F8F2D3469F030F425345D
:103AF00029F1263409F096C018C02035F9F0233595
:103B000009F090C063C0CE010E94511DEB8DFC8D69
:103B1000EE0DFF1D3E96859194918B8F9C8F60E0FA
:103B2000CE010E94AA1981E07CC0625F7F4FFB0139
:103B3000859194918EA39FA384E073C080E090E070
:103B4000382FFB01E80FF91FE491DE01A80FB91F20
:103B50009C96EC93E03229F001968A30910581F72A
:103B60003AE0DE01A30FB11D9C961C92FB017096FA
:103B700085919491009791F0FC0130E0CE018E1B6D
:103B80009F0B4491DC01AE0FBF1FD7964C9344238B
:103B900031F03F5F31963D30A1F701C030E0DE01EA
:103BA000A30FB11DD7961C92203511F483E001C0FC
:103BB00082E08D8FFB013B96E491EF8F625F7F4F38
:103BC000FB018591949188A399A32CC080E090E09B
:103BD000282FFB01E80FF91FE491DE01A80FB91FA0
:103BE0009C96EC93E03229F001968B30910581F799
:103BF0002BE0FE01E20FF11D14A6FB0172968591E8
:103C0000949188A799A7FB017096859194918AA3B6
:103C10009BA3625F7F4FFB01859194918CA39DA331
:103C200085E08D8FDF91CF911F910F91FF90EF90E5
:103C30000895FC018389882389F08150838B90E06B
:103C4000DC01AA0FBB1FA80FB91FAE0FBF1FFD01DC
:103C5000349614966C917181828108956481758186
:103C600086810895FC01558944894330A8F0242FAA
:103C700030E0828D90E001972817390731F489E010
:103C8000489F402D1124475105C089E0489F402D91
:103C900011244251458B01C0158A8589811105C0C7
:103CA00081E0511103C080E0089581E008950F93F1
:103CB0001F93CF93DF93EC018B89882381F0CE0192
:103CC0000E94191E462F072F182FB801CE010E94FF
:103CD0000A198C8B0B8F1C8FCE010E94321E81E043
:103CE0008D8FDF91CF911F910F9108955F926F9209
:103CF0007F928F929F92AF92BF92CF92DF92EF927C
:103D0000FF920F931F93CF93DF93CDB7DEB7A497A6
:103D10000FB6F894DEBF0FBECDBF6C01DC015C9620
:103D20007C936E935B970E949119F601808191813B
:103D30000E94852DC6010E94321ED6015D961C92FE
:103D40005D975A961C92A12CB12C512C712C6CE0D1
:103D5000862E912C79E0672EF601438D548D9A01C1
:103D60002A0D3B1DF901729665917491DB01109744
:103D700021F08C91882309F4BFC0F9013D96A491EC
:103D8000F601A78F4A0D5B1DFA013B961491A534ED
:103D900011F0A03529F5225F3F4FF90185919491EB
:103DA000BC01A03549F442E050E0CE0182960E9469
:103DB0007854BE016E5D7F4FDB012D913C91F60181
:103DC000428D469D402D11248589481B485F52E550
:103DD000E52E012F60E5808191810E94892A582E6D
:103DE000D6015F968C915F97833509F053C01A32E4
:103DF00009F050C05B962D913C915C972A0D3B1DBC
:103E0000F9013E9605911491205F3F4FF9012591EC
:103E10003491D901F60131A320A39801205C3E4FD3
:103E2000F8018491803341F4D6015A968C915A97C7
:103E30008F5F5A968C9360C0F8013D96E491F0E054
:103E40008D919C911197E817F907E9F432E0E12C84
:103E5000F12CF801EE0DFF1D2491F601428D469DD7
:103E6000402D11248589481B485F632F80819181F3
:103E70003CA30E945428FFEFEF1AFF0A3CA13A5FCF
:103E80003A3439F7D1CF005F1F4F0217130709F0FB
:103E9000C7CFCACF32E000E010E07401E518F108A6
:103EA000D6015F968C91853411F0803519F40E158A
:103EB0001F05E4F4D6015B96ED91FC915C97EA0D49
:103EC000FB1DE00FF11F24915A964C915A97469D85
:103ED000402D112455968C915597481B485F632FB0
:103EE0008D919C913CA30E9454283CA10F5F1F4FD1
:103EF0003A5F3A34A9F698CFB4E1AB0EB11CD601C3
:103F00005B96ED91FC915C97EA0DFB1DE491EE232D
:103F100049F07394B0E9AB16B1E0BB0609F01CCFD1
:103F200034E1732E7394F6016489C6010E94AA19C4
:103F3000F4E17F9E80011124D6015B966D917C9106
:103F40005C97600F711F6F5F7F4FFB018491803220
:103F500029F0CE0101960E94B45106C0BE016F5FE8
:103F60007F4FC6010E941F19BE016F5F7F4FC601C0
:103F70000E948918D6015B968D919C915C97800F69
:103F8000911FFC013D9624919B961C921E929A973C
:103F9000223419F0263409F034C04096FC01859192
:103FA0009491BC01CE0148962CA30E94B451D60135
:103FB0005B96ED91FC915C97E00FF11F72968591F5
:103FC0009491BC01CE010E960E94B451AE01425FA5
:103FD0005F4FBE01685E7F4FC6010E94BF182CA1D3
:103FE000263479F4D6015B96ED91FC915C97E00F55
:103FF000F11F3E96859194919A968C939A979B96F1
:104000009C93A4960FB6F894DEBF0FBECDBFDF9190
:10401000CF911F910F91FF90EF90DF90CF90BF90C5
:10402000AF909F908F907F906F905F900895CF9307
:10403000DF93EC016C89662319F061500E94AA1984
:10404000CE010E94321E882329F06B8D7C8DCE011B
:104050000E94761E88819981DF91CF910C94B92DB1
:10406000CF93DF93EC016C89262F30E08A8D90E0AE
:1040700001972817390724F46F5FCE010E94AA190F
:10408000CE010E94321E882329F06B8D7C8DCE01DB
:104090000E94761E88819981DF91CF910C94B92D71
:1040A0006F927F929F92AF92BF92CF92DF92EF92E8
:1040B000FF920F931F93CF93DF931F92CDB7DEB77D
:1040C0003C01F62E5A016901E11008C025E0F21604
:1040D00009F49BC086E0F81227C19FC0DC018D91D6
:1040E0009C910E94852DB801C3010E94891849EF57
:1040F00054E064E272E0C3010E94BF1808E127E4C3
:104100004CE062E0F301808191810E940A2A09E17A
:1041100028E44BE061E0D3018D919C910E940A2A32
:1041200001E122E541E16AE4F301808191810E948D
:10413000BA2900E122E540E16AE4D3018D919C9126
:104140000E94BA290FE021E54FE06BE4F301808182
:1041500091810E94BA290EE020E54EE06CE4D30183
:104160008D919C910E94BA290DE02FE44DE06DE401
:10417000F301808191810E94BA2903E122E543E1A4
:104180006AE4D3018D919C910E94BA2904E122E551
:1041900044E16AE4F301808191810E94BA2905E13A
:1041A00021E545E16BE4D3018D919C910E94BA29F0
:1041B00006E120E546E16CE4F301808191810E94F3
:1041C000BA2907E12FE447E16DE4D3018D919C9179
:1041D0000E94BA291092B30B90E080E008C03D968F
:1041E000E491D5012C912E1301C0982F8F5FF60119
:1041F000B0E18B9FE00DF11D112424912111EFCF2F
:104200009093B30B8093B40B61CF8091B30B882351
:1042100091F081508093B30B0EC04091B30B242FCB
:1042200030E08091B40B90E00197281739071CF417
:104230004F5F4093B30B07E125E44DE063E0F301EA
:10424000808191810E94612A34E000E010E0809139
:10425000B30BF60120E1829FE00DF11D1124E00F68
:10426000F11F24914FE0632FD3018D919C913983ED
:104270000E9454280F5F1F4F39813A5F363439F757
:1042800003E223E54EE160E0F301808191810E9429
:10429000612A8091B30BF60120E1829FE00DF11DB0
:1042A00011243E96859194918C01912CE12C07C0AC
:1042B000692D6E0D4EE10E94CF27980EE394F80110
:1042C000EE0DF11D2491D3018D919C912111F0CF20
:1042D0000E94B92DB2E0FB1641F0E3E0FE1619F0A2
:1042E000F1E0FF121FC081E022C08091B30B20E1FA
:1042F000829FC00CD11C1124F6013D96E491D5019A
:10430000EC9341E069E172E0C3010E94CD1988E8B5
:1043100093E128EC30E0F9013197F1F70197D9F7F3
:1043200082E005C080E003C0E11085CFD3CF0F90BD
:10433000DF91CF911F910F91FF90EF90DF90CF9081
:10434000BF90AF909F907F906F900895AF92BF9273
:10435000CF92EF92FF920F931F93CF93DF9300D0F2
:10436000CDB7DEB75C01DC0112968D919C9113975D
:104370000E943E15F82EF501858D81110DC08F2DFF
:104380008150823048F422A533A52115310521F052
:1043900037A326A384E0858FD5015E969C9199234F
:1043A00019F081E080931E01F501858D833009F4B9
:1043B00077C020F4813079F1D8F509C0853009F44F
:1043C00050C008F4B1C0863009F0C2C031C0992392
:1043D00011F081E0858FB4E0FB16A9F0BF1520F045
:1043E000E3E0FE12B5C013C0F5E0FF1621F086E051
:1043F000F812AEC004C0C5010E941720A9C0C501B3
:104400000E943020A5C0C5010E94571DA1C0C50152
:104410000E94571E9DC080931E01638D748DC5013F
:104420000E94761EF501808191810E94B92D90C075
:104430008501095C1F4F9501245D3F4FD501909682
:104440004D915C919197C0901E015F96EC906F2DFD
:10445000C5010E94521A10921E01882309F478C0E7
:1044600074C08501045D1F4F24A135A142A153A151
:10447000E0901E016F2DC5010E94502010921E0178
:10448000882309F465C0823009F05FC0D501989691
:10449000ED91FC919997309709F457C0099555C053
:1044A00080911E01882341F060A171A142E050E09B
:1044B00081EA9BE00E9478548501095C1F4F9501B9
:1044C000245D3F4FC0901E01F501E78C41EA5BE09F
:1044D0006F2DC5010E94521A10921E018823C1F14E
:1044E0008230E9F4D50190966D917C91919742E0EC
:1044F00050E0CE0101960E94785429813A81809142
:10450000A10B9091A20B2817390749F0F50160A182
:1045100071A142E050E081EA9BE00E94905481E06A
:10452000D5015D968C9314C006A0F7A1E02D609193
:104530001E018F2D099510921E01882349F08330AA
:1045400021F481E080931E0103C081E0F501858F95
:10455000D5015D968C918111F12CF501168E8F2D70
:104560000F900F90DF91CF911F910F91FF90EF90DF
:10457000CF90BF90AF9008958F929F92BF92CF92AD
:10458000DF92EF92FF920F931F93CF93DF931F92CF
:10459000CDB7DEB74C01162F7A016901B02E00238A
:1045A00011F1FC01808191810E94852DB601C40129
:1045B0000E94891849EF54E064E272E0C4010E944D
:1045C000BF1808E121E54CE061E0F40180819181B0
:1045D0000E940A2A09E122E54BE060E0F4018081B3
:1045E00091810E940A2A143099F018F41330E1F5F1
:1045F00005C0153039F11630B9F513C08091B50BEF
:10460000882311F0815001C08AE08093B50B2EC041
:104610008091B50B8A3010F48F5FF7CF1092B50BF5
:1046200025C08091B50BF701E80FF11D80818B3516
:1046300010F080E480838081813410F0815012C0BA
:104640008AE510C08091B50BF701E80FF11D80815C
:10465000813410F48BE5808380818B3510F48F5F7B
:1046600001C081E4808302C0BB20B1F107E12FE4E7
:104670004DE062E0F401808191810E94612ABE2CAC
:10468000670133E0FC2CFB18F60121916F01822FAA
:1046900081548A3108F020E24FE0632FF4018081D9
:1046A000918139830E9454288091B50B3981F81289
:1046B0000BC0232F2A5F06E14EE0632FF4018081B7
:1046C00091810E94392A3981395F3035D9F6F40158
:1046D000808191810E94B92D1150123030F4E12F68
:1046E000F0E0E95CFE4F808101C080E00F90DF9137
:1046F000CF911F910F91FF90EF90DF90CF90BF90DF
:104700009F908F900895279A2F9A0895CB01F8943F
:1047100069E170E00E94665180E090E030E22F98FD
:10472000232F2A95F1F72F9A232F2A95F1F7019637
:1047300068177907A0F778940895CB016AE170E0D3
:104740000E94665180E090E032E2F8942F98232F87
:104750002A95F1F72F9A232F2A95F1F7789401964D
:104760006817790790F708954F925F926F927F9242
:104770008F929F92AF92BF92CF92DF92EF92FF9271
:104780000F931F93CF93DF93CDB7DEB7A1970FB6EB
:10479000F894DEBF0FBECDBF8C01FC018081882361
:1047A00031F0F8018081813009F044C023C080E1FC
:1047B00090E038E2F8942F98232F2A95F1F72F9A5A
:1047C000232F2A95F1F778940197A1F784E499E3D0
:1047D0000197F1F780E190E038E2F8942F98232FC9
:1047E0002A95F1F72F9A232F2A95F1F778940197BC
:1047F000A1F7D7CF60ED77E0C8010E9486238CE651
:1048000099ED0197F1F766E871E0C8010E948623EF
:1048100088E59CE00197F1F76AE971E0C8010E9420
:10482000862388EF9BE10197F1F760E971E0C80109
:104830000E948623F8018081853031F0F801808163
:10484000843009F058C01DC068EC72E3C8010E94B2
:104850009D2380E797E10197F1F7B7E0EB2EF12C6C
:1048600080EDC82E87E0D82E68EE73E0C8010E9464
:104870009D23C6010197F1F7F1E0EF1AF108A1F7C6
:10488000DDCF80E2E9E3F1E0DE01119601900D92C7
:104890008A95E1F76CE073E2C8010E94862380E408
:1048A00092E20197F1F760E772E0C8010E94862367
:1048B000EE24E394F12CEC0EFD1E6E0181E2C80E95
:1048C000D11CF0E8AF2EFCE0BF2EA0ED8A2EA3E0B5
:1048D0009A2EF70181917F01811102C0C40101C0AC
:1048E000C5010197F1F768E572E0C8010E948623CF
:1048F000EC14FD0471F7F80180818330C1F581E289
:10490000E9E5F1E0DE01119601900D928A95E1F75B
:1049100066EA7EE0C8010E949D2384EC9EE0019738
:10492000F1F7EE24E394F12CEC0EFD1E6E01F2E2A1
:10493000CF0ED11C6CE2A62E6BE0B62E7EEC872E3D
:1049400073E0972EF70181917F0168EC71E081118E
:1049500005C0C8010E949D23C40104C0C8010E9473
:104960009D23C5010197F1F7EC14FD0459F7F801F7
:104970008081823009F03FC024E1EAE7F1E0CE0116
:104980000196DC0101900D922A95E1F723E0C22EF9
:10499000D12C34E1A32E35E0B32E582E492E3E0102
:1049A000F5E16F0E711C40E2842E4EE4942E60E11E
:1049B00079E0C8010E948623C5010197F1F7E52C33
:1049C000F42CF70181917F01811103C06FE372E044
:1049D00002C067E974E0C8010E948623C5010197FF
:1049E000F1F7E614F70469F7C4010197F1F7F1E074
:1049F000CF1AD108E1F6A1960FB6F894DEBF0FBE2C
:104A0000CDBFDF91CF911F910F91FF90EF90DF907D
:104A1000CF90BF90AF909F908F907F906F905F905E
:104A20004F9008955F926F927F928F929F92AF9274
:104A3000BF92CF92DF92EF92FF920F931F93CF938B
:104A4000DF93CDB7DEB7A1970FB6F894DEBF0FBEE8
:104A5000CDBF8C01FC018081811120C0F89480E1E0
:104A600090E038E22F98232F2A95F1F72F9A232FE1
:104A70002A95F1F70197B1F780EE99E20197F1F7E6
:104A800080E190E038E22F98232F2A95F1F72F9AB2
:104A9000232F2A95F1F70197B1F77894F8018081D7
:104AA0008330C1F581E2EEE8F1E0DE01119601907C
:104AB0000D928A95E1F766EA7EE0C8010E949D2387
:104AC00084EC9EE00197F1F7EE24E394F12CEC0ED8
:104AD000FD1E6E01F2E2CF0ED11C6CE2A62E6BE041
:104AE000B62E7EEC872E73E0972EF70181917F0121
:104AF00068EC71E0811105C0C8010E949D23C401CA
:104B000004C0C8010E949D23C5010197F1F7EC1470
:104B1000FD0459F7F8018081823009F03CC024E19E
:104B2000EFEAF1E0CE010196DC0101900D922A95A9
:104B3000E1F723E0722E34E1C32E35E0D32E682E48
:104B4000592E4E01F5E18F0E911C40E2A42E4EE449
:104B5000B42E60E179E0C8010E948623C601019766
:104B6000F1F7E62CF52CF70181917F01811103C04B
:104B70006FE372E002C067E974E0C8010E94862317
:104B8000C6010197F1F7E814F90469F7C501019727
:104B9000F1F77A94F1F6A1960FB6F894DEBF0FBE46
:104BA000CDBFDF91CF911F910F91FF90EF90DF90DC
:104BB000CF90BF90AF909F908F907F906F905F90BD
:104BC00008956F927F928F929F92AF92BF92CF92F1
:104BD000DF92EF92FF920F931F93CF93DF93CDB7A6
:104BE000DEB7A0970FB6F894DEBF0FBECDBF8C0125
:104BF0003B01FC018081843009F07BC080E2E3EC62
:104C0000F1E0DE01119601900D928A95E1F768E2DC
:104C100073E2C8010E94862388E293E20197F1F7CC
:104C200064EF71E0C8010E948623EE24E394F12C26
:104C3000EC0EFD1E6E01F1E2CF0ED11CB8EBAB2ED7
:104C4000BBE0BB2E88EE882E83E0982EF701819181
:104C50007F01811102C0C40101C0C5010197F1F7B4
:104C600064EF71E0C8010E948623EC14FD0471F723
:104C700080E991E028EC30E0F9013197F1F70197F4
:104C8000D9F793012536310510F024E630E044E3EE
:104C9000429FC001439F900D112464E670E00E9482
:104CA00066517B01FFEFEF1AFF0A99249394E0EA23
:104CB000CE2EEFE0DE2EF8ECAF2EB12C15C068E260
:104CC00073E2C8010E948623C6010197F1F764EFE1
:104CD00071E0C8010E94862380EC93E0F5013197D2
:104CE000F1F70197D9F79394892D90E08E159F05E0
:104CF00030F3A0960FB6F894DEBF0FBECDBFDF91A4
:104D0000CF911F910F91FF90EF90DF90CF90BF90C8
:104D1000AF909F908F907F906F9008956F927F9249
:104D20008F929F92AF92BF92CF92DF92EF92FF92BB
:104D30000F931F93CF93DF93CDB7DEB7A0970FB636
:104D4000F894DEBF0FBECDBF8C013B01FC0180811A
:104D5000843009F07BC080E2E3EEF1E0DE011196E1
:104D600001900D928A95E1F768E273E2C8010E9412
:104D7000862388E293E20197F1F764EF71E0C801BE
:104D80000E948623EE24E394F12CEC0EFD1E6E01AE
:104D9000F1E2CF0ED11C48EBA42E4BE0B42E58EE1E
:104DA000852E53E0952EF70181917F01811102C07C
:104DB000C40101C0C5010197F1F764EF71E0C801BA
:104DC0000E948623EC14FD0471F780E991E028EC41
:104DD00030E0F9013197F1F70197D9F793012536C2
:104DE000310510F024E630E046E4429FC001439FC5
:104DF000900D112464E670E00E9466517B01FFEF84
:104E0000EF1AFF0A9924939490EAC92E9FE0D92EB5
:104E100028ECA22EB12C15C068E273E2C8010E94F2
:104E20008623C6010197F1F764EF71E0C8010E9483
:104E3000862380EC93E0F5013197F1F70197D9F7DC
:104E40009394892D90E08E159F0530F3A0960FB6B0
:104E5000F894DEBF0FBECDBFDF91CF911F910F91B0
:104E6000FF90EF90DF90CF90BF90AF909F908F908A
:104E70007F906F9008958D982D98089508956435CA
:104E8000D8F44033C8F4E42FF0E023E0F595E7953B
:104E90002A95E1F726E0629FE00DF11D1124E80F4D
:104EA000F91F477081E090E0042E01C0880F0A943A
:104EB000EAF79081982B908308956435E0F44033AD
:104EC000D0F4E42FF0E033E0F595E7953A95E1F77B
:104ED00026E0629FE00DF11D1124E80FF91F4770D5
:104EE00081E090E0042E01C0880F0A94EAF78095D3
:104EF0009081892380830895E42FF0E053E0F595B5
:104F0000E7955A95E1F726E0629FE00DF11D112427
:104F1000E80FF91F808190E0477002C09595879552
:104F20004A95E2F7817008950F931F93CF93DF9313
:104F3000EC01162F042F0E947C27402F612F88231D
:104F400039F0CE01DF91CF911F910F910C945D2725
:104F5000CE01DF91CF911F910F910C943F27DB0180
:104F600080E019C0E03211F48E5F15C0EE3299F086
:104F70009E2F90539A3010F48D5F0DC0EB3508F0E2
:104F8000E052E15496E0E99FF0011124ED5CF24F0C
:104F9000E4918E0F8F5FED91E111E4CF08956F9250
:104FA0007F928F929F92AF92BF92CF92DF92EF92B9
:104FB000FF920F931F93CF93DF936C01862E742E75
:104FC000203209F443C02E3209F442C0822F8053AC
:104FD0008A3010F4265106C02B3508F02052215497
:104FE0002B35B0F586E0289F90011124F901ED5C86
:104FF000F24F949000E010E064E3A62E6DE0B62E30
:10500000A20EB31E1EC0F501E00FF11FE490C0E038
:10501000D0E0F12C682E680C97010C2E02C035955B
:1050200027950A94E2F720FF06C04C2F470D662D06
:10503000C6010E943F272196C530D10569F70F5F51
:105040001F4F802F0915F8F2892D03C082E001C09F
:1050500080E0DF91CF911F910F91FF90EF90DF9053
:10506000CF90BF90AF909F908F907F906F9008955A
:10507000EF92FF920F931F93CF93DF938C01F62E45
:10508000E42EE90107C04E2D6F2DC8010E94CF27E5
:10509000F80EF39429912111F6CFDF91CF911F9152
:1050A0000F91FF90EF9008957F928F929F92AF9211
:1050B000BF92CF92DF92EF92FF920F931F93CF9305
:1050C000DF935C01962E842E205286E0289F70018B
:1050D0001124C0E0D0E08BE09EE0E80EF91EF7015D
:1050E000EC0FFD1FC49000E010E0D12C7C2E790C59
:1050F000C601002E02C0959587950A94E2F780FFBD
:1051000006C0482D400F672DC5010E943F270F5F45
:105110001F4F0830110561F72196C630D105F9F609
:10512000DF91CF911F910F91FF90EF90DF90CF9083
:10513000BF90AF909F908F907F9008958F929F9295
:10514000AF92CF92DF92EF92FF921F93CF93DF93B4
:105150006C01162FA42EE9012A30310590F0243677
:10516000310510F41A5F0DC0283E83E0380710F4B3
:10517000145F07C0203187E2380710F41E5E01C0BB
:10518000185E7AE0872E912CCE01B4010E94665100
:105190007C01282F205D4A2D612FC6010E945428D2
:1051A000CE018E199F09B4010E946651EB01165081
:1051B000209751F7DF91CF911F91FF90EF90DF90F3
:1051C000CF90AF909F908F900895CF92DF92FF92F3
:1051D0000F931F93CF93DF931F92CDB7DEB78C0150
:1051E000562FF42E690108C04F2D652FC801598331
:1051F0000E94542859815A5FF60121916F012111B3
:10520000F3CF0F90DF91CF911F910F91FF90DF901F
:10521000CF9008952F923F924F925F926F927F921C
:105220008F929F92AF92BF92CF92DF92EF92FF92B6
:105230000F931F93CF93DF931F92CDB7DEB73C013F
:10524000562E342F2E3231F02B3231F02D3231F0F8
:105250002F7005C02AE003C02BE001C02CE083E0E2
:10526000289F50011124E4E0AA0CBB1CEA95E1F749
:10527000E12CF12C2EC0F601E20DF31D849000E02C
:1052800010E0912C422C450CC401002E02C09595D3
:1052900087950A94E2F780FF08C0432F400F642DE2
:1052A000C30139830E943F2739810F5F1F4F0830A8
:1052B000110551F79FEF291A390AE0E12E16310442
:1052C000D1F6385FF0E1EF0EF11C80E3E816F1044F
:1052D00051F06701CA0CDB1C212C312CE3E3F0E117
:1052E000CE0EDF1EC8CF0F90DF91CF911F910F918F
:1052F000FF90EF90DF90CF90BF90AF909F908F90F6
:105300007F906F905F904F903F902F900895CF9235
:10531000DF92FF920F931F93CF93DF931F92CDB72E
:10532000DEB78C01562FF42E690108C04F2D652F72
:10533000C80159830E940A295981505FF6012191C1
:105340006F012111F3CF0F90DF91CF911F910F913A
:10535000FF90DF90CF900895222339F0213019F08B
:105360002F3F39F404C00C943F270C945D270C9414
:1053700094270895AF92BF92CF92DF92EF92FF925F
:105380000F931F93CF93DF93EC01F62EE42E122F91
:10539000161B041BBB24B394111101C0B12CCC24E7
:1053A000C394011101C0C12C4E2D6F2DCE010E945E
:1053B0003F27101798F0D12ED694A12C0CC0D00EF8
:1053C000D11610F0D11AEC0CFB0C4E2D6F2DCE0126
:1053D0000E943F27A394A112F2CF11C0D02ED694E1
:1053E000A12CD10ED01610F0D01AFB0CEC0C4E2DC7
:1053F0006F2DCE010E943F27A394A012F2CFDF9120
:10540000CF911F910F91FF90EF90DF90CF90BF90C1
:10541000AF900895DF92EF92FF920F931F93CF9377
:10542000DF93EC01F62ED42EE22E102F042F0E94D3
:10543000BA29012F2E2D4D2D6E2DCE010E94BA2995
:105440002F2D4D2D6F2DCE010E94BA292E2D412FCB
:105450006F2DCE010E94BA29DF91CF911F910F913C
:10546000FF90EF90DF90089581E0611101C080E02E
:105470000895CF92DF92EF92FF920F931F93CF93F5
:10548000DF931F92CDB7DEB76C01E42EF62E0BC072
:10549000412F6F2DC60129830E9494271F5F298108
:1054A0000117B0F7F3942F1510F01E2DF9CF0F90C0
:1054B000DF91CF911F910F91FF90EF90DF90CF90F0
:1054C0000895CF92DF92EF92FF920F931F93CF93A5
:1054D000DF931F92CDB7DEB76C01E42EF62E0BC022
:1054E000412F6F2DC60129830E945D271F5F2981EF
:1054F0000117B0F7F3942F1510F01E2DF9CF0F9070
:10550000DF91CF911F910F91FF90EF90DF90CF909F
:1055100008954F925F926F927F928F929F92AF9277
:10552000BF92CF92DF92EF92FF920F931F93CF9390
:10553000DF931F92CDB7DEB72C01762E642E690162
:1055400082E5E81202C0EAEF07C02A303105A8F070
:105550002436310518F4E6E07E0E0FC0283EF3E055
:105560003F0710F48CE008C02031E7E23E0718F452
:10557000F2E17F0E02C088E1780E043529F105358D
:1055800021F0063409F040C1ACC030E00AE010E080
:10559000C601B8010E9466517C01282F205D462D6E
:1055A000672DC20139830E945428C6018E199F09B4
:1055B000B8010E9466516B01EAEF7E0E39813F5FB0
:1055C0006115710529F721C10CE3E02EF12CC6010C
:1055D000B7010E9466515C01C6018A199B09B70197
:1055E0000E9466514B010AE010E0C501B8010E941B
:1055F00066516C01282F205D462D672DC2010E9447
:105600005428C5018C199D09B8010E946651262FA6
:10561000205D672D6650462DC2010E945428672DDB
:105620006C502AE3462DC2010E945428C401B701E0
:105630000E9466516C01C4018C199D09B7010E943A
:1056400066515B01C601B8010E9466517C01282F9A
:10565000205D672D6251462DC2010E945428372DCE
:105660003851C6018E199F09B8010E946651262F34
:10567000611102C013E001C014E0205D462D632FCC
:10568000C2010E945428672D6E512AE3462DC201A3
:105690000E945428372D3452C5016CE370E00E94FB
:1056A00066516AE070E00E946651811116E0282F71
:1056B000205D462D632FC2010E945428672D6A5237
:1056C000062D095F87E090E0811B282F220F280F0D
:1056D000220F260F462DC2010E94612A37E0311B9E
:1056E00094C028E532E0C601B9010E9466517C01F0
:1056F000C6018E199F09B9010E9466515B010AE03B
:1057000010E0C701B8010E9466516C01282F205D8E
:10571000462D672DC2010E945428672D66502EE247
:10572000462DC2010E945428C7018C199D09B80159
:105730000E9466517B01CB01B8010E9466516C0149
:10574000282F205D672D6C50462DC2010E945428E1
:10575000372D3251C7018C199D09B8010E9466513D
:10576000262F611103C012E0D12E02C0B3E0DB2E60
:10577000205D462D632FC2010E945428672D685179
:105780002AE3462DC2010E945428372D3E51C501FF
:1057900068E572E00E9466518C016AE070E00E9448
:1057A00066517C01282F882311F0A5E0DA2E205DB8
:1057B000462D632FC2010E945428372D3452C80150
:1057C0008E199F096AE070E00E946651262F6623B9
:1057D00011F0F6E0DF2E205D462D632FC2010E94FE
:1057E0005428672D6A52062D095F87E090E08D19D5
:1057F000282F220F280F220F260F462DC2010E94AC
:10580000612A37E03D1901C030E0832F0F90DF910E
:10581000CF911F910F91FF90EF90DF90CF90BF90AD
:10582000AF909F908F907F906F905F904F90089572
:105830002F923F924F925F926F927F928F929F92A0
:10584000AF92BF92CF92DF92EF92FF920F931F938E
:10585000CF93DF9300D000D01F92CDB7DEB7282EB4
:10586000592F362EF9018491B9016E5F7F4F7D83E8
:105870006C8331962491311002C0442391F030E0C2
:10588000590193E0B594A7949A95E1F7742F412CB0
:10589000982F930D99834901840E911C682E712CC9
:1058A0005DC0843561F7203351F7222D392F66E032
:1058B00019C0FA014F5F5F4FE491D901A80FB91FDA
:1058C000EC930696883FE1E09E0799F78C819D81D5
:1058D0008C5A9F4F9D838C8361502F5F3F4F66236F
:1058E00009F445C04C815D8180E090E0E2CFF70192
:1058F0009FEFE91AF90AC49000E010E0D12C472F7D
:10590000400F242F30E082169306BCF09601002E43
:1059100002C0359527950A94E2F7652D822D952FC3
:105920005B837A8320FF05C00E943F275B817A81D9
:1059300004C00E945D277A815B810F5F1F4F083092
:105940001105E9F65394E9815E12D1CF8C819D81D6
:10595000860D971D9D838C834394785F242D30E0C2
:105960002A153B0524F4532CEC80FD80ECCF0F90DE
:105970000F900F900F900F90DF91CF911F910F918B
:10598000FF90EF90DF90CF90BF90AF909F908F905F
:105990007F906F905F904F903F902F9008955F920F
:1059A0006F927F928F929F92AF92BF92CF92DF922F
:1059B000EF92FF920F931F93CF93DF93EC01F62E9C
:1059C000042FE22ED62ED21A6D2D0E943F27B02E24
:1059D000BE184B2D6F2DCE010E943F27CE2CCF0C31
:1059E000402F6C2DCE010E943F27AE2CA00E4A2DD9
:1059F0006F2DCE010E943F2711E001C0182F5E2CB1
:105A0000511A8A2C811A712E7F0C482D672DCE01D8
:105A10000E943F276B2C610E9F2C911A462D692DF9
:105A2000CE010E943F27462D672DCE010E943F27C1
:105A3000482D692DCE010E943F27812E800E7C2C9F
:105A4000711A482D672DCE010E943F27602E611AE2
:105A50009D2C910E462D692DCE010E943F27462D8B
:105A6000672DCE010E943F27482D692DCE010E944F
:105A70003F27812F8F5F511608F6DF91CF911F913D
:105A80000F91FF90EF90DF90CF90BF90AF909F90DD
:105A90008F907F906F905F9008958F929F92AF92BA
:105AA000BF92CF92DF92EF92FF92862E912CA12C83
:105AB000B12CA0E2B0E8A50194010E944B516B010A
:105AC0007C0180E4C82284E8D82288E0E822FF2410
:105AD000A2E0B8E00E944B51607171728270992708
