:020000021000EC
:10F000004BC0000066C0000064C0000062C0000089
:10F0100060C000005EC000005CC000005AC000007C
:10F0200058C0000056C00000BEC5000052C000001D
:10F0300050C000004EC000004CC000004AC000009C
:10F0400048C0000046C0000044C0000042C00000AC
:10F0500040C000003EC000003CC000003AC00000BC
:10F0600038C0000036C0000034C0000032C00000CC
:10F0700030C000002EC000002CC000002AC00000DC
:10F0800028C0000026C0000024C0000022C00000EC
:10F0900020C000001EC0000011241FBECFEFD0E230
:10F0A000DEBFCDBF11E0A0E0B1E0E6E6FFEF01E09A
:10F0B0000BBF02C007900D92A037B107D9F711E03E
:10F0C000A0E7B1E001C01D92A239B107E1F73FD33B
:10F0D00048C796CF282F17C08091F2009091F30077
:10F0E000892B71F48091E8008B7F8093E80003C046
:10F0F0008EB3882351F08091E80082FFF9CF02C0DF
:10F100008091F1002150222339F708952091840144
:10F1100030918301809182019091810180937101EE
:10F1200090937201C90180937301909374010895C3
:10F130001F93809177018823D9F080917F018430DB
:10F1400049F480918001882339F4809181018F3FB7
:10F1500019F40EC0853061F08AE08093000183E0ED
:10F16000809376018091EB0080628093EB00E3C096
:10F1700080917F01843009F45EC0853030F48130A5
:10F1800059F0833009F0D7C022C0853009F4B4C0EB
:10F19000863009F0D0C0C3C010918001123008F051
:10F1A000CAC0B4DF112389F480917101909172017A
:10F1B000A0917501B0E023E0FC01A0935B002093D7
:10F1C0005700E89507B600FCFDCF85E008C08091A8
:10F1D0008001882311F0823029F498DF89E0809340
:10F1E0000001A9C0813009F0A6C020E030E040E075
:10F1F00050E04BBFF90187918F3F81F0CA01AA27E8
:10F20000BB278093750130937201209371018AE0CE
:10F210008093000185E0809376018DC02F5F3F4F82
:10F220004F4F5F4F203080EF380781E0480780E084
:10F230005807F9F680C080918001833051F581E054
:10F24000809370018091850190918601892B71F0E6
:10F2500080918101813009F06EC08091840190918C
:10F260008301909379018093780165C08091810139
:10F27000882361F42CE088E190E00FB6F894A8951B
:10F28000809360000FBE2093600055C01092010172
:10F2900052C0882309F04FC0809181018F3F09F04F
:10F2A0004AC080E090E0A0E0B0E033E025E0FC015F
:10F2B000A0935B0030935700E89507B600FCFDCFA4
:10F2C000FC01A0935B0020935700E89507B600FC73
:10F2D000FDCF80509F4FAF4FBF4F803040EF94071E
:10F2E00041E0A40740E0B40711F781E180935700A3
:10F2F000E895109277011FC0E09181018091800113
:10F30000882321F4F0E0EB5FFE4F05C0813099F4D3
:10F31000F0E0EE52FF4F8081809387010CC0809116
:10F320008001833041F480918101882321F4809110
:10F330008201809375011F9108958F929F92AF92E1
:10F34000BF92CF92DF92EF92FF920F931F93CF93D2
:10F35000DF9380918A018F77813209F0E5C1C091F6
:10F360009001D0919101D0938601C0938501809145
:10F370008B01833009F4A2C1843030F4813071F004
:10F38000823009F0D1C106C1853009F4B5C185309C
:10F3900008F4AAC1863009F0C7C1BDC18091E80058
:10F3A000877F8093E80080917001882319F0C0DE88
:10F3B00010927001209729F42DC08EB3882309F490
:10F3C000B3C18091E80082FFF8CF8091F100809373
:10F3D0007F019E01215030403093860120938501AA
:10F3E000E0E8F1E00CC08091F100819321503040C1
:10F3F00081E0E538F80719F4318320830AC0809151
:10F40000F2009091F300892B71F7309386012093DD
:10F4100085018EDE80910001853009F0B7C08091B2
:10F42000850190918601892B21F482E0809300016F
:10F43000ADC08AE14FDEC0917101D09172019E0191
:10F440002F71822F47DEA0907301B0907401089451
:10F45000A11CB11C85010C1B1D0B0894A108B1084F
:10F4600080918001882309F08CC06801D694C794EC
:10F47000CE01A0917501B0E07C018D01A80197013A
:10F48000A0E08824839465E0962EB3E047C0809185
:10F49000F2009091F300892B71F48091E8008B7F4A
:10F4A0008093E80004C08EB3882309F43DC18091A5
:10F4B000E80082FFF8CF0894C108D1088091F100DC
:10F4C000682F8091F100782F0B01F90140935B00C8
:10F4D00080925700E8951124AF5F2E5F3F4F4F4F4A
:10F4E0005F4FA03819F0C114D104C1F4F7010093A3
:10F4F0005B0090925700E89507B600FCFDCFC11461
:10F50000D10461F0F90140935B00B0935700E89596
:10F5100007B600FCFDCF79018A01A0E0C114D10437
:10F5200009F0B5CFB0927201A092710181E1809390
:10F530005700E89529C08091F2009091F300892B43
:10F5400071F48091E8008B7F8093E80004C08EB353
:10F55000882309F4E9C08091E80082FFF8CF609128
:10F56000F1008091710190917201EDD4809171014F
:10F5700090917201019690937201809371010150F4
:10F58000104001151105B9F680E1A4DD8091E80075
:10F590008B7FBEC08091E800877F8093E80004C025
:10F5A0008EB3882309F4C0C08091E80080FFF8CFB3
:10F5B00080910001893091F08A3069F48091800156
:10F5C000813049F480917101909172018093F10032
:10F5D0009093F1009AC08091870195C0609173016A
:10F5E0007091740120917101309172016F5F7F4FB2
:10F5F000EB01C21BD30B61507040809180018823C6
:10F6000089F5D695C795C901A0917501B0E09C0117
:10F61000AD0121C08091F2009091F300809771F4C8
:10F620008091E8008E7F8093E80004C08EB3882329
:10F6300009F47AC08091E80080FFF8CF4BBFF90150
:10F64000879196918093F1009093F10021972E5F1E
:10F650003F4F4F4F5F4F2097E9F6709372016093D1
:10F66000710128C0823031F523C08091F200909161
:10F67000F300809771F48091E8008E7F8093E8001A
:10F6800004C08EB3882309F44FC08091E80080FF46
:10F69000F8CF0091710110917201C8014CD4809390
:10F6A000F1000F5F1F4F10937201009371012197BA
:10F6B0002097D9F682E08093000127C08091E8006E
:10F6C000877F8093E800809176018093F10010920B
:10F6D000F1001092F1001092F100809100018093EE
:10F6E000F1001092F10011C08091E800877F8093B3
:10F6F000E8001092760117C08091E800877F809320
:10F70000E800809100018093F1008091E8008E7FF5
:10F710008093E80008C08091E800877F8093E8002C
:10F7200082E080930001AED1DF91CF911F910F91C4
:10F73000FF90EF90DF90CF90BF90AF909F908F9011
:10F7400008957298BED181E085BF15BE0895CF920D
:10F75000DF92EF92FF920F931F93CF93DF9310925C
:10F76000770191E0909301011092700182E0809303
:10F77000000110927601729B03C090937A0102C03F
:10F7800010927A013B9A4398849A8C9884B7877F29
:10F7900084BF88E10FB6F8948093600010926000F7
:10F7A0000FBE80E090E020E80FB6F894209361004F
:10F7B000809361000FBE6F9A7798269A2E9A6C9864
:10F7C000749A6A98729A81E085BF82E085BFD5D12C
:10F7D000629B05C080917A01882309F4B8C02E98F5
:10F7E00080ED97E028EC30E0F9013197F1F70197CF
:10F7F000D9F72E9A84EF91E028EC30E0F9013197A7
:10F80000F1F70197D9F72E9884EF91E028EC30E0DA
:10F81000F9013197F1F70197D9F72E9A84EF91E02A
:10F8200028EC30E0F9013197F1F70197D9F72E98DC
:10F830007894F0EDEF2EF7E0FF2ECC24C39408E18E
:10F8400010E0ECE0DE2EC8ECD0E077C06BD3809106
:10F850007B0190917C01019690937C0180937B01C8
:10F860008155934C08F469C010927C0110927B0181
:10F870002E9B02C02E9801C02E9A649B03C010924A
:10F880007D0105C080917D018F5F80937D010F9880
:10F89000179AC7010197F1F720B11798C70101978F
:10F8A000F1F707990CC027FF0AC080917D018823DA
:10F8B00031F480917E018F5F80937E0102C01092AF
:10F8C0007E0180917E01853130F13BDF439A88E8EB
:10F8D00093E1FE013197F1F70197D9F788E893E1B9
:10F8E000FE013197F1F70197D9F788E893E1FE011E
:10F8F0003197F1F70197D9F788E893E1FE01319745
:10F90000F1F70197D9F70FB6F894A8950093600026
:10F910000FBED092600080917D018B3070F0C0925C
:10F920007001109201010FB6F894A8950093600041
:10F930000FBED092600010927D018091010188235A
:10F9400009F084CF80917001882309F07FCFF9DE20
:10F95000E0917801F091790109959B01AC0107B61E
:10F9600000FCFDCFF999FECF83E0F90140935B00E5
:10F9700080935700E89581E180935700E8950895BA
:10F980009B01AC0107B600FCFDCFF999FECF85E0E5
:10F99000F90140935B0080935700E89581E18093E3
:10F9A0005700E89508950F931F938B019C0107B6AC
:10F9B00000FCFDCFF999FECF81E00A01F801209308
:10F9C0005B0080935700E89511241F910F910895D3
:10F9D00021E2FC01209357002491822F089529E011
:10F9E000FC01209357002491822F0895E1E0F0E07C
:10F9F00089E08093570084910895982F07B600FC02
:10FA0000FDCFF999FECF909589E0E1E0F0E0092E75
:10FA100080935700E8950895FA01923071F0933081
:10FA200089F0913029F488E091E022E130E015C0BE
:10FA300080E090E020E030E010C08AE191E02BE12E
:10FA400030E00BC0882329F485E391E024E030E026
:10FA500004C089E391E024E330E091838083C9010D
:10FA600008958091EB0081608093EB001092ED008F
:10FA70006093EC004093ED008091EE00881F882792
:10FA8000881F089580918A0188238CF403C08EB367
:10FA90008823B1F08091E80082FFF9CF8091E800DF
:10FAA0008B7F8093E80008958EB3882349F080917E
:10FAB000E80080FFF9CF8091E8008E7F8093E80016
:10FAC000089564D06BD0E0EEF0E0808181608083A7
:10FAD000A8EDB0E08C918F778C9319BCE7EDF0E046
:10FAE00080818E7F80838C918F7E8C931092890190
:10FAF0000895EF92FF920F931F9348D04FD008EDD7
:10FB000010E0F80180818F77808380818068808316
:10FB100080818F7D8083E7EDF0E080818068808345
:10FB200019BC1EBA1092880180EEE82EF12CF70164
:10FB300080818B7F8083F80180818160808380E079
:10FB400060E042E28EDFE1EEF0E080818E7F808334
:10FB5000E2EEF0E080818160808380818860808334
:10FB6000F70180818E7F8083F801808180618083AE
:10FB70001F910F91FF90EF900895E7EDF0E08081E5
:10FB80008160808381E080938901B3CFE8EDF0E06C
:10FB900080818C7F80831092E20008951092DA00B9
:10FBA0001092E10008951F920F920FB60F920BB6BC
:10FBB0000F9211242F933F934F935F936F937F93F3
:10FBC0008F939F93AF93BF93EF93FF938091DA004E
:10FBD00080FF1BC08091D80080FF17C08091DA00A1
:10FBE0008E7F8093DA008091D90080FF0BC08CE07B
:10FBF00089BD8EE089BD09B400FEFDCF81E08EBBDA
:10FC000090D103C019BC1EBA8CD18091E10080FF55
:10FC100017C08091E20080FF13C08091E2008E7FC8
:10FC20008093E2008091E20080618093E200809105
:10FC3000D80080628093D80019BC85E08EBB71D15A
:10FC40008091E10084FF2CC08091E20084FF28C0F5
:10FC50008CE089BD8EE089BD09B400FEFDCF8091A6
:10FC6000D8008F7D8093D8008091E1008F7E8093B3
:10FC7000E1008091E2008F7E8093E2008091E200BB
:10FC800081608093E20080918801882331F4809123
:10FC9000E30087FD02C081E001C084E08EBB41D15A
:10FCA0008091E10083FF21C08091E20083FF1DC0AD
:10FCB0008091E100877F8093E10082E08EBB10920B
:10FCC00088018091E1008E7F8093E1008091E200C5
:10FCD0008E7F8093E2008091E20080618093E20059
:10FCE00080E060E042E2BDDE1CD1FF91EF91BF9168
:10FCF000AF919F918F917F916F915F914F913F91C4
:10FD00002F910F900BBE0F900FBE0F901F90189564
:10FD10009C0140919001509191014617570718F4AA
:10FD2000F90190E03CC06115710511F0AB01F8CF0D
:10FD30008091E8008E7F8093E80040E050E0F0CFB3
:10FD40008EB38823E9F18530E9F18091E80083FFE3
:10FD500002C081E008958091E80082FD2BC080916F
:10FD6000E80080FF1CC02091F2003091F30007C032
:10FD700081918093F100415050402F5F3F4F4115DA
:10FD8000510519F02032310598F390E02032310509
:10FD900009F491E08091E8008E7F8093E80041159E
:10FDA000510571F6992361F605C08EB3882341F0A1
:10FDB000853041F08091E80082FFF7CF80E0089520
:10FDC00082E0089583E008950F931F93DF93CF930C
:10FDD00000D0CDB7DEB7EAE8F1E08091F100819381
:10FDE00081E0E239F807C9F7A8DA8091E80083FFDB
:10FDF00083C090918A0180918B01863081F1873098
:10FE000020F4853009F078C007C0883009F447C075
:10FE1000893009F071C055C0992309F06DC0109167
:10FE20008C011F770FB7F8948091E800877F80934B
:10FE3000E80028DE8091E80080FFFCCF8091E3009D
:10FE40008078812B8093E30080688093E300112306
:10FE500011F482E001C083E08EBB0FBF4DC090580B
:10FE6000923008F049C080918C0190918D01609191
:10FE70008E01AE014F5F5F4FCFDDBC01009709F4EB
:10FE80003BC08091E800877F8093E80089819A8158
:10FE90003FDF8091E8008B7F8093E8002DC0903891
:10FEA00059F58091E800877F8093E8008091880170
:10FEB0008093F1008091E8008E7F8093E800E2DD7E
:10FEC0001BC09923C9F490918C019230A8F48091C1
:10FED000E800877F8093E80090938801D3DD8091CC
:10FEE0008801882331F48091E30087FD02C081E01E
:10FEF00001C084E08EBB15D08091E80083FF0AC06A
:10FF00008091EB0080628093EB008091E800877F16
:10FF10008093E8000F900F90CF91DF911F910F9188
:10FF2000089508958EB3882329F08091E80083FF17
:10FF300001C04ACF0895F999FECF92BD81BDF89ACC
:10FF4000992780B50895262FF999FECF1FBA92BD43
:10FF500081BD20BD0FB6F894FA9AF99A0FBE0196AA
:06FF60000895F894FFCFA4
:10FF660002011E978220DCFB120110010000002016
:10FF7600EB03FB2F00000001000109021B00010139
:10FF86000080320904000000FE010200092103007E
:10FF960000000C0001040309043403540069006DD9
:10FFA6000065006C0061007000730065002B002086
:10FFB60000440046005500200042006F006F0074A8
:10FFC600006C006F006100640065007200000000B4
:10FFE000BCCCCECCE0CCF4CCFACC00CD06CD00001D
:10FFF0000000000000000000000000000000FBDC2A
:040000031000F000F9
:00000001FF
